:020000040800F2
:100000000000012015820408B18204083D90010817
:10001000818E0108B1820408B1820408000000004A
:10002000000000000000000000000000B182040891
:10003000B182040800000000B18204086D6F01085D
:10004000B1820408B1820408B1820408B1820408B4
:10005000B1820408B1820408019C0008099C0008D0
:10006000119C0008199C0008219C0008219A000896
:10007000319A0008419A0008519A0008659A0008D0
:10008000799A00088D9A0008B1820408B1820408A8
:10009000B1820408B1820408B1820408299C0008D6
:1000A00005C50008F1C3000815C50008E1C3000834
:1000B00019C4000829C4000839C40008DD950008E7
:1000C000D19500081196000805960008B182040831
:1000D000B1820408B96E0108C56E0108D16E01082D
:1000E000319C0008B1820408B182040825C50008CB
:1000F000DDC40008B1820408CDC40008A19A00083C
:10010000B1820408B182040849C40008B18204081D
:10011000DD6E0108E96E010859C40008613B04085E
:10012000B59A0008C99A0008DD9A0008F19A0008FB
:10013000059B000800000000000000000000000017
:100140000000000000000000000000001D40040846
:10015000199B00082D9B0008419B0008F56E0108C3
:100160004596000839960008B1820408B182040857
:10017000B1820408B1820408000000000000000001
:10018000B1820408B1820408B1820408B182040873
:10019000B1820408B182040800000000B1820408A2
:1001A000000000000000000000000000B182040810
:1001B000B1820408B18204080000000000000000C1
:1001C000000000000000000000000000000000002F
:1001D000000000000000000000000000B1820408E0
:10800000084A0346D0F8E4005268D3F8F010121A78
:1080100000209142B8BFC3F8F020012283F81C2150
:10802000704700BF001000E01B4B1C4A03F5727C38
:10803000016803E063452BD053F82C2F9142F9D10E
:1080400070B593F804E0427996450AD0634505D0AF
:1080500053F82C2F9142F4D06345F9D14FF0FF3003
:1080600070BD9E4684680022DEF80C50A54208D000
:1080700001320EF10C0E032AE8D0DEF80C50A542B6
:10808000F6D1DEF81050C668B542F1D150B270BDDD
:108090004FF0FF30704700BF609C040800000140B3
:1080A0004368426D30B49A61EFF31182502383F339
:1080B00012884168D2B2856C0B68046D23EA05030F
:1080C00023430B6082F31188436981681A68096849
:1080D00022F00102D0E908541A60826A1D605C61D6
:1080E0005A60D0E90B429C60DA600023B0F86C2043
:1080F00030BCCA620377704730B5FAB18E464FEA9A
:10810000014C034600F1C005002419680C3353F8F4
:10811000042C43F8084C41EA0C0142EA0E02AB423F
:1081200043F80C1C43F8042CEFD1D0F8C03043EADC
:108130000E03C0E93144C0F8C03030BD4FEA014EF3
:108140008C46DEE783695969B3F810C00A6830B419
:108150009C6822F0010224680A60E26822EA0C02AC
:10816000E260027D04681F2A06D9203A082065686B
:108170009040284242D0FEE70820256890402842DF
:10818000F9D1202000FA02F2A260254A1278002AD2
:1081900032D01A7F012A36D0D3F800210132C3F839
:1081A0000021EFF31181502282F312885868C9B27E
:1081B0009D6C0268DC6C22EA05022243026081F3B6
:1081C00011885A699968D3E90D40096814605061B3
:1081D000D3E90F40546090605C6CB3F8B400D46095
:1081E0000124C8621068204310601A8A1C7783F843
:1081F000FD40CB681343CB6030BC7047202000FAB1
:1082000002F2E260C1E70022D3F8040183F8FD2006
:1082100001300A68C3F8040122F001020A60EBE7AA
:108220004C00002010B40C4C6368002B11DD0020C2
:1082300004F1080C0146DCF8AC3003F1C0025960CF
:108240000C339342FBD1013063680CF5867C83428A
:10825000F1DC5DF8044B70474C000020704700BF14
:10826000024B03EB401090F8550470474C0000207F
:10827000704700BF0B4890F86C1589B101EB4101C4
:10828000002300F27450490010B41C4650F823201B
:10829000063302B114608B42F8D15DF8044B70478D
:1082A000704700BF4C0000200B4890F86C1589B156
:1082B00001EB4101002300F27450490010B41C4648
:1082C00050F82320063302B114609942F8D15DF8CA
:1082D000044B7047704700BF4C00002001207047DE
:1082E000034B00EB400003EBC00090F8850570479E
:1082F0004C000020204890F86C35002B3AD000222A
:1083000000F274534FF02C0C2DE9F0434FF0500E57
:108310001A4E1B4D144607E053F8181B01320C602F
:1083200090F86C15914223DD197C0029F4D05F6828
:108330004FF0FE08B90AA1F580115229294498BFCF
:1083400091F8F483EFF311818EF31288D7F824901B
:108350000CFB0868C9B209F10109C8F82890D7F8E0
:10836000148048F00108C7F8148081F31188D3E71E
:10837000BDE8F083704700BF4C000020301501209D
:10838000609C040807EE900AB8EE670A704700BFC9
:10839000BCEEC00A10EE103A98B2704708B51D2026
:1083A0000EF0E2FB08B183794BB11E200EF0DCFB2E
:1083B00008B1837903B108BD5523C38008BD552397
:1083C000C380F2E72DE9F0410022794B846982B045
:1083D000D3F894620192082204F19C07D4E93D830A
:1083E0009A40D8F80050154205D0D4F89C1008687F
:1083F000400700F1B08001229A40154205D0D4F820
:108400009C104969080600F19D8004229A4015429B
:1084100005D0D4F89C100968890700F18A801022E1
:108420009A40154204D0D4F89C10086800076AD41A
:1084300020229A40154218D0D4F89C100868C00633
:1084400013D5C8F8082094F8D120052A39D00B6834
:1084500013F4802F0B6800F09280190340F19D8087
:10846000D4F8D8300BB138469847D4F8F030002B08
:1084700046D0D4F8F030DA071BD54E4BD4F89C2008
:10848000A3FB0636052384F8D130B60A136823F01F
:108490000103136002E01368DB0704D5019B01337D
:1084A0009E420193F7D20022012384F8D02084F861
:1084B000D130D4F8E8301BB3384602B0BDE8F04103
:1084C00018470A6822F016020A604A6922F0800200
:1084D0004A61D4F8DC20002A65D00A6822F008023C
:1084E0000A603F22002102FA03F30122C8F8083093
:1084F000D4F8EC3084F8D01084F8D120002BDBD1F4
:1085000002B0BDE8F081C8F808200A6812F4802F94
:108510000A682DD1D20503D40A6822F008020A6045
:10852000D4F8DC20002A83D038469047D4F8F830BD
:108530007EE7C8F80820D4F8F02042F00402C4F81E
:10854000F0206CE7C8F80820D4F8F02042F00202CE
:10855000C4F8F02059E7086820F004000860C8F863
:108560000820D4F8F02042F00102C4F8F02042E7DD
:108570001103D5D5D4F8E420002AD5D158E713F457
:1085800080737FF46DAF0A6822F010020A60012246
:1085900084F8D03084F8D12062E7D4F8E030002BA2
:1085A0007FF461AF61E7D4F8E420002A95D198E721
:1085B00030150120B5814E1BB4224FF4A57C4FF439
:1085C000EB71002382801822A0F802C04FF4E17CF6
:1085D00002814FF48772C180962182814422037008
:1085E000A0F80AC0C181438202827047012143F290
:1085F0000102002343F2011C01724FF60171028057
:10860000FF22A0F804C043818381C3810182827468
:10861000704700BFFF22174B4FF0FF3CC270027142
:1086200002724272427382738274C2740022F0B585
:1086300003F10C076646172516244FF0150E02EBC2
:108640008202BB4200EB020100F802E04C708D7028
:10865000CE7081F804C00BD093F90620063393F84E
:1086600001E09C78DD7893F9046093F905C0E6E7B2
:10867000F0BD00BFA8A004084FF0000C01210222A9
:10868000032380F805C08171C2710372704700BF77
:1086900040F22E4C4FF4F07100230722A0F81EC0C8
:1086A0004FF4FA6C01804FF47A714371A0F820C046
:1086B00040F2262C41844FF4F5618371438240F2ED
:1086C0000123A0F81CC043F6381C818442F220111B
:1086D000838240F20343A0F808C04FF00E0C4181A2
:1086E0000221C38240F20563827080F826C0417483
:1086F00082760383704700BF00230370437083704A
:10870000C37070470023037043708370C370704759
:1087100000220123027042708270C27003714371A3
:108720008371C371704700BFFF2303704370837070
:10873000C3707047002306214FF47A7201700373EF
:10874000C0E90123704700BF00230372704700BFD8
:1087500000230370704700BF0023FF22411C10B5A7
:1087600000F8132001F8132001330B2BF8D10B4B29
:108770004FF0FF31002203F10F048C4605E093F91E
:1087800004C093F9051013F8032F00EB420E9C422E
:1087900000F812C08EF80110F1D110BDBCA0040881
:1087A00001214FF01F0C002302224170017138217A
:1087B00080F800C04FF0180C8171202180F803C0B0
:1087C0004FF0390C0173212183704371C271037220
:1087D00080F809C08272C37242738373C1730274DA
:1087E0004374704703230370704700BF704700BF96
:1087F0002DE9F047089F002B0E4605463C4614BF66
:108800004FF030094FF0200914F8011B41B3002A42
:108810002CDD234600E0B2B113F8010B9046013A7B
:108820000028F8D1A8F102086AB1C2464946284694
:10883000B04753460AF1FF3A002BF7DC28EAE8720A
:108840003978013249B1D71B2846B047E01914F8EE
:10885000011B0029F8D1BDE8F0871046BDE8F0877C
:10886000002A02F1FF38E0DC0846F4E70022EAE7DC
:1088700003685A1C02601970704700BF024BD3F89E
:10888000980203681B68184730150120134BD0F875
:10889000D8105B68D0F8E02010B50446581A824220
:1088A00000DC22B9D4F8E4200A44C4F8DC2094F8AF
:1088B000D020C4F8D830012A05D0D4F8D430013300
:1088C000C4F8D43010BD04F1E801201D0DF096FD70
:1088D000D4F8D4300133C4F8D43010BD001000E017
:1088E0008369F0B593F8DC208BB00546012A27D0C8
:1088F000023A012A2FD893F84C21EC46D3F89C1069
:1089000062F07F03154C0B708669D6F8A0305F1CAF
:108910000FCCACE80F00D6F89C30CDE900370FCC77
:10892000ACE80F0094E803008CE80300694606F108
:1089300010000DF063FDAB6919690A6A002AFCD1C9
:10894000D3F8A0305A8852BAEA819A8852BA2A8259
:10895000DB885BBA6B8201200BB0F0BDD0A00408AD
:10896000F0B590F8DC308BB00446D0F8A060012B55
:108970004BD015D8D0F89C304FF0FF3205211A604B
:108980005A609A60DA60D0F8E030C0F8F010B3F5C1
:108990007A7F54D8032380F8DC3001200BB0F0BD7F
:1089A000023B012BF9D890F84D31EC46D0F89C20D1
:1089B00063F07F03384D1370D0F8A0305F1C0FCDEB
:1089C000ACE80F00D4F89C30CDE900370FCDACE80F
:1089D0000F0095E803008CE80300694604F11000DD
:1089E0000DF00CFD2269136A002BFCD17388012065
:1089F0005BBAA4F8D030B3885BBAA4F8D230F3885D
:108A00005BBAA4F8D4300BB0F0BD90F84C2190F8CC
:108A10004D319B1A5B100133DBB236F8132006EBA5
:108A2000430653BAA0F8D03073885BBAA0F8D230AE
:108A3000B3885BBAA0F8D43001200BB0F0BD036955
:108A40001A7B2AB35B691BB390F8983003B390F894
:108A50004C310122D0F89C0063F07F03C4F8A4409D
:108A60000E49037094F84D3194F84C0184F80021BC
:108A70001B1A84F8DC20D4F8A0200733C4F80411B2
:108A80000132D4F89C10C4E93E23C4F8F41084E702
:108A9000022384F8DC3080E7D0A0040801800008BD
:108AA000114A00234FF0280C0360838030B54FF447
:108AB00048744FF0290E02F10C0503EB4303AA4260
:108AC00000EB430100F813C081F801E0D3788C80FB
:108AD0008B7008D092F90630063292F801C092F8F5
:108AE00002E09488E9E730BDF8A00408092917D00E
:108AF000B1FA81F35B0999B1013903604B0001F0D0
:108B0000030103F00802C1EB01119300C1EB011155
:108B1000A3EB92038900C3EB031381809B00438086
:108B2000704700BF84B04FF461724FF4007C0023A3
:108B3000ADF8042043F201420199A0F800C04FF4BF
:108B4000057CADF80C1042800122BDF80C1000939A
:108B50008360A0F806C08181C28104B0704700BF65
:108B60002DE9F041304F07EB401898F854340BB919
:108B7000BDE8F08100EB80030E460021044607EBC0
:108B80004313450193F8362683F8361688F83A24BD
:108B900041F00AF8B8BB3D442448A5F8386400EB1E
:108BA000441041F045F83B78D5F85024A3B1D5F8EE
:108BB0003C140124D2F8AC308C4003F1C0014200D7
:108BC00010F4004F90B202D15A6822435A600C331D
:108BD0009942F4D1BDE8F081D5F83C140124D2F8D3
:108BE000AC3001F1100203F1C0019440420010F4D6
:108BF000004F90B202D15A6822435A600C33994216
:108C0000F4D1BDE8F0810A4B93F8142302EB420241
:108C100003EBC203234493F8C162002EBBD00123AF
:108C200088F83A34B7E700BF4C00002084040020E5
:108C3000301501202DE9F84F374D2B7813B901205D
:108C4000BDE8F88F354F05F5876A05F63436002400
:108C5000D7F818B34FF6FE794FF6FF7815E0B0F568
:108C6000606F4AD0B081B0EB08012D4B4FF05C0033
:108C70005A4618BF012100FB04300DF0D9F9013428
:108C80000AF1200A1436082C31D0D5F81C2FA24244
:108C90002DDDDAF81800DAF80420D0E93D0140F0C3
:108CA00097FF484597F89D2214D0542A04D1B7F86D
:108CB000A0220132A7F8A022D5F83C2B404502F1B2
:108CC0000102C5F83C2BCAD1D5F8382B0132C5F8C2
:108CD000382BC8E7542AD2D1B7F8A22201340AF1BE
:108CE000200A14360132082CA7F8A222CDD1012384
:108CF000012085F8383CBDE8F88F97F8142302EB83
:108D0000420207EBC202224492F8C1220D2AA9D1E5
:108D10008022B277A7E700BF4C0000203015012069
:108D2000880C00208388C3F30B039342A8BF13462B
:108D300070B51D460C461A460646806840F0AAFDEE
:108D40006219084B9442B56908D0074814F8011B12
:108D500000FB03F3A24283EA0103F7D101202B6059
:108D600070BD00BFC59D1C81930100012DE9F0413C
:108D70004FF425728EB00021664840F0B3FD664B7B
:108D8000664E4FF080415A6C06F68805374642F031
:108D90000102DFF8908106F66C045A645A6C02F006
:108DA00001020092009A1A6C42F001021A641A6CD5
:108DB00002F001020192019A1A6C42F002021A6456
:108DC0001A6C02F002020292029A1A6C42F0040239
:108DD0001A641A6C02F004020392039A1A6C42F0AD
:108DE00008021A641A6C02F008020492049A1A6CBF
:108DF00042F010021A641A6C02F010020592059AF1
:108E00001A6C42F020021A641A6C02F020020692D8
:108E1000069A5A6C42F002025A645A6C02F002023C
:108E20000792079A5A6C42F480325A645A6C02F4E0
:108E300080320892089A5A6C42F400325A645A6C92
:108E400002F400320992099A5A6C42F480225A6460
:108E50005A6C02F480220A920A9A1A6C42F040027A
:108E60001A641A6C02F040020B920B9A1A6C42F0D0
:108E700080021A641A6C02F080020C920C9A1A6C2E
:108E800042F480721A641B6C03F480730D930D9B83
:108E90004246002301E054F8332091420BD00133C5
:108EA0000E2BF8D11C3700203AF0FEF8AF420CD060
:108EB00057F81C1CECE71A4A1C3702EBC30393F863
:108EC000B80D3AF0F1F8AF42F2D14FF08041154FB2
:108ED000154C3A46002301E054F8332091420BD060
:108EE00001330E2BF8D11C3600203AF0DDF8AE42EB
:108EF0000CD056F81C1CECE7094A1C3602EBC303E5
:108F000093F8B80D3AF0D0F8AE42F2D10EB0BDE809
:108F1000F08100BF3015012000380240A8A10408EC
:108F2000609C04080000014014AA04082DE9F843DD
:108F30000EF080F92F4E4FF0000C0746DFF8BC8092
:108F40002D4C716800294ADD00234FF486701D46C0
:108F500000FB0362013392F80521994245EA0205BC
:108F6000F6D145EA0C0C5FFA8CF9D8F80430C3F35B
:108F700008038BBBEFF3118373BB4FF0E02CD4F8E5
:108F80001833DCF81810D4F818239342F7D1D4F82A
:108F90001C239142F3D8D4F820C34FF47A7202FB19
:108FA0000CF0401AB0FBFCF002FB0300C31BB3F54E
:108FB000FA6FCCBF4FF0000C05F0010CBCF1000FB4
:108FC000BFD1B9F1000F04D00B4B93F89D22542A66
:108FD00008D04846BDE8F8830DF0EEFFE6E7E1462D
:108FE0000025C2E7B3F8A42248460132A3F8A42220
:108FF000BDE8F8834C0000203015012000ED00E0B2
:1090000010B504463FF082FE0146204689B2BDE815
:109010001040A5E538B50B4D00EB400005F2745348
:10902000C40003EBC0032C4493ED027AD3ED037A22
:10903000E7EE007AB0EE670A3FF068FED4F87435C8
:10904000186038BD4C0000202DE9F04140F0B4FD1F
:1090500080B31B4F7D68002D12DD3846002410F8C8
:10906000086BA046013416B1037F012B1DD0426965
:10907000AC4200F58670136843F001031360F1D130
:109080000EF0D8F8D7F8204F002C0CDD0D4B03EB79
:10909000C4041968083333F8042CC8689C4242EAB7
:1090A0000002CA60F5D1BDE8F08180F8FC80FEF7CF
:1090B000F7FFDCE739F0B2F90028CAD1BDE8F0814A
:1090C0004C000020700F00200C4AF8B51368556959
:1090D0002B4003EA000555617DB1094F0126B5FA21
:1090E00085F4C4F11F0407EB840306FA04F4D3F8F3
:1090F000280303689847A543F1D1F8BD003C01401F
:10910000301501200269C3682DE9F04712EA03090E
:109110002AD005460E464FF000474FF00008B9FA36
:1091200089F327FA03F21B3BD24309EA02092A61B9
:10913000042B16D8DFE803F03B30251A0300B36A8E
:10914000002B3FD003F1FF3AC6F828801FFA8AFAB5
:10915000746A34B123682046514698476468002CED
:10916000F8D1B9F1000FDAD1BDE8F08770680028B6
:10917000F7D0696B036889B29847B9F1000FCED177
:10918000F2E7B0680028ECD0A96B036889B2984771
:10919000B9F1000FC3D1E7E7F0680028E1D0E96B2F
:1091A000036889B29847B9F1000FB8D1DCE730699C
:1091B0000028D6D0296C036889B29847B9F1000F0E
:1091C000ADD1D1E7E96A1FFA81FAC1E7830AA3F5B5
:1091D0008013522B52D8F0B504466A4885B0034438
:1091E00093F8F4030D2847D8674D860105EB8013EB
:1091F000D3F86873A7423FD00139C3F8684389B2F6
:10920000C3F87413D5F89412B1FBF2F2013AC3F823
:109210006C230022C3F87823C3F87023C3F87C239F
:1092200093F8A52302F0FF014AB358490223AF196E
:1092300001EB8011204687F8A533043135F00AFC94
:10924000012387F8A533524B9C421BD0B4F1804FC9
:1092500018D0A3F57C439C4275D003F580639C42F3
:1092600071D04C4A03F57C439C4218BF944249D0CC
:1092700003F570539C4245D005B0F0BD704783F8AC
:10928000A413D2E700234FF48051AA19CDE90013AB
:1092900092F8A4130129CDE90233EDD00221D2F8CE
:1092A0006803012482F8A5133B498768394081602F
:1092B00082F8A54382F8A4330023AA19CDE900332C
:1092C000029392F8A433012BD6D0D2F8683302214E
:1092D0002F4882F8A51383425A6899684ED000F54A
:1092E000806083424AD022F0700221F08001354430
:1092F00001205A609960002385F8A50385F8A433FE
:1093000005B0F0BD00214FF48053CDE90031AB1919
:1093100093F8A423012ACDE90211ADD0D3F8680354
:10932000022283F8A5231C4A87683A4082601B4AC0
:1093300083F8A4130121944283F8A513BCD0154BE4
:109340009C4299D1B8E700224FF48051AB19CDE986
:10935000001293F8A4130129CDE902228CD0022136
:10936000D3F86803012483F8A5130B4987683940B3
:10937000816083F8A54383F8A4239DE722F470025B
:10938000B1E700BF609C0408301501209818012047
:1093900000000140000C00408800FEFF0004014076
:1093A000144B1522144910B5044618681B79206225
:1093B00004F1250084F8243040F0C4FB0F4B4FF03B
:1093C000010E93F8282784F83AE012B984F83B207C
:1093D00010BD03F22C7CBCE80F0020606160A2602D
:1093E000E360BCE80F0084F83BE020616161A261AA
:1093F000E36110BD0C0C0508140C050830150120A4
:109400002DE9F84338220021064640F06BFA01238B
:109410000922174C4525B373412186F8213041F6C6
:109420001E63DFF86090671EF384124B09F1080891
:109430003272B362104B114A336103F1C87303F205
:10944000B63373610E4BC6E90623484640F051FB24
:10945000631E294628B1DA1B4045A0EB090338BF3B
:10946000F25415B114F8015FEFE7BDE8F88300BFCF
:10947000290C05081E7D01016400DC050019750337
:1094800043080E00640C050830B490F8443000F135
:109490000801484A012BC2F84C176ED08368464930
:1094A000DC68464D24F46004AB42DC60DC6844F4C4
:1094B0006004DC609C6B24F440149C639C6B44F45B
:1094C00080149C639C6B24F4F8449C639C6B44F470
:1094D00088449C639C6824F470249C609C689C6015
:1094E0009C6824F440149C609C689C605C6824F434
:1094F00080645C605C6824F480545C605C6901EAB0
:10950000040159615969596147D0DC682A4924F03E
:10951000E064DC60DC6844F0E064DC609C6B24F4B4
:1095200040149C639C6B44F480149C639C6B24F4F7
:1095300078249C639C6B44F410249C639C6824F402
:1095400070249C609C689C609C6824F440149C601F
:109550009C689C605C6824F480645C605C6824F4B3
:1095600080545C609C692140144C9961A3429969C4
:10957000996118D0002380F844301148114B848D34
:10958000C18D408D091BC2F85447C2F8500793FBA8
:10959000F1F330BCC2F8583770470B4C616841F4A6
:1095A00000016160B1E708494B6843F400034B6078
:1095B000E0E700BF3015012000F0FFFF0020014070
:1095C000007AF01F8038010000230140704700BF7F
:1095D000014834F015BF00BFA01C0120084810B49A
:1095E000D0F87037D0F8A44799691A682CB123468F
:1095F00000F5EE605DF8044B18475DF8044B7047CA
:1096000030150120014834F0FBBE00BF001D0120D1
:10961000084810B4D0F8D037D0F8044899691A68CF
:109620002CB1234600F5FA605DF8044B18475DF84D
:10963000044B704730150120014834F0E1BE00BFF3
:10964000601D0120084810B4D0F83038D0F86448C4
:1096500099691A682CB1234600F503605DF8044B44
:1096600018475DF8044B70473015012030B4046989
:10967000002341684025E46882690C3154624469E2
:109680009560536093631160C2E90333C2E9053307
:10969000C2E90733C2E90A33C2E90C3384B1C269B3
:1096A000E068936350621160C2E90133C2E9033399
:1096B000C2E90533C2E90733C2E90A33C2E90C3310
:1096C00030BC7047114A037A0168D35C10B4CC589F
:1096D000CA1824F00104CC501368DB07FCD4037DC6
:1096E0001F2B09D9203B20225DF8044B02FA03F31B
:1096F00043F01803CB60704720225DF8044B02FA58
:1097000003F343F018038B60704700BF8C0C05080F
:10971000F0B50668356A00295CD12F68AC68D6F8C8
:1097200018E0002F5FD0364B3B40B3F1005F61D0B3
:1097300007F01F0104F11F0327F01F02194421F055
:109740001F01BFF34F8F00290BDD114402F12003ED
:10975000DFF8B0C08B42CCF868221A4603F1200330
:10976000F8D1BFF34F8FBFF36F8F03684FF4806260
:10977000CEF80470CEF814205B69CEF8204043B3D5
:109780006868F669002837D01D4B0340B3F1005FCD
:109790001AD000F01F0220F01F011F32224422F0D5
:1097A0001F02BFF34F8F002A0ADD0A4401F1200394
:1097B000144D9A42C5F87012194603F12003F8D1EE
:1097C000BFF34F8FBFF36F8F4FF48063706073618F
:1097D0003462F0BDEC69002CFBD06F691435D6F80B
:1097E00018E0002F9FD1084A3346CEF81470CEF807
:1097F0000420C1E73346B9E7044B70617360E7E7C3
:109800000000FFFF00ED00E0000000200400002049
:10981000F8B507680646D7E90454002C50D0A0617B
:109820002B7D1F2B39D82022286802FA03F343F03E
:1098300018038360237D1F2B3AD92022203B02FA94
:1098400003F3226843F01803D36063680022696859
:109850000A601A601A6842F010021A60BA69297A1E
:109860003BF0FEFAFA69217A20683BF0F9FA2A7A8D
:109870002A492F6833688D5C5A687B59206843F009
:1098800001037B51237AC95C435843F001034350E1
:10989000536843F003035360F8BD203B202228683F
:1098A00002FA03F343F01803C360237D1F2BC4D8CF
:1098B000202202FA03F3226843F018039360C4E7FE
:1098C0002A7D6B681F2AA8611FD82021286801FA09
:1098D00002F242F0180282600021BA691960196828
:1098E00041F010011960297A3BF0BAFA2A7A0B4943
:1098F00033682868895C5A68435843F00103435031
:10990000536843F002035360F8BD203A20212868D1
:1099100001FA02F242F01802C260DDE78C0C050881
:1099200010B1036882889A61704700BF18B18388BC
:1099300002681B0493617047D3B2012B23D802EB5A
:1099400042024FF0000C70B54FEA820E0F4C634696
:1099500022460EF1080504E00133172B11D012F84E
:109960001CCF6045F8D192F801C08C45F4D156590E
:10997000002EF1D0C3EBC3030EEB83030433E018D6
:1099800070BD002070BD0020704700BF84AA04088D
:1099900010B40C4C002304F6DC0C01E0152B0CD0A9
:1099A00003EB430201331CF802108142F6D122443A
:1099B0005DF8044B92F9DE0870474FF0FF305DF818
:1099C000044B704730150120D3B2022B21D802EB93
:1099D0004202002330B54FEA820C0F4D0F4C2A464D
:1099E0000CF10C0E04E00133172B10D052F82C4F61
:1099F000A042F8D114798C42F5D152F80E40002CD7
:109A0000F1D02C2202FB03C30833E81830BD00203C
:109A100030BD0020704700BF609C0408000001407A
:109A2000024843690BB10430184770470000012019
:109A30000248836B0BB128301847704700000120A3
:109A40000248C36D0BB14C3018477047000001202D
:109A50000348D0F880300BB170301847704700BF12
:109A6000000001200348D0F8A4300BB1943018470F
:109A7000704700BF000001200348D0F8C8300BB188
:109A8000B8301847704700BF000001200348D0F8E5
:109A9000EC300BB1DC301847704700BF00000120EC
:109AA0000348D0F8103113B100F5807018477047A3
:109AB000000001200348D0F8343113B100F5927052
:109AC00018477047000001200348D0F8583113B1FF
:109AD00000F5A47018477047000001200348D0F833
:109AE0007C3113B100F5B6701847704700000120B3
:109AF0000348D0F8A03113B100F5C870184770477B
:109B0000000001200348D0F8C43113B100F5DA7029
:109B100018477047000001200348D0F8E83113B11E
:109B200000F5EC7018477047000001200348D0F89A
:109B30000C3213B100F5FE70184770470000012089
:109B40000348D0F8303213B100F508701847704759
:109B5000000001200138064B064A00EBC00003EB71
:109B60008000406890420CBF9520962039F09CBA46
:109B7000000001200060024001382DE9E84100EBBF
:109B8000C000124D1E46124B05EB800590460F4655
:109B9000686898420CBF9520962039F085FA95F9AF
:109BA00019004FEA98116F61EE6138F0A9FE95F93E
:109BB0001930002B07DB03F01F0001225B09054968
:109BC000824041F82320BDE8E88100BF0000012069
:109BD0000060024000E100E0800AA0F580105228F9
:109BE00008D8054B184490F8F4330D2B02D8034ADB
:109BF000D056704700207047609C04087C0C050814
:109C00000120FFF761BA00BF0220FFF75DBA00BF75
:109C10000420FFF759BA00BF0820FFF755BA00BF6C
:109C20001020FFF751BA00BF4FF47870FFF74CBA1D
:109C30004FF47C40FFF748BA30B1036882881B6953
:109C40001A4214BF01200020704700BF2DE9F04FD9
:109C5000884683B004461746002800F0BC8002689E
:109C60005E4B13449B0A5E4AC8F3411B134413F82E
:109C7000500C39F019FAC8F38103B4F804E008F085
:109C80000302256801939EFAAEF0B0FA80F002F16B
:109C9000FF3A3EFA00F35ED00126032103E00130D3
:109CA0003EFA00F357D006FA00F313EA0E03F6D09B
:109CB000D5F8009093FAA3F4B4FA84F493FAA3FCD1
:109CC000BCFA8CFC6400BAF1010F4FEA4C0C01FAAB
:109CD00004F402FA0CFC29EA040444EA0C042C60A3
:109CE00049D9D5F80C9093FAA3F4B4FA84F493FA12
:109CF000A3FCBCFA8CFC6400022A4FEA4C0C01FA6B
:109D000004F40BFA0CFC29EA040444EA0C04EC60A9
:109D1000C5D193FAA3FCBCFA8CFC1C0ABCF1070F5A
:109D200041DC2C6A93FAA3FCBCFA8CFC93FAA3F3F3
:109D30004FF00F09B3FA83F34FEA8C0C01309B000C
:109D400009FA0CFC07FA03F324EA0C0423432B6200
:109D50003EFA00F3A7D1BAF1010F09D86B68C8F336
:109D6000001823EA0E030EFB08FE4EEA03036B60A5
:109D700003B0BDE8F08FD5F8089093FAA3F4B4FAD5
:109D800084F493FAA3FC6400BCFA8CFC01FA04F49A
:109D90004FEA4C0C29EA0409019C04FA0CFC49EA3C
:109DA0000C04AC609DE7D5F824C094FAA4F9B9FA84
:109DB00089F994FAA4F30F24B3FA83F34FEA8909DB
:109DC0009B0004FA09F907FA03F32CEA090C4CEAA0
:109DD00003036B6263E74FF0FF3344E70000FEBF0D
:109DE00058AD040800B131E770472DE9F84FC04F76
:109DF0006023064603FB0073D3F85C47002C00F099
:109E00006B81D3F864A7BAF1000F04D09AF806303A
:109E1000002B40F06181602303FB0673D3F8685781
:109E20001DB1AB79002B40F05781731CDBB2BAF146
:109E3000000F04D015228AF807308AF8062015B1E1
:109E40001622EB71AA714FF06009207C39F02CF9D1
:109E5000294609FB06F950463CF0F6FF042207EBC1
:109E60000908504698F86C37002B14BF3E211E217C
:109E7000FFF7B8FF98F86C3728469E4D002B4FF03F
:109E800004024D4414BF3E211E21FFF7ABFF4C22BC
:109E9000002128463FF026FDD8F85C379FED967AE2
:109EA000B0EE084A5B68F7EE003AB8F86E974FF0EC
:109EB000000EC8F8703740F21458904B9FED905A3E
:109EC0009A68904BC2F38222134413F8482CD7F8B7
:109ED0009432D34007EE903AF8EE677AC7EE275AED
:109EE00007EE909A9FED887AF8EEE77AC7EE274A58
:109EF000DFED867AB0EE007AE5EE877AA5EE875A36
:109F000025EE844A37EE856A74EEE72AB9F5C87FF4
:109F10000EF1010CD5BF642332234FF496707820E4
:109F200007EE90CAD8BF4FF4167A0344C8BF4FF467
:109F3000827AB8EEE77AD8BF414607EE903AC8BFBA
:109F40004FF4FA7127EE257A01EB0A03F8EEE76A7F
:109F500086EE873A73EE636AFCEEE67A17EE902A95
:109F600007EE90AAB8EEE73A07EE903AF8EEE77AF5
:109F700023EE243AC3EE276A36EEC53A72EEE66A5D
:109F8000C3EE077A77EEE37AFCEEE77A17EE901AE3
:109F9000C6EE877A77EEE37AFCEEE77A17EE903A30
:109FA00003F1020A0AEB010BF0EE466A07EE90BAE3
:109FB000F8EE677AE7EE276AF4EEE64AF1EE10FA79
:109FC00000F38E805FFA82FABAF10F0F00F28A80F6
:109FD000323807EE900AF8EEE77A77EEC47AC7EEE9
:109FE000876AFCEEE67A17EE900A5FFA80FABAF119
:109FF0000F0F77D81FFA81FABAF1FF0F72D81FFA44
:10A0000083FABAF1FF0F6DD812054AEA0E7302F017
:10A010007F620004134300F47F003D4A034302EAD9
:10A0200001210B43602000FB067600272846C6F876
:10A0300074370123C6F87877C6F87C37C6F880777E
:10A04000C6F88477C6F88C77C6F890773CF04EFA5D
:10A0500096F8B137202BD9B21AD196F8B037012B28
:10A0600016D0242386F8B137D6F870371A6822F054
:10A0700001021A601A6822F480521A601A681A6083
:10A080001A6842F001021A6086F8B11786F8B077B4
:10A09000002194F9120038F033FC94F91230A27CBC
:10A0A000002B07DB02F01F0101225B098A401949DE
:10A0B00041F82320002194F9110038F021FC94F993
:10A0C0001130627C002B07DB02F01F0101225B09CB
:10A0D0008A40104941F82320BDE8F88FE64615E78D
:10A0E00001315FE7BCF10F0FF8D100239AE700BF01
:10A0F00030150120A01C0120286B6E4E0038024054
:10A100000000164358AD0408002474490000704252
:10A1100000FFFF0000E100E02DE9F047814DC0EBBA
:10A12000001605EBC606D6F81C39002B00F0B880E7
:10A130000446070196F88C0938F0B6FF96F88C397A
:10A14000012203F01F015B09013B8A40032B0AD85F
:10A15000DFE813F0DC000400E200D60072494B6A2D
:10A1600023EA02024A623B1B04F1010905EBC30327
:10A170005FFA89F993F820090CF0F6FC064618B14D
:10A18000122380F8079083713B1B05EBC30393F800
:10A1900021090CF0E9FC824618B1132380F80790DE
:10A1A00083713B1B05EBC30393F822090CF0DCFC25
:10A1B000804618B1142380F8079083713C1B5046E9
:10A1C0002E2105EBC40595F82429FFF70BFE95F821
:10A1D00025290E214046FFF705FE95F823292E215B
:10A1E0003046FFF7FFFDD5F81C3950491A688B42FD
:10A1F00022F040021A6055D04D4A934269D002F5D0
:10A200008062934258D1484A116A41F40041116278
:10A21000116A21F4004111625A6842F480525A6076
:10A220001A68520634D443491E68D1F85842D1F80E
:10A230006402D1E99125B0F5005F42EA0502D1F848
:10A24000505242EA0502D1F8545242EA0502D1F8CE
:10A250005C5242EA040242EA0502D1F8605242EA44
:10A260000502354D42EA000205EA060542EA05020A
:10A270001A60D1F84C225D6842EA14422F4C04EA7D
:10A28000050442EA04025A6002D1B1F868221A6158
:10A29000DA6922F40062DA611A6842F040021A6058
:10A2A000BDE8F087204A516A41F480515162516AF9
:10A2B00021F480515162AFE7214A934213D11A4AE7
:10A2C000516A41F400515162516A21F400515162C6
:10A2D000A2E7154A116A41F480411162116A21F422
:10A2E0008041116298E7174A934295D10E4A516A0C
:10A2F00041F480115162516A21F4801151628BE75F
:10A3000009490B6923EA02020A612CE706494B69F5
:10A3100023EA02024A6126E703490B6A23EA0202A2
:10A320000A6220E730150120003802400030014069
:10A3300000380040000001204000FFFFFBF0FFFF5D
:10A34000003401400050014008B100227EE4704713
:10A350002DE9F041CB781BB900263046BDE8F081ED
:10A3600000F110040D468046897820460BF0CEFEA1
:10A3700006460028F0D0E8780CF0F6FBC8F8180084
:10A380002B780133DBB210B1C371222383710D210D
:10A390001C4FFFF7D9FFD8F81800FFF7C1FAD7F81C
:10A3A0001833632BFBD918480BF09CFEA8F8140057
:10A3B000204630F069FE0446E0B9E8780CF0D4FBA2
:10A3C000D7F8FC7A0646002FC6DDDFF8408002E0B1
:10A3D0000134BC42C0D004EB440518F805000CF071
:10A3E000C3FB8642F4D1214608EB050000260CF0A1
:10A3F000FDFBB2E7D8F8100088F8D8403CF0EEFD3D
:10A40000ABE700BF3015012040420F003020012093
:10A4100070B50E4CD4F81C6F002E15DD04F5876462
:10A42000002503E0B54204F120040DD0237F01355F
:10A43000002BF7D0E06800220028F3D0217D2034E3
:10A44000FFF704FCB542F1D1012070BD4C000020A3
:10A45000AA4B2DE9F04F002591B093F8428BDFF81D
:10A46000B4A2A74BA74F0093DFF8B492DFF8B4B2C1
:10A470004E46B30AA3F58013522B55D8534493F894
:10A48000F4330D2B50D8B8F1010FFC5640F01E816B
:10A49000012C3FD14FF00009494620460EF076FBD3
:10A4A0000EF0FCFB90F800C0BCF1000F18BFBCF12F
:10A4B000540F14BF4FF0010C4FF0000C40F002811C
:10A4C00009F104091FFA89F9B9F1100FE4D1002D3F
:10A4D00000F0BA808A4A00210DE0534493F8F43327
:10A4E0000D2B0FD8FB56A3420FD0013102F5867217
:10A4F000A94280F2A580906803689B0AA3F58013A7
:10A50000522BEAD90023A342EFD143799BF80500EF
:10A510009842EAD17C4B5B4513D05BF81C6FB30AC1
:10A52000A3F58013522BA9D9B8F1010FF2D0012362
:10A530000024B8F1020FADD1002BABD0724B5B45BC
:10A54000EBD1009B013503F58673042D00938BD16D
:10A55000DFF8D4814FF0000B08F59E77A8F5876AE5
:10A56000DAF81C3F5B4568DDD8F80C60002E64D03B
:10A5700098F81030B088D6F80090DAF804506349A3
:10A580000193B0FA80F34944002D0293C3F11F03F5
:10A590004FEA9121009340F3CC80594B002405E011
:10A5A000013403F58673AC4200F0C0801A688A4219
:10A5B000F6D14FF48673524A03FB0424009A0BF140
:10A5C000010B019B5100C8F8042088F810300323C8
:10A5D000C8F80C6003FA01F5C8F81840B3710123FC
:10A5E00086F807B01646A26C03FA01F12A43A2646A
:10A5F000226D0A4322659AF80020002A6BD003FAE4
:10A6000006F11A46636D0B4389B26365C9F81800F9
:10A61000D4F8AC00FDF770FD204608F12008FDF7E6
:10A620003FFD0123BBF1080F07F1180708F8043CB0
:10A6300008F8033C07F8073C92D111B0BDE8F08F51
:10A64000BCF1000F7FF466AF5846FDF7EDFC9BF8B8
:10A650000540C3B2022B00F24A83431C2C4A5BB272
:10A6600003EB430398002B4B03F5727104E099420E
:10A6700000F03D8353F82C2FB242F8D11A79A24250
:10A68000F5D11A58002AF2D094460023224A516884
:10A690000133614513D0102B02F12402F7D14FF0A2
:10A6A000FF3303EBC3031D4A02EB830393F820300F
:10A6B000002B7FF42FAF009BC3F808B041E7DBB25B
:10A6C000013BEEE7002D7FF405AF23E7B4F108036B
:10A6D00018BF01232DE702990004C1F12F0500994D
:10A6E00003FA01F1AB40656D89B22B436365C9F88C
:10A6F0001800D4F8AC00FDF7FFFC8DE73015012001
:10A70000540000207C0C0508F8AD04080000FEBFD2
:10A7100000000140609C04080400012000000120AA
:10A720000004014018AD040884040020032C00F349
:10A7300098824FF4867303FB05A31869002800F084
:10A74000C08299600131CAB283F811210492542267
:10A7500083F810216B1C0268CAF804304479039214
:10A76000FDF762FCA04B864693F8593B0593C3B2B4
:10A77000022B00F2BC8200F1010C9C499C48002392
:10A780004FFA8CFC039A0CEB4C0C4FEA8C0C05E056
:10A790000133172B00F0AB8251F82C0F9042F7D108
:10A7A0000879A042F4D151F80C000028F0D02C21F7
:10A7B0000EEB4E0E002401FB03F303EB8E0E8B4BCE
:10A7C000734419694FF4867303FB05A3C3E90701BA
:10A7D000884B9C46DCF80410884217D001340CF1F9
:10A7E000240C102CF6D1844B13F8042C002A00F012
:10A7F0006182824B82488349834AC3F84804C3F884
:10A800004014C3F8502411B0BDE8F08F611C7A48A1
:10A81000C9B2013901EBC10100EB810191F82000BF
:10A8200006900028E5D104984FF08C0C81F82100A7
:10A830004FF4867000FB05F42046542481F8204034
:10A840000446811071480394544400FB01F1C4F89C
:10A8500000C101FB0CF001EB4101C4F80C9001EBCD
:10A86000011C6B4901EB4000A1F54C7101EB8C011F
:10A87000C4F8FC00C4F8B4103321C4F8B81065491A
:10A88000039C0C195849D1F894920599062900F0B7
:10A890000D82072960486149DFF888E10CBF8446D2
:10A8A0008C465F4908BF714610460593039BB9FB70
:10A8B000F1F1B9FBFCFC4A1E4FF486790CF1FF3133
:10A8C00092B209FB05A9A9F8BC1003F15801A9F837
:10A8D0007420504B226600221944A4F85820626666
:10A8E000E2653AF039FAD9F8103018680493026832
:10A8F00042F0800202605A79059B0C2A08D8DFE8F2
:10A9000002F06B070707640707075C070707540097
:10A910004FF4867202FB05A251694FF0600C026889
:10A920004FF000094FF0020ECDF820C04FF4807CAC
:10A9300022F00102CDF82890CDF838C04FF0010C7C
:10A94000CDF83490CDF824C04FF00A0CCDF83C90EF
:10A950000593CDE90BCE026008AA3AF0BBF84FF49C
:10A960008672049B02FB05A219685269059B012AA5
:10A970005AD0042A58D0102A00F0A881402A53D077
:10A98000B2F5807F00F0A581B2F5806F00F0A18163
:10A99000B2F5805F00F0A381B2F5803F4FF03C0933
:10A9A0000CBF08224FF400623FE04FF486724FF470
:10A9B000805102FB05A25161AFE74FF486724FF45C
:10A9C000807102FB05A25161A7E74FF48672102146
:10A9D00002FB05A25161A0E74FF48672012102FB40
:10A9E00005A2516199E700BF30150120609C040861
:10A9F000000001400400012000000120441100205B
:10AA00000953010805530108115301086B4CA407B1
:10AA1000D41800205400002010552200449508004E
:10AA2000D0DD060040771B00082201F1180050F825
:10AA300009C042EA0C0240F80920049A1079002863
:10AA400040F01B814FF48671002201FB05A1D1F873
:10AA500010C0C869DCF800C0DCF8001041F001014A
:10AA6000CCF8001059680132884200F00281102AA7
:10AA700003F12403F6D14FF0FF339E4A03EBC303E7
:10AA800002EB830358689C4B98420CBF952096209C
:10AA900038F00AFB4FF4867303FB05A31A6951795A
:10AAA0000C2900F2E380954B03EB4103B3F8BCC0E3
:10AAB0004FF486731068924903FB05A3A3F818C0EE
:10AAC000002306E0904200F008810133042B00F0DF
:10AAD0000B8151F83320002AF4D1DAF8202F01320B
:10AAE000CAF8202F0AEBC302DB00C2F8240F194476
:10AAF000069823469022B1F804E0DFF818924CEA59
:10AB00000E0CA1F804C07F49FFF736F84FF48673A6
:10AB10004FF4403C402103FB05A50023E86902688F
:10AB200042F010020260026842F014020260C4F8AF
:10AB3000A830C4E91F33C4E9283304232A6AC4F8BF
:10AB400098C04FF4804CC4F89C304FF48063A167E8
:10AB5000C4F88430C4F89420D5F8B820C4F8902004
:10AB6000C2B220F0FF00103AA9FB0231EA68039B51
:10AB70001832090922674FF48052C4F8882003F183
:10AB80007002614B1A44D5F8B430C4F88CC06367C6
:10AB90003AF066F9E869039B4FF40031D0F800E021
:10ABA0004FF4006C03F1B802574BC4F820E0D0F822
:10ABB00014E01A440023C4F824E0D0F804E0C4F8F8
:10ABC00028E0D0F808E0C4F82CE0D0F80CE0C4F895
:10ABD000C830C4F830E0C4F8F030C4E93033C4E918
:10ABE0003A332B6A03930423C4F8E4304FF48063B0
:10ABF000C4F8CC30039BC4E93731D5F80031C4F830
:10AC0000D830C3B220F0FF00103BA9FB0331EB6842
:10AC1000C4F8D0C010330909C4F8B830D5F8FC30F6
:10AC200003934FF48043C4F8D430039BC4F8BC3082
:10AC30003AF016F9EB69B0881A68D6F800906263AA
:10AC40005A69A2635A68E2639A682264DA686264A5
:10AC50001A6842F010021A601A6842F014021A6070
:10AC6000ACE40323294A82F8583BC2E54FF0000CBC
:10AC70001EE7D3B20693013BFFE6079305910BF065
:10AC800073FF05998146079B58B105930221049BE8
:10AC9000DA79FEF7DBFF049B5422A9F80620196835
:10ACA000059B4A6C42F400424A64CBE6DFF868C078
:10ACB0001749F9E50499542203F8031C03F8042CFE
:10ACC00097E50223114A82F8583B92E54FF400625F
:10ACD000ABE608224FF00409A7E6DB0007E74FF4D4
:10ACE00000624FF00409A0E600239B88FFDE0023EA
:10ACF0005B68FFDE000001200060024058AD0408E0
:10AD0000700F0020458100085400002030150120FC
:10AD1000A0BB0D00ABAAAAAA882A1100F8B590F82A
:10AD2000B2311C09013C052C0FD81B4E054603F01F
:10AD30000F0306EB4402B2F8D80040FA03F2D20740
:10AD400003D595F8BD71012F01D00120F8BD07FA98
:10AD500003F33444013B18403DF0DEF894F8E4205E
:10AD600013180E4A02EBC30152F833208B88106986
:10AD70001840EBD0002395F8B3210846022185F84E
:10AD8000BD31FEF763FFD5F820213846136843F044
:10AD900008031360F8BD00BF58AD04088C200120E3
:10ADA000014B43F820107047502800401D4B1E48AF
:10ADB000196C1E4A41F0805130B4196482B0196C8C
:10ADC000FF2401F0805101910199016841F48071E3
:10ADD0000160CA20196C41F480611964196C01F496
:10ADE000806100915321009D5462506251625B6FFB
:10ADF000DB000DD40E4B00210E4A43F8041B934296
:10AE0000FBD10D4B0D4AC3F8502802B030BC70473F
:10AE1000094A0A4BD2F850289A42EBD102B030BC12
:10AE2000704700BF0038024000700040002800401A
:10AE3000542800406C2800400020004031666542E4
:10AE400070B582B0FFF7B2FF344BDB68012B4DD0F9
:10AE5000334C0025334A0523C4F89850C4F89C505D
:10AE6000C4F8A020C4F89430BFF34F8FBFF36F8FA6
:10AE70004FF6FF01E2682C4B0A402C4E13432C4A3C
:10AE8000E360536FC6F85C3E33F04AFB294B2A4916
:10AE9000A3FB0023D4F8FC209B0C42F08072C4F882
:10AEA000FC20C6F82033D6F89432244AA1FB0313C1
:10AEB00023499B09C2F8B01F5560013B1168B3F1EB
:10AEC000807F41F00101116008D24FF0E022F021B3
:10AED0005361072384F82310956113614FF0E0223A
:10AEE000136943F00403136102B070BD0221032013
:10AEF000FFF756FF0E4B13485A6C134942F4804239
:10AF00005A645B6C03F480430193019A02680B68F6
:10AF1000026083F308884B689847FEE7502800409A
:10AF200000ED00E01B0000060005FA0530150120C9
:10AF30000038024083DE1B43D34D6210001000E056
:10AF400055CEACC5003801400000F01F2DE9F04F90
:10AF50000646086883B0850ABDF83040A5F580151F
:10AF60009DF8349001940C46522D59D8DFF828836F
:10AF7000454495F8F4530D2D52D81946FEF726F99D
:10AF800021686279B9F1000F4DD18B0A94F806B0AF
:10AF9000A3F58013DC46522B4ED9BC4B1CF0020F9C
:10AFA00000F0CD8002F01F0703EB8512AD01D2F84F
:10AFB00068030422BA40076A27EA02070762076AA1
:10AFC0003A430262426C42F400424264B04A8768EB
:10AFD0003A40062A06D0B2F5803F03D0026842F01C
:10AFE000010202605A19022082F8A503D2F8680310
:10AFF000A74A87683A40062A06D0B2F5803F03D0B8
:10B00000026842F0010202602B44012283F8A5236A
:10B0100001F13402637971600021D0183060D150A1
:10B0200003B0BDE8F08F8B0A94F806C0A3F5801337
:10B030008CF0010B522BB0D8434493F8F483934B1C
:10B04000B8F10D0FAAD84FEA4B0003EB881E4FEA68
:10B05000CB0B00F002000BF0080A4FEA881B9EF8A9
:10B06000A483B8F1010F99D04FF001088EF8A483A2
:10B070004FF002088EF8A583142A53D8DFE812F0A7
:10B080008C015200520052005101520052005200F5
:10B090001401520052005200C700520052005200E8
:10B0A0008900520052005200150003EB0B0EDFF82E
:10B0B000EC81DFF8E0A1DEF868E3DEF82090D64509
:10B0C00029F48019CEF82090DEF8209029F4001998
:10B0D00049EA0050DEF80490DEF8547007EA0808E8
:10B0E00048F4C04800F096810AF5806AD64500F021
:10B0F0009181019FCEF80490CEF85480CEF85C7018
:10B10000CEF82000DEF8540040F40060CEF8540081
:10B11000DEF8540020F48060CEF85400DEF85400CD
:10B12000CEF8540003EB0B0001271CF0020F80F84F
:10B13000A5734FF0000780F8A4737FF433AF03EBDF
:10B140008510012702F01F02AD01D0F8680307FA4D
:10B1500002F2076A27EA02070762076A3A430262B5
:10B160004C4A90420AD002F58062904206D087682D
:10B17000474A3A40062A7FF42EAF33E7426C42F446
:10B1800000424264424A87683A40062A7FF423AF6D
:10B1900028E703EB0B0EDFF80881DFF8F8A0DEF8F4
:10B1A00068E3DEF82090D64529F48039CEF8209067
:10B1B000DEF8209029F4003949EA0040DEF80490D6
:10B1C000DEF8547007EA080848F0600800F01F81B4
:10B1D0000AF5806AD64500F01A81019FCEF80490E6
:10B1E000CEF85480CEF85870CEF82000DEF8540027
:10B1F00040F00800CEF85400DEF8540020F00400BF
:10B20000CEF85400DEF85400CEF854008AE703EB81
:10B210000B0EDFF89080DFF87CA0DEF868E3DEF844
:10B220002090D64529F48059CEF82090DEF8209061
:10B2300029F4005949EA0030DEF80490DEF81C7069
:10B2400007EA080848F4C04800F0F0800AF5806A70
:10B25000D64500F0EB80019FCEF80490CEF81C801C
:10B26000CEF84070CEF82000DEF81C0040F40060FC
:10B27000CEF81C00DEF81C0020F48060CEF81C0024
:10B28000DEF81C00CEF81C004CE700BF3015012092
:10B290000700010000000140609C0408FF8FFFFED2
:10B2A0008FFFFEFFFF8CFFFE03EB0B0EDFF8AC8180
:10B2B000DEF868E3DEF8209029F48079CEF820905B
:10B2C000DEF8209029F4007949EA0020DEF80490A5
:10B2D000DEF81C7007EA08085F4FBE4548F06008BA
:10B2E00000F09B8007F58067BE4500F09680019FC7
:10B2F000CEF80490CEF81C80CEF83C70CEF820003A
:10B30000DEF81C0040F00800CEF81C00DEF81C003F
:10B3100020F00400CEF81C00DEF81C00CEF81C0063
:10B3200000E703EB0B0EDFF83881DEF868E3DEF8A8
:10B33000209029F01009CEF82090DEF8209029F016
:10B34000200949EA0010DEF80490DEF8187007EAD8
:10B350000808414FBE4548F4C04873D007F58067E0
:10B36000BE456FD0019FCEF80490CEF81880CEF87D
:10B370003870CEF82000DEF8180040F40060CEF8F7
:10B380001800DEF8180020F48060CEF81800DEF80F
:10B390001800CEF81800C5E603EB0B0EDFF8BC80F2
:10B3A000DEF868E3DEF8209029F00109CEF820905D
:10B3B000DEF8209029F0020940EA0900DEF8049046
:10B3C000DEF8187007EA0808234FBE4548F0600809
:10B3D0002FD007F58067BE452BD0019FCEF8049093
:10B3E000CEF81880CEF83470CEF82000DEF81800C1
:10B3F00040F00800CEF81800DEF8180020F0040035
:10B40000CEF81800DEF81800CEF818008AE649F4E5
:10B410008039E2E649F480296BE620F4006049F4C3
:10B42000405940EA0A2020F4806060E749F48049EE
:10B4300011E720F0080049F440794AEA000020F0C2
:10B440000400CAE720F0800049F4406940EA0A108D
:10B4500020F0400086E700BF000001408CFFFEFFA7
:10B46000FF8CFFFEF0B50446D0F89400434B83B048
:10B47000A16804F1640204F118070E68C1B220F05B
:10B48000FF0001921039A3FB0131090939F032FDA7
:10B49000616D0023019A012984F8583018D00429DD
:10B4A00016D0102955D0402912D0B1F5807F53D045
:10B4B000B1F5806F50D0B1F5805F55D0B1F5803FC8
:10B4C0004FF03C030CBF6FF0080C6FF4006C01E010
:10B4D0006FF0080C06F118053046E95801EA0C0136
:10B4E000E950616D39F0F6FA636D012B16D0042B2B
:10B4F00014D0102B0FD0402B10D0B3F5807F2FD05D
:10B50000B3F5806F2CD0B3F5805F31D0B3F5803FB9
:10B5100006F1540502D04FF4006100E008212B68C9
:10B520003A46D4F894000B4340212B602162C1B20B
:10B53000124B20F0FF001039A3FB0131090939F04B
:10B540008FFCD4F89420136843F01003136003B009
:10B55000F0BD6FF4006CBDE76FF0080C0423B9E791
:10B5600006F11C050821DAE76FF4006C0423B1E74B
:10B5700006F11C054FF40061D1E700BFABAAAAAAEF
:10B580002DE9F04FDFF85CB29BF800402DED028B07
:10B5900087B034B90124204607B0BDEC028BBDE86A
:10B5A000F08F8B4BDFF840A2D3F8183308EE103A37
:10B5B0000BF040FE9AF8243C0390002B00F0018130
:10B5C0000BF234670BF634330BF63C4400263D4651
:10B5D00001930597DAF81C34039AD31A03D4EA6D61
:10B5E0009A4200F3D08006EB86030BEB431393F8EB
:10B5F0008C3603F0FF020292002B00F08D80D5F80C
:10B600009410AB6873481A68CBB221F0FF01103B6D
:10B61000A0FB030370481B09C35C19444B68A9894C
:10B620001FFA83FCD368CCF1160C23EA0103BCF1AA
:10B63000070FD36070D9DBF83C3B002201210133B6
:10B6400096468946CBF83C3BD5F89C301F46049380
:10B6500057F8048B40461CE0D7F80080BEF1140F69
:10B66000A8EB000340461CDC13F1080848BF03F1B7
:10B6700017084FEA28130EEB281E03F1FF3801319B
:10B6800002FA03F3043709FA08F28C4542EA03028E
:10B6900007D38C45E0D8CEF1150338684FF0150E6E
:10B6A000EBE7BEF1150F65D14C49C2F38423C2F319
:10B6B000441001EB830301EB8000D3F8EC30D0F8A9
:10B6C000EC001B0243EA001302F01F00C2F3C43275
:10B6D00001EB800001EB8202D0F8EC10D2F8EC20F4
:10B6E0000B4343EA023383EA132282EA121202F086
:10B6F0000F020F2A3ED1C3F30F134FF6FF7293428E
:10B7000038D0B3F5606F45D0019A9381029918EE55
:10B71000102A20460AF08CFC019B284601365C3436
:10B720001433A0350193FFF79DFE9AF8243CB342F1
:10B730003FF750AF0122059F8BF8382C0022CAF842
:10B740001C24002B3FF426AF03EB830307EB4313CA
:10B750003A7CA03757F84C0C12F0020F57F8982C8F
:10B7600011680A6A14BF42EA80020243BB420A62BD
:10B77000EED10FE7DBF8383B0133CBF8383BCEB1E5
:10B7800000230293C2E70024204607B0BDEC028BE1
:10B79000BDE8F08F0E4991F8142302EB420201EB51
:10B7A000C202324492F8C1220D2AADD18023019AFF
:10B7B0009377ABE70499582209483EF06BF802965C
:10B7C000A4E70122CAF81C348BF8382CE3E600BF4A
:10B7D00030150120ABAAAAAA8C0C050858AD0408A4
:10B7E0002C0C00204C00002044110020D0F8201127
:10B7F000242200232DE9F041C0F8942104460A6870
:10B80000806804F5907522F001020A600B604B60BD
:10B810008B6094F805C0C4F89C314FEA8C22C4F8C0
:10B82000943184F8903102F48052C4F89831C4F80D
:10B830003831C4F828214FEA0C32C4F8403102F400
:10B840000052C4F834312379C4F82C214FEA0C2279
:10B85000C4F8240113F0010002F48062C4F830211E
:10B8600002D00422C4F8342113F0020305D0D4F826
:10B87000342142F00802C4F834211CF0010F0DD02D
:10B8800048B1D4F8442142F00202C4F844214FF4F4
:10B890008032C4F84C21002B40F0FF80A84B03F10C
:10B8A000200053F8042F944200F0BD809842F8D154
:10B8B0001CF0080F40F0CD80D4F89431002B00F03C
:10B8C000168124232846C4F894310B6823F0010321
:10B8D0000B6033F04BF9012815D0D4F84431002B1C
:10B8E00040F01881D4F8203128465A6822F490425A
:10B8F0005A609A6822F02A029A601A6842F001029D
:10B900001A603AF077FA2379DA0761D5D4F8FC2087
:10B91000002A00F0D9800023D4F8041104F13C0679
:10B92000E263A3644FF480623046E264C4E910131A
:10B93000C4E91433C4E91833C4E91A334FF480332B
:10B94000E3654FF48073A3653AF01EFE304632F093
:10B9500055FBD4F89881C4F88C61B8F1200F656765
:10B9600031D1E368626999B26AB3B1FA81F77F09AC
:10B9700049B394F89001012825D030460126C4F837
:10B980009C710B4684F890612226A4F87811C4F8C3
:10B9900098616C4ED4F82011A6676B4E2431C4F820
:10B9A0007421E667694EC4F88C70C4F8886032F080
:10B9B000BFFB002800F0B280102384F89071C4F817
:10B9C0009C31C4F89481E26B23795268C4F8142145
:10B9D0009B0777D5D4F80021002A69D00023D4F83A
:10B9E000081104F19C06C4F89C20C4F8A830402239
:10B9F000C4F8B8303046C4E92C33C4E93033C4E964
:10BA000032334FF48033C4F8BC304FF48063C4E960
:10BA10002812C4F8AC303AF0B7FD304632F0EEFAF6
:10BA2000002867D0FEE7002C3FF442AF94F8BC3109
:10BA3000002B3FF43DAFD4F844311CF0080F43F025
:10BA40000803C4F844314FF40043C4F854313FF4C0
:10BA500033AFD4F89431002B55D024232846C4F8B2
:10BA600094310B6823F001030B6033F07FF8012859
:10BA70003FF449AFD4F84431002B47D1D4F82031FA
:10BA800028465A6822F490425A609A6822F02202AC
:10BA90009A609A6842F008022EE7D4F8443143F0E5
:10BAA0000103C4F844314FF40033C4F84831F5E6DB
:10BAB000D4F8A0311A6842F080021A601A6842F085
:10BAC00040021A60BDE8F081D4F8A021116841F469
:10BAD00080711160916841F001019160116841F03D
:10BAE00020011160116841F01001116070E784F8C5
:10BAF0009031E6E6D4F89C30C4F88861C4F8D4509C
:10BB00005860BDE8F08184F89031A6E7284633F00C
:10BB1000E7F9B3E7284633F0E3F9E3E6D4F8203158
:10BB200084F890011A6842F480721A609A6842F0B0
:10BB300001029A609A6842F040029A6043E700BFAF
:10BB40006C1D0020B5990308E5990308E9990308DD
:10BB5000F8B5EFF31185502383F31288D0F8003144
:10BB60001B6813F0010303D0EDB285F31188F8BD13
:10BB7000D0F894210446D0F898110A4302F021022B
:10BB8000212AF1D0D0E90901884253D043D8226953
:10BB90001846531A9BB2D4F894710022A062202F49
:10BBA00084F8A421E0D1A2695118DDD0B3FA83F65C
:10BBB0007609002BD8D094F89021012AD4D0012204
:10BBC000D4F88801A4F8723184F890212122C4F8B5
:10BBD0009C61C4F86C11A4F87031C4F89421E8B1E8
:10BBE000DFF858C0D4F82021C0F83CC0DFF850C0BE
:10BBF00028320665C0F840C0DFF848C0C0F84CC025
:10BC000032F096FA50B1102384F89061C4F89C3158
:10BC1000C4F89471A8E7431A9BB2BCE7D4F820316A
:10BC200000224021196284F890219A6842F0800233
:10BC30009A6099E7012384F8A43195E78D99030868
:10BC4000B1990308E999030870B5D0F82041054679
:10BC5000E369990614D5606AEB6AC0B2002B74D010
:10BC6000296B9847D5F82041236823F4807323601B
:10BC7000A36823F00103A360A36943F00803A36151
:10BC8000E369DA0701D501232362E3699B0701D544
:10BC900002232362E3695E0701D504232362E3697B
:10BCA000180701D508232362E369590614D54023F8
:10BCB000236295F8BD61002E31D0D5F80031CBB1AB
:10BCC0002846FFF745FF95F8A4311BB195F8BD61F3
:10BCD000002E4BD0D5F82041D5F8003163B1E3698F
:10BCE000DB0606D56B6B13B19847D5F820411023BE
:10BCF000236270BDD5F82041E3691A06EFD5D5E976
:10BD0000092393422DD0AA69D25C0133D2B2A26238
:10BD10002A69B3FBF2F102FB1133AB62DFE795F85E
:10BD2000B2010AF021FF236823F0080323600123F6
:10BD300085F8BD310028C0D032462021FDF786FFAE
:10BD4000D5F80031002BBBD1D4E7EB696A69D05438
:10BD5000EB69EA680133B3FBF2F102FB1133EB61EB
:10BD600080E7236823F080032360B8E795F8B201E9
:10BD70000AF0FAFED5F820410122236823F00803D7
:10BD8000236085F8BD210028A6D032462021FDF78A
:10BD90005DFF9FE72DE9F84FC04C04EB8004D4F819
:10BDA0002C4C002C69D0D4F8AC511F46BC4B9046AB
:10BDB000DFF810A3064623606B68A160C4F8A031C9
:10BDC0006B6B63612B6BA3616B8FE3602B8F2361C4
:10BDD000B44BC4F8A8312A780AEB42034FEA420B6D
:10BDE00093F960CE5FFA8CF3012B40F28580D4F892
:10BDF000000180B1AC4B0021D3F804C001312433E1
:10BE0000604500F0F3801029F6D1A84B13F8041C0C
:10BE1000002900F03B81D4F8FC00002840F0C080ED
:10BE20006B68C4F8203195F82800002840F0D080D5
:10BE300094F8B2010AF098FE02213A07034694F8FA
:10BE4000B09184F8BD111BD550B317F0510F4FF0CE
:10BE50000B0206F1010614BF0A211A2117F0410F47
:10BE6000C671827114BF4023202394F8B321194373
:10BE7000FDF7ECFED4F8FC303BB32046BDE8F88F6C
:10BE800018F0020F0CD058B10B223B06827106F15C
:10BE90000102C27100F1188194F8B321FDF7D6FEBA
:10BEA00048460AF061FE0028E4D018F0010FE1D006
:10BEB0000C2201360221C671827194F8B121FDF77E
:10BEC000C5FED4F8FC30002BD7D195F82C1095F98D
:10BED0002A00890936F014FD95F92A3095F82A20B0
:10BEE000002BCADB02F01F0201215B09704801FA36
:10BEF00002F240F82320C0E708216E4B4FF00C0EF1
:10BF000099461EFB0C1E00210131172963D019F838
:10BF10001C0F0428F8D199F801009042F4D159F887
:10BF20000E000028F0D0DA44C1EBC101C4F80001D2
:10BF30009AF9619E89000CEB4C0AB9F1FF3F01EBC5
:10BF40008A01DFF874A15144D1F8301EC4F80811F9
:10BF50003FF450AF0021013117293FF44AAF13F8E5
:10BF60001C9FB9F1050FF6D193F801909145F2D1DC
:10BF700053F80E90B9F1000FEDD0C1EBC1014E4B5B
:10BF80000CEB4C0CC4F8FC90890001EB8C0C9C442D
:10BF9000DCF8303EC4F8043100287FF42BAF48466B
:10BFA000414A002351680133243281424CD0102B86
:10BFB000F8D13E4B13F8042C002A7FF431AF2A78D5
:10BFC000013203F8032C0C2203F8042C6B6828E7D9
:10BFD00037F06AF82CE7DA44D4F800019AF9611EC8
:10BFE0000131B7D100287FF405AF14E75FFA81F97A
:10BFF0002E4B013209F1FF31D2B201EBC10103EB4B
:10C00000810393F8201000297FF405AF83F82120E5
:10C010002A485A6882420CBF952096200B2283F84A
:10C02000202037F041F82346484695F82B20244934
:10C03000FDF7A2FD6B68D4F8FC002833C4F8183172
:10C0400000283FF4EDAEABE7DBB2184A013B03EB4F
:10C05000C30302EB83032A7893F820100132D2B293
:10C0600000297FF4DDAE586883F82120134A9042FE
:10C070000CBF952096200C2283F8202037F014F86E
:10C080006B6803F12402C4F81C21CAE6013203F8EC
:10C09000032C0B2203F8042CBDE600BF4411002042
:10C0A000C4AE04081DAD00080400012000000120FA
:10C0B00000E100E084AA0408609C040800600240DB
:10C0C000C5830008301501200123204684F8BD31C6
:10C0D000FEF724FEE4E600BFBFF34F8F0549064B91
:10C0E000CA6802F4E0621343CB60BFF34F8F00BF16
:10C0F000FDE700BF00ED00E00400FA0508B572B6E8
:10C10000FFF7EAFF800AA0F5801052281CD80F4BD9
:10C11000184490F8F4330D2B16D8013910B40C4C98
:10C1200004EB831CD4F894428BB2DCF868030CF562
:10C130005B71CCF87433B4FBF2F2013A5DF8044B56
:10C14000CCF86C2332F086BC704700BF609C0408BA
:10C150003015012070B504460068830AA3F58013EA
:10C16000522B05D82E4E334493F8F4530D2D00D99D
:10C1700070BDFDF72BF82B4BA801022203EB8515B0
:10C18000D5F8681385F8A523274A8D682A40062A22
:10C1900006D0B2F5803F03D00A6842F001020A607F
:10C1A000034401202168214A83F8A5030023204885
:10C1B00001E050F8332091420AD001330E2BF8D120
:10C1C0000121002036F09CFB1A4B01221A6070BD41
:10C1D00006EBC303012193F9B94D93F8B96D2046DD
:10C1E00036F08EFB002CC3DB06F01F03012164092F
:10C1F000104D01FA03F31B2E45F8243008D02E2EE3
:10C20000B6D12C2036F07CFB4FF480536B6070BDB0
:10C21000192036F075FB4FF000732B6070BD00BF26
:10C22000609C040830150120070001000000014057
:10C2300014AA040800E100E003689B0AA3F5801338
:10C24000522B56D870B53B4C234493F8F4C3BCF141
:10C250000D0F4DD84079850800294ED00CEB8C038A
:10C260004FF0020E840834480CEB43030EFA04F43A
:10C270002B4400EB8C15D5F8685300EB830EEE6869
:10C28000CEF804103443CEF81420EC604FEA8C143E
:10C29000EFF3118E502383F312882C2303FB0CF34E
:10C2A000C258C11832B3131D4A622C22234D02FB1F
:10C2B0000CF215441432024452F8041B19B11960EF
:10C2C00052F8043C04339542F6D100225FFA8EFE08
:10C2D0001A608EF311882C2303FB0C0C2044DCF82D
:10C2E0002430D0F8682303B3D36843F00103D3604C
:10C2F00070BD704724330344D7E70CEB8C030E4822
:10C300002C460CEB43032B4400EB8C15D5F86863EB
:10C310000225A540F46824EA0504F46000EB8304D8
:10C32000616062614FEA8C14B2E7D36823F00103C5
:10C33000D36070BD609C04083015012054150120A5
:10C3400003689B0AA3F58013522B00D97047144A47
:10C35000134493F8F4330D2BF8D810B4114C79B979
:10C360004179022204EB83105DF8044B21FA02F3B9
:10C37000D0F868139A40CB6823EA0203CB60704779
:10C380004179022204EB83105DF8044B21FA02F399
:10C39000D0F8681302FA03F3CA681343CB607047FE
:10C3A000609C04083015012003689B0AA3F58013E4
:10C3B000522B10D8084A134493F8F4230D2A0AD8B4
:10C3C000407902230549D84001EB82128340D2F81C
:10C3D0006823DB4313617047609C0408301501201B
:10C3E00001490248FCF78EBE3015012000000140D3
:10C3F00010B5064C06482146FCF784FE04F5C671CC
:10C400000448BDE81040FCF77DBE00BF3015012098
:10C41000000001400044014002494FF08040FCF719
:10C4200071BE00BF5C15012001490248FCF76ABEDD
:10C43000881501200004004001490248FCF762BE53
:10C44000B41501200008004001490248FCF75ABE1B
:10C45000E0150120000C00402DE9F843194E356924
:10C46000F3681D4010D04FF00047DFF85C80B5FA4C
:10C4700085F227FA02F31F2A6FEA030305EA030590
:10C48000336103D0002DF2D1BDE8F883D8F8043130
:10C49000A3B103F1FF3900231FFA89F9C8F8043169
:10C4A000D8F80041002CEDD0236820464946984733
:10C4B0006468002CF8D1002DD9D1E5E7F16A1FFAA4
:10C4C00081F9EDE7001000403015012001490248D4
:10C4D000FCF718BE641601200004014010B5064C9C
:10C4E000064804F59A71FCF70DFE04F50471044842
:10C4F000BDE81040FCF706BE3015012000040140E5
:10C50000001C004001490248FCF7FCBD90160120C8
:10C510000040014001490248FCF7F4BDE816012043
:10C520000048014001490248FCF7ECBD1417012006
:10C5300000180040800AA0F5801052280ED8084B41
:10C54000184490F8F4230D2A08D8064B03EB821305
:10C55000D3F86823136843F001031360704700BFEA
:10C56000609C04083015012038B5264C94F8783EBC
:10C57000012B12D1042894BF002301236BB904EBD3
:10C5800040000D4694F8901EC4F8A43EB4F8922ED4
:10C59000B0F89A3EB4F8960E01B138BD07EE902A75
:10C5A000D4F8882E9FED180AB8EEE77ADFED177AF7
:10C5B00027EE277A07EE902A6422F8EE676A02FBDC
:10C5C00003F307EE903A02FB003366EE806AB8EEA2
:10C5D000E76A07EE903AF8EEE77A27EE067A87EEFA
:10C5E000270A20EE260A3CF091FBD4F8802EB4F8FE
:10C5F000943E1060D4F8181319442944C4F8A81EB6
:10C6000038BD00BF30150120CA269B3E0AD7233C07
:10C61000F0B5A24CA5B0E368022B00F03A82A04826
:10C62000A04AA149121A3DF035F9A048A04AA149F3
:10C63000121A3DF02FF9A368012B00F2C28003EB20
:10C6400043039D4A9D4D02EB430032F8132041887D
:10C650008388C5E99B21C5F87432994C994E9A4B51
:10C66000B2FBF1F2994901FB02F20021C6F89422D3
:10C67000D4F8882042F47002C4F888201A6842F086
:10C6800001021A609960924A1868024091481A6043
:10C69000C0F30807904A5A601A6822F480221A6090
:10C6A000D96007B1FEE78D49A0604FF6FF000A6828
:10C6B0008B4B42F400720A60E26802401343E3606D
:10C6C00036F0EEFFBFF34F8FBFF36F8FC4F8507299
:10C6D000BFF34F8FBFF36F8F636943F40033636120
:10C6E000BFF34F8FBFF36F8FC4F88470BFF34F8FCA
:10C6F000D4F8803043F6E07CC3F3C90EC3F34E3365
:10C70000580100EA0C01734641EA8372013B5F1C49
:10C71000C4F86022F8D1203810F1200FF1D1BFF316
:10C720004F8F636943F480336361BFF34F8FBFF36F
:10C730006F8F6A49644B0A6842F480720A60196C10
:10C74000684A41F080511964196C01F080510291DE
:10C750000299116841F4404111601268D5F86C02E9
:10C7600002F44042D5F87042D5F874120192019A51
:10C770009A6802F00C02042A00F08D809A6802F098
:10C780000C02082A00F083804F4A136843F4803378
:10C790001360D6F8AC7E04E0D6F8AC3EDB1B642B0D
:10C7A00074D813689B03F7D5474A936803F00C03CA
:10C7B000082B6BD0136823F080731360D6F8AC7E1F
:10C7C00008E03E4DD5E99B2147E7D6F8AC3EDB1BA0
:10C7D000022B5BD813689B01F7D40B06640843EA6D
:10C7E0008013611E43EA01433F491943364B5160B0
:10C7F000116841F080711160D6F8AC1E04E0D6F8E3
:10C80000AC2E521A022A41D81A689201F7D5196C37
:10C81000344A41F0805119641B6C03F08053039338
:10C82000039B136843F480331360D6F8AC1E06E014
:10C83000D6F8AC3E5B1AB3F57A7F00F2CB80536832
:10C84000DF03F5D51368274943F400331360D6F8A6
:10C85000AC2E06E0D6F8AC3E9B1AB3F57A7F00F218
:10C86000B9804B689C03F5D54FF400124FF000637C
:10C8700004A804924FF4C07221930723CDE9082342
:10C8800003230A9331F080FE80B3FEE7FEE75B6886
:10C890005A027FF579AF0C4B1B6885E750280040A2
:10C8A00000000000C83D0000F488050800000020DA
:10C8B0004C000020B9E50508F4AE04080000012092
:10C8C00000ED00E0301501200038024040420F002A
:10C8D000FFFFF6FE0000000810300024003C02407C
:10C8E0000003FA0500700040080040206C4A1368FD
:10C8F00003F00F03062B0AD8136823F00F0343F04D
:10C9000007031360136803F00F03072B63D1654B14
:10C910009A6842F4E0529A609A6842F460429A60DF
:10C920009A6822F0F0029A601A68900153D59A68CA
:10C9300041F2883122F0030242F002029A60D6F8F6
:10C94000AC0E04E0D6F8AC2E121A8A4243D89A688C
:10C9500002F00C02082AF5D1514A136819070AD5CA
:10C96000136823F00F0343F007031360136803F009
:10C970000F03072B2FD14B4C4B4FA36823F4E053ED
:10C9800043F4A053A360A36823F4604343F400433B
:10C99000A36031F0C5FDA368C3F303133B4493F8D0
:10C9A000A831D840C6F8940236F07AFE002304A8D5
:10C9B000CDE91333CDE91533CDE91733CDE919337B
:10C9C000CDE91B33CDE91D33384B049331F0DCFD49
:10C9D00010B1FEE7FEE7FEE702234FF0007204A865
:10C9E000CDE90633D823CDE9042301230B9331F09D
:10C9F000CBFD00B1FEE7D4F88C3023F08073C4F88F
:10CA00008C30D4F88C3043F08073C4F88C30A36839
:10CA100003F00C03042B36D0082B18D0244BC6F897
:10CA20009432204AD5E99B31B3FBF1F39168D6F8F3
:10CA30009422C1F303110F4497F8A811CA401D496D
:10CA400001FB03F3C6F89422934220D0FEE763680B
:10CA5000626813F4800F636802F03F0218BF164942
:10CA6000C3F3881308BF1249B1FBF2F202FB03F3D0
:10CA70000C4A5268C2F3014201325200B3FBF2F396
:10CA8000C6F89432CDE70C4BC6F89432C9E725B00E
:10CA9000F0BD00210320FEF783F9FFF71DFB00BF67
:10CAA000003C02400038024058AD0408C0FF0300BB
:10CAB0000024F40040420F0000127A00084B0246A6
:10CAC00008498B420AD2184602E01C30884205D23F
:10CAD0000388C3F30B039A42F7D1704700207047D5
:10CAE000C4C60508F8CE050870B585880B4604460F
:10CAF0000021C5F30B0518462A463CF0F3FE616998
:10CB0000084A0346914202D3074A914205D319B11C
:10CB10001846BDE87040084770BD2A46BDE8704021
:10CB20003CF0B8BEF8CE05088DD0050838B5064CE7
:10CB3000064DAC4206D2A16820461C34FFF7D4FF54
:10CB4000AC42F8D338BD00BFC4C60508F8CE05080E
:10CB50000A4491421AD001F1FF3C41F2210100B593
:10CB600002F1FF3E1CF8012F082380EA022010F496
:10CB7000004F4FEA400281EA40000CBF90B280B201
:10CB8000013BF4D1E645EDD15DF804FB7047F8B503
:10CB9000164D6B78BE2B26D1AC1C154F02222946B0
:10CBA0004FF6FF70FFF7D4FF22884AB1A618BE42A5
:10CBB00019D2052A17D921463446FFF7C9FFF3E7F2
:10CBC00021460222FFF7C4FF0222A1180634FFF714
:10CBD000BFFF084B641BA3F8B04E41F60F53C31AB6
:10CBE00058425841F8BD0020FCE700BF0040000853
:10CBF00000800008301501202DE9F041594F8AB01E
:10CC00003B78B12B6ED1FFF7C2FF80F00104E4B294
:10CC1000554B04F00104554DB3F8B831544EADF8FE
:10CC20000030B54260D3002C00F09A801022002121
:10CC300006A83CF057FE4F4B0497DB1B05934E4B69
:10CC40001A69002A05DA4D4A5A6002F188325A60A0
:10CC50001B69012300250222694604A88DF82430AF
:10CC600008953AF06BFA022269464FF6FF703F4F83
:10CC7000FFF76EFF0446B74245D30025022201A903
:10CC800004A8ADF804503AF059FA022201A920464E
:10CC9000FFF75EFF40BA022202A9C043ADF80800C8
:10CCA00004A83AF04BFA079868B106ABC0F1040249
:10CCB000294618443CF016FE089818B906A904A89D
:10CCC00002F010FB08909DF82430089823B12A4AFE
:10CCD000136943F000431361B0FA80F040090AB0D1
:10CCE000BDE8F081012493E7A9881C3555F8140CA0
:10CCF000C1F30B0134F094FF55F8043C1B688342E8
:10CD000018BF01248DE7B7F8048002A904A88DF8A4
:10CD10000D50C8F30B081C3708F10603ADF80830B6
:10CD200037F81C3CC3F30B021B0BADF80A2006229C
:10CD30008DF80C303AF002FA062202A92046FFF7DD
:10CD400007FF044657F8141C424604A83AF0F6F9C7
:10CD5000204657F8141C4246FFF7FAFE04468AE7BD
:10CD60000120BCE70040000858AD0408C4C605080F
:10CD7000F8CE050800800008003C0240230167450A
:10CD80000823484010F0800F4FEA400182EA40003B
:10CD90000CBFC8B2C0B2013BF4D1704730B50568D2
:10CDA0008D421AD901F1FF3E6C1E00231EF801CFFF
:10CDB000082183EA0C0313F0800F4FEA430C82EA48
:10CDC00043030CBF5FFA8CF3DBB20139F3D1744536
:10CDD000ECD16A1C02602B7030BD00236A1C02601B
:10CDE0002B7030BD9FED067AF7EE007A60EE870A71
:10CDF00020EE800A70EE277A80EE270A704700BF87
:10CE0000DB0FC940B0EEC07AF0EEE06A86FE876ABA
:10CE1000B5EE406AF1EE10FA3DD0C6FEC75AC5EE37
:10CE2000867ADFED1E2ADFED1E3ADFED1E4A9FED0A
:10CE30001E5A9FED1E3AB7EE006A9FED1D4ADFEDC8
:10CE40001D5AE7EEE23AA7EE834AE7EEA34AA7EEC1
:10CE5000846AA7EEA45AE7EE855AC5EE867AF4EE08
:10CE6000C76AF1EE10FA03D59FED137A77EE677A71
:10CE7000F5EEC00AF1EE10FA03D59FED107A77EEC9
:10CE8000677AB5EEC00AF1EE10FA48BFF1EE677AA4
:10CE9000B0EE670A7047DFED077AE0E739094E3DEB
:10CEA000E3B59E3E88FA163E45FE7F3F99FB243F40
:10CEB00069A2163EA7DFA834DB0FC93FDB0F49404C
:10CEC00091ED056AD0ED017AD1ED036A91ED047A16
:10CED00067EEA66AD0ED005A27EE877AD1ED014AB7
:10CEE00067EE867A91ED025A91ED004AA4EEA57A9A
:10CEF00090ED026AE5EE257AD1ED064AE4EE256A68
:10CF000091ED075AD1ED085AA5EE067AE5EE867A3C
:10CF1000E4EE866A80ED017AC0ED027AC0ED006A27
:10CF2000704700BFDFED277AB4EEE70AF1EE10FAA2
:10CF30000CDDDFED256A9FED257AF0EE407A30EECC
:10CF4000660AF4EEC77AF1EE10FAF6DCDFED207A2D
:10CF5000B4EEE70AF1EE10FA0CD5DFED1B6A9FED97
:10CF60001D7AF0EE407A30EE260AF4EEC77AF1EE42
:10CF700010FAF6D4DFED187AB4EEE70AF1EE10FA03
:10CF800014DDDFED107A37EEC00A60EE006A9FED27
:10CF9000136A9FED137ADFED137AA6EE867A20EE00
:10CFA000266AE6EE877AA6EE270A7047DFED0E7A4C
:10CFB000B4EEE70AF1EE10FAE7D5DFED057A37EEC9
:10CFC000C00AE2E7DB0F4940DB0FC940E4CB164162
:10CFD000DB0F49C0E4CB16C1DB0FC93F92E741B973
:10CFE0009730083C15A82ABEDB0FC9BFFDEEC07AFA
:10CFF00017EE903A2033402B00D893E79FED010ABB
:10D00000704700BF00000000D0ED005A9FED2B4A92
:10D0100008B535EE840AFFF7E9FFB0EE405AB0EEEE
:10D02000650AFFF7E3FFD0ED014AF0EE405A34EE17
:10D03000840AFFF7DBFFF0EE403AB0EE640AFFF738
:10D04000D5FF90ED023AF0EE404A33EE040AFFF7C6
:10D05000CDFFB0EE404AB0EE430AFFF7C7FF25EE22
:10D06000236A65EE046AC1ED024A25EE847A25EE54
:10D07000005A81ED086A23EE844A23EEE53AB0EEC9
:10D08000666A65EE805A81ED004AB0EE454A81ED50
:10D09000053A60EE637AA4EEE56AA4EE874AE4EE10
:10D0A000E65AC1ED017AA4EE857A81ED046A81ED3C
:10D0B000034AC1ED065A81ED077A08BDDB0FC93F6F
:10D0C000B7EE001A0022DFED050A10B53CF088FD2E
:10D0D0000023836143610362C36110BDF304353FE4
:10D0E0002DE9F04F1F461346894689B013F8011BFE
:10D0F000002900F02B8215468046002609E04046B4
:10D1000001361D46C8472B4613F8011B002900F0C5
:10D110008C802529F3D16978302900F0DD80023533
:10D120000023A1F1300C5FFA8CF2092A4FF00002C3
:10D130005ED96C297DD07829E5D8572967D9A1F126
:10D1400058002028DFD801A454F820F0CDD30008DF
:10D1500007D1000807D1000807D1000807D100084F
:10D1600007D1000807D1000807D1000807D100083F
:10D1700007D1000807D100080BD3000819D3000815
:10D1800007D1000807D1000807D1000807D100081F
:10D1900007D1000807D1000807D1000807D100080F
:10D1A00007D1000803D3000807D1000807D1000801
:10D1B00007D1000807D10008EFD2000807D1000806
:10D1C00073D3000807D1000807D10008CDD30008A9
:10D1D000BEF1050F18D9BAF1050FAAD80A2CA8D1AB
:10D1E00002EB820215F8011B04EB4202A1F1300CA4
:10D1F0005FFA8CF0A1F1610EA1F1410AA1F13704AF
:10D200000928E5D86446EBE7A1F15704E6E761B1E8
:10D2100025297FF478AF25214046C8472B460136A3
:10D2200013F8011B00297FF474AF304609B0BDE844
:10D23000F08F15F801CBBCF1780F3FF664AFBCF16D
:10D24000570F4DD9ACF1580120293FF65CAF01A032
:10D2500050F821F02FD4000807D1000807D10008AA
:10D2600007D1000807D1000807D1000807D100083E
:10D2700007D1000807D1000807D1000807D100082E
:10D280000BD30008E1D4000807D1000807D100083B
:10D2900007D1000807D1000807D1000807D100080E
:10D2A00007D1000807D1000807D1000803D3000800
:10D2B00007D1000807D1000807D1000807D10008EE
:10D2C000EFD2000807D100088FD4000807D100086A
:10D2D00007D100082FD40008A9780123033520E7DF
:10D2E000BCF1000FA1D0BCF1250F94D00BE757F88B
:10D2F000040B0023494600904046FBF779FA0644A8
:10D3000001E757F8043B1E60FDE657F8041B404652
:10D310000136C9B2C847F6E6D7F800C0BCF1000F25
:10D32000C0F2AC8005ACA246BCF1090FE6464FF056
:10D33000010108DD01EB81014900BCFBF1F0092886
:10D34000F8D800293DD08948BEFBF1FBBBF10A0F9C
:10D35000A0FB01C001FB1BEE34BF4FF0300C4FF0BF
:10D36000570CC0080929DC4401460AF801CBEAD869
:10D3700027E038680121092809D901EB810149001A
:10D38000B0FBF1F4092CF8D8002900F0E68005ACD8
:10D390000393A246754BB0FBF1FBBBF10A0FA3FB55
:10D3A000013C01FB1B00B4BF4FF0300E4FF0570E95
:10D3B0004FEADC0C0929DE4461460AF801EBE9D8A2
:10D3C000039B043700218AF8001029E057F804ABCA
:10D3D0000120BAF10F0F40F2C6800001BAFBF0FC49
:10D3E000BCF10F0FF9D8002800F0BA8005ACA346B5
:10D3F00001E0BAFBF0FCBCF1090F4FF0300E05DD87
:10D4000058290CBF4FF0370E4FF0570EE64400FB83
:10D410001CAA00090BF801EBEBD100218BF80010DE
:10D42000494640460094FBF7E3F906446BE657F89B
:10D4300004BB0121BBF10F0F40F28D800901BBFB42
:10D44000F1F00F28FAD8002900F0828005ACA2463E
:10D4500001E0BBFBF1F009284FF0300E06DDBCF116
:10D46000580F0CBF4FF0370E4FF0570E864401FB9C
:10D4700010BB09090AF801EBEBD1A3E72D21CCF190
:10D48000000C0DF1150A05AC8DF814104CE757F897
:10D49000040B0121092808D901EB81014900B0FBE7
:10D4A000F1F4092CF8D8002952D005AC0393A24618
:10D4B0002E4BB0FBF1FBBBF10A0FA3FB013C01FBC0
:10D4C0001B00B4BF4FF0300E4FF0570E4FEADC0C8C
:10D4D0000929DE4461460AF801EBE9D8039B71E7AC
:10D4E00057F8040B002829DB05ACA24609284FF0A9
:10D4F00001010AD901EB81014900B0FBF1FCBCF14B
:10D50000090FF7D800293FF45DAF0393174BB0FB29
:10D51000F1FBBBF10A0FA3FB013C01FB1B0034BF75
:10D520004FF0300E4FF0570E4FEADC0C0929DE4465
:10D5300061460AF801EBE9D8039B43E72D214042FD
:10D540000DF1150A05AC8DF81410CFE70E466CE608
:10D5500005ACA24636E7584678E705ACA24630E768
:10D5600005ACA34659E7D44640E700BFCDCCCCCCB0
:10D570000EB400B584B0084905AB019001A853F87A
:10D58000042B0393FFF7ACFD019B00221A7004B03B
:10D590005DF804EB03B070477188000800232DE9A3
:10D5A000F0411C4682B007460380214601343846CC
:10D5B00029F09EF9082CF8D1002307F1FC06DFF8CA
:10D5C000608087F8EA301D46C7F8EC30C7F8F030C5
:10D5D000C7F8F430C7F8F8301F462A46414601A87C
:10D5E0003446FFF7C5FF032201A911F8013B5BB1E7
:10D5F000013A04F8013BF8D1013504362770082DB3
:10D60000EBD102B0BDE8F081013520462021144461
:10D610003CF068F9082D06F104062770DDD1F0E72B
:10D62000340C050803685A1C02601970090A036863
:10D630005A1C02601970704702681146531C03603F
:10D64000D31C11F802CB01605178036093781B045E
:10D6500043EA0123111D43EA0C030160D07843EA39
:10D6600000607047A0F13003092B07D920F020009B
:10D67000413819288CBF00200120704701207047D5
:10D68000303809288CBF0020012070474138192804
:10D690008CBF002001207047613819288CBF002002
:10D6A0000120704720280BD0092809D00A2807D06C
:10D6B0000D2805D00B3801288CBF002001207047B1
:10D6C00001207047A0F14103192B98BF203070470B
:10D6D000A0F16103192B98BF2038704710B56FF087
:10D6E00000440246044404E0B3EB0E0015D1A2420C
:10D6F00014D012F8013BA3F14100192811F8010BD5
:10D70000A0F1410C98BF203300F1200EBCF1190F9D
:10D71000EAD91B1A04D10028E9D110BD002010BDA0
:10D72000184610BD02B3844610B5841804E0B3EB6C
:10D730000E0014D1A44513D01CF8013B11F8010BC5
:10D74000A3F1410200F1200E192AA0F1410298BF75
:10D750002033192AEBD91B1A04D10028EAD110BDB5
:10D76000002010BD184610BD1046704770B5044625
:10D7700008460D4639F0A4FE064602E014F8013FC3
:10D7800043B1204632462946FFF7CCFF0028F5D1A9
:10D79000204670BD1C46204670BD00BF2DE9F041FB
:10D7A000064686469EF800C070460EF1010EBCF19A
:10D7B000200FF7D0BCF1090FF4D0BCF10A0FACF187
:10D7C0000B05EFD0ACF10D04B4FA84F46409002C1D
:10D7D000E8D1012DE6D9BCF12B0F3DD0BCF12D0FC6
:10D7E00039D0102A86463DD04FF0FF359046B5FB24
:10D7F000F2F502FB05F7FF43FFB20EF1010E002028
:10D8000010E0ACF1300C5FFA8CFC944512DA8542E2
:10D81000764602D334D1674532D21C404FF0FF30F8
:10D820001EF801CBBCF1390FEBD94CF0200CBCF148
:10D83000600F0BD801B10E602CB3B0F1004F2BD9A3
:10D84000DB0729D54FF00040BDE8F081ACF1570C63
:10D850005FFA8CFCD9E70124102A00F1010E90F840
:10D8600001C0C1D1BCF1300F19D04FF0FF354FF0DE
:10D870001008B5FBF2F502FB05F7FF43FFB2BCE76A
:10D8800008FB00C0CCE70028DEDA13F0010F18BF58
:10D890006FF00040BDE8F0814042BDE8F0819EF8A5
:10D8A00001C00EF10106ACF141056046192D01D809
:10D8B0000CF1200078280BD04FF0FF354FF0100806
:10D8C000B646B5FBF2F502FB05F7FF43FFB294E75E
:10D8D00010229EF802C06FF070450EF1020E0F2765
:10D8E00090468AE701230A22002157E72DE9F041FB
:10D8F00017461E4605464FF47A72002338463146D5
