:020000040800F2
:1000000000000120B1A704084DA80408F5B20108BA
:100010004DB101084DA804084DA8040800000000D7
:100020000000000000000000000000004DA80408CF
:100030004DA80408000000004DA80408C979010873
:100040004DA804084DA804084DA804084DA80408AC
:100050004DA804084DA80408BDA10008C5A10008CA
:10006000CDA10008D5A10008DDA10008C99F0008A6
:10007000DD9F0008F19F000805A0000819A00008F6
:100080002DA0000841A000084DA804084DA80408B0
:100090004DA804084DA804084DA80408E5A10008CF
:1000A000C1CA0008ADC90008D1CA00089DC900082E
:1000B000D5C90008E5C90008F5C900085D9B00081E
:1000C000519B0008919B0008859B00084DA80408DF
:1000D0004DA8040815790108217901082D79010836
:1000E000EDA100084DA804084DA80408E1CA0008C5
:1000F00099CA00084DA8040889CA000855A000083C
:100100004DA804084DA8040805CA00084DA8040815
:10011000397901084579010815CA0008492C0408F5
:1001200069A000087DA0000891A00008A5A0000813
:10013000B9A000080000000000000000000000005E
:10014000000000000000000000000000CD210408B5
:10015000CDA00008E1A00008F5A000085179010831
:10016000C59B0008B99B00084DA804084DA80408C9
:100170004DA804084DA8040800000000000000007D
:100180004DA804084DA804084DA804084DA804086B
:100190004DA804084DA80408000000004DA804085C
:1001A0000000000000000000000000004DA804084E
:1001B0004DA804084DA8040800000000000000003D
:1001C000000000000000000000000000000000002F
:1001D0000000000000000000000000004DA804081E
:10800000084A0346D0F8E4005268D3F8F010121A78
:1080100000209142B8BFC3F8F020012283F81C2150
:10802000704700BF001000E01B4B1C4A03F5727C38
:10803000016803E063452BD053F82C2F9142F9D10E
:1080400070B593F804E0427996450AD0634505D0AF
:1080500053F82C2F9142F4D06345F9D14FF0FF3003
:1080600070BD9E4684680022DEF80C50A54208D000
:1080700001320EF10C0E032AE8D0DEF80C50A542B6
:10808000F6D1DEF81050C668B542F1D150B270BDDD
:108090004FF0FF30704700BF10C3040800000140DC
:1080A0004368426D30B49A61EFF31182502383F339
:1080B00012884168D2B2856C0B68046D23EA05030F
:1080C00023430B6082F31188436981681A68096849
:1080D00022F00102D0E908541A60826A1D605C61D6
:1080E0005A60D0E90B429C60DA600023B0F86C2043
:1080F00030BCCA620377704730B5FAB18E464FEA9A
:10810000014C034600F1C005002419680C3353F8F4
:10811000042C43F8084C41EA0C0142EA0E02AB423F
:1081200043F80C1C43F8042CEFD1D0F8C03043EADC
:108130000E03C0E93144C0F8C03030BD4FEA014EF3
:108140008C46DEE783695969B3F810C00A6830B419
:108150009C6822F0010224680A60E26822EA0C02AC
:10816000E260027D04681F2A06D9203A082065686B
:108170009040284242D0FEE70820256890402842DF
:10818000F9D1202000FA02F2A260254A1278002AD2
:1081900032D01A7F012A36D0D3F800210132C3F839
:1081A0000021EFF31181502282F312885868C9B27E
:1081B0009D6C0268DC6C22EA05022243026081F3B6
:1081C00011885A699968D3E90D40096814605061B3
:1081D000D3E90F40546090605C6CB3F8B400D46095
:1081E0000124C8621068204310601A8A1C7783F843
:1081F000FD40CB681343CB6030BC7047202000FAB1
:1082000002F2E260C1E70022D3F8040183F8FD2006
:1082100001300A68C3F8040122F001020A60EBE7AA
:108220009001002010B40C4C6368002B11DD00207D
:1082300004F1080C0146DCF8AC3003F1C0025960CF
:108240000C339342FBD1013063680CF5867C83428A
:10825000F1DC5DF8044B704790010020704700BFCF
:10826000024B03EB401090F855047047900100203A
:10827000704700BF0B4890F86C1589B101EB4101C4
:10828000002300F27450490010B41C4650F823201B
:10829000063302B114608B42F8D15DF8044B70478D
:1082A000704700BF900100200B4890F86C1589B111
:1082B00001EB4101002300F27450490010B41C4648
:1082C00050F82320063302B114609942F8D15DF8CA
:1082D000044B7047704700BF900100200120704799
:1082E000034B00EB400003EBC00090F8850570479E
:1082F00090010020204890F86C35002B3AD00022E5
:1083000000F274534FF02C0C2DE9F0434FF0500E57
:108310001A4E1B4D144607E053F8181B01320C602F
:1083200090F86C15914223DD197C0029F4D05F6828
:108330004FF0FE08B90AA1F580115229294498BFCF
:1083400091F8F483EFF311818EF31288D7F824901B
:108350000CFB0868C9B209F10109C8F82890D7F8E0
:10836000148048F00108C7F8148081F31188D3E71E
:10837000BDE8F083704700BF9001002090170120F6
:1083800010C3040807EE900AB8EE670A704700BFF2
:10839000BCEEC00A10EE103A98B270472DE9F041D9
:1083A0000022794B846982B0D3F89462019208224A
:1083B00004F19C07D4E93D839A40D8F80050154257
:1083C00005D0D4F89C100868400700F1B080012265
:1083D0009A40154205D0D4F89C104969080600F16E
:1083E0009D8004229A40154205D0D4F89C1009685B
:1083F000890700F18A8010229A40154204D0D4F8EF
:108400009C10086800076AD420229A40154218D0B0
:10841000D4F89C100868C00613D5C8F8082094F852
:10842000D120052A39D00B6813F4802F0B6800F097
:108430009280190340F19D80D4F8D8300BB13846B2
:108440009847D4F8F030002B46D0D4F8F030DA0753
:108450001BD54E4BD4F89C20A3FB0636052384F88D
:10846000D130B60A136823F00103136002E01368E9
:10847000DB0704D5019B01339E420193F7D2002212
:10848000012384F8D02084F8D130D4F8E8301BB32D
:10849000384602B0BDE8F04118470A6822F01602DB
:1084A0000A604A6922F080024A61D4F8DC20002A7E
:1084B00065D00A6822F008020A603F22002102FA11
:1084C00003F30122C8F80830D4F8EC3084F8D01057
:1084D00084F8D120002BDBD102B0BDE8F081C8F8D0
:1084E00008200A6812F4802F0A682DD1D20503D41F
:1084F0000A6822F008020A60D4F8DC20002A83D03F
:1085000038469047D4F8F8307EE7C8F80820D4F809
:10851000F02042F00402C4F8F0206CE7C8F808200C
:10852000D4F8F02042F00202C4F8F02059E70868BD
:1085300020F004000860C8F80820D4F8F02042F0C9
:108540000102C4F8F02042E71103D5D5D4F8E420A5
:10855000002AD5D158E713F480737FF46DAF0A6811
:1085600022F010020A60012284F8D03084F8D12071
:1085700062E7D4F8E030002B7FF461AF61E7D4F814
:10858000E420002A95D198E790170120B5814E1B71
:10859000B4224FF4A57C4FF4EB71002382801822A3
:1085A000A0F802C04FF4E17C02814FF48772C180D1
:1085B0009621828144220370A0F80AC0C1814382BF
:1085C00002827047C2628161704700BF436A0246FF
:1085D0001B681B6A5B689B7813F0010008BF50772B
:1085E000704700BF0346012200205A77704700BF42
:1085F00008B5D0E90B2183690B4483610AB10846B1
:108600009047002008BD00BF704700BF043070478E
:108610000C4B93F89C22D3F8981202440844D2B22F
:10862000C3F8980283F89C2293F89C22120605D581
:1086300093F89C2282F0800283F89C22024B012254
:108640001A70704790170120000001202DE9F84FA3
:10865000154FD7F8A052ED0A20D00026DFF84CA025
:1086600007F52979B046AC19D7F8A4121023524661
:108670006410D1F828B04846C7F8D082E102D84744
:108680000F280BDD094B03F1100253F8041B0131D5
:1086900007D19342F9D12546B542E4DCE802BDE8B2
:1086A000F88F661CF8E700BF90170120000000203B
:1086B000184BD3F8D812D3F8DC228A1A322A15D8EC
:1086C000D3F8F0228A4200D37047D3F8E022E2B117
:1086D00010683231928810B44469C3F8F012224213
:1086E0005DF8044B18BF120482617047D3F8E02292
:1086F0003AB193F8EC021168C007928848BF12049F
:108700008A610022C3F8F02270473231C3F8F012B8
:10871000704700BF90170120064AD2F8E0323BB103
:1087200092F8EC121A68C9079B8848BF1B04936132
:108730000020704790170120044B4FF4007C00206C
:10874000D3F80033A2F800C00B60704790170120E7
:1087500000207047012070470120704700207047BB
:10876000134BD0F8D8105B68D0F8E02010B5044661
:10877000581A824200DC22B9D4F8E4200A44C4F832
:10878000DC2094F8D020C4F8D830012A05D0D4F8E1
:10879000D4300133C4F8D43010BD04F1E801201DF9
:1087A0000EF060FBD4F8D4300133C4F8D43010BDDF
:1087B000001000E02DE9F84F0546406A0F460468B6
:1087C000236A002BFCD1404E96F83033002B43D067
:1087D000D6F83493B5F806C0DFF804E13B49B9FB9D
:1087E000FCF30CFB13938EF812301B0A8EF8113039
:1087F0003B68374FD2F80080C7F8A4300023C7F891
:10880000AC80C7F8B4308B68002B5BD00B46DC69BA
:108810001433002CFBD11468DFF8C8A0A144186001
:10882000C3F804A00123C6F8349386F83033B9FBAB
:10883000FCFB0CFB1B9BBBF1000F20D0254BC7F8AA
:10884000B4306B7F03B914312C630EF00BFBEB6A71
:1088500083B3286BBDE8F88FD5F81890B5F806C03B
:10886000DFF87CE01C49C6F83893B9FBFCF30CFB3D
:1088700013938EF816301B0A8EF81530B8E7D6F829
:1088800038435346B4FBFCF4C7F8CC4064BAAEF8A6
:108890001A40B8F1000F03D0DC691433002CFBD16F
:1088A00014680E4A18605A600023C6F8389386F898
:1088B0003033C6E76B6A1A68136A002BFCD1286B49
:1088C000BDE8F88F0B46A6E79017012004000120B1
:1088D00000000120F185000854000120D000012093
:1088E00000000020A400012033B910B51C46C36A63
:1088F00020469847204610BD5CE700BF10B582B007
:108900000C46019201A9049A8461C2626A460093EE
:10891000FFF750FF02B010BD8369F0B593F8DC207B
:108920008BB00546012A27D0023A012A2FD893F8A6
:108930004C21EC46D3F89C1062F07F03154C0B7071
:108940008669D6F8A0305F1C0FCCACE80F00D6F8D3
:108950009C30CDE900370FCCACE80F0094E8030061
:108960008CE80300694606F110000EF07BFAAB6953
:1089700019690A6A002AFCD1D3F8A0305A8852BA81
:10898000EA819A8852BA2A82DB885BBA6B8201201C
:108990000BB0F0BD58C70408F0B590F8DC308BB0D0
:1089A0000446D0F8A060012B4BD015D8D0F89C30ED
:1089B0004FF0FF3205211A605A609A60DA60D0F8F1
:1089C000E030C0F8F010B3F57A7F54D8032380F874
:1089D000DC3001200BB0F0BD023B012BF9D890F840
:1089E0004D31EC46D0F89C2063F07F03384D137076
:1089F000D0F8A0305F1C0FCDACE80F00D4F89C304D
:108A0000CDE900370FCDACE80F0095E803008CE806
:108A10000300694604F110000EF024FA2269136A7B
:108A2000002BFCD1738801205BBAA4F8D030B38846
:108A30005BBAA4F8D230F3885BBAA4F8D4300BB098
:108A4000F0BD90F84C2190F84D319B1A5B1001332A
:108A5000DBB236F8132006EB430653BAA0F8D03049
:108A600073885BBAA0F8D230B3885BBAA0F8D43070
:108A700001200BB0F0BD03691A7B2AB35B691BB3FD
:108A800090F8983003B390F84C310122D0F89C0054
:108A900063F07F03C4F8A4400E49037094F84D318D
:108AA00094F84C0184F800211B1A84F8DC20D4F8D7
:108AB000A0200733C4F804110132D4F89C10C4E993
:108AC0003E23C4F8F41084E7022384F8DC3080E706
:108AD00058C70408018000082DE9F041304F07EB2A
:108AE000401898F854340BB9BDE8F08100EB8003CE
:108AF0000E460021044607EB4313450193F8362642
:108B000083F8361688F83A2443F0BEFBB8BB3D44E0
:108B10002448A5F8386400EB441043F0BDFB3B78D3
:108B2000D5F85024A3B1D5F83C140124D2F8AC30C8
:108B30008C4003F1C001420010F4004F90B202D10A
:108B40005A6822435A600C339942F4D1BDE8F0814F
:108B5000D5F83C140124D2F8AC3001F1100203F135
:108B6000C0019440420010F4004F90B202D15A6804
:108B700022435A600C339942F4D1BDE8F0810A4B8C
:108B800093F8B42302EB420203EBC203234493F8AD
:108B90006163002EBBD0012388F83A34B7E700BFE9
:108BA00090010020C8050020901701202DE9F84F02
:108BB000374D2B7813B90120BDE8F88F354F05F5F7
:108BC000876A05F634360024D7F8D8B24FF6FE7916
:108BD0004FF6FF7815E0B0F5606F4AD0B081B0EB8A
:108BE00008012D4B4FF05C005A4618BF012100FBD5
:108BF00004300DF04DFF01340AF1200A1436082C20
:108C000031D0D5F81C2FA2422DDDDAF81800DAF8A1
:108C10000420D0E93D0143F043FB484597F83D234C
:108C200014D0542A04D1B7F840230132A7F84023C6
:108C3000D5F83C2B404502F10102C5F83C2BCAD1C6
:108C4000D5F8382B0132C5F8382BC8E7542AD2D1D1
:108C5000B7F8422301340AF1200A14360132082CF5
:108C6000A7F84223CDD10123012085F8383CBDE887
:108C7000F88F97F8B42302EB420207EBC2022244BA
:108C800092F861230D2AA9D18022B277A7E700BF0D
:108C90009001002090170120CC0D00202DE9F84311
:108CA0000EF0E8FF2F4E4FF0000C0746DFF8BC80B7
:108CB0002D4C716800294ADD00234FF486701D4653
:108CC00000FB0362013392F80521994245EA02054F
:108CD000F6D145EA0C0C5FFA8CF9D8F80430C3F3EE
:108CE00008038BBBEFF3118373BB4FF0E02CD4F878
:108CF000D832DCF81810D4F8D8229342F7D1D4F83F
:108D0000B8239142F3D8D4F8BCC34FF47A7202FB73
:108D10000CF0401AB0FBFCF002FB0300C31BB3F5E0
:108D2000FA6FCCBF4FF0000C05F0010CBCF1000F46
:108D3000BFD1B9F1000F04D00B4B93F83D23542A57
:108D400008D04846BDE8F8830EF064FEE6E7E14649
:108D50000025C2E7B3F8442348460132A3F8442370
:108D6000BDE8F883900100209017012000ED00E09D
:108D700010B5044642F022FB0146204689B2BDE808
:108D80001040A9E638B50B4D00EB400005F27453D6
:108D9000C40003EBC0032C4493ED027AD3ED037AB5
:108DA000E7EE007AB0EE670A42F008FBD4F87435BB
:108DB000186038BD900100202DE9F04143F088FA99
:108DC00080B31B4F7D68002D12DD3846002410F85B
:108DD000086BA046013416B1037F012B1DD04269F8
:108DE000AC4200F58670136843F001031360F1D1C3
:108DF0000EF040FFD7F8204F002C0CDD0D4B03EB9D
:108E0000C4041968083333F8042CC8689C4242EA49
:108E10000002CA60F5D1BDE8F08180F8FC80FFF760
:108E20003FF9DCE73CF048FB0028CAD1BDE8F081FF
:108E300090010020B41000200C4AF8B51368556961
:108E40002B4003EA000555617DB1094F0126B5FAB3
:108E500085F4C4F11F0407EB840306FA04F4D3F885
:108E6000C40303689847A543F1D1F8BD003C014015
:108E7000901701200269C3682DE9F04712EA03093F
:108E80002AD005460E464FF000474FF00008B9FAC9
:108E900089F327FA03F21B3BD24309EA02092A614C
:108EA000042B16D8DFE803F03B30251A0300B36A21
:108EB000002B3FD003F1FF3AC6F828801FFA8AFA48
:108EC000746A34B123682046514698476468002C80
:108ED000F8D1B9F1000FDAD1BDE8F0877068002849
:108EE000F7D0696B036889B29847B9F1000FCED10A
:108EF000F2E7B0680028ECD0A96B036889B2984704
:108F0000B9F1000FC3D1E7E7F0680028E1D0E96BC1
:108F1000036889B29847B9F1000FB8D1DCE730692E
:108F20000028D6D0296C036889B29847B9F1000FA0
:108F3000ADD1D1E7E96A1FFA81FAC1E7830AA3F547
:108F40008013522B52D8F0B504466A4885B00344CA
:108F500093F8F4030D2847D8674D860105EB80137D
:108F6000D3F80474A7423FD00139C3F8044489B24E
:108F7000C3F81014D5F89412B1FBF2F2013AC3F819
:108F800008240022C3F81424C3F80C24C3F81824BE
:108F900093F8412402F0FF014AB358490223AF1964
:108FA00001EB8011204687F84134043138F0DAFDB6
:108FB000012387F84134524B9C421BD0B4F1804FBF
:108FC00018D0A3F57C439C4275D003F580639C4286
:108FD00071D04C4A03F57C439C4218BF944249D05F
:108FE00003F570539C4245D005B0F0BD704783F83F
:108FF0004014D2E700234FF48051AA19CDE90013A1
:1090000092F840140129CDE90233EDD00221D2F8C3
:109010000404012482F841143B4987683940816087
:1090200082F8414482F840340023AA19CDE9003384
:10903000029392F84034012BD6D0D2F804340221A6
:109040002F4882F8411483425A6899684ED000F53F
:10905000806083424AD022F0700221F080013544C2
:1090600001205A609960002385F8410485F8403456
:1090700005B0F0BD00214FF48053CDE90031AB19AC
:1090800093F84024012ACDE90211ADD0D3F80404AD
:10909000022283F841241C4A87683A4082601B4AB6
:1090A00083F840140121944283F84114BCD0154B3D
:1090B0009C4299D1B8E700224FF48051AB19CDE919
:1090C000001293F840140129CDE902228CD002212C
:1090D000D3F80404012483F841140B49876839400C
:1090E000816083F8414483F840249DE722F47002B4
:1090F000B1E700BF10C3040890170120941B0120A2
:1091000000000140000C00408800FEFF0004014008
:1091100010B590F828300446012B03D0002301201D
:10912000637710BD406A03681A7B3AB93CF060FF70
:1091300000F0010383F001006377F2E71B6A002B64
:10914000F4D0002010BD00BF38B5114D044694F88E
:109150002830012B05D000236377002301202362F0
:1091600038BD606A03681A7B72B93CF041FF00F0B9
:10917000010060770028F0D0D5F8D832226A9B1A17
:10918000002BE4DB002038BD1B6A002BEDD0F3E799
:109190009017012010B5FF22044690F82810406A6D
:1091A00040F0DCFB0E4B2046D3F8D83203F5FA73BF
:1091B0002362FFF7C9FF94F82830012B00D010BDBF
:1091C0000022A021606A40F0A1FB94F82830012B16
:1091D000F5D1606A1822B021BDE8104040F096BB7E
:1091E00090170120CB0700D5704710B50446FFF754
:1091F000D1FF94F82830012B00D010BD0A4B0B4949
:10920000D3F89432606AB1EB930F4FEA93024FF0B8
:10921000020306D252085B008A429BB201D9FF2B9F
:10922000F8D9838010BD00BF9017012000E1F5053B
:1092300038B504460D46FFF787FF062294F828103C
:10924000606A40F08BFB012294F8283062779342E9
:1092500005D0074BD3F8D8320F33236238BDE288EC
:10926000D821606AB5FBF2F240F02AFBF1E700BFBB
:10927000901701202DE9F843838853B30446002555
:10928000DFF85480012707E0D8F8D8320135A288EA
:109290000F33AA4223621CD92046268AB4F80690CE
:1092A000FFF752FF062294F82810606A40F056FB40
:1092B00094F828306777012BE6D109FB06F6E2889F
:1092C000D821606A05FB06F6B6FBF2F240F0F8FA28
:1092D000DAE7BDE8F88300BF9017012070B5114DA3
:1092E00095F8303303B970BDC2880446D5F83863A9
:1092F0000D4BB6FBF2F6C3F8CC60FFF725FF94F8F0
:109300002830012B07D0D5F8D8320022023385F857
:109310003023236270BD32461021606A40F0D0FADB
:10932000F1E700BF9017012000000120B0F806C04F
:109330002DE9F047B1FBFCF5DFF80CA11F4690B01A
:109340000646DAF8CC300C469046AB4222D1DFF824
:10935000FC900CFB154496F82830ACEB040CBC4593
:1093600034BF1FFA8CF5BDB2012B3ED0D9F8D832EC
:10937000304602333362FFF7E7FE38B196F8283003
:10938000012B25D0284610B0BDE8F087002010B092
:10939000BDE8F087FFF7D8FE0028F7D04FF0FF3385
:1093A000CAF8CC3096F82830012B47D0DFF89C90D3
:1093B0003046D9F8D83202333362FFF7C5FE0028B1
:1093C000E4D0B6F806C0CAF8CC50B4FBFCF5C0E750
:1093D000706A3CF00DFEC0F3011001380228D1D8AC
:1093E0003046FFF7D7FE2846CDE78DF80240240A25
:1093F0008DF8243000228DF8383003238DF8014099
:1094000001A9746A8DF80030042320468DF80320EA
:1094100002928DF810200F92CDF804D00393CDE97D
:109420000522CDE90A22CDE90C22CDE907870DF00E
:1094300019FD2268136A002BFCD197E72A461321F5
:10944000706A40F03DFAB1E700000120901701205A
:109450002DE9F843DDF820800F4616460021202232
:1094600004461D4642F096FDB8F1000F0CD0D8F826
:109470000030B8F80A20E3811B0C2382D8F80430AE
:109480006282E3821B0C2383384640F0E7FAF3063E
:1094900019D4431EB8B107EB000C01E0013B12D315
:1094A0001CF801EDBEF12E0FF8D1C01A03F101092D
:1094B000421EB944032AA8BF0322082BA8BF0823D1
:1094C00090461A4606E008280246B9464FF00008C2
:1094D000A8BF08224FF0203339462046236063603E
:1094E00042F030FD04F10803174842464946208106
:1094F000A072184642F026FD04F1FF3C0346E21D2F
:109500001CF8011FA1F1610E2039BEF1190F98BF9F
:109510008CF800106245F3D1184604F10B0110F8E5
:10952000013BA3F16102203B192A98BF00F8013CDE
:109530008842F4D1182365832D0CE6722373099BAE
:10954000A582E361BDE8F883202020002DE9F04FDB
:10955000DFF88C9487B0D9F8D802C9F8DC02002B68
:1095600000F0DA801344154601F1200601F5FE777C
:10957000DFF870A403931FE0002D63D0D9F80C230B
:10958000AA4200F0CD80D9F80823AA4200F0028157
:10959000D9E9C421AA424CD8A94200F2CF81691A64
:1095A00018463BF0D1FE0135039B06F5007607F522
:1095B00000779D4200F0B080D9F81843A6F120034F
:1095C000AC42D9D82C1BD9F82883E208D8F830103F
:1095D00004F0070402328A4203D3D8F838108A42D2
:1095E0000DD941461046059304923BF07DFE80461E
:1095F000DDE90423002800F0C181C9F8280398F8A8
:109600000410002940F03F81D8F828B0BBF1000FCA
:1096100000F0AD811846D8F830304FF40071D21AFE
:10962000D8F80C3004EBC20203EB42224346D84781
:10963000B9E7A942B3D918464FF40072002142F0AD
:10964000A9FCB0E74FF400722946184642F0A2FC8C
:1096500080220346D94886F89E210C2286F8A22152
:10966000D9F80813D9F800238142C3F8C611C3F80A
:10967000CA2100F36881D24B013AD24C83FB01032B
:10968000C81784FB01C40B44C0EB6313C0EB243048
:10969000CD4C84FB03C4C3EB831C86F8A10180106E
:1096A000A1EB0C011C4420F03F000131014386F87E
:1096B000A011D917C1EBE4110B4486F89F31BF4BC1
:1096C0009A4200F34C81BE4BBE4883FB0213D11774
:1096D00080FB02401344C1EB6313C1EB2031BA4855
:1096E00080FB0340C3EB831486F8A5118910121B7D
:1096F000184421F03F0101320A4386F8A421DA1709
:10970000C2EBE010034486F8A331552386F8DE311E
:10971000AA2386F8DF3146E7002007B0BDE8F08FC6
:109720004FF0FF320024A6F11C00049383F8EC21D3
:10973000214683F8ED2183F8EE2183F8EF215222B0
:109740001A705A7061229A7083F8E7214122DA7008
:1097500083F8E621722283F8E42183F8E521D9F821
:109760002023C3F8E8214FF4F07242F013FC049B6D
:109770005522C6F8D041C6F8D441C6F8D84183F87E
:10978000FE216FF0550283F8FC4183F8FD4183F818
:10979000FF2108E78D4C00214FF40072184642F07B
:1097A000F9FB03464FF0000C022203CC46F8191CCB
:1097B000EB2146F81D0C082006F8201C582106F85D
:1097C0001F1C902106F81E1CF8211A7383F80BC089
:1097D00006F8130C9A7383F80FC006F8102C06F8DD
:1097E0000B1C83F82C20D9F80813D9F8002383F830
:1097F00019C0521A83F81BC083F81DC01A6283F87F
:109800001EC083F81FC083F82DC083F82EC083F8D4
:109810002FC0D9E9C412521A80215A623F221A7607
:109820004FF0FF329A763E221A77012283F83020D9
:1098300083F831C086F820102921654B86F8221064
:10984000942186F8260086F823100E21614A86F8B6
:1098500024100D2186F82510552186F8DE11AA2145
:1098600086F8DF1103CBC6F82B101988C6F827003D
:109870009B78A6F82F1086F8313003CAC6F832005C
:10988000C6F836108FE64FF400721846002142F0F9
:1098900081FBD8F840200346002C76D1002A00F046
:1098A000A380D8F8303011224B49CDE90044FFF7AE
:1098B000CFFDD8F840301A6C002A00F0A1801B6B55
:1098C000CDE900441122454930464FF4E07BFFF7D3
:1098D000BFFD06F12003D8F84480B8F1000F3FF433
:1098E00062AE03F120049B44049523464446984607
:1098F00010E05CF81C1B0025236BCDE900C5FFF7C9
:10990000A7FDABEB0803A46C08F12008002C18BFDE
:109910001F2B51D92379A44604F11C0E1122A8F162
:109920002000002BE5D162792569236B42F02102EA
:109930002168CDE900E5FFF78BFDE2E7A91A18469B
:109940003BF002FD2FE6FF23013A86F89F3186F8AF
:10995000A13186F8A031194B9A427FF7B4AEFF23AC
:1099600086F8A33186F8A53186F8A431CDE65946AC
:1099700018464FF4007242F00DFB14E6A6F12403E2
:1099800043F804AF9F42FBD10DE6002AD8F844808B
:109990000CBF01220222C2EB0414B8F1000F3FF405
:1099A00002AE4246013C926C002C01DD002AF9D146
:1099B00090464FF4007B90E7049DF4E5FF03FB0025
:1099C000832008829755454181808080CC380508E6
:1099D000D8380508E4380508C4380508C83805082B
:1099E00090170120DEADBEEF23460822D9F80413FC
:1099F0004FF4F07BCDE90044FFF72AFD33466AE7D8
:109A00002346CDE900445DE730B490F8443000F1DE
:109A10000801484A012BC2F8C4176ED08368464932
:109A2000DC68464D24F46004AB42DC60DC6844F43E
:109A30006004DC609C6B24F440149C639C6B44F4D5
:109A400080149C639C6B24F4F8449C639C6B44F4EA
:109A500088449C639C6824F470249C609C689C608F
:109A60009C6824F440149C609C689C605C6824F4AE
:109A700080645C605C6824F480545C605C6901EA2A
:109A8000040159615969596147D0DC682A4924F0B9
:109A9000E064DC60DC6844F0E064DC609C6B24F42F
:109AA00040149C639C6B44F480149C639C6B24F472
:109AB00078249C639C6B44F410249C639C6824F47D
:109AC00070249C609C689C609C6824F440149C609A
:109AD0009C689C605C6824F480645C605C6824F42E
:109AE00080545C609C692140144C9961A34299693F
:109AF000996118D0002380F844301148114B848DAF
:109B0000C18D408D091BC2F8CC47C2F8C80793FB32
:109B1000F1F330BCC2F8D03770470B4C616841F4A8
:109B200000016160B1E708494B6843F400034B60F2
:109B3000E0E700BF9017012000F0FFFF0020014088
:109B4000007AF01F8038010000230140704700BFF9
:109B5000014837F02FBD00BF781F0120084810B41E
:109B6000D0F8E837D0F81C4899691A682CB1234618
:109B700000F5FD605DF8044B18475DF8044B704735
:109B800090170120014837F015BD00BFD81F0120F4
:109B9000084810B4D0F84838D0F87C4899691A6859
:109BA0002CB1234600F648005DF8044B18475DF8D9
:109BB000044B704790170120014837F0FBBC00BFF1
:109BC00038200120084810B4D0F8A838D0F8DC4874
:109BD00099691A682CB1234600F6A8005DF8044B79
:109BE00018475DF8044B70479017012030B40469A2
:109BF000002341684025E46882690C31546244695D
:109C00009560536093631160C2E90333C2E9053381
:109C1000C2E90733C2E90A33C2E90C3384B1C2692D
:109C2000E068936350621160C2E90133C2E9033313
:109C3000C2E90533C2E90733C2E90A33C2E90C338A
:109C400030BC7047114A037A0168D35C10B4CC5819
:109C5000CA1824F00104CC501368DB07FCD4037D40
:109C60001F2B09D9203B20225DF8044B02FA03F395
:109C700043F01803CB60704720225DF8044B02FAD2
:109C800003F343F018038B60704700BF8039050869
:109C9000F0B50668356A00295CD12F68AC68D6F843
:109CA00018E0002F5FD0364B3B40B3F1005F61D02E
:109CB00007F01F0104F11F0327F01F02194421F0D0
:109CC0001F01BFF34F8F00290BDD114402F1200368
:109CD000DFF8B0C08B42CCF868221A4603F12003AB
:109CE000F8D1BFF34F8FBFF36F8F03684FF48062DB
:109CF000CEF80470CEF814205B69CEF8204043B350
:109D00006868F669002837D01D4B0340B3F1005F47
:109D10001AD000F01F0220F01F011F32224422F04F
:109D20001F02BFF34F8F002A0ADD0A4401F120030E
:109D3000144D9A42C5F87012194603F12003F8D168
:109D4000BFF34F8FBFF36F8F4FF480637060736109
:109D50003462F0BDEC69002CFBD06F691435D6F885
:109D600018E0002F9FD1084A3346CEF81470CEF881
:109D70000420C1E73346B9E7044B70617360E7E73D
:109D80000000FFFF00ED00E01C000020200000208C
:109D9000F8B507680646D7E90454002C50D0A061F6
:109DA0002B7D1F2B39D82022286802FA03F343F0B9
:109DB00018038360237D1F2B3AD92022203B02FA0F
:109DC00003F3226843F01803D360636800226968D4
:109DD0000A601A601A6842F010021A60BA69297A99
:109DE0003DF08CFDFA69217A20683DF087FD2A7AE2
:109DF0002A492F6833688D5C5A687B59206843F084
:109E000001037B51237AC95C435843F0010343505B
:109E1000536843F003035360F8BD203B20222868B9
:109E200002FA03F343F01803C360237D1F2BC4D849
:109E3000202202FA03F3226843F018039360C4E778
:109E40002A7D6B681F2AA8611FD82021286801FA83
:109E500002F242F0180282600021BA6919601968A2
:109E600041F010011960297A3DF048FD2A7A0B492A
:109E700033682868895C5A68435843F001034350AB
:109E8000536843F002035360F8BD203A202128684C
:109E900001FA02F242F01802C260DDE780390508DB
:109EA00010B1036882889A61704700BF18B1838837
:109EB00002681B049361704708B51D200DF0A4FBD8
:109EC00008B183794BB11E200DF09EFB08B1837958
:109ED00003B108BD5523C38008BD5523C380F2E7F5
:109EE000D3B2012B23D802EB42024FF0000C70B525
:109EF0004FEA820E0F4C634622460EF1080504E03D
:109F00000133172B11D012F81CCF6045F8D192F80D
:109F100001C08C45F4D15659002EF1D0C3EBC303D8
:109F20000EEB83030433E01870BD002070BD0020E9
:109F3000704700BF00C8040810B40C4C002304F69E
:109F4000541C01E0152B0CD003EB430201331CF829
:109F500002108142F6D122445DF8044B92F9560971
:109F600070474FF0FF305DF8044B704790170120A9
:109F7000D3B2022B21D802EB4202002330B54FEAC4
:109F8000820C0F4D0F4C2A460CF10C0E04E00133ED
:109F9000172B10D052F82C4FA042F8D114798C42D4
:109FA000F5D152F80E40002CF1D02C2202FB03C355
:109FB0000833E81830BD002030BD0020704700BFD6
:109FC00010C30408000001400348D0F8343113B135
:109FD00000F5927018477047000001200348D0F840
:109FE000583113B100F5A4701847704700000120E4
:109FF0000348D0F87C3113B100F5B67018477047AC
:10A00000000001200348D0F8A03113B100F5C8705A
:10A0100018477047000001200348D0F8C43113B13D
:10A0200000F5DA7018477047000001200348D0F8A7
:10A03000E83113B100F5EC701847704700000120BB
:10A040000348D0F80C3213B100F5FE701847704782
:10A05000000001200348D0F8303213B100F5087039
:10A0600018477047000001200348D0F8543213B15C
:10A0700000F5117018477047000001200348D0F820
:10A08000783213B100F51A701847704700000120AC
:10A090000348D0F89C3213B100F52370184770477D
:10A0A000000001200348D0F8C03213B100F52C7035
:10A0B00018477047000001200348D0F8E43213B17C
:10A0C00000F5357018477047000001200348D0F8AC
:10A0D000083313B100F53E701847704700000120A7
:10A0E0000348D0F82C3313B100F547701847704778
:10A0F000000001200348D0F8503313B100F5507030
:10A1000018477047000001200138074B074A00EB51
:10A11000C00003EB8000D0F8240190420CBF9520D2
:10A1200096203BF091BB00BF000001200060024080
:10A1300001382DE9E84100EBC000134D1E46134BDA
:10A1400005EB800590460F46D5F8240198420CBFD8
:10A15000952096203BF078FB95F939014FEA98114C
:10A16000C5F83471C5F83C613BF0ECFA95F939312A
:10A17000002B07DB03F01F0001225B09044982402A
:10A1800041F82320BDE8E881000001200060024082
:10A1900000E100E0800AA0F58010522808D8054BA5
:10A1A000184490F8F4330D2B02D8034AD056704768
:10A1B0000020704710C30408703905080120FEF71D
:10A1C0003BBE00BF0220FEF737BE00BF0420FEF7F3
:10A1D00033BE00BF0820FEF72FBE00BF1020FEF7E1
:10A1E0002BBE00BF4FF47870FEF726BE4FF47C40C4
:10A1F000FEF722BE30B1036882881B691A4214BF81
:10A2000001200020704700BF2DE9F04F884683B041
:10A2100004461746002800F0BC8002685E4B1344D9
:10A220009B0A5E4AC8F3411B134493F874073BF042
:10A230000BFBC8F38103B4F804E008F003022568BF
:10A2400001939EFAAEF0B0FA80F002F1FF3A3EFAC6
:10A2500000F35ED00126032103E001303EFA00F353
:10A2600057D006FA00F313EA0E03F6D0D5F80090A3
:10A2700093FAA3F4B4FA84F493FAA3FCBCFA8CFC2A
:10A280006400BAF1010F4FEA4C0C01FA04F402FA2F
:10A290000CFC29EA040444EA0C042C6049D9D5F8E2
:10A2A0000C9093FAA3F4B4FA84F493FAA3FCBCFAE6
:10A2B0008CFC6400022A4FEA4C0C01FA04F40BFAFD
:10A2C0000CFC29EA040444EA0C04EC60C5D193FABE
:10A2D000A3FCBCFA8CFC1C0ABCF1070F41DC2C6A05
:10A2E00093FAA3FCBCFA8CFC93FAA3F34FF00F098A
:10A2F000B3FA83F34FEA8C0C01309B0009FA0CFC93
:10A3000007FA03F324EA0C0423432B623EFA00F31A
:10A31000A7D1BAF1010F09D86B68C8F3001823EA76
:10A320000E030EFB08FE4EEA03036B6003B0BDE8AC
:10A33000F08FD5F8089093FAA3F4B4FA84F493FA62
:10A34000A3FC6400BCFA8CFC01FA04F44FEA4C0C48
:10A3500029EA0409019C04FA0CFC49EA0C04AC60EB
:10A360009DE7D5F824C094FAA4F9B9FA89F994FACA
:10A37000A4F30F24B3FA83F34FEA89099B0004FA8C
:10A3800009F907FA03F32CEA090C4CEA03036B62A0
:10A3900063E74FF0FF3344E70000FEBF10C304083B
:10A3A00000B131E770472DE9F84FC04F60230646F2
:10A3B00003FB0073D3F8D447002C00F06B81D3F873
:10A3C000DCA7BAF1000F04D09AF80630002B40F059
:10A3D0006181602303FB0673D3F8E0571DB1AB79AD
:10A3E000002B40F05781731CDBB2BAF1000F04D090
:10A3F00015228AF807308AF8062015B11622EB716B
:10A40000AA714FF06009207C3BF01EFA294609FB37
:10A4100006F950463FF004F8042207EB09085046BD
:10A4200098F8E437002B14BF3E211E21FFF7B8FF38
:10A4300098F8E43728469E4D002B4FF004024D4417
:10A4400014BF3E211E21FFF7ABFF4C2200212846FE
:10A4500041F0A0FDD8F8D4379FED967AB0EE084AC7
:10A460005B68F7EE003AB8F8E6974FF0000EC8F8D0
:10A47000E83740F21458904B9FED905A9A68904BF1
:10A48000C2F38222134493F87C27D7F89432D34046
:10A4900007EE903AF8EE677AC7EE275A07EE909AE1
:10A4A0009FED887AF8EEE77AC7EE274ADFED867AE5
:10A4B000B0EE007AE5EE877AA5EE875A25EE844A5B
:10A4C00037EE856A74EEE72AB9F5C87F0EF1010C04
:10A4D000D5BF642332234FF49670782007EE90CADC
:10A4E000D8BF4FF4167A0344C8BF4FF4827AB8EE4F
:10A4F000E77AD8BF414607EE903AC8BF4FF4FA71E9
:10A5000027EE257A01EB0A03F8EEE76A86EE873A32
:10A5100073EE636AFCEEE67A17EE902A07EE90AAD5
:10A52000B8EEE73A07EE903AF8EEE77A23EE243AEF
:10A53000C3EE276A36EEC53A72EEE66AC3EE077AD4
:10A5400077EEE37AFCEEE77A17EE901AC6EE877A9A
:10A5500077EEE37AFCEEE77A17EE903A03F1020A1F
:10A560000AEB010BF0EE466A07EE90BAF8EE677A56
:10A57000E7EE276AF4EEE64AF1EE10FA00F38E8079
:10A580005FFA82FABAF10F0F00F28A80323807EED2
:10A59000900AF8EEE77A77EEC47AC7EE876AFCEEA7
:10A5A000E67A17EE900A5FFA80FABAF10F0F77D8C1
:10A5B0001FFA81FABAF1FF0F72D81FFA83FABAF1C3
:10A5C000FF0F6DD812054AEA0E7302F07F62000495
:10A5D000134300F47F003D4A034302EA01210B4389
:10A5E000602000FB067600272846C6F8EC370123DA
:10A5F000C6F8F077C6F8F437C6F8F877C6F8FC77EF
:10A60000C6F80478C6F808783EF062FA96F8293859
:10A61000202BD9B21AD196F82838012B16D0242332
:10A6200086F82938D6F8E8371A6822F001021A604D
:10A630001A6822F480521A601A681A601A6842F086
:10A6400001021A6086F8291886F82878002194F902
:10A6500012003BF077F894F91230A27C002B07DB54
:10A6600002F01F0101225B098A40194941F82320A9
:10A67000002194F911003BF065F894F91130627CE7
:10A68000002B07DB02F01F0101225B098A40104901
:10A6900041F82320BDE8F88FE64615E701315FE772
:10A6A000BCF10F0FF8D100239AE700BF90170120EB
:10A6B000781F0120286B6E4E0038024000001643C0
:10A6C00010C30408002474490000704200FFFF001A
:10A6D00000E100E02DE9F047814DC0EB001605EBED
:10A6E000C606D6F89439002B00F0B880044607015E
:10A6F00096F8040A3BF0A8F896F8043A012203F011
:10A700001F015B09013B8A40032B0AD8DFE813F0E5
:10A71000DC000400E200D60072494B6A23EA020220
:10A720004A623B1B04F1010905EBC3035FFA89F997
:10A7300093F898090CF068FF064618B1122380F8C8
:10A74000079083713B1B05EBC30393F899090CF049
:10A750005BFF824618B1132380F8079083713B1B7F
:10A7600005EBC30393F89A090CF04EFF804618B12D
:10A77000142380F8079083713C1B50462E2105EB73
:10A78000C40595F89C29FFF70BFE95F89D290E212D
:10A790004046FFF705FE95F89B292E213046FFF72E
:10A7A000FFFDD5F8943950491A688B4222F04002D7
:10A7B0001A6055D04D4A934269D002F580629342A7
:10A7C00058D1484A116A41F400411162116A21F4DA
:10A7D000004111625A6842F480525A601A68520667
:10A7E00034D443491E68D1F87843D1F88403D1E9C1
:10A7F000D925B0F5005F42EA0502D1F8705342EA6C
:10A800000502D1F8745342EA0502D1F87C5342EABA
:10A81000040242EA0502D1F8805342EA0502354DAE
:10A8200042EA000205EA060542EA05021A60D1F88A
:10A830006C235D6842EA14422F4C04EA050442EAA4
:10A8400004025A6002D1B1F888231A61DA6922F44D
:10A850000062DA611A6842F040021A60BDE8F087CF
:10A86000204A516A41F480515162516A21F4805169
:10A870005162AFE7214A934213D11A4A516A41F417
:10A8800000515162516A21F400515162A2E7154A08
:10A89000116A41F480411162116A21F48041116210
:10A8A00098E7174A934295D10E4A516A41F48011B4
:10A8B0005162516A21F4801151628BE709490B6999
:10A8C00023EA02020A612CE706494B6923EA0202E5
:10A8D0004A6126E703490B6A23EA02020A6220E77B
:10A8E000901701200038024000300140003800403D
:10A8F000000001204000FFFFFBF0FFFF003401409B
:10A900000050014008B100227EE470472DE9F0417B
:10A91000CB781BB900252846BDE8F08100F110086E
:10A920000C460746897840460CF020F90546002879
:10A93000F0D0E0780CF068FEB86123780133DBB228
:10A9400010B1C371222383710D21154EFFF7DAFF79
:10A95000B869FFF7A5FAD6F8D832632BFBD91148AE
:10A960000CF0F0F8B882404634F072FC20B905468D
:10A97000E0780CF0A7FECEE73B6987F8D8001B789B
:10A98000012B07D0022BC6D196F8743B013386F811
:10A99000743BC0E796F8753B013386F8753BBAE720
:10A9A0009017012040420F0070B50E4CD4F81C6F78
:10A9B000002E15DD04F58764002503E0B54204F19F
:10A9C00020040DD0237F0135002BF7D0E068002252
:10A9D0000028F3D0217D2034FFF716FCB542F1D1D9
:10A9E000012070BD90010020AB4B2DE9F04F91B0DC
:10A9F00093F88A8BA94B0025A94F0093A94BA3F686
:10AA0000640ADFF8B892DFF8B8B24E46B30AA3F58D
:10AA10008013522B55D8534493F8F4330D2B50D850
:10AA2000B8F1010FFC5640F01E81012C3FD14FF0D0
:10AA300000094946204610F00FFA10F095FA90F8F8
:10AA400000C0BCF1000F18BFBCF1540F14BF4FF091
:10AA5000010C4FF0000C40F0028109F104091FFACB
:10AA600089F9B9F1100FE4D1002D00F0BA808B4ABA
:10AA700000210DE0534493F8F4330D2B0FD8FB560F
:10AA8000A3420FD0013102F58672A94280F2A5805F
:10AA9000906803689B0AA3F58013522BEAD9002320
:10AAA000A342EFD143799BF805009842EAD17D4B50
:10AAB0005B4513D05BF81C6FB30AA3F58013522BD0
:10AAC000A9D9B8F1010FF2D001230024B8F1020F87
:10AAD000ADD1002BABD0734B5B45EBD1009B013567
:10AAE00003F58673042D00938BD1DFF8D8814FF0E6
:10AAF000000B08F59E77A8F5876ADAF81C3F5B45DE
:10AB000068DDD8F80C60002E64D098F81030B0885A
:10AB1000D6F80090DAF8045063490193B0FA80F354
:10AB20004944002D0293C3F11F034FEA9121009382
:10AB300040F3CD80594B002405E0013403F58673C2
:10AB4000AC4200F0C1801A688A42F6D14FF4867395
:10AB5000524A03FB0424009A0BF1010B019B5100A4
:10AB6000C8F8042088F810300323C8F80C6003FAF2
:10AB700001F5C8F81840B371012386F807B01646EE
:10AB8000A26C03FA01F12A43A264226D0A432265F2
:10AB90009AF80020002A6BD003FA06F11A46636D7A
:10ABA0000B4389B26365C9F81800D4F8AC00FDF70F
:10ABB000A3FA204608F12008FDF772FA0123BBF141
:10ABC000080F07F1180708F8043C08F8033C07F8D9
:10ABD000073C92D111B0BDE8F08FBCF1000F7FF4BB
:10ABE00066AF5846FDF720FA9BF80540C3B2022B2A
:10ABF00000F24C83431C2D4A5BB203EB43039800E5
:10AC00002B4B03F5727104E0994200F03F8353F837
:10AC10002C2FB242F8D11A79A242F5D11A58002A43
:10AC2000F2D094460023234A51680133614513D082
:10AC3000102B02F12402F7D14FF0FF3303EBC303D3
:10AC40001D4A02EB830393F84031002B7FF42FAFB2
:10AC5000009BC3F808B041E7DBB2013BEEE7002DF3
:10AC60007FF405AF23E7B4F1080318BF01232DE7F4
:10AC700002990004C1F12F05009903FA01F1AB40DC
:10AC8000656D89B22B436365C9F81800D4F8AC0030
:10AC9000FDF732FA8DE700BF9017012098010020E0
:10ACA0007039050874CB04080000FEBF00000140A5
:10ACB00010C3040824010120000001200004014009
:10ACC00094CA0408C8050020032C00F399824FF4AD
:10ACD000867303FB05A31869002800F0C182996000
:10ACE0000131CAB283F811210492542283F8102151
:10ACF0006B1C0268CAF8043044790392FDF794F99A
:10AD0000A04B864693F8A13B0593C3B2022B00F2F9
:10AD1000BD8200F1010C9C499C4800234FFA8CFC39
:10AD2000039A0CEB4C0C4FEA8C0C05E00133172B0B
:10AD300000F0AC8251F82C0F9042F7D10879A04274
:10AD4000F4D151F80C000028F0D02C210EEB4E0E5F
:10AD5000002401FB03F303EB8E0E8B4B7344196944
:10AD60004FF4867303FB05A3C3E90701884B9C4698
:10AD7000DCF80410884217D001340CF1240C102C9C
:10AD8000F6D1844B93F81C21002A00F06282824B9A
:10AD900082488349834AC3F84804C3F84014C3F87F
:10ADA000502411B0BDE8F08F611C7A48C9B2013956
:10ADB00001EBC10100EB810191F8400106900028F0
:10ADC000E5D104984FF08C0C81F841014FF4867066
:10ADD00000FB05F42046542481F8404104468110CC
:10ADE00071480394544400FB01F1C4F800C101FB15
:10ADF0000CF001EB4101C4F80C9001EB011C6B4914
:10AE000001EB4000A1F54C7101EB8C01C4F8FC0092
:10AE1000C4F8B4103321C4F8B8106549039C0C1968
:10AE20005849D1F894920599062900F00E82072915
:10AE300060486149DFF888E10CBF84468C465F4971
:10AE400008BF714610460593039BB9FBF1F1B9FBAE
:10AE5000FCFC4A1E4FF486790CF1FF3192B209FBDB
:10AE600005A9A9F8BC1003F15801A9F87420504BAA
:10AE7000226600221944A4F858206266E2653CF07C
:10AE8000D5FBD9F8103018680493026842F08002AC
:10AE900002605A79059B0C2A08D8DFE802F06B079C
:10AEA0000707640707075C07070754004FF486721B
:10AEB00002FB05A251694FF0600C02684FF00009D7
:10AEC0004FF0020ECDF820C04FF4807C22F001023A
:10AED000CDF82890CDF838C04FF0010CCDF8349063
:10AEE000CDF824C04FF00A0CCDF83C900593CDE985
:10AEF0000BCE026008AA3CF057FA4FF48672049B0E
:10AF000002FB05A219685269059B012A5AD0042A3E
:10AF100058D0102A00F0A981402A53D0B2F5807F82
:10AF200000F0A681B2F5806F00F0A281B2F5805FDB
:10AF300000F0A481B2F5803F4FF03C090CBF08221D
:10AF40004FF400623FE04FF486724FF4805102FBF1
:10AF500005A25161AFE74FF486724FF4807102FB96
:10AF600005A25161A7E74FF48672102102FB05A2EA
:10AF70005161A0E74FF48672012102FB05A25161E5
:10AF800099E700BF9017012010C30408000001409A
:10AF90002401012000000120881200203D5A0108F0
:10AFA000395A0108455A01086B4CA407181A0020A9
:10AFB000980100201055220044950800D0DD0600BD
:10AFC00040771B00082201F1180050F809C042EA3E
:10AFD0000C0240F80920049A1079002840F01C81E6
:10AFE0004FF48671002201FB05A1D1F810C0C86999
:10AFF000DCF800C0DCF8001041F00101CCF80010D2
:10B0000059680132884200F00381102A03F12403B9
:10B01000F6D14FF0FF339F4A03EBC30302EB8303E8
:10B02000D3F824019C4B98420CBF952096203AF00F
:10B030000BFC4FF4867303FB05A31A6953790C2BA1
:10B0400000F2E380954901EB4303B3F880C84FF465
:10B0500086731068924903FB05A3A3F818C0002368
:10B0600006E0904200F008810133042B00F00B81D0
:10B0700051F83320002AF4D1DAF8202F0132CAF82F
:10B08000202F0AEBC302DB00C2F8240F19440698F4
:10B0900023469022B1F804E0DFF818924CEA0E0C37
:10B0A000A1F804C07F49FFF743F84FF486734FF4CB
:10B0B000403C402103FB05A50023E869026842F0FB
:10B0C00010020260026842F014020260C4F8A83064
:10B0D000C4E91F33C4E9283304232A6AC4F898C09A
:10B0E0004FF4804CC4F89C304FF48063A167C4F8DF
:10B0F0008430C4F89420D5F8B820C4F89020C2B2A7
:10B1000020F0FF00103AA9FB0231EA68039B1832D5
:10B11000090922674FF48052C4F8882003F17002B5
:10B12000614B1A44D5F8B430C4F88CC063673CF066
:10B13000E5FBE869039B4FF40031D0F800E04FF4E1
:10B14000006C03F1B802584BC4F820E0D0F814E0CA
:10B150001A440023C4F824E0D0F804E0C4F828E03E
:10B16000D0F808E0C4F82CE0D0F80CE0C4F8C830FF
:10B17000C4F830E0C4F8F030C4E93033C4E93A33FD
:10B180002B6A03930423C4F8E4304FF48063C4F8BB
:10B19000CC30039BC4E93731D5F80031C4F8D8303E
:10B1A000C3B220F0FF00103BA9FB0331EB68C4F8E9
:10B1B000D0C010330909C4F8B830D5F8FC30039377
:10B1C0004FF48043C4F8D430039BC4F8BC303CF047
:10B1D00095FBEB69B0881A68D6F8009062635A69EB
:10B1E000A2635A68E2639A682264DA6862641A6841
:10B1F00042F010021A601A6842F014021A60AAE4BF
:10B2000003232A4A82F8A03BC1E54FF0000C1EE759
:10B21000D3B20693013BFEE6079305910CF0F4F9D7
:10B2200005998146079B58B105930221049BDA7961
:10B23000FEF7EAFF049B5422A9F806201968059B33
:10B240004A6C42F400424A64CAE6DFF86CC018490E
:10B25000F8E50499542283F81D1183F81C2196E522
:10B260000223124A82F8A03B91E54FF40062AAE65D
:10B2700008224FF00409A6E6DB0007E74FF400625E
:10B280004FF004099FE600239B88FFDE00235B68E4
:10B29000FFDE00BF000001200060024010C3040870
:10B2A000B41000204581000898010020901701206B
:10B2B000A0BB0D00ABAAAAAA882A1100F8B590F885
:10B2C000B2311C09013C052C0FD81B4E054603F07A
:10B2D0000F0306EB4402B2F89C0840FA03F2D207CF
:10B2E00003D595F8BD71012F01D00120F8BD07FAF3
:10B2F00003F33444013B18403FF0DCF894F8A828ED
:10B3000013180E4A02EBC30152F833208B881069E0
:10B310001840EBD0002395F8B3210846022185F8A8
:10B32000BD31FEF771FFD5F820213846136843F090
:10B3300008031360F8BD00BF10C3040834230120C4
:10B34000014B53F82000704750280040014B43F850
:10B3500020107047502800401D4B1E48196C1E4A93
:10B3600041F0805130B4196482B0196CFF2401F0AF
:10B37000805101910199016841F480710160CA20F6
:10B38000196C41F480611964196C01F480610091B9
:10B390005321009D5462506251625B6FDB000DD4FB
:10B3A0000E4B00210E4A43F8041B9342FBD10D4B78
:10B3B0000D4AC3F8502802B030BC7047094A0A4B06
:10B3C000D2F850289A42EBD102B030BC704700BF8F
:10B3D000003802400070004000280040542800401F
:10B3E0006C28004000200040316665422DE9F04F96
:10B3F0000646086883B0850ABDF83040A5F580157B
:10B400009DF8349001940C46522D59D8DFF82883CA
:10B41000454495F8F4530D2D52D81946FDF78EFD8D
:10B4200021686279B9F1000F4DD18B0A94F806B00A
:10B43000A3F58013DC46522B4ED9BC4B1CF0020FF7
:10B4400000F0CD8002F01F0703EB8512AD01D2F8AA
:10B4500004040422BA40076A27EA02070762076A5F
:10B460003A430262426C42F400424264B04A876846
:10B470003A40062A06D0B2F5803F03D0026842F077
:10B48000010202605A19022082F84104D2F8040431
:10B49000A74A87683A40062A06D0B2F5803F03D013
:10B4A000026842F0010202602B44012283F8412429
:10B4B00001F13402637971600021D0183060D150FD
:10B4C00003B0BDE8F08F8B0A94F806C0A3F5801393
:10B4D0008CF0010B522BB0D8434493F8F483934B78
:10B4E000B8F10D0FAAD84FEA4B0003EB881E4FEAC4
:10B4F000CB0B00F002000BF0080A4FEA881B9EF805
:10B500004084B8F1010F99D04FF001088EF84084C3
:10B510004FF002088EF84184142A53D8DFE812F065
:10B520008C01520052005200510152005200520050
:10B530001401520052005200C70052005200520043
:10B540008900520052005200150003EB0B0EDFF889
:10B55000EC81DFF8E0A1DEF804E4DEF82090D645C7
:10B5600029F48019CEF82090DEF8209029F40019F3
:10B5700049EA0050DEF80490DEF8547007EA080843
:10B5800048F4C04800F096810AF5806AD64500F07C
:10B590009181019FCEF80490CEF85480CEF85C7073
:10B5A000CEF82000DEF8540040F40060CEF85400DD
:10B5B000DEF8540020F48060CEF85400DEF8540029
:10B5C000CEF8540003EB0B0001271CF0020F80F8AB
:10B5D00041744FF0000780F840747FF433AF03EB01
:10B5E0008510012702F01F02AD01D0F8040407FA0C
:10B5F00002F2076A27EA02070762076A3A43026211
:10B600004C4A90420AD002F58062904206D0876888
:10B61000474A3A40062A7FF42EAF33E7426C42F4A1
:10B6200000424264424A87683A40062A7FF423AFC8
:10B6300028E703EB0B0EDFF80881DFF8F8A0DEF84F
:10B6400004E4DEF82090D64529F48039CEF8209025
:10B65000DEF8209029F4003949EA0040DEF8049031
:10B66000DEF8547007EA080848F0600800F01F810F
:10B670000AF5806AD64500F01A81019FCEF8049041
:10B68000CEF85480CEF85870CEF82000DEF8540082
:10B6900040F00800CEF85400DEF8540020F004001A
:10B6A000CEF85400DEF85400CEF854008AE703EBDD
:10B6B0000B0EDFF89080DFF87CA0DEF804E4DEF803
:10B6C0002090D64529F48059CEF82090DEF82090BD
:10B6D00029F4005949EA0030DEF80490DEF81C70C5
:10B6E00007EA080848F4C04800F0F0800AF5806ACC
:10B6F000D64500F0EB80019FCEF80490CEF81C8078
:10B70000CEF84070CEF82000DEF81C0040F4006057
:10B71000CEF81C00DEF81C0020F48060CEF81C007F
:10B72000DEF81C00CEF81C004CE700BF901701208B
:10B73000070001000000014010C30408FF8FFFFE56
:10B740008FFFFEFFFF8CFFFE03EB0B0EDFF8AC81DB
:10B75000DEF804E4DEF8209029F48079CEF8209019
:10B76000DEF8209029F4007949EA0020DEF8049000
:10B77000DEF81C7007EA08085F4FBE4548F0600815
:10B7800000F09B8007F58067BE4500F09680019F22
:10B79000CEF80490CEF81C80CEF83C70CEF8200095
:10B7A000DEF81C0040F00800CEF81C00DEF81C009B
:10B7B00020F00400CEF81C00DEF81C00CEF81C00BF
:10B7C00000E703EB0B0EDFF83881DEF804E4DEF867
:10B7D000209029F01009CEF82090DEF8209029F072
:10B7E000200949EA0010DEF80490DEF8187007EA34
:10B7F0000808414FBE4548F4C04873D007F580673C
:10B80000BE456FD0019FCEF80490CEF81880CEF8D8
:10B810003870CEF82000DEF8180040F40060CEF852
:10B820001800DEF8180020F48060CEF81800DEF86A
:10B830001800CEF81800C5E603EB0B0EDFF8BC804D
:10B84000DEF804E4DEF8209029F00109CEF820901B
:10B85000DEF8209029F0020940EA0900DEF80490A1
:10B86000DEF8187007EA0808234FBE4548F0600864
:10B870002FD007F58067BE452BD0019FCEF80490EE
:10B88000CEF81880CEF83470CEF82000DEF818001C
:10B8900040F00800CEF81800DEF8180020F0040090
:10B8A000CEF81800DEF81800CEF818008AE649F441
:10B8B0008039E2E649F480296BE620F4006049F41F
:10B8C000405940EA0A2020F4806060E749F480494A
:10B8D00011E720F0080049F440794AEA000020F01E
:10B8E0000400CAE720F0800049F4406940EA0A10E9
:10B8F00020F0400086E700BF000001408CFFFEFF03
:10B90000FF8CFFFEF0B50446D0F89400434B83B0A3
:10B91000A16804F1640204F118070E68C1B220F0B6
:10B92000FF0001921039A3FB013109093CF030F806
:10B93000616D0023019A012984F8583018D0042938
:10B9400016D0102955D0402912D0B1F5807F53D0A0
:10B95000B1F5806F50D0B1F5805F55D0B1F5803F23
:10B960004FF03C030CBF6FF0080C6FF4006C01E06B
:10B970006FF0080C06F118053046E95801EA0C0191
:10B98000E950616D3BF010FD636D012B16D0042B67
:10B9900014D0102B0FD0402B10D0B3F5807F2FD0B8
:10B9A000B3F5806F2CD0B3F5805F31D0B3F5803F15
:10B9B00006F1540502D04FF4006100E008212B6825
:10B9C0003A46D4F894000B4340212B602162C1B267
:10B9D000124B20F0FF001039A3FB013109093BF0A5
:10B9E0008DFFD4F89420136843F01003136003B064
:10B9F000F0BD6FF4006CBDE76FF0080C0423B9E7ED
:10BA000006F11C050821DAE76FF4006C0423B1E7A6
:10BA100006F11C054FF40061D1E700BFABAAAAAA4A
:10BA20002DE9F04FDFF85CB29BF800402DED028B62
:10BA300087B034B90124204607B0BDEC028BBDE8C5
:10BA4000F08F8B4BDFF840A2D3F8D83208EE103AD3
:10BA50000CF010F99AF8243C0390002B00F00181BF
:10BA60000BF234670BF634330BF63C4400263D46AC
:10BA700001930597DAF81C34039AD31A03D4EA6DBC
:10BA80009A4200F3D08006EB86030BEB431393F846
:10BA90008C3603F0FF020292002B00F08D80D5F867
:10BAA0009410AB6873481A68CBB221F0FF01103BC9
:10BAB000A0FB030370481B09C35C19444B68A989A8
:10BAC0001FFA83FCD368CCF1160C23EA0103BCF106
:10BAD000070FD36070D9DBF83C3B00220121013312
:10BAE00096468946CBF83C3BD5F89C301F460493DC
:10BAF00057F8048B40461CE0D7F80080BEF1140FC5
:10BB0000A8EB000340461CDC13F1080848BF03F112
:10BB100017084FEA28130EEB281E03F1FF380131F6
:10BB200002FA03F3043709FA08F28C4542EA0302E9
:10BB300007D38C45E0D8CEF1150338684FF0150EC9
:10BB4000EBE7BEF1150F65D14C49C2F38423C2F374
:10BB5000441001EB830301EB8000D3F8B038D0F838
:10BB6000B0081B0243EA001302F01F00C2F3C43204
:10BB700001EB800001EB8202D0F8B018D2F8B028B7
:10BB80000B4343EA023383EA132282EA121202F0E1
:10BB90000F020F2A3ED1C3F30F134FF6FF729342E9
:10BBA00038D0B3F5606F45D0019A9381029918EEB1
:10BBB000102A20460AF06CFF019B284601365C34AF
:10BBC0001433A0350193FFF79DFE9AF8243CB3424D
:10BBD0003FF750AF0122059F8BF8382C0022CAF89E
:10BBE0001C24002B3FF426AF03EB830307EB431326
:10BBF0003A7CA03757F84C0C12F0020F57F8982CEB
:10BC000011680A6A14BF42EA80020243BB420A6218
:10BC1000EED10FE7DBF8383B0133CBF8383BCEB140
:10BC200000230293C2E70024204607B0BDEC028B3C
:10BC3000BDE8F08F0E4991F8B42302EB420201EB0C
:10BC4000C202324492F861230D2AADD18023019AB9
:10BC50009377ABE704995822094840F073F90296AC
:10BC6000A4E70122CAF81C348BF8382CE3E600BFA5
:10BC700090170120ABAAAAAA8039050810C30408AE
:10BC8000700D00209001002088120020D0F82011B3
:10BC9000242200232DE9F041C0F8942104460A68CB
:10BCA000806804F5907522F001020A600B604B6019
:10BCB0008B6094F805C0C4F89C314FEA8C22C4F81C
:10BCC000943184F8903102F48052C4F89831C4F869
:10BCD0003831C4F828214FEA0C32C4F8403102F45C
:10BCE0000052C4F834312379C4F82C214FEA0C22D5
:10BCF000C4F8240113F0010002F48062C4F830217A
:10BD000002D00422C4F8342113F0020305D0D4F881
:10BD1000342142F00802C4F834211CF0010F0DD088
:10BD200048B1D4F8442142F00202C4F844214FF44F
:10BD30008032C4F84C21002B40F0FF80A84B03F167
:10BD4000200053F8042F944200F0BD809842F8D1AF
:10BD50001CF0080F40F0CD80D4F89431002B00F097
:10BD6000168124232846C4F894310B6823F001037C
:10BD70000B6035F0FBFF012815D0D4F84431002BBF
:10BD800040F01881D4F8203128465A6822F49042B5
:10BD90005A609A6822F02A029A601A6842F00102F8
:10BDA0001A603CF075FD2379DA0761D5D4F8FC20E0
:10BDB000002A00F0D9800023D4F8041104F13C06D5
:10BDC000E263A3644FF480623046E264C4E9101376
:10BDD000C4E91433C4E91833C4E91A334FF4803387
:10BDE000E3654FF48073A3653CF0C0FE304635F048
:10BDF000E1F9D4F89881C4F88C61B8F1200F656737
:10BE000031D1E368626999B26AB3B1FA81F77F0907
:10BE100049B394F89001012825D030460126C4F892
:10BE20009C710B4684F890612226A4F87811C4F81E
:10BE300098616C4ED4F82011A6676B4E2431C4F87B
:10BE40007421E667694EC4F88C70C4F8886035F0D8
:10BE500049FA002800F0B280102384F89071C4F8E9
:10BE60009C31C4F89481E26B23795268C4F81421A0
:10BE70009B0777D5D4F80021002A69D00023D4F895
:10BE8000081104F19C06C4F89C20C4F8A830402294
:10BE9000C4F8B8303046C4E92C33C4E93033C4E9BF
:10BEA00032334FF48033C4F8BC304FF48063C4E9BC
:10BEB0002812C4F8AC303CF059FE304635F07AF91F
:10BEC000002867D0FEE7002C3FF442AF94F8BC3165
:10BED000002B3FF43DAFD4F844311CF0080F43F081
:10BEE0000803C4F844314FF40043C4F854313FF41C
:10BEF00033AFD4F89431002B55D024232846C4F80E
:10BF000094310B6823F001030B6035F02FFF0128FB
:10BF10003FF449AFD4F84431002B47D1D4F8203155
:10BF200028465A6822F490425A609A6822F0220207
:10BF30009A609A6842F008022EE7D4F8443143F040
:10BF40000103C4F844314FF40033C4F84831F5E636
:10BF5000D4F8A0311A6842F080021A601A6842F0E0
:10BF600040021A60BDE8F081D4F8A021116841F4C4
:10BF700080711160916841F001019160116841F098
:10BF800020011160116841F01001116070E784F820
:10BF90009031E6E6D4F89C30C4F88861C4F8D450F7
:10BFA0005860BDE8F08184F89031A6E7284636F065
:10BFB00097F8B3E7284636F093F8E3E6D4F8203153
:10BFC00084F890011A6842F480721A609A6842F00C
:10BFD00001029A609A6842F040029A6043E700BF0B
:10BFE000B01E0020E9E1030819E203081DE203087E
:10BFF000F8B5EFF31185502383F31288D0F80031A0
:10C000001B6813F0010303D0EDB285F31188F8BD6E
:10C01000D0F894210446D0F898110A4302F0210286
:10C02000212AF1D0D0E90901884253D043D82269AE
:10C030001846531A9BB2D4F894710022A062202FA4
:10C0400084F8A421E0D1A2695118DDD0B3FA83F6B7
:10C050007609002BD8D094F89021012AD4D001225F
:10C06000D4F88801A4F8723184F890212122C4F810
:10C070009C61C4F86C11A4F87031C4F89421E8B143
:10C08000DFF858C0D4F82021C0F83CC0DFF850C019
:10C0900028320665C0F840C0DFF848C0C0F84CC080
:10C0A00035F020F950B1102384F89061C4F89C3128
:10C0B000C4F89471A8E7431A9BB2BCE7D4F82031C6
:10C0C00000224021196284F890219A6842F080028F
:10C0D0009A6099E7012384F8A43195E7C1E1030848
:10C0E000E5E103081DE2030870B5D0F820410546DC
:10C0F000E369990614D5606AEB6AC0B2002B74D06C
:10C10000296B9847D5F82041236823F48073236076
:10C11000A36823F00103A360A36943F00803A361AC
:10C12000E369DA0701D501232362E3699B0701D59F
:10C1300002232362E3695E0701D504232362E369D6
:10C14000180701D508232362E369590614D5402353
:10C15000236295F8BD61002E31D0D5F80031CBB106
:10C160002846FFF745FF95F8A4311BB195F8BD614E
:10C17000002E4BD0D5F82041D5F8003163B1E369EA
:10C18000DB0606D56B6B13B19847D5F82041102319
:10C19000236270BDD5F82041E3691A06EFD5D5E9D1
:10C1A000092393422DD0AA69D25C0133D2B2A26294
:10C1B0002A69B3FBF2F102FB1133AB62DFE795F8BA
:10C1C000B2010BF021FA236823F008032360012356
:10C1D00085F8BD310028C0D032462021FEF714F882
:10C1E000D5F80031002BBBD1D4E7EB696A69D05494
:10C1F000EB69EA680133B3FBF2F102FB1133EB6147
:10C2000080E7236823F080032360B8E795F8B20144
:10C210000BF0FAF9D5F820410122236823F0080336
:10C22000236085F8BD210028A6D032462021FDF7E5
:10C23000EBFF9FE72DE9F04FAF4C83B004EB800498
:10C24000D4F82C4C002C6BD0D4F8AC511F46DFF83E
:10C25000C4B290466B680646A84AC4F8A0316B6B1E
:10C26000DFF8B49263612B6BA160A3616B8FE36015
:10C270002B8FC4F8A82123610BF5136323602A7860
:10C2800009EB420393F9A40E53000193C3B2012BAF
:10C2900040F28680D4F8003183B1994900209C4651
:10C2A0004B68013024319C4500F0F6801028F7D10E
:10C2B000944B93F81C11002900F05381D4F8FC0032
:10C2C000002840F0C2806B68C4F8203195F828003F
:10C2D000002840F0D28094F8B2010BF095F90221C9
:10C2E0003A07034694F8B09184F8BD111CD558B3B1
:10C2F00017F0510F4FF00B0206F1010614BF0A218F
:10C300001A2117F0410FC671827114BF40232023F8
:10C3100094F8B3211943FDF777FFD4F8FC3043B309
:10C32000204603B0BDE8F08F18F0020F0CD058B1D2
:10C330000B223B06827106F10102C27100F11881E5
:10C3400094F8B321FDF760FF48460BF05DF9002833
:10C35000E3D018F0010FE0D00C2201360221C671A3
:10C36000827194F8B121FDF74FFFD4F8FC30002B17
:10C37000D6D195F82C1095F92A00890939F0E2F9FF
:10C3800095F92A3095F82A20002BC9DB02F01F020C
:10C3900001215B095C4801FA02F240F82320BFE763
:10C3A00008234FF00C0A0BF59E6C1AFB003A002391
:10C3B000E64619460131172962D01EF81C3F042BAE
:10C3C000F8D19EF801309342F4D15EF80A30002B88
:10C3D000F0D08E460199C4F800318944CEEBCE01ED
:10C3E00099F9A5EE890000EB4009BEF1FF3F01EB92
:10C3F00089015944D1F8FC14C4F808113FF44DAF39
:10C400000021013117293FF447AF1CF81CEFBEF1A2
:10C41000050FF6D19CF801E09645F2D15CF80AE0F0
:10C42000BEF1000FEDD0C1EBC101C4F8FCE000EBA0
:10C430004000890001EB80008344DBF8FC14C4F861
:10C440000411002B7FF429AF70462D4A0023516858
:10C4500001332432814261D0102BF8D1294B93F85B
:10C460001C21002A7FF42FAF2A78013283F81D2186
:10C470000C2283F81C216B6826E739F0E5F92AE7DE
:10C48000019B9944D4F8003199F9A51E0131B7D127
:10C49000002B7FF402AF11E75FFA80F9194B0132EC
:10C4A00009F1FF31D2B201EBC10103EB810393F833
:10C4B000401100297FF402AF83F841211348D3F8DB
:10C4C000242182420CBF952096200B2283F8402124
:10C4D00039F0BAF92346484695F82B200C49FDF768
:10C4E00027FE6B68D4F8FC002833C4F81831002804
:10C4F0003FF4E9AEA9E700BF88120020BDB20008F2
:10C50000240101200000012000E100E00060024061
:10C510009D83000810C3040890170120DBB2184A5D
:10C52000013B03EBC30302EB83032A7893F840112A
:10C530000132D2B200297FF4C6AED3F8240183F8C9
:10C540004121104A90420CBF952096200C2283F87E
:10C55000402139F079F96B6803F12402C4F81C21F9
:10C56000B2E6013283F81D210B2283F81C21A5E6D7
:10C570000123204684F8BD31FEF7A0FEE4E600BFAB
:10C580000000012000600240BFF34F8F0549064BB9
:10C59000CA6802F4E0621343CB60BFF34F8F00BF61
:10C5A000FDE700BF00ED00E00400FA0508B572B633
:10C5B000FFF7EAFF70B582B0FEF7CEFE0320FEF76C
:10C5C000BFFE01284DD0334C0025334A0523C4F863
:10C5D0009850C4F89C50C4F8A020C4F89430BFF31D
:10C5E0004F8FBFF36F8F4FF6FF01E2682B4B0A406E
:10C5F0002B4E13432B4AE360536FC6F8BC3E35F015
:10C6000017F8294B2949A3FB0023D4F8FC209B0CE5
:10C6100042F08072C4F8FC20C6F8BC33D6F89432DD
:10C62000234AA1FB031323499B09C2F8B01F55609D
:10C63000013B1168B3F1807F41F00101116008D224
:10C640004FF0E022F0215361072384F82310956115
:10C6500013614FF0E022136943F00403136102B049
:10C6600070BD02210320FEF771FE0E4B12485A6C7A
:10C67000124942F480425A645B6C03F48043019394
:10C68000019A02680B68026083F308884B68984738
:10C69000FEE700BF00ED00E01B0000060005FA0504
:10C6A000901701200038024083DE1B43D34D6210F7
:10C6B000001000E055CEACC5003801400000F01F6E
:10C6C000800AA0F5801052281CD80F4B184490F80F
:10C6D000F4330D2B16D8013910B40C4C04EB831C29
:10C6E000D4F894428BB2DCF804040CF58161CCF8E8
:10C6F0001034B4FBF2F2013A5DF8044BCCF8082494
:10C7000035F030BA704700BF10C3040890170120FD
:10C7100070B504460068830AA3F58013522B05D830
:10C720002E4E334493F8F4530D2D00D970BDFCF711
:10C7300005FC2B4BA801022203EB8515D5F8041448
:10C7400085F84124274A8D682A40062A06D0B2F58A
:10C75000803F03D00A6842F001020A6003440120CE
:10C760002168214A83F841040023204801E050F861
:10C77000332091420AD001330E2BF8D10121002041
:10C7800038F0E0FF1A4B01221A6070BD06EBC303BC
:10C79000012193F9654993F86569204638F0D2FF85
:10C7A000002CC3DB06F01F0301216409104D01FAC0
:10C7B00003F31B2E45F8243008D02E2EB6D12C20A2
:10C7C00038F0C0FF4FF480536B6070BD192038F013
:10C7D000B9FF4FF000732B6070BD00BF10C3040899
:10C7E00090170120070001000000014070CC0408F0
:10C7F00000E100E003689B0AA3F58013522B56D892
:10C8000070B53B4C234493F8F4C3BCF10D0F4DD8E5
:10C810004079850800294ED00CEB8C034FF0020EB6
:10C82000840834480CEB43030EFA04F42B4400EB69
:10C830008C15D5F8045400EB830EEE68CEF8041086
:10C840003443CEF81420EC604FEA8C14EFF3118ED1
:10C85000502383F312882C2303FB0CF3C258C11816
:10C8600032B3131D4A622C22234D02FB0CF21544F5
:10C870001432024452F8041B19B1196052F8043CF6
:10C8800004339542F6D100225FFA8EFE1A608EF3D1
:10C8900011882C2303FB0C0C2044DCF82430D0F846
:10C8A000042403B3D36843F00103D36070BD704721
:10C8B00024330344D7E70CEB8C030E482C460CEBD7
:10C8C00043032B4400EB8C15D5F804640225A540E6
:10C8D000F46824EA0504F46000EB8304616062619B
:10C8E0004FEA8C14B2E7D36823F00103D36070BD24
:10C8F00010C3040890170120B417012003689B0A95
:10C90000A3F58013522B00D97047144A134493F8AF
:10C91000F4330D2BF8D810B4114C79B941790222B7
:10C9200004EB83105DF8044B21FA02F3D0F80414F1
:10C930009A40CB6823EA0203CB6070474179022218
:10C9400004EB83105DF8044B21FA02F3D0F80414D1
:10C9500002FA03F3CA681343CB60704710C304089C
:10C960009017012003689B0AA3F58013522B10D85F
:10C97000084A134493F8F4230D2A0AD84079022375
:10C980000549D84001EB82128340D2F80424DB43EE
:10C990001361704710C30408901701200149024831
:10C9A000FCF768BA901701200000014010B5064C52
:10C9B00006482146FCF75EFA04F5C6710448BDE856
:10C9C0001040FCF757BA00BF90170120000001404B
:10C9D0000044014002494FF08040FCF74BBA00BFD1
:10C9E000BC17012001490248FCF744BAE8170120AE
:10C9F0000004004001490248FCF73CBA1418012029
:10CA00000008004001490248FCF734BA40180120F0
:10CA1000000C00402DE9F843194E3569F3681D40BC
:10CA200010D04FF00047DFF85C80B5FA85F227FAA6
:10CA300002F31F2A6FEA030305EA0305336103D0FB
:10CA4000002DF2D1BDE8F883D8F80431A3B103F189
:10CA5000FF3900231FFA89F9C8F80431D8F80041DA
:10CA6000002CEDD023682046494698476468002C86
:10CA7000F8D1002DD9D1E5E7F16A1FFA81F9EDE788
:10CA8000001000409017012001490248FCF7F2B95C
:10CA9000C41801200004014010B5064C064804F5F6
:10CAA0009A71FCF7E7F904F504710448BDE81040F9
:10CAB000FCF7E0B99017012000040140001C004081
:10CAC00001490248FCF7D6B9F018012000400140A6
:10CAD00001490248FCF7CEB948190120004801403D
:10CAE00001490248FCF7C6B974190120001800403A
:10CAF0002DE9F0414FF425728EB0002166483FF0D9
:10CB000049FA664B664E4FF080415A6C06F688052E
:10CB1000374642F00102DFF89081A6F18C045A6496
:10CB20005A6C02F001020092009A1A6C42F0010263
:10CB30001A641A6C02F001020192019A1A6C42F016
:10CB400002021A641A6C02F002020292029A1A6C31
:10CB500042F004021A641A6C02F004020392039A6F
:10CB60001A6C42F008021A641A6C02F0080204926D
:10CB7000049A1A6C42F010021A641A6C02F0100245
:10CB80000592059A1A6C42F020021A641A6C02F09F
:10CB900020020692069A5A6C42F002025A645A6CBB
:10CBA00002F002020792079A5A6C42F480325A64E9
:10CBB0005A6C02F480320892089A5A6C42F400329D
:10CBC0005A645A6C02F400320992099A5A6C42F47F
:10CBD00080225A645A6C02F480220A920A9A1A6CD1
:10CBE00042F040021A641A6C02F040020B920B9A57
:10CBF0001A6C42F080021A641A6C02F080020C92E5
:10CC00000C9A1A6C42F480721A641B6C03F48073E1
:10CC10000D930D9B4246002301E054F833209142CE
:10CC20000BD001330E2BF8D11C37002038F00CFE4E
:10CC3000AF420CD057F81C1CECE71A4A1C3702EB29
:10CC4000C30393F8640938F0FFFDAF42F2D14FF00F
:10CC50008041154F154C3A46002301E054F833202B
:10CC600091420BD001330E2BF8D11C36002038F046
:10CC7000EBFDAE420CD056F81C1CECE7094A1C3602
:10CC800002EBC30393F8640938F0DEFDAE42F2D143
:10CC90000EB0BDE8F08100BF9017012000380240BF
:10CCA000FCCC040810C304080000014070CC040848
:10CCB000800AA0F5801052280ED8084B184490F82E
:10CCC000F4230D2A08D8064B03EB8213D3F804246F
:10CCD000136843F001031360704700BF10C30408DA
:10CCE0009017012038B5264C94F8C03E012B12D184
:10CCF000042894BF002301236BB904EB40000D46C8
:10CD000094F8D81EC4F8EC3EB4F8DA2EB0F8E23E3F
:10CD1000B4F8DE0E01B138BD07EE902AD4F8D02E5B
:10CD20009FED180AB8EEE77ADFED177A27EE277A3B
:10CD300007EE902A6422F8EE676A02FB03F307EE1F
:10CD4000903A02FB003366EE806AB8EEE76A07EEBF
:10CD5000903AF8EEE77A27EE067A87EE270A20EE79
:10CD6000260A3EF02BFBD4F8C82EB4F8DC3E106047
:10CD7000D4F8D81219442944C4F8F01E38BD00BFB5
:10CD800090170120CA269B3E0AD7233CF0B5A24C3F
:10CD9000A5B0E368022B00F03A82A048A04AA1495E
:10CDA000121A3FF0CFF8A048A04AA149121A3FF04A
:10CDB000C9F8A368012B00F2C28003EB43039D4A2C
:10CDC0009D4D02EB430032F8132041888388C5E96A
:10CDD000E321C5F89433994C994E9A4BB2FBF1F28A
:10CDE000994901FB02F20021C6F89422D4F8882068
:10CDF00042F47002C4F888201A6842F001021A60F6
:10CE00009960924A1868024091481A60C0F3080776
:10CE1000904A5A601A6822F480221A60D96007B1D9
:10CE2000FEE78D49A0604FF6FF000A688B4B42F485
:10CE300000720A60E26802401343E36038F0FAFFD0
:10CE4000BFF34F8FBFF36F8FC4F85072BFF34F8F94
:10CE5000BFF36F8F636943F400336361BFF34F8F98
:10CE6000BFF36F8FC4F88470BFF34F8FD4F8803056
:10CE700043F6E07CC3F3C90EC3F34E33580100EA16
:10CE80000C01734641EA8372013B5F1CC4F86022C7
:10CE9000F8D1203810F1200FF1D1BFF34F8F636923
:10CEA00043F480336361BFF34F8FBFF36F8F6A49E1
:10CEB000644B0A6842F480720A60196C684A41F057
:10CEC00080511964196C01F0805102910299116826
:10CED00041F4404111601268D5F88C0302F44042DD
:10CEE000D5F89043D5F894130192019A9A6802F00C
:10CEF0000C02042A00F08D809A6802F00C02082AC5
:10CF000000F083804F4A136843F480331360D6F8EF
:10CF1000F47E04E0D6F8F43EDB1B642B74D813686F
:10CF20009B03F7D5474A936803F00C03082B6BD09B
:10CF3000136823F080731360D6F8F47E08E03E4D4A
:10CF4000D5E9E32147E7D6F8F43EDB1B022B5BD89B
:10CF500013689B01F7D40B06640843EA8013611E33
:10CF600043EA01433F491943364B5160116841F090
:10CF700080711160D6F8F41E04E0D6F8F42E521A2F
:10CF8000022A41D81A689201F7D5196C344A41F047
:10CF9000805119641B6C03F080530393039B136847
:10CFA00043F480331360D6F8F41E06E0D6F8F43E5E
:10CFB0005B1AB3F57A7F00F2CB805368DF03F5D5B7
:10CFC0001368274943F400331360D6F8F42E06E0C3
:10CFD000D6F8F43E9B1AB3F57A7F00F2B9804B681D
:10CFE0009C03F5D54FF400124FF0006304A804929F
:10CFF0004FF4C07221930723CDE9082303230A933A
:10D0000034F04AFB80B3FEE7FEE75B685A027FF527
:10D0100079AF0C4B1B6885E75028004000000000EA
:10D02000D03D000000BA050800000020900100205B
:10D030006719060868D504080000012000ED00E02B
:10D04000901701200038024040420F00FFFFF6FE1B
:10D050000000000810300024003C02400003FA05E4
:10D0600000700040080040206C4A136803F00F0372
:10D07000062B0AD8136823F00F0343F0070313604D
:10D08000136803F00F03072B63D1654B9A6842F4D2
:10D09000E0529A609A6842F460429A609A6822F07C
:10D0A000F0029A601A68900153D59A6841F288316B
:10D0B00022F0030242F002029A60D6F8F40E04E075
:10D0C000D6F8F42E121A8A4243D89A6802F00C025B
:10D0D000082AF5D1514A136819070AD5136823F0B5
:10D0E0000F0343F007031360136803F00F03072BCC
:10D0F0002FD14B4C4B4FA36823F4E05343F4A05380
:10D10000A360A36823F4604343F40043A36034F0B6
:10D110008FFAA368C3F303133B4493F86C31D840F0
:10D12000C6F8940238F086FE002304A8CDE9133334
:10D13000CDE91533CDE91733CDE91933CDE91B33EB
:10D14000CDE91D33384B049334F0A6FA10B1FEE755
:10D15000FEE7FEE702234FF0007204A8CDE9063394
:10D16000D823CDE9042301230B9334F095FA00B1C1
:10D17000FEE7D4F88C3023F08073C4F88C30D4F8F8
:10D180008C3043F08073C4F88C30A36803F00C0338
:10D19000042B36D0082B18D0244BC6F89432204AE2
:10D1A000D5E9E331B3FBF1F39168D6F89422C1F3EA
:10D1B00003110F4497F86C11CA401D4901FB03F39A
:10D1C000C6F89422934220D0FEE76368626813F4A5
:10D1D000800F636802F03F0218BF1649C3F388133B
:10D1E00008BF1249B1FBF2F202FB03F30C4A52688A
:10D1F000C2F3014201325200B3FBF2F3C6F894329B
:10D20000CDE70C4BC6F89432C9E725B0F0BD00213C
:10D210000320FEF79BF8FFF7B7F900BF003C024080
:10D220000038024008D40408C0FF03000024F400C2
:10D2300040420F0000127A000548D0F8A43223B112
:10D24000DB6A13B100F5297018470248704700BF28
:10D250009017012084D5040830B5114C4FF0000C14
:10D26000234693F800E00633864515D00CF1010CF7
:10D27000BCF1060FF5D10B4DD5F81C3F052B0AD09C
:10D280000CFB034C0133C5F81C3F8CF80000ACF8D4
:10D290000210ACF8042030BD062303FB0C4CF4E76D
:10D2A000882601209017012010B5174CD4F8203F94
:10D2B0001B883BB9002384F8283F84F89C32C4F8CB
:10D2C000983210BDD4F81C2F002AF3DD012A08D0B3
:10D2D000D4F8243F59880123A4F82A1F84F82C3F4E
:10D2E000E8E7D4F8241F8A8849880132521A9A4202
:10D2F000F1D10022D4F8A43204F529701B69C4F8D6
:10D30000D0229847D6E700BF901701200748D0F8F1
:10D31000A03213B190F82C3F0BB100207047D0F829
:10D32000A43200F529705B68184700BF90170120F0
:10D33000174B10B4174C93F89C222244C0E90024E8
:10D3400093F89C0293F8282F824217D893F89C02F6
:10D35000824206D300235DF8044B1846C1E900332E
:10D36000704793F89C32002A5DF8044BC3F18003A8
:10D370000CBF012002204A600B60704793F89C426A
:10D3800000230120121B5DF8044BC1E90023704704
:10D3900090170120D41E00200F4B93F89C2293F885
:10D3A000280F93F89C22904293F89C220FD8904229
:10D3B00004D3D3F8983200201844704793F89C2285
:10D3C000D3F89832C2F18002104418447047801A92
:10D3D000D3F89832184470479017012010B51B4CB1
:10D3E00084B01B4B94F89C220393134494F8281F99
:10D3F000029394F89C32994294F89C3214D8994242
:10D400000AD294F89C320191C3F180030093C9B908
:10D4100001223F2B0ED868B994F89C02401AB0FA4A
:10D4200080F0400904B010BD0022CB1A0192012205
:10D430000093EEE76946002302A83CF0EFF994F868
:10D44000281FE9E70B440222E3E700BF9017012001
:10D45000D41E00202DE9F043164685B000293CD0AB
:10D46000451E284CDFF8A4804FF000096F180DE02E
:10D4700094F89C3208468B4294F89C321DD9C3F133
:10D48000800318443F281BD8AF4226D094F8280FB9
:10D4900015F8013F411C4044C9B280F84C3C0B06D2
:10D4A00084F8281FE4D5002094F89C3284F8289F43
:10D4B00001468B4294F89C32E1D8C01A3F28E3D948
:10D4C00094F89C328B42DFD00F4B1B78002BDBD0C3
:10D4D0000020FFF783FFAF42D8D1694602A8FFF7CB
:10D4E00027FFDDE9003213443F2B00D910B905B006
:10D4F000BDE8F0830246334602A83CF08FF905B040
:10D50000BDE8F08390170120000001208812002060
:10D5100030B585B0694602A8FFF70AFF58B9094C33
:10D5200004F52975D4F8A43228465B68984700288A
:10D53000F8D005B030BD0246012302A83CF06EF9D8
:10D54000EDE700BF9017012070B5114C16460A4652
:10D5500082B0D4F8A03281190546994294F8281F68
:10D5600088BF1E1A94F89C32994203D00192FFF7AB
:10D57000CFFF019A002033462946C4F8D002D4F8E0
:10D58000A402846A0348A44602B0BDE87040604724
:10D5900090170120341A01208C461346014662463A
:10D5A0001846D1E738B5244C002204F6F86013463B
:10D5B000C4F8A02202461178063202292BD001338A
:10D5C000062BF8D10022D4F8A432C4F8242FF3B1EA
:10D5D000DA6AE2B119489047D4F8243FC4F8200F22
:10D5E000A3B159889A884368521A02FB0333C4F8DE
:10D5F000A032FBF72BF894F89C32054694F8282FBC
:10D600009A4201D0FFF784FFC4F8985238BD0C4B02
:10D61000C4F8203F38BD03EB4303D4F8A42200EB49
:10D620004303C4F8243F12B1D26A002AD2D1044A7B
:10D630001046C4F8202FD4E790170120341A012097
:10D6400084D5040810B50A4CD4F8A4325B6A13B12F
:10D6500004F529709847D4F89832D4F8202F013B6C
:10D660005288134452421340C4F8983210BD00BF90
:10D67000901701202DE9F043384E93B0FFF714FEC8
:10D68000FFF790FF96F89C3296F8282F9A4201D027
:10D69000FFF73EFF0025D6F8A072C6F8985297B162
:10D6A0006C46DFF8BC802A4641462046203501F012
:10D6B00023FE20463CF0D2F9012201462046FFF726
:10D6C000C9FEAF42EFD896F89C3296F8282F9A42BE
:10D6D00001D0FFF71DFFD6F8203F9B7B012B36D0F2
:10D6E00096F89C3296F8282F9A4201D0FFF710FF47
:10D6F0000020C6F898026FB380466C46DFF8609051
:10D70000054601E0AF421CD92A46494609A801F066
:10D71000F3FD2122002120463EF03CFC2022214640
:10D720002846FFF711FF2022064609A9204620358A
:10D730003EF04CFD08B9202EE4D0AF4208F10108BC
:10D74000E2D8B8FA88F0400913B0BDE8F083FFF7DB
:10D7500079FFC5E7012013B0BDE8F08390170120E1
:10D76000F03805080A4B93F8980318B9094B93F859
:10D770002D0F7047084AD1680329F7D105494FF0AA
:10D78000010C81F82DCF0021D16083F898137047E8
:10D79000000001209017012050280040032104467A
:10D7A00008B50846FDF7D2FD72B61049D1F8300F22
:10D7B000D1F8343F50EA03020AD100221146042076
:10D7C000FDF7C4FD11460520FDF7C0FDFEF7DCFEA8
:10D7D000D1F8D82221B24EF66024121804FB01F1D0
:10D7E00043F100038A1843EBE171E8E79017012049
:10D7F0000021032008B5FDF7A9FD72B6FEF7C4FEAF
:10D80000184CD4F8382F94F83E0F08B54AB1116877
:10D81000938809690B40F8B9003B18BF0123002B1E
:10D82000F4D114200CF0CEFC00BFD4F8383F63B123
:10D83000196894F83E2F9B8809690B4042B9003B58
:10D8400018BF01230BB1FFF7D3FFFAF731FFEBE766
:10D85000B3FA83F35B09F5E7B3FA83F35B09002BB3
:10D86000D4D1DEE790170120F8B51C2009F0CCFEDA
:10D8700004461121FDF746F87CB3A388C82022682E
:10D880001B0493610CF09EFC2368A2881B209A6104
:10D8900009F0BAFE08B12923C3802923E380264C6E
:10D8A000D4F8CC3113B10023C4F8CC310023234E7B
:10D8B0000125234FC4F8C86187F8403F84F8B4516C
:10D8C00038F0C4FB06F11C03C4F8CC311D4B93F8AF
:10D8D000F930AB420CD02846F8BDC8200CF072FCE1
:10D8E0001B2009F091FE0028D9D02923C380D6E758
:10D8F000D4F8E801543690F8BC33C4F8E461AB4284
