:020000040800F2
:10000000F0FF0120D5A20408F14204081984010878
:100010004DA304084DA304084DA3040800000000EC
:10002000000000000000000000000000F54204088D
:10003000F942040800000000FD420408D9690108E3
:100040004DA304084DA304084DA304084DA30408C0
:100050004DA304084DA3040849A8000851A80008AE
:1000600059A8000861A8000869A80008BDA50008F3
:10007000CDA50008DDA50008EDA5000801A6000833
:1000800015A6000829A600084DA3040800000000DA
:1000900000000000000000000000000071A800083F
:1000A00055C70008EDC6000865C70008DDC6000892
:1000B00015C7000825C7000835C70008D5A00008E7
:1000C00089B30008DDA000088DB300084DA3040823
:1000D0004DA30408FD68010809690108000000003B
:1000E00079A800084DA30408E14C040800000000B2
:1000F0000000000000000000000000003DA6000815
:10010000000000004DA3040845C700084DA30408E3
:1001100000000000000000000000000000000000DF
:1001200051A6000865A6000879A600088DA600085B
:10013000A1A6000800000000000000000000000070
:10014000000000000000000000000000014304085F
:10015000B5A60008C9A60008DDA6000815690108B3
:10016000E5A0000891B300080000000000000000B6
:10017000000000000000000000000000000000007F
:10018000000000004DA30408000000000000000073
:080190004DA304084DA304086F
:08019800689E04000100000054
:1001A000053001000800000078410020604900206F
:1001B0000000000034A105085C4900200311010083
:1001C0000A0000004C4000206C49002000000000A4
:1001D00085E8030868490020292014007800000001
:1001E000DC3D00207C4900200000000000000000F1
:1001F000784900200B3001001A000000683D002003
:10020000F8490020000000003CA10508F449002046
:100210000D1001004C000000143D0020184A002081
:1002200000000000CD580108144A00200C600400B2
:100230007800000060360020684A002000000000BE
:10024000092A0208644A0020012001000C00000075
:10025000D8360020E44A00200000000056A105081E
:10026000E04A002027000100040000004C37002075
:10027000F44A00200000000062A10508F04A0020B6
:100280000E80040090020000BC330020FC4A0020D5
:100290000000000089F60208F84A0020220201004E
:1002A0001C01000058400020904D0020000000007C
:1002B00019D100088C4D00201F020B001600000011
:1002C000C84E0020B04E0020000000000D8B00083A
:1002D000AC4E00201B02010010000000F44E002074
:1002E000E44E002000000000E98A0008E04E0020F3
:1002F00028020400040000000C4F0020084F0020DA
:1003000000000000B98A0008044F00202702040002
:1003100004000000184F0020144F002000000000CF
:10032000AD8A0008104F0020001201000A000000F2
:100330002C4F0020204F0020000000002D8A0008D4
:100340001C4F00201A0201003C000000784F0020E2
:100350003C4F002000000000819A0008384F002028
:100360002E020100040000009C430020B84F002032
:1003700000000000494F0108B44F002004000800AD
:1003800080000000A4430020C04F002000000000B7
:1003900000000000BC4F0020081203000F00000006
:1003A000344400204450002000000000D18900089F
:1003B000405000201C0202001C000000843D002070
:1003C0005850002000000000C9910008545000203F
:1003D00023200100100000003C370020785000204E
:1003E00000000000D9F00208745000200A900100BB
:1003F00024000000503700208C5000200000000036
:10040000EDF0020888500020031201003D000000BA
:1004100080450020B45000200000000066A10508BF
:10042000B0500020FD170100A0000000744800201B
:10043000F850002000000000DF850308F450002081
:100440001310010004000000603D00209C510020BA
:1004500000000000A4A1050898510020F5C101008A
:1004600074000000D83F0020A451002000000000CC
:10047000B9AE0308A05100200202010003000000F1
:100480006C4800201C520020000000007D8B0008FA
:1004900018520020F62101000C000000703E0020E0
:1004A0002452002000000000A8A1050820520020CE
:1004B0001212010004000000E46500203452002004
:1004C00000000000DD8A0008305200201102010007
:1004D00008000000E86500203C52002000000000F9
:1004E000C58A0008385200203400010010000000C6
:1004F000F0650020485200200000000009DC0208DE
:1005000044520020F831010006000000043D0020A4
:100510005C52002000000000B4A1050858520020E1
:10052000021001000C0000008C44002068520020E2
:1005300000000000BCA1050864520020FE0101007B
:1005400014000000543E00207852002000000000FB
:10055000A98900087452002006120300120000004E
:1005600078440020905200200000000051910008C3
:100570008C520020F701010006000000683E0020B8
:10058000A852002000000000C8A10508A4520020C5
:10059000FC0101000900000000660020B4520020A8
:1005A00000000000FD8A0008B0520020FB0101009D
:1005B000010000000C660020C45200200000000072
:1005C000058B0008C05200201A0001000E00000038
:1005D00024440020CC52002000000000CEA10508D9
:1005E000C852002014100100050000000C3D00203E
:1005F000E052002000000000F5DB0208DC52002081
:10060000FD0101002100000016430020EC520020F3
:10061000000000001F4F0108E85200201D020200E8
:1006200006000000104300201453002000000000CA
:1006300000000000105300201840010038000000A6
:10064000A03D00202053002000000000E19A000897
:100650001C530020F9010100040000001066002076
:100660005C53002000000000D54E010858530020C4
:1006700012300100100000004C36002064530020AE
:1006800000000000DCA105086053002006200100E6
:1006900028000000B42B0020786500200000000036
:1006A000458A000874650020160215003F0000000E
:1006B0001C280020A465002000000000318B0008E9
:1006C000A06500202F2001002200000020730020E0
:1006D000C870002000000000ECA105081C73002079
:1006E0001500100070000000487000204C710020C0
:1006F0000000000000000000447300202A000800F1
:1007000060000000EC6D0020EC7000200000000094
:10071000A9F60208487300202C0004001000000015
:10072000B8700020E872002000000000A5E2020876
:100730004C73002025201E002C010000C06C0020FE
:10074000BC71002000000000000000005073002079
:100750002B00120024000000A0660020F872002088
:1007600000000000B5E202085473002013020100EB
:1007700004000000947E0020A484002000000000FB
:1007800010A20508A08400201F50010024000000D2
:10079000E47B0020AC8400200000000014A20508C7
:1007A000A88400201630010008000000708000209E
:1007B000D48400200000000038A20508D084002066
:1007C00010100100020000009C7E0020E084002048
:1007D0000000000040A20508DC8400201900010090
:1007E0000500000050840020E88400200000000084
:1007F00042A20508E4840020206201000C000000F1
:10080000AC790020F48400200000000048A2050814
:10081000F08400202C120100060000005887002000
:10082000888700200000000054A20508848700206B
:100830002D02010001000000AC86002094870020FA
:100840000000000000000000908700202902010045
:1008500040000000AC8500209C87002000000000C4
:100860005AA2050898870020010101000400000039
:100870006C860020E08700200000000000000000DF
:10088000DC870020000101000400000068860020D1
:10089000E8870020000000009AA20508E4870020F5
:1008A000020101000300000064860020F0870020A0
:1008B0000000000025250208EC8700202A12010014
:1008C0000800000020860020F887002000000000BB
:1008D0009EA20508F48700203840010006000000B1
:1008E000249D00207CAA002000000000A6A205088C
:1008F00078AA0020030001000100000024890020E4
:1009000088AA0020000000000000000084AA002047
:100910000502010004000000488B002090AA00207E
:1009200000000000ACA205088CAA002023320100C0
:100930001400000034B300206CB30020000000005D
:10094000B0A2050868B300200E02010002000000FA
:10095000D0B9002038BD002000000000C4A2050866
:1009600034BD002010020100010000005CE90020FD
:1009700058E9002000000000C6A2050854E9002044
:10098000090201000100000034E9002064E90020B0
:0C09900000000000C8A2050860E900207B
:10099C00FFFFFFFFFF0000000060024010600240FC
:1009AC00000000000000000000000000000B000030
:1009BC000000000000000000000000000060024089
:1009CC002860024001000000000000000000000050
:1009DC00060C0000000000000000000000000000F9
:1009EC000060024040600240020000000000000075
:1009FC0000000000100D00000000000000000000CE
:100A0C00000000000060024058600240030000003B
:100A1C000000000000000000160E000000000000A6
:100A2C000000000000000000006002407060024006
:100A3C00040000000000000000000000200F000077
:100A4C0000000000000000000000000000600240F8
:100A5C00886002400500000000000000000000005B
:100A6C002610000000000000000000000000000044
:100A7C0000600240A0600240060000000000000080
:100A8C000000000030110000000000000000000019
:100A9C000000000000600240B86002400700000047
:100AAC000000000000000000362F000000000000D5
:100ABC0000000000000000000064024010640240CE
:100ACC0000000000000000000000000000380000E2
:100ADC000000000000000000000000000064024064
:100AEC00286402400100000000000000000000002B
:100AFC0006390000000000000000000000000000AB
:100B0C00006402404064024002000000000000004B
:100B1C0000000000103A000000000000000000007F
:100B2C000000000000640240586402400300000012
:100B3C000000000000000000163B00000000000058
:100B4C0000000000000000000064024070640240DD
:100B5C00040000000000000000000000203C000029
:100B6C0000000000000000000000000000640240D3
:100B7C008864024005000000000000000000000036
:100B8C0026440000000000000000000000000000EF
:100B9C0000640240A0640240060000000000000057
:100BAC0000000000304500000000000000000000C4
:100BBC000000000000640240B8640240070000001E
:100BCC00000000000000000036460000000000009D
:100BDC000000000000000000000004010000020002
:100BEC00010000021000000007000000FFFFFFFFE3
:100BFC00010100000001010100FF0000F0D6040813
:100C0C0024D7040858D70408FFFFFFFFFFFF00009C
:100C1C00FFFFFFFF14530508000008020503030043
:100C2C00000000001C530508010008020504030025
:100C3C00000000002453050800000802050303000F
:100C4C00000000002C5305080100080205040300F5
:100C5C0000000000608A05080200FE01011003007C
:100C6C0000000000504405080300140200030000BB
:100C7C00000000003453050804001F0202000B00A2
:100C8C00000000003C53050805001F0202010B0088
:100C9C00000000007D00000001000000B0530508BA
:100CAC005457050800000000A9B60108A0860100F1
:100CBC0004000000B0530508108405080000000073
:100CCC0045510108E80300000400000044410508F8
:100CDC000000000000000000DD6102087D00000043
:100CEC00FF0000000C45050800000000000000009B
:100CFC0019AB02087D000000FF00000038900508C9
:100D0C000000000000000000918502087D0000003A
:100D1C00FF000000E0570508000000000000000084
:100D2C0061570108E80300000300000000470508B4
:100D3C000000000000000000B5210308102700008F
:100D4C00030000003053050800000000CDE4020849
:100D5C00AD9101085F76000005000000BC59050844
:100D6C000000000000000000FD56010810270000E4
:100D7C0002000000188405080000000000000000BC
:100D8C0019510108E803000005000000248405083F
:100D9C000000000000000000DD270208204E0000CB
:100DAC00030000003484050800000000000000006F
:100DBC0019660208204E0000030000004484050858
:100DCC0000000000000000006D8B0108400D0300C6
:100DDC00030000008C540508000000000000000017
:100DEC00BD8F01081027000002000000C45905083F
:100DFC000000000000000000A1710108A00F00001D
:100E0C00020000009454050800000000138603083B
:100E1C00D9D7030885450100020000001C430508D2
:100E2C00000000000000000079F403081027000007
:100E3C0002000000605705080000000000000000E0
:100E4C004D92030850C300000200000054840508B2
:100E5C000000000000000000D9FA0308400D030058
:100E6C00010000005C840508000000000000000088
:100E7C00D5C8030850C300000300000068840508AF
:100E8C00000000000000000011B9010840420F00F2
:100E9C000100000074840508000000000000000040
:100EAC009567010850C3000001000000808405080C
:100EBC000000000000000000851504081027000049
:100ECC00020000000000803F000000000000000055
:100EDC00000000000000803F000000000000000047
:100EEC00000000000000803F000000000000000037
:100EFC0000000000FFFFFFFF0000000074870020CF
:100F0C0008000000000000006487002008000000BA
:100F1C00FFFFFFFF1D5A0108000000000000000049
:100F2C0000000000356F0108000000000000000008
:100F3C000000000001000000FFFFFF7F00000080A8
:100F4C0001000000FFFFFFFF0000FA430000FA431E
:100F5C000000803F7EFF7EFFE2FFE2FF38AB002007
:100F6C008CAB002001F11F3F4CB300205AB3002082
:100F7C00D6010000FF1FFF1FFF0000000000803F94
:100F8C000000000000000000000000000000000055
:100F9C000000000000000000000000000000000045
:100FAC000000000004000000618F01080000000038
:100FBC00000000000000000000FF00000000000026
:100FCC00000000005D81030800000000000000002C
:100FDC00CC0905080101000029A503080000000048
:100FEC000000000064230508000000000000000061
:100FFC0000000000001205080000000000000000C6
:10100C0000000000B81205080000000000000000FD
:10101C00000000006412050801000000FA00000046
:10102C000100000001000000FCFFFFFF00000000B9
:10103C0000000000359B0308A4B8002001FD01004E
:10104C0011C2030800000000000000006411050834
:10105C00A9F903080000000000000000D8100508E2
:10106C005BBC0308000000000000000090100508A5
:10107C002D202D2D202D2D2D2D202D2D2D00000042
:10108C000000000000000000000000000000000153
:10109C000100000034B4002088136F170100000019
:1010AC0036B4002088136F170000000038B40020FD
:1010BC0088136F17010000003AB4002088136F17D3
:1010CC00000000000D81030800000000000000007B
:1010DC00F80D0508ECB80020010000004C0E0508C6
:1010EC003DB4002001000000580E0508E4B40020B7
:1010FC0002000000600E05083581030800000000A6
:10110C00000000006C0E050800000000000000004C
:10111C0000000000C00E05080000000000000000E8
:10112C0000000000300F050832B40020020000005F
:10113C00780F050888BA0020E0150C170000000095
:10114C00C012000046BD002000000000000000009E
:10115C0044BD0020000000000000000042BD002043
:10116C00000000000000000040BD00200000000056
:10117C00000000003EBD0020000000000000000048
:10118C003CBD0020000000000000000048090020C9
:10119C0000000000000000003CB400200300000030
:1011AC00680F0508000000000000000000000000AF
:1011BC00840F05084ABD0020E0150C170000000044
:1011CC004CBD002002000000780F05082D202D2DAD
:1011DC00202D2D2D2D202D2D2D2D0000000000005B
:1011EC0000000000000000000000000000000000F3
:1011FC000000000000000000BC0F05084EBD0020E0
:10120C009CFF2C010000000062BA0020E0150C17B6
:10121C00000000004ABA002002000000780F050808
:10122C002D202D2D202D2D2D2D202D2D2D2D000063
:10123C0000000000000000000000000000000000A2
:10124C00000000000000000000000000F40F050882
:10125C00D2B3002000C80100D1B30020005001001F
:10126C00D0B30020005A0100CEB3002002000000D1
:10127C00B8E20408808D0508888D0508EAB80020BE
:10128C000100C40900000000E8B800200100C409F6
:10129C0000000000E6B800200100C40900000000B6
:1012AC00E4B800200100C40900000000E0B80020F0
:1012BC000100C40900000000E2B800200100C409CC
:1012CC0000000000DEB800200100C409000000008E
:1012DC00DCB800200100C4090000000017B4002095
:1012EC0000C8010016B4002000C8010014B400208E
:1012FC000000FFFF0A00000012B400200100C8002B
:10130C000100000010B400203200307532000000E3
:10131C000EB40020E2FF1400050000000CB4002005
:10132C007EFF1400050000000AB4002005002C010B
:10133C000500000008B40020055A05001DB400206B
:10134C0000FF01001BB40020020000007C0A0020FA
:10135C0019B4002003000000480C05081CB4002040
:10136C0000FF01001AB40020020000007C0A0020DB
:10137C0018B4002003000000480C0508F4B4002049
:10138C00FF7F0100F0B4002000000000FFFFFFFF12
:10139C0001000000ECB4002000000000FFFFFFFF84
:1013AC0001000000E8B4002000000000FFFFFFFF78
:1013BC00010000009AB30020EE02CA0801000000F0
:1013CC0099B3002000C801006400000098B300200D
:1013DC0001C801006400000097B300200100000068
:1013EC000013050830B400200000803E050000000A
:1013FC002EB4002080C1803E050000002CB40020DB
:10140C000083007D050000002AB4002080C1803ECE
:10141C000500000028B4002000FF010026B40020C5
:10142C006400F4010100000024B400206400F40105
:10143C000100000022B400206400F401010000004F
:10144C0020B400200400000038E604081FB400207B
:10145C00020000002CE6040896B30020590000009E
:10146C0014E4040894B300200300000008130508DA
:10147C0095B30020040000004CE6040801B40020E1
:10148C00030000001813050800B40020030000003E
:10149C0018130508F4B30020000A0100F2B3002071
:1014AC000000E80301000000F0B300200000E80396
:1014BC0001000000EEB30020000A0100ECB3002094
:1014CC000000E80301000000EAB300200000E8037C
:1014DC0001000000E2B30020C800E8030100000096
:1014EC00E8B300201400FA0001000000E6B300206D
:1014FC000100E80301000000E4B300200005010036
:10150C00E0B30020020000006CE30408DEB300200E
:10151C000000F40101000000DCB300200000F40125
:10152C0001000000DAB300200000F401010000000B
:10153C00D8B300200000F40101000000D6B3002055
:10154C000000E80301000000D4B300200000E80311
:10155C0001000000BDB3002019640100BCB30020E1
:10156C000200000060E30408B1B300200064010035
:10157C00B0B3002000640100B8B300200064010087
:10158C000A000000B7B30020006401000A0000004C
:10159C00B6B30020006401000A000000BBB30020B9
:1015AC0000FF01000A000000BAB3002000FF010098
:1015BC000A000000B9B3002000FF01000A0000007F
:1015CC00B5B3002001FF01000A000000B4B30020F5
:1015DC0001FF01000A000000B3B3002001FF01006D
:1015EC000A000000FEB300200000F401010000001E
:1015FC00FCB300200000E80301000000FAB3002057
:10160C000000E80301000000F8B300200000E8032C
:10161C0001000000F6B300200000E8030100000008
:10162C0000B80020E803D0070A000000FEB7002035
:10163C0000640100FCB70020E803D0070A0000009A
:10164C00FAB70020006401000A000000F9B700207E
:10165C0000960100F0B7002000C80100EFB7002091
:10166C0000640100EEB7002000640100EDB700201B
:10167C0000640100ECB7002000640100EBB700200F
:10168C00FF080100EAB7002001640100C17B0308D8
:10169C00017C03080000000028130508F3B70020A4
:1016AC0001320100F2B700200100000034E304080D
:1016BC00F1B70020040000003CE30408E9B7002067
:1016CC0000960100E8B7002000640100E7B7002095
:1016DC0000FA010064000000E6B700200AFA0100DD
:1016EC00E5B700200AC80100E4B70020006401003F
:1016FC00E3B7002000640100E2B700200A5A0100A1
:10170C00E1B7002000C80100E0B7002000C80100CC
:10171C00F6B7002000320100F8B7002000140100D9
:10172C00F7B70020005F0100F5B7002004000000AF
:10173C007CE20408F4B70020006401000A000000F9
:10174C00ABB300200AC805000A000000AAB30020B1
:10175C0001000000B0E60408ADB300200AC8050083
:10176C000A000000ACB3002001000000B0E6040841
:10177C00A2B3002000C805000A000000A9B3002095
:10178C0000C805000A000000A3B3002000C8050033
:10179C000A000000A4B3002000C805000A000000E5
:1017AC00A7B3002000C805000A000000A8B3002061
:1017BC0000C805000A000000A6B3002000C8050000
:1017CC000A000000A5B3002000C805000A000000B4
:1017DC00A1B300200200000048E20408DEB700209C
:1017EC000000D00701000000D8B7002000C801009D
:1017FC00D7B7002000C80100D6B7002000C80100F0
:10180C00DCB700200000D00701000000D5B7002095
:10181C0000C80100D4B7002000C80100D3B70020D5
:10182C0000C80100DAB700200000D007010000005A
:10183C00D2B7002000C80100D1B7002000C80100B9
:10184C00D0B7002000C80100A097050800000000D8
:10185C00000018BD0020AC97050807080000000028
:10186C0048100020B497050807080000000040103D
:10187C000020BC9705080708000000003810002065
:10188C00C49705080808000000002C100020CC9715
:10189C00050807080000000024100020D497050854
:1018AC000708000000001C100020DC970508070842
:1018BC000000000014100020E49705080808000040
:1018CC00000008100020EC9705080710000000002D
:1018DC0000100020F4970508071000000000F80F16
:1018EC000020FC970508071000000000F00F0020F6
:1018FC0004980508081000000000E40F0020AC8BD1
:10190C0005080100000000000000000000000000BD
:10191C00100000000000000000000000097E030819
:10192C00197E030879A603089813050807B400204C
:10193C00005A010006B4002000C8010004B40020C5
:10194C00E803D007010000000000000000000000C8
:10195C00F5A003083414050810B70020030000009C
:10196C0038E20408957E0308E97E030800000000B5
:10197C007C1405083D7F03087D7F030800000000F0
:10198C0024150508C9A4030895D703080000000016
:10199C00A41505081EB400200103010011820308E0
:1019AC003982030800000000B4180508797A03088E
:1019BC00997A03080000000034190508DD7F03083C
:1019CC003D80030800000000981905088D9A030853
:1019DC00457A030800000000501A0508F57D03083D
:1019EC000000000000000000DC1A0508B97C0308A8
:1019FC00217D030800000000401B0508417C030802
:101A0C007D7C030800000000F81B0508A5E5030811
:101A1C008D7B030800000000841C0508CEB7002055
:101A2C000300000008BD0020857D0308C17D03086C
:101A3C0000000000641D0508EDE5030819A3030868
:101A4C0000000000D41D05080D7B0308F5A1030858
:101A5C0000000000C01F05084DE50308B5A10308F0
:101A6C000000000050100020CFB700200300000041
:101A7C00C4BC0020357E0308657E0308000000000E
:101A8C00CC2005081D920308000000000000000097
:101A9C0030210508C57F0308B1D7030800000000FA
:101AAC00CC21050800000000000000000000000030
:101ABC003C220508C5E4030881A1030800000000CE
:101ACC00AC220508AA5507010000AA550501000023
:101ADC0014010000FF00000009024300020100C0D5
:101AEC003209040000010202010005240010010566
:101AFC0024010001042402020524060001070582CA
:101B0C00030800FF09040100020A00000007050198
:101B1C000240000007058102400000000902640039
:101B2C00030100C032090400000103000000092178
:101B3C00110100012236000705830309000A080B76
:101B4C000102020201000904010001020201000568
:101B5C0024001001052401000204240202052406BD
:101B6C000102070582030800FF09040200020A00B3
:101B7C00000007050102400000070581024000003B
:101B8C0012010002EF0201408304563200020102EE
:101B9C0003010000120100020202004083044057BE
:101BAC000002010203010000040309040101010801
:101BBC0005010905A101A10005010930093109320E
:101BCC00093309350934093609371581257F75081C
:101BDC0095088102050919012908150025019508A8
:101BEC0075018102C0C0000009022200010100E061
:101BFC003209040000010301020009211101000156
:101C0C002236000705830309000A000048D3002090
:101C1C000000000040D3002000000000AA5509027B
:101C2C00000000AA5503009F01000000AA550B01FB
:101C3C000000AA5505010000FF0000000000000094
:101C4C00010203040102030406070809B90F040882
:101C5C0059100408950A0408E9ED0308D513040883
:101C6C00CDED0308B5ED0308F9ED030809EE030803
:101C7C000000000000000000D114040889EE0308E5
:101C8C00B513040800000000B9EE0308051504089C
:101C9C004D0A0408250A040800000000000000009A
:101CAC00ADEE03082514040849EE0308A511040839
:101CBC000000000019EE03086D080408110904085F
:101CCC00FD09040800000000000000003DEE0308C0
:101CDC000DEF030811EF030815EF030821EF0308BC
:101CEC0025EF030819EF03081DEF0308DDEE0308C9
:101CFC0001EF03080DF10308F9F0030821F10308C3
:101D0C0035F1030849F10308141500200000000008
:101D1C0000000000000000000000000000000000B7
:101D2C0000000000000000000000000000000000A7
:101D3C000000000000000000000000000000000097
:101D4C000000000000000000000000000000000087
:101D5C000000000000000000000000000000000077
:0C1D6C000000000000000000000000006B
:10800000074BD0F8E4105B68D0F8F0205B1A9A4276
:10801000B8BFC0F8F030012380F81C310020704751
:10802000001000E0B74B00EB800270B503EBC20418
:1080300053F832205268B2F814C01CF0010F4FEA16
:1080400080016AD15FFA8CFE1EF0020F3DD0BFF3B3
:108050005F8F257F012D5FFA85FC00F0CC80148BAB
:10806000BFF35F8F0C1803EBC404257F022D00F0D3
:10807000E3800C1803EBC404257F032D06D1A47FF5
:1080800024B193F87940002C40F0E5809488A4B2A4
:1080900044F48064948093F978C001EB000E03EB04
:1080A000CE0E9EF81CE00EF1010EE6450CD1002428
:1080B00083F8794093F87A40002C40F0B680084469
:1080C00003EBC00300225A7670BD1EF0040F5BD193
:1080D0001EF0400E00F0C880158A93F978C0666AD9
:1080E000EDB206F80C505FFA8CFE267F0EF101040B
:1080F00064B2E51CAE4283F87840A44600F02A81C1
:108100000D1803EBC5052D7FAC42C6D10EF1020C54
:108110004FFA8CFC83F878C0BFE7B2F800C02CF4AB
:10812000006C4FEA0C4C4FEA1C4CA2F800C0B2F8AD
:1081300000C01FFA8CFC4CF4806CA2F800C0A57F34
:108140004FF0000C83F878C0002D46D093F879509A
:10815000002D3FD0012483F879400C1803EBC404B0
:10816000247F022C04D11488A4B244F40064148047
:108170000C1803EBC404A47E44F0010414820844E8
:1081800003EBC0031B7F70BDA57F4FF0010C83F88C
:108190007AC0002D6FD093F87950002D70D10C1853
:1081A00003EBC404647F002C00F0AE80148893F8C5
:1081B00078C0A4B244F400740CF1010C14804FFA9E
:1081C0008CF483F87840B2F800C01CF4807FFAD1B8
:1081D000A44662E7E47EFF2CBCD00C1803EBC40479
:1081E000A57E05F0FE051582E27EFF2AC7D0FF229C
:1081F00083F87820C3E7A47F002C3FF430AF93F8D6
:108200007940002C3FF42BAF148824F480642404BC
:10821000240C1480BFF35F8F148B148883F87AC00A
:10822000A4B244F40074148030E7948824F44074B9
:108230002404240C948042E7A47F002C3FF419AF5F
:1082400093F87940002C3FF414AF148824F4806430
:108250002404240C1480948824F480642404240CC2
:10826000948093F978C018E71FFA8CF52D0631D465
:1082700093F978C011E793F87940002C8FD095E7F7
:10828000257F022D15884AD925F480652D042D0CF3
:108290001580158A666A93F978C0EDB206F80C501D
:1082A000666A1488A4B244F4007414805FFA8CFCEB
:1082B000158A0CF1010464B2EDB2355595880CF1C4
:1082C000020CADB24FFA8CF445F4806583F8784027
:1082D000958078E793F978506E1C42D0266A765DD7
:1082E0001682247F05F1010C4FFA8CFC644583F85B
:1082F00078C07FF4D2AE948824F480642404240CE3
:108300009480CAE6781500201488A4B244F48074DE
:108310001480012483F8794093F9784053E7ADB293
:1083200045F400751580158A666A93F978C0EDB238
:1083300006F80C505FFA8CFC666A158A0CF1010491
:1083400064B2EDB20CF1030C35554FFA8CF483F89E
:10835000784038E7958825F480652D042D0C9580AC
:10836000CEE6E57E1582A57F83F878E01DB9247FEF
:10837000002C7FF404AF948824F480642404240C3B
:108380009480FCE61B4B01681B4A03F5727C03E0FA
:1083900063452CD053F82C2F9142F9D170B593F846
:1083A00004E0427996450AD0634505D053F82C2F56
:1083B0009142F4D06345F9D14FF0FF3070BD9E4635
:1083C0008468DEF80C50A5424FF0000208D001325C
:1083D000032A0EF10C0EE7D0DEF80C50A542F6D1C0
:1083E000DEF81050C668B542F1D150B270BD4FF002
:1083F000FF30704778BD04080000014030B5EAB195
:108400008E464FEA014C034600F1C005002419686E
:108410009A6841EA0C0142EA0E029A60C3E900142C
:108420000C33AB42F3D1D0F8C030C0F8C44043EABB
:108430000E03C0F8C030C0F8C84030BD4FEA014E4E
:108440008C46E0E783691969B3F80CC00A6830B458
:108450009C6822F0010224680A60A28992B222EA92
:108460000C02A281027D04681F2A06D96568203AA1
:1084700008209040284246D0FEE72568082090401A
:108480002842F9D1202000FA02F2A260274A92F88D
:108490007B20002A35D01A7E012A39D0D3F8F42067
:1084A0000132C3F8F420EFF31181502282F31288D5
:1084B00058685C6C026822EA04029C6C2243C9B2D0
:1084C000026081F31188D3E90C401A6999681D6C28
:1084D000096814605061D3E90E4054609060002434
:1084E000B3F8A800D5604C62C8621068012420432C
:1084F00010601C7683F8F1408A899B8913439BB2F4
:108500008B8130BC7047202000FA02F2E260BDE7A8
:10851000002283F8F120D3F8F8000A68013022F035
:108520000102C3F8F8000A60EBE700BF78150020ED
:1085300010B40C4CE36F002B11DD002004F1800C13
:108540000146DCF8A03003F1C00259600C339342BD
:10855000FBD1E36F013083420CF5807CF1DC5DF8E8
:10856000044B704778150020704700BF024B03EBA7
:10857000401090F89D047047781500204368B0F8CB
:10858000502010B41A83EFF31182502383F3128822
:108590004168446C0B6823EA0403C46C2343D2B2E1
:1085A0000B6082F31188D0E9074182680369126881
:1085B0001C605961D0E909415C60C46A9960B0F8F7
:1085C0006010DC600023D1625DF8044B03767047D5
:1085D0000C2911D8DFE801F0231010101910101029
:1085E000111010100700838B23F400631B041B0C75
:1085F00043EA022292B282837047838B23F00803FE
:108600001B041B0C1A4382837047038B23F4006303
:108610001B041B0C43EA022292B202837047038BB5
:1086200023F008031B041B0C1A430283704700BF8E
:10863000704700BF0B4890F8B41589B101EB4101B8
:10864000002310B4490000F2BC501C4650F823200F
:10865000063302B114608B42F8D15DF8044B7047C9
:10866000704700BF781500200B4890F8B41589B109
:1086700001EB4101002310B4490000F2BC501C463C
:1086800050F82320063302B114609942F8D15DF806
:10869000044B7047704700BF7815002001207047D9
:1086A000034B00EB400003EBC00090F8CD05704792
:1086B0007815002007EE900AB8EE670A704700BFF1
:1086C000BCEEC00A10EE103A98B2704708B51D20F3
:1086D0000DF09CFE08B183794BB11E200DF096FE83
:1086E00008B1837903B108BD5523C38008BD552364
:1086F000C380F2E710B50C2937D8DFE801F09736D0
:10870000363666363636373636360700038C5488AA
:10871000B2F80CE023F480531B041B0C0384038C7D
:10872000B0F804C0818B21F4E6414EEA040E09043E
:10873000148823F40053090C41EA04211B04754CEE
:108740001B0C43EA0E33A0421FFA8CFC9BB289B289
:1087500000F0AE8004F58064A04200F0A980926829
:10876000A0F804C081830264038410BD038CB2F8B6
:108770000CC0548823F480731B041B0C0384038CEB
:10878000B0F804E0818B23F400731B044CEA040C62
:1087900021F073011B0C43EA0C230904B2F800C05A
:1087A000090C41EA0C0C5B4988421FFA8EFE9BB211
:1087B00068D001F58061884264D09268A0F804E036
:1087C000A0F81CC0C263038410BD038CB2F80CC0B7
:1087D000548823F010031B041B0C0384038CB0F893
:1087E00004E0018B23F020031B044CEA040C21F469
:1087F000E6411B0C43EA0C130904B2F800C0090C53
:1088000041EA0C211FFA81FC424988421FFA8EFE80
:108810009BB269D001F58061884265D09268A0F86A
:1088200004E0A0F818C08263038410BD038C548850
:10883000B2F80CE023F001031B041B0C0384038C2F
:10884000B0F804C0018B21F073014EEA040E090454
:10885000148823F00203090C1B0421432D4C1B0C2C
:1088600043EA0E03A0421FFA8CFC9BB228D004F509
:108870008064A04224D09268A0F804C001834263BF
:10888000038410BDD189548A23F4006343EA012193
:10889000138A2EF4405E23434EEA031E94884FF65B
:1088A000FF330B4043EA04231FFA8EFE9BB284E79A
:1088B000148A2CF4804C4CEA841C1FFA8CFC4EE782
:1088C000D489B2F810E023F008032343548A2CF42F
:1088D000407C4EEA040E948823F004034CEA0E0C0C
:1088E0001FFA8CFC2343C6E7D189548A23F0800306
:1088F00043EA0111138A2EF4406E23434EEA830E9D
:1089000094884FF6BF730B4043EA04131FFA8EFEA0
:108910009BB283E70000014082B01F4B002201920E
:108920000193019B1D4A04330193019B19689368CD
:1089300003F00C03042B07D0082B0AD0184B194A5C
:10894000C3F87C2602B07047154BC3F87C1602B002
:1089500070475368506813F4800F00F03F0053686D
:1089600013D1C3F388130F49B1FBF0F101FB03F3FB
:108970000A4A0B495268C2F3014201325200B3FB6A
:10898000F2F3C1F87C3602B07047C3F38813B1FB31
:10899000F0F101FB03F3EBE7502800400038024000
:1089A000781500200024F400012142F20102002386
:1089B00042F2011C017202804FF60171FF22A0F801
:1089C00004C043818381C38101828274704700BFE8
:1089D000154BFF224FF0FF3CF0B5C27002710272DE
:1089E00042724273827303F10C0766461725162400
:1089F0004FF0150E002202EB820281189F4200F810
:108A000002E04C708D70CE7081F804C00BD093F9E9
:108A1000062093F807E01C7A5D7A93F90A6093F9CF
:108A20000BC00633E7E7F0BD6CC104084FF0000C43
:108A300001210222032380F805C08171C2710372F3
:108A4000704700BF4FF4F07202804FF4FA6240F2B8
:108A50002E4C0621028440F22622A0F81EC081700E
:108A60004FF47A7C4FF4F561828342F610220023A2
:108A7000A0F822C0818442F2267C0E2102810222CB
:108A8000A0F80AC080F8261040F2012C40F2034101
:108A9000437183714274438240F205620723A0F858
:108AA00014C0C18202838376704700BF0023037025
:108AB00043708370C37070470023037043708370EA
:108AC000C370704700220123027042708270C2702E
:108AD000037143718371C371704700BFFF2303703B
:108AE00043708370C3707047002306214FF47A727D
:108AF000C0E9012301700373704700BF00230372B4
:108B0000704700BF13230370704700BF0023411C50
:108B1000FF2200F8132001F8132001330B2BF8D1AA
:108B2000027042708270C2708272C272704700BF5F
:108B30004FF0130C032180F800C041704FF0FF0C80
:108B4000102180F802C0C1704FF02A0C26210122AA
:108B5000002380F806C041724FF0270C18210271E3
:108B60004371C27103728272C37280F80CC0427387
:108B70008373C17302744374704700BF032303708F
:108B8000704700BF704700BFD0ED007AD0ED016A9A
:108B900030EE677AE6EE877AB0EE670AC0ED007ACB
:108BA000704700BFD0ED017AD0ED026A30EE677AEF
:108BB00090ED000AE6EE877A37EEC07AC0ED017AD2
:108BC000A6EE870A80ED000A704700BF90ED017A9B
:108BD000D0ED036AD0ED027A30EE470AA6EE807A35
:108BE00090ED000A80ED017A37EE676AE6EE867A4C
:108BF00037EEC07AC0ED027AA6EE870A80ED000A51
:108C0000704700BFD0ED056AD0ED017A90ED007A93
:108C100090ED066AD0ED025A90ED035A80ED050AF8
:108C200066EEA77AC0ED066AE7EE007A90ED077A65
:108C3000E5EE867A90ED086AD0ED045A80ED087A68
:108C4000E5EE477AE5EEC67AB0EE670AC0ED077A40
:108C5000704700BFD0ED057A90ED006A90ED067A7E
:108C6000D0ED035AE6EE007A90ED016AF0EE406A2C
:108C7000A6EE267AB0EE670AD0ED047A90ED026A8D
:108C800067EEC07AA5EEC07AE6EE267A80ED057A28
:108C9000C0ED067A704700BF2DE9F047089F3C46BB
:108CA0000E4614F8011B002B054614BF4FF0300987
:108CB0004FF0200941B3002A2CDD234600E0B2B179
:108CC00013F8010B9046013A0028F8D1A8F10208E8
:108CD0006AB1C24649462846B0475346002B0AF1BE
:108CE000FF3AF7DC397828EAE872013249B1D71B3C
:108CF0002846B047E01914F8011B0029F8D1BDE857
:108D0000F0871046BDE8F087002A02F1FF38E0DC6A
:108D10000846F4E70022EAE703685A1C026019706B
:108D2000704700BF024BD3F8800603681B681847E2
:108D300078150020884210B54FF001043ED301FBA6
:108D400004F4B0FBF4FC8C45F9D2CCB122BB08E0B2
:108D5000A14203F801EBB4FBF1F211D8B0FBF2FC35
:108D60001446BCF1090F0CF1570E0CF1300204FB54
:108D70001C00EDDCA14203F8012BB4FBF1F2EDD9AC
:108D800000221A7010BDA14203F801EBB4FBF1F20E
:108D9000F6D8B0FBF2FC1446BCF1090F0CF1370E0B
:108DA0000CF1300204FB1C00EDDCA14203F8012BA6
:108DB000B4FBF1F2EDD900221A7010BD8446002AEE
:108DC000EAD1CEE7002870B503DA2D2301F8013B84
:108DD0004042092886464FF0010307DD03EB830379
:108DE0005B00B0FBF3F2092AF8D8EBB1104CBEFBE4
:108DF000F3FCA4FB0320C008BCF1090F0CF1300602
:108E00000CF15705024607D8092B01F8016B03FB4B
:108E10001CEE09D90346EAE7092B01F8015B03FBC5
:108E20001CEE01D91346E2E700230B7070BD00BFB2
:108E3000CDCCCCCC164BD0F8E0105A6810B5044617
:108E4000D0F8D80071B1131A99420BDC94F8D030E5
:108E5000C4F8D820012B10D0D4F8D4300133C4F892
:108E6000D43010BDD4F8E430C4F8D8200344C4F89A
:108E7000DC3094F8D030012BEED104F1E801201D54
:108E80000CF0B0FFD4F8D4300133C4F8D43010BDA6
:108E9000001000E00C4AF8B5136855692B4003EA4E
:108EA000000555617DB1094F0126B5FA85F4C4F17D
:108EB0001F0407EB840306FA04F4D3F8840603685E
:108EC0009847A543F1D1F8BD003C0140781500203A
:108ED000038A2DE9F047B0F80C901FFA89F919EAD6
:108EE00003092BD005460E464FF000474FF000080F
:108EF000B9FA89F327FA03F2D24391B21B3B2982D4
:108F000009EA0209042B16D8DFE803F0352C231AEE
:108F10000300B36A002B37D003F1FF3A1FFA8AFA35
:108F2000C6F82880746A34B12368204651469847B1
:108F30006468002CF8D1B9F1000FD9D1BDE8F087F1
:108F40007068696B036889B29847B9F1000FCFD197
:108F5000F4E7B068A96B036889B29847B9F1000FCC
:108F6000C6D1EBE7F068E96B036889B29847B9F1BD
:108F7000000FBDD1E2E73069296C036889B29847D8
:108F8000B9F1000FB4D1D9E7E96A1FFA81FAC9E74C
:108F9000F0B5836993F8DC20012A8BB0054627D011
:108FA000023A012A2FD893F84C21D3F89C10174C81
:108FB00062F07F030B708669D6F8A0305F1C0FCC7F
:108FC000EC46ACE80F00D6F89C30CDE900370FCC6A
:108FD000ACE80F0094E803008CE80300694606F152
:108FE00010000CF0FFFEAB6919690A6A002AFCD177
:108FF000D3F8A0305A8852BAEA819A8852BA2A82A3
:10900000DB885BBA6B8201200BB0F0BD80C1040825
:10901000F0B590F8DC30D0F8A060012B8BB004469E
:109020004BD015D8D0F89C304FF0FF321A605A6000
:109030009A60DA60D0F8E0300522B3F57A7FC0F8A4
:10904000F02054D8032380F8DC3001200BB0F0BDB1
:10905000023B012BF9D890F84D31D0F89C203A4DC5
:1090600063F07F031370D0F8A0305F1C0FCDEC4687
:10907000ACE80F00D4F89C30CDE900370FCDACE858
:109080000F0095E803008CE80300694604F1100026
:109090000CF0A8FE2269136A002BFCD173885BBA1E
:1090A000A4F8D030B3885BBAA4F8D230F38801209A
:1090B0005BBAA4F8D4300BB0F0BD90F84C2190F816
:1090C0004D319B1A5B100133DBB206EB430236F8DD
:1090D00013305BBAA0F8D03053885BBAA0F8D23016
:1090E00093885BBAA0F8D43001200BB0F0BD0369BF
:1090F0001A7B2AB35B691BB390F8983003B390F8DE
:109100004C31D0F89C20C4F8A40063F07F031370A6
:1091100090F84C1190F84D31D0F8A0200B48C4F8CD
:1091200004015B1A07330121C4F8FC30D4F89C30E9
:1091300084F800110A44C4E93D3284F8DC1084E765
:10914000022384F8DC3080E780C104080180000835
:10915000114A002330B50360838002F10C054FF4FF
:1091600048744FF0290E4FF0280C03EB430300EB3B
:10917000430100F813C081F801E0D3788B70AA4254
:109180008C8008D092F9063092F807C092F808E077
:1091900054890632E9E730BDA8C1040801394B0003
:1091A00003F00802930001F00301A3EB9203C1EB6B
:1091B0000111C3EB0313C1EB011100229B008900D5
:1091C000026081804380704730B5044685B0002539
:1091D000684601212570ADF80050ADF80250ADF899
:1091E0000450FFF7DBFF03C80222ADF80C10012387
:1091F000A060627041F20141BDF80C20618040F234
:109200001110E080A281A373194602A8ADF808509E
:10921000ADF80A50ADF80C50FFF7C0FFE57305B08C
:1092200030BD00BF2DE9F0412F4F07EB401898F8F3
:109230009C340BB9BDE8F0818C2303FB00730E4610
:1092400093F8C62688F88224002183F8C6160446BF
:1092500045010CF045FDC0BB3D442448A5F88064A1
:1092600000EB44100CF086FC97F87B30D5F898247E
:10927000A3B1D5F88414D2F8A03001248C4003F1B6
:10928000C001420010F4004F90B202D15A6822434C
:109290005A600C339942F4D1BDE8F081D5F884448A
:1092A000D2F8A03004F110020124944003F1C0016F
:1092B000420010F4004F90B202D15A6822435A6023
:1092C0000C339942F4D1BDE8F08197F8843B03EB6D
:1092D000430307EBC303234493F8316B002EBBD049
:1092E000012388F88234B7E778150020F8190020A8
:1092F0008388C3F30B039342A8BF134670B51A4685
:109300001D460C460646806842F0BBFC621994423A
:10931000B569074B08D0074814F8011B00FB03F39D
:10932000A24283EA0103F7D12B60012070BD00BF88
:10933000C59D1C819301000170B5214C94F8852BCB
:1093400094F8843B9A4236D194F8863BE3B194F882
:10935000875B1C4B002040F20D3CB5B19A6899899F
:1093600051601668196846F001061660A1F848C0F9
:109370008A8992B242F480728A8194F8862B0130F5
:10938000824203F11803E8DC70BD1A68118821F0ED
:1093900080010904090C11809988D162118889B271
:1093A00041F0800111805562998A9689314389B2D2
:1093B00091819D82E1E73EF059FA0028C4D170BD49
:1093C00078150020002100202DE9F84F037D026868
:1093D0001F2B044608D95068A3F120052021A9407D
:1093E000014206D1BDE8F88F106820219940014262
:1093F000F8D04C494C4D4968C5F8481C95F8871B76
:10940000A66901BB8C2101FB0651D1F8CC06D1F82D
:1094100044C70768DCF80000B1F8D0E620F001008E
:10942000CCF80000B98989B221EA0E01B98195F81A
:109430007B10E9B91F2B68D9A3F1200120238B40B1
:10944000D360BDE8F88F8C2101FB0651D1F8CC1612
:109450000F690868396821F001013960818921F4B8
:1094600080710904090C818195F87B100029E1D0F5
:109470008C2706FB07F705EB070B2C49DBF8449715
:10948000DBF8CC3607F118084846D3F800A088442A
:109490003AF010FCD5F8503C244901228BF81827EB
:1094A000002B38D0BAF800309BB243F08003AAF802
:1094B000003074374FF0FF333944CAF82C3050462F
:1094C0003AF052FE8C2303FB065600234146C6F8B1
:1094D000E83648463AF084FCD6F8443716225A60FB
:1094E0001A6842F001021A60D6F8CC26B6F8D036D7
:1094F000126891890B439BB293810A49237D496885
:109500002268C5F84C1C1F2B96D8202101FA03F3C2
:109510009360BDE8F88F0DF011FB0449C5F8500CBD
:10952000C0E700BF001000E0781500203C1C0020C0
:10953000F8B5164D1648174F00214FF4DC7242F073
:10954000C8FB05F274664FF0804105F5CB643A46DE
:10955000002301E054F8332091420BD001330A2B51
:10956000F8D100201C353DF0DDF9B5420CD055F89E
:109570001C1CECE7084A02EBC3031C3593F8BC0A39
:109580003DF0D0F9B542F2D1F8BD00BFD8C1040812
:10959000CC2100200000014078BD0408274B5B6807
:1095A000C3F308032DE9F041002B3AD1EFF3118307
:1095B000BBBB0DF09FFA0546214F204E4FF000082F
:1095C000FC6F002C29DD00231A4607EB0321013331
:1095D00091F871119C4242EA0102F6D142EA080474
:1095E000E4B290467368C3F308039BB9EFF31183A9
:1095F00083B90DF07FFA431BB3F5FA6F02DCB8F1C3
:10960000000FDDD11CB197F80C3E542B0DD0204635
:10961000BDE8F0810DF0FEF9EDE744464FF000089B
:10962000E0E70DF0F7F90546C6E7B7F8143E013359
:10963000A7F8143E2046BDE8F08100BF00ED00E031
:10964000781500202DE9F041234D95F8852B95F8EC
:10965000843B9A4239D1EE6F002E12DD002495F83A
:109660007B701E48A046013417B1037E012B27D022
:1096700002691368B44243F0010300F5807013607F
:10968000F1D1174B5B68C3F30803B3B9EFF3118350
:109690009BB90DF02FFAD5F8204E002C0BDD114AA6
:1096A00002EBC404116893888889083203439BB293
:1096B00094428B81F6D1BDE8F0810DF0ABF9EAE779
:1096C00080F8F080FEF75AFFD2E73EF0CFF800288E
:1096D000C1D1BDE8F08100BF78150020F815002049
:1096E00000ED00E09C2300202DE9F04F2DED028BD2
:1096F000C24F83B097F87B3001932BB9012003B0A0
:10970000BDEC028BBDE8F08FD7F8443E08EE103A6E
:1097100007F5906A07F648694FF0000BB84BD3F88D
:1097200040315B4540F3E480DAF81830DAF8045051
:10973000D3E93A84AD000DF001FA05F1085505EBC7
:10974000481597F80C8E864604F1806197F8500F03
:109750003939B8F1540F05EB811105EB801301D1B4
:10976000A7F8160E994240F228811A68002A00F0E4
:109770001D811A6C002A00F02D81D3F88020002A68
:1097800000F02A81D3F8C02003F58073002AE9D1C4
:109790005D1B99424FEAA51540F20F81611B4529D7
:1097A0004FF0000428BF452103EB81119C46204661
:1097B00026460DE01A6C002A40F0A380D3F88020E2
:1097C000002A40F0C980D3F8C02003F580732AB97D
:1097D000994206D91A68002AECD04033994200F227
:1097E0009480112E344640F2EC80D6F1150200F13F
:1097F000E88084490B689D42D7F8543F38BF0D601C
:10980000AEEB0301002916DB03F5F42303F5907397
:109810009E4588BF0EF10503C7F8543F794B79493F
:109820001B68052B86BF053BDBB2002387F8503F42
:109830004FF0FF330B6042B100FA02F2C4F114049E
:10984000012000FA04F444EA02006F4AC0F3C43372
:1098500002EB8303D3F8081B00F01F0302EB830322
:10986000D3F8083B43EA0133C0F3441102EB810112
:10987000C0F3842002EB8000D1F8082B43EA0213E6
:10988000D0F8082B43EA022383EA132282EA121259
:1098900002F00F020F2A7AD1B3F5803F77D2B8F1E8
:1098A000540F4FEA131304D1B7F8102E0132A7F862
:1098B000102ED7F8502EB3F5606F02F10102C7F8F1
:1098C000502E00F0A7800199A9F80C304F4B5C2076
:1098D00018EE102A00FB0B300CF098F90BF1010B7D
:1098E000BBF1080F0AF1200A09F114097FF416AF41
:1098F0000123012087F84C3F03B0BDEC028BBDE88B
:10990000F08F803399427FF66CAFA3EB0C0292117B
:10991000541C3F4A82FB04C2A2EBE472012AB8BF86
:109920000122904001241644013A04FA02F2104345
:109930001C46226892B1226C002A4FD0D4F88020B5
:10994000002A4DD0D4F8C02004F580743AB1A14269
:10995000EFD89C4623463BE7C0333FE74034A14263
:10996000F7D9E31A9B115A1C294B83FB02C3A3EBC3
:10997000E273012BB8BF012398401E440122013B32
:1099800002FA03F3184323469C46234620E7B8F126
:10999000540F27D0D7F8503E0133C7F8503ED7F8C0
:1099A0004C3E0133C7F84C3E00218FE740335D1B2E
:1099B00099424FEAA5153FF6F1AE10B1013887F88C
:1099C000500FB8F1540F89D1B7F8123E0133A7F800
:1099D000123E83E78033DBE6C033D9E68034BEE74E
:1099E000C034BCE7B7F8103E0133A7F8103ED7F8F3
:1099F000503E0133C7F8503ED1E700BF7815002034
:109A0000702600209801002078BD0408D024002092
:109A10005655555597F8842B02EB420207EBC202CC
:109A20005A4492F8312B0D2A7FF44DAF80230199CF
:109A300089F81E304AE700BF10B5044641F06EFBBE
:109A400081B22046BDE81040FFF7ECBB38B50B4DA6
:109A500000EB400005F2BC5303EBC00393ED027A28
:109A6000D3ED037AE7EE007AC4002C44B0EE670A27
:109A700041F054FBD4F8BC35186038BD781500208F
:109A8000144B154910B5044618681B79206284F8F8
:109A90002430152204F1250042F05BF90F4B93F8B6
:109AA00044214FF0010E84F83AE012B984F83B20CB
:109AB00010BD03F5A47CBCE80F0020606160A260CB
:109AC000E360BCE80F0084F83BE020616161A261C3
:109AD000E36110BD88250508902505087026002043
:109AE00010B500213822044642F0F3F80D490E4A21
:109AF0000E482061C4E905120D480E4AE0610123B9
:109B000041F61E614FF0090CE18484F808C0A3738C
:109B100084F82130A26221460748BDE810402BF0AE
:109B200029BE00BF1A046C07001975036400DC0528
:109B300043080E001E7D0101A0250508274A92F862
:109B4000863B7BB3D2F8881B884237D0012B29D0C3
:109B5000D2F8A01B814235D0022B23D0D2F8B81BFB
:109B6000884231D0032B1DD0D2F8D01B88422DD093
:109B7000042B17D0D2F8E81B884229D0052B11D02E
:109B8000D2F8001C884225D0062B0BD0D2F8181C26
:109B9000884221D0072B05D0D2F8301C814208BF63
:109BA00007230CD003EB430102EBC10103F1010CCD
:109BB000C1F8880B82F886CB184670470023DBB2C9
:109BC000184670470123FAE70223F8E70323F6E774
:109BD0000423F4E70523F2E70623F0E778150020D5
:109BE000F8B52B4F8C2505FB007595F8D33603B9D6
:109BF000F8BD04460E460CF073F838BB8C2505FB07
:109C000004752448A5F8C46604EB8404C4EBC404BA
:109C100000EB84000BF0AEFF97F8873B024623BBB6
:109C20001D4BD5F84C07D3F8683101219847D5F87A
:109C30004817B5F8D0468A8AD5F8443722438A8235
:109C400058601A6842F001021A60F8BD97F8843B28
:109C500003EB430307EBC303234493F8316B002E5C
:109C6000CCD0012385F8C636C8E7D5F8CC36D5F870
:109C700048175B790869084903F0FC031844D1F8D8
:109C8000683104219847D5F8483780009881F8BD9D
:109C9000781500203C1C002070260020F8B5D0F874
:109CA000805086680446284637683AF003F8002258
:109CB00084F8542038467179FEF78AFC717904F1F2
:109CC0006002FEF717FD71790822FEF781FC402340
:109CD000636204F1180128463AF082F82B6843F0D9
:109CE00010032B60F8BD00BF2DE9F04F6A4F2DED3A
:109CF000028B97F87B4085B034B90124204605B02B
:109D0000BDEC028BBDE8F08FD7F8443E08EE103A68
:109D10000CF014FF614B029093F8A031002B00F07F
:109D2000B58107F2C46507F6587A07F6486B002636
:109D30000FE02846FFF7B2FF584B93F8A0310136E9
:109D40009E4205F18C050AF15C0A0BF1140B80F2BE
:109D5000A980D7F8503C029AD31A03D4AA6D934233
:109D6000C0F27D818C2303FB067393F8183703F050
:109D7000FF020192002BDCD0AB68A9891A68D5F8E4
:109D800080305B681FFA83FE9389CEF1160E9BB27A
:109D900023EA0103BEF1070F9381CAD9D7F8503ED9
:109DA0000133C7F8503ED5F8883003939C46002213
:109DB00001215CF8044B904689461BE0DCF800006A
:109DC000B8F1140FA0EB04031DDC13F1080448BF25
:109DD00003F11704231108EB24180446581E01311F
:109DE00002FA03F38E4509FA00F242EA03020CF18B
:109DF000040C08D38E45E1D8C8F11503DCF8004007
:109E00004FF01508EAE7B8F1150F39D12448C2F32D
:109E10008423C2F3441100EB830300EB8101D3F8E8
:109E2000883BD1F8881B1B0243EA011302F01F0193
:109E300000EB8101C2F3C43200EB8202D1F8881B2F
:109E4000D2F8882B0B4343EA023383EA132282EAD7
:109E5000121202F00F020F2A12D1C3F30F134FF6A2
:109E6000FF7293420CD0B3F5606F00F0FF80ABF847
:109E70000C30019918EE102A50460BF0C7FE58E737
:109E8000D7F84C3E0133C7F84C3E002E00F0E0807E
:109E900000230193EDE700BF781500207026002015
:109EA00078BD04080122002187F84C2FC7F8501C08
:109EB000002B3FF422AF97F8D416890700F1BE803B
:109EC000D7F8CC16086849798A40018C92B289B2D9
:109ED00021EA02010184018C89B20A43012B028428
:109EE0003FF40BAF97F8602712F0020FD7F858270E
:109EF00010685479018C0CBF01220422A24092B256
:109F000089B221EA02010184018C89B20A43022B41
:109F100002843FF4F2AE97F8EC2712F0020FD7F864
:109F2000E42710685479018C0CBF01220422A2405E
:109F300092B289B221EA02010184018C89B20A43FA
:109F4000032B02843FF4D9AE97F8782812F0020F61
:109F5000D7F8702810685479018C0CBF01220422B4
:109F6000A24092B289B221EA02010184018C89B235
:109F70000A43042B02843FF4C0AE97F8042912F080
:109F8000020FD7F8FC2810685479018C0CBF01220D
:109F90000422A24092B289B221EA02010184018C1A
:109FA00089B20A43052B02843FF4A7AE97F89029A3
:109FB00012F0020FD7F8882910685479018C0CBF71
:109FC00001220422A24092B289B221EA0201018454
:109FD000018C89B20A43062B02843FF48EAE97F8B7
:109FE0001C2A12F0020FD7F8142A10685479018C39
:109FF0000CBF01220422A24092B289B221EA0201DE
:10A000000184018C89B20A43082B02847FF475AE67
:10A01000D7F8A02A97F8A83A116850790A8C9B07BC
:10A020004CBF0423012383409BB292B222EA030275
:10A030000A840A8C92B213430B845EE6D7F8CC26CE
:10A0400010685479018C0422A24089B292B23FE791
:10A0500003991148582241F014FE019609E70024A3
:10A06000204605B0BDEC028BBDE8F08F97F8842B3D
:10A0700002EB420207EBC202324492F8312B0D2A66
:10A080007FF4F5AE80238BF81E30F2E6012287F8CC
:10A090004C2FC7F8503C31E66C24002043680B4A33
:10A0A00023F0407323F4807343F480734360836828
:10A0B0001A4042F002028260C36A0139CAB223F434
:10A0C000700141EA0251C162704700BFFDF7FFC055
:10A0D000704700BF0020FDF7A5BF00BF0120FDF7BE
:10A0E000A1BF00BF0220FDF79DBF00BF10B10368F4
:10A0F00082881A83704700BF10B1036882885A8330
:10A10000704700BF10B404698269E4684168146054
:10A110004024D460446900230C31C2E90433C2E90D
:10A120000633C2E90833C2E90A33C2E90C3393604B
:10A130009363516084B1C269E0689363C2E90233FA
:10A14000C2E90433C2E90633C2E90833C2E90A337B
:10A15000C2E90C33C2E900015DF8044B704700BF4F
:10A16000436800221A60037D1F2B08D9203B202260
:10A17000016802FA03F343F01803CB607047202212
:10A18000016802FA03F343F018038B60704700BFC5
:10A190000268136A11B1D96901B3143330B49C68F1
:10A1A0001D689169DDB14FF4806088618D60104653
:10A1B00040690C6180B15968D369C9B10A464FF44E
:10A1C00080619A609961224312F0010F14BF00224E
:10A1D0004FF400521A621C6130BC704770478D61A9
:10A1E000054D4FF0FF0C05F804CF00688D60DFE7E8
:10A1F000024A9A609961E6E7980100201828002039
:10A200000168F8B5D1E9042304465568002B49D00C
:10A210009861107D5E681F2831D81768202202FAE5
:10A2200000F040F01800B8601A7D1F2A32D9186873
:10A23000203A202303FA02F242F01802C2600023FF
:10A240002B6033603368896943F01003336028461C
:10A2500039F0C6FD23683046D96939F0C1FD2B6855
:10A26000226843F001032B603368526843F0010316
:10A27000336093889BB243F003039380F8BD176863
:10A280002038202202FA00F040F01800F8601A7D11
:10A290001F2ACCD81868202303FA02F242F01802D1
:10A2A0008260CCE7137D90611F2B1CD810682022A0
:10A2B00002FA03F343F01803836000232B602B683A
:10A2C000896943F010032B60284639F089FD2B681B
:10A2D000226843F0010352682B6093889BB243F0DD
:10A2E00002039380F8BD1068203B202202FA03F39A
:10A2F00043F01803C360E0E72DE9F041794E0746CB
:10A3000001253C6897F888806368B8881A8884F8C3
:10A31000245022F040021204120C1A802289824238
:10A320001AD0B0F5807F0246A8BF4FF48072022A8F
:10A330001988B8BF0222002A92FAA2F2B2FA82F277
:10A3400089B208BF4FF0FF32013A21F0380141EAEB
:10A35000C20292B21A802081397BA27A8A420CD042
:10A360001A8822F003021204120C1A801A8892B280
:10A37000002900F092801A80A1721A8892B242F0ED
:10A3800040021A80226A9168002900F0A1804FF0F3
:10A39000000C1432E64652F8100C8E4400EA060116
:10A3A00020B1B1F1805F23D0616909B352F8140C78
:10A3B000143200EA060110B1B1F1805F18D052F8F2
:10A3C0000C1C0CF1010C0029E5D1227B82B1B8F103
:10A3D000000F0DD0BCF1010F6DD8BEF1070F6AD888
:10A3E0000CEB8C018900226A11440A7B002A62D09E
:10A3F000226A92684FF00008002A51D0B8F1000F8D
:10A4000002D098F80C2022B1BA6812B11168928873
:10A410004A83226AD2F800E0226A5168226A92686E
:10A42000501E9AB1BEF1000F23D01EF801CB1A893D
:10A430009207FCD5A3F80CC01A89D207FCD59A89DB
:10A4400092B209B101F8012B0138EBD2236A1B7BD0
:10A45000E3B9236A1B697BB1236AD7F894001B69AF
:10A46000984701280DD0022806D100232362BDE8B9
:10A47000F0814FF0FF0CDAE7D4F82080236A143320
:10A480002362236A9B685BB16368B7E7BB68002BF4
:10A49000DFD01A689B881383DBE742F003026AE788
:10A4A000236A1B68DBB1236AD3E9007222620022AF
:10A4B000C3E9002225E700213846FFF769FEBB68A3
:10A4C00013B11A689B8853833846BDE8F04197E67C
:10A4D000227B002A8CD0B8F1000F84D188E7236258
:10A4E000C5E700BF0000FFFF10B40C4C002304F5CB
:10A4F000D67C01E0152B0CD003EB430201331CF892
:10A5000002108142F6D122445DF8044B92F9AE016B
:10A5100070474FF0FF305DF8044B70477026002005
:10A5200070B502EB4202104C4FEA820E4FF0000C65
:10A5300022460EF10805634604E00133172B11D0C3
:10A5400012F81CCF6045F8D192F801C08C45F4D1C7
:10A550005659002EF1D0C3EBC3030EEB8303181D35
:10A56000204470BD002070BD80C9040830B502EBE6
:10A570004202104D104C4FEA820C0CF10C0E2A4690
:10A58000002304E00133172B11D052F82C4FA042C6
:10A59000F8D114798C42F5D152F80E40002CF1D04C
:10A5A0002C2000FB03C303F10800284430BD002029
:10A5B00030BD00BF78BD0408000001400248836937
:10A5C0000BB1083018477047980100200248C36B50
:10A5D0000BB12C3018477047980100200248036ED9
:10A5E0000BB1503018477047980100200348D0F84D
:10A5F00084300BB174301847704700BF98010020B9
:10A600000348D0F8A8300BB198301847704700BF06
:10A61000980100200348D0F8CC300BB1BC3018476B
:10A62000704700BF980100200348D0F8F0300BB10C
:10A63000E0301847704700BF980100200348D0F869
:10A64000143113B100F5827018477047980100204B
:10A650000348D0F8383113B100F5947018477047AB
:10A66000980100200348D0F85C3113B100F5A670C2
:10A6700018477047980100200348D0F8803113B183
:10A6800000F5B87018477047980100200348D0F8CB
:10A69000A43113B100F5CA70184770479801002023
:10A6A0000348D0F8C83113B100F5DC701847704783
:10A6B000980100200348D0F8EC3113B100F5EE709A
:10A6C00018477047980100200348D0F8103213B1A2
:10A6D00000F5007018477047980100200348D0F833
:10A6E000343213B100F50970184770479801002003
:10A6F000094B0A4A013800EBC00003EB8000116BE4
:10A700008368074883420CBF4FF400134FF4800363
:10A710000B431363704700BF9801002000380240CC
:10A720000060024070B501383B4C3C4D00EBC00C62
:10A7300004EB8C0C9646DCF80860394AAE420CBF3C
:10A740004FF400154FF48005166B35431563CCF8B4
:10A750001810CCF820303349DCF80C308B424FEA2B
:10A76000C0023ED001F580618B423AD0A1F57A71EA
:10A770008B4245D001F580618B4241D0A1F57A71C1
:10A780008B423FD001F580618B423BD0A1F57A71BD
:10A790008B4233D001F580618B422FD0A1F57A71C5
:10A7A0008B4231D001F580618B422DD0A1F57A71B9
:10A7B0008B422BD001F580618B4227D0A1F57A71B5
:10A7C0008B4225D001F580618B4221D0A1F57A71B1
:10A7D0008B421FD0144D01F580618B4218BF0025BC
:10A7E00000E0124D104404EB8003CEF387119D620C
:10A7F000587FBDE8704000223DF034BB0C4DF1E7BE
:10A800000C4DEFE70C4DEDE70C4DEBE70C4DE9E798
:10A810000C4DE7E7044DE5E7980100200060024099
:10A8200000380240106002400080002820800010A4
:10A830000080001800880010008020102080002078
:10A8400000880020008020200120FEF723BB00BFED
:10A850000220FEF71FBB00BF0420FEF71BBB00BF9A
:10A860000820FEF717BB00BF1020FEF713BB00BF88
:10A870004FF47870FEF70EBB4FF47C40FEF70ABB36
:10A8800030B50C4683B0054618B3036803F13F4367
:10A8900003F57E039B0A104A134493F88C0E3CF098
:10A8A00041F8A988009104F00303C4F381028DF8F4
:10A8B000043028688DF80520C4F300136946C4F3FA
:10A8C00041148DF806308DF8074039F05BF903B07C
:10A8D00030BD4FF0FF33DEE778BD040800B1CFE7AD
:10A8E000704700BFCA780AB900207047F8B58B7866
:10A8F000013B022B0D4650D80446384F282003FB5D
:10A9000000F0391807F5F6763044206191F8EC0133
:10A910000126022884F8986001F5F6764ED0DBB265
:10A9200007EB0313D3F86432C1F8F031ABB3022361
:10A9300081F8EC314FF48073B38104F12003C1F846
:10A94000043204F15C03C1F8083204F11006104629
:10A950000BF05CFDA0612B780133DBB210B1C37149
:10A96000222383710921FFF7B9FFA069FFF7BEFB1E
:10A970001B4AD2F8443E632BFBD91A480BF008FA65
:10A98000A082304635F028FF064640B9E8780BF043
:10A990003DFD0BF09BFD3046F8BD0020F8BD23695E
:10A9A00084F8D8001878012812D002280ED197F820
:10A9B00094320120034487F89432F8BD91F8F931BC
:10A9C000013381F8F93104F11006C0E70120F8BD28
:10A9D00097F89532013387F89532F8BD702600203C
:10A9E0007815002040420F0038B50C4BD3F8985230
:10A9F00005440446A87D0BF009FD68B12E22013400
:10AA00008271C4710121FFF769FFA87D0BF0FEFC84
:10AA100010B1036882885A8338BD00BF70260020B9
:10AA2000F8B5044690F8210100B9F8BD0BF0EEFC32
:10AA3000054600287FD08388404AB3FA83F3262155
:10AA4000202BC180C3F11F00E260EED03C4A3D499B
:10AA500002EB80020C340144C2F884464FF00042FD
:10AA600032FA03F391F8946E05D0374A116821EA5F
:10AA700003011160536100212846FFF701FFAB88F5
:10AA80002A68B3FA83F3C3F11F0000F0FC0101F15F
:10AA9000804101F59C3102F13F4202F57E0200F057
:10AAA00003008C6880000F27C2F38722824007FAD8
:10AAB00000F024EA00008860886802438A60224A25
:10AAC000224811684FF0004424FA03F321EA0301FD
:10AAD0001160516821EA030151601D49D1F8007CE1
:10AAE0001F43C1F8007C976827EA03079760D7687F
:10AAF00027EA0307D760D1F8082C30441A43C1F87D
:10AB0000082C90F89C22F02A06D8002B8DD00E49F4
:10AB10000A6813430B60F8BDF02380F89C320D4B9C
:10AB20000022985D03213DF09DF9AB88B3FA83F3D1
:10AB300024FA03F3E9E7014BE360F8BD358E000822
:10AB40007815002078BD0408003C014070260020E4
:10AB500000300140E82505080E4B70B5D3F8406180
:10AB6000002E14DD0C4C002503E0B54204F1200456
:10AB70000DD0237F0135002BF7D0E0680028F4D0FA
:10AB8000217DFFF77DFEB54204F12004F1D10120C3
:10AB900070BD00BF70260020F819002070B50C466B
:10ABA00082B015460646002839D0036803F13F43BA
:10ABB00003F57E039B0A1B4A134493F88C0E3BF06B
:10ABC000B1FEB2880092B2FA82F304F003028DF86B
:10ABD0000420C4F3810230688DF80520C3F11F03FF
:10ABE000C4F30012C4F341148DF80740C3F3CC043E
:10ABF00000EB840403F007038DF806209B00226A13
:10AC00000F269D4006FA03F322EA03032362226A19
:10AC100015436946256238F0B5FF02B070BD4FF0AC
:10AC2000FF33C8E778BD040800B1B7E7704700BF3D
:10AC30002DE9F043774D05EB001683B0D6F864326A
:10AC4000002B00F0938004464FEA001896F86C023F
:10AC50003BF068FE96F86C32590903F01F02032995
:10AC60004FF0010303FA02F300F09880042900F08A
:10AC7000858002297DD005EB0803013493F8680232
:10AC80000BF0C4FBE4B2814610B112238371C4718E
:10AC900005EB080393F869020BF0B8FB074610B107
:10ACA0001323C471837105EB080393F86A020BF058
:10ACB000ADFB064610B11423C47183714544484668
:10ACC00095F86B2201924A21FFF7AEFF019A3846B0
:10ACD0002A21FFF7A9FF019A0A213046FFF7A4FFB6
:10ACE000D5F864224C4B9A425DD04C4B9A424AD0E4
:10ACF0004B4B9A4262D04B4B9A426AD04A4B9A4293
:10AD000072D04A4B9A427AD049499088B1F84A4267
:10AD1000B1F84832B1F852522343B1F84C422343C0
:10AD2000B1F84E4220F003002343B1F85042000432
:10AD3000000C2343B1F8544290802B4310882343E6
:10AD4000B1F85642B1F8581200F44150234303437E
:10AD50009BB21380938B23F400631B041B0C93831F
:10AD6000118213889BB243F04003138003B0BDE807
:10AD7000F083304A516A0B4353627CE72D4A1169D4
:10AD80000B43136177E703F50033196A41F48041FF
:10AD90001962196A21F480411962B5E7254A116ADE
:10ADA0000B43136267E703F58433596A41F480511A
:10ADB0005962596A21F480515962A5E703F5FE33BF
:10ADC000196A41F400411962196A21F400411962BB
:10ADD0009AE703F58233596A41F400515962596A7E
:10ADE00021F4005159628FE703F56843596A41F431
:10ADF00080115962596A21F48011596284E703F580
:10AE00006443596A41F400115962596A21F40011EE
:10AE1000596279E770260020003001400038004078
:10AE2000003C00400034014000500140005401400B
:10AE30009801002000380240431C00F0A8802DE952
:10AE4000F04F00EB8003C44FDA0087B057F8029050
:10AE500081000546019107EBC303B9F1000F04D04F
:10AE60009C68002C4BD0A17911B107B0BDE8F08FE0
:10AE7000D3F80CA0BAF1000F00F095819AF80630D3
:10AE8000002BF2D11832B818D9F80480BB50691CD5
:10AE9000C0E90133C3601523A371C9B21623E17160
:10AEA0008AF807108AF8063099F818003BF03AFD46
:10AEB000B8F804302268A18823F440731B041B0CEB
:10AEC000A8F80430DAF800301183BAF804201A83A5
:10AED00011212046FFF7D4FC11215046FFF7D0FC8A
:10AEE00009264FF0330B24B12268A1881069014272
:10AEF00031D1BBF1010B45D03CF00CFFF3E7D3F8A7
:10AF00000CA0BAF1000F00F0A4819AF80630002BD3
:10AF1000ABD11832BB18D9F80480BC50C3E9014446
:10AF2000DC6016238AF806306B1C8AF8073099F823
:10AF300018003BF0F7FCB8F80430BAF8042023F40A
:10AF400040731B041B0CA8F80430DAF800301A8395
:10AF5000C2E7A188226851833CF030FF2368A288B1
:10AF60001A833CF02BFF013EBBD1332624B123686A
:10AF7000A28819690A420DD1013E00F0FB803CF025
:10AF8000C9FEF3E7002CE4D13CF018FFE9E7704775
:10AF9000A28823685A833CF011FFBAF1000F00F039
:10AFA0002481DAF80030BAF804205A833CF006FF16
:10AFB000002C00F0EE802368A2881A833CF0FEFE8D
:10AFC000DAF80030BAF804201A833CF0F7FE236860
:10AFD000A2881B691A4240F0A080019B2B4407EB1A
:10AFE000C3039A7C002A40F095801A7C12212046E7
:10AFF000FFF7D4FD019B2B4407EBC3039B7C002B85
:10B0000000F08F803221BAF1000F07D0019B2B4452
:10B0100007EBC30350465A7CFFF7C0FD4F4B9845E2
:10B0200000F0EF804E4B984500F0F6804D4B984570
:10B0300000F0FD80019B2B4407EBC3074FF47A73AC
:10B04000BC8A03FB04F4B8F8043023F440731B04F7
:10B050001B0CA8F80430B8F800309BB243F0010391
:10B06000A8F80030B8F8045002A838F0D5FD25F053
:10B070003F0504993C4B2D04A3FB01232D0C45EA0D
:10B080009345A8F80450B8F8002022F001021204F9
:10B09000120CA8F80020354A980C9442034642DC72
:10B0A0006200B1FBF2F292B20133042A38BF0422EB
:10B0B000A8F82030A8F81C20B8F800309BB243F064
:10B0C0000103A8F80030B8F8003023F4816323F0BE
:10B0D00002031B041B0C4FF4804143F48063A8F867
:10B0E0000030A8F80810B8F8003023F080031B04E3
:10B0F0001B0C0022A8F8003099F81A0011463CF009
:10B10000B1FE002299F81900114607B0BDE8F04FD2
:10B110003CF0A8BE1A7C322169E7DAF800301B69DE
:10B120005BE712216FE704EB4404B1FBF4F18AB250
:10B13000C1F30B0109B942F001020D494FF49673B6
:10B1400000FB03F3A1FB03139B09013342F400420C
:10B15000A8F82030AEE700BF78150020005400406A
:10B1600000580040005C004083DE1B43A0860100C5
:10B17000D34D6210002C7FF40BAF3CF01FFEBAF1F0
:10B18000000F5FD0DAF80030BAF804205A833CF0A0
:10B1900015FE3CF013FEDAF80030BAF804201A83EA
:10B1A0003CF00CFE26E71832BB18D9F8048047F8AB
:10B1B00002A0C3E901AAC3F80CA01523A371431C84
:10B1C000E37199F818003BF0ADFBB8F80430A288A1
:10B1D00023F440731B041B0CA8F8043023681121CE
:10B1E0001A832046FFF74CFB7AE63CF0E7FD236824
:10B1F000A2881A833CF0E2FD3CF0E0FD23681B6965
:10B20000EBE603F5F2331A6A42F400121A621A6A84
:10B2100022F400121A620DE703F5F0331A6A42F4C1
:10B2200080021A621A6A22F480021A6202E703F5A7
:10B23000EE331A6A42F400021A621A6A22F4000219
:10B240001A62F7E63CF0BAFD3CF0B8FD3CF0B6FD02
:10B25000D0E61832BB18D9F8048047F802A0C3E939
:10B2600001AAC3F80CA099F818003BF05BFBB8F8F2
:10B27000043023F440731B041B0CA8F804302FE6A1
:10B280002DE9F84307460BF0C5FBDFF8508007EBCC
:10B290008709044608EBC90542F20F7604E00BF07B
:10B2A000B9FB031BB3420ADC6B7E002BF7D108EB22
:10B2B000C90898F8180080F00100BDE8F883064A34
:10B2C000B2F8A432013338469BB2A2F8A432FFF799
:10B2D000B3FD0020BDE8F88370260020781500201B
:10B2E00070B500EB8003274D05EBC30255F83330F2
:10B2F0005C68A38A84B09BB20393039B13F4706FC2
:10B300001CBF01231376039B13F4E06F4FEA800602
:10B310000CD1A38A304423F4706305EBC0051B04F1
:10B320001B0C0022A3826A7604B070BD238BA38815
:10B3300023F480631B041B0CA380039B9A05E8D4B1
:10B3400023889B05E5D42388D9050FD52388DA0502
:10B35000FCD423889BB243F40073238023889B058D
:10B36000FCD40190FFF768FD0198D2E723889BB2D7
:10B3700043F400732380A38823F440731B041B0C45
:10B38000A380C6E7781500200020A9E70120A7E7E1
:10B390000220A5E72DE9F0472B4C994600EB8003EE
:10B3A00004EBC304676827B10546607E00F0FF0820
:10B3B00020B14FF000084046BDE8F0870E469246A7
:10B3C0000BF028FB089B7100C9B2C4E908330123C4
:10B3D000A17684F81BA084F81D80A37784F81C90C4
:10B3E000637684F81880BA88910506461CD43B8899
:10B3F000DA050FD442F20F7404E00BF00BFB831B51
:10B40000A34215DC3B889B05F7D43B889BB243F4F1
:10B4100080733B80BB889BB24FF0010843F44073BC
:10B42000BB804046BDE8F08798464046BDE8F087BF
:10B43000064AB2F8A43201339BB22846A2F8A432DD
:10B44000FFF7FAFCB7E700BF781500207026002050
:10B45000F8B590F871301C09013C042C0FD81B4E34
:10B4600006EB44020546B2F8A40E03F00F0340FABF
:10B4700003F2D20703D595F87C70012F01D001208B
:10B48000F8BD07FA03F3013B184034443EF0A4FD35
:10B4900094F8B02E0E4C104454F8302004EBC00445
:10B4A0001069A3881840EBD0EB6E002285F87C2051
:10B4B00093F8212020460221FFF770FB2A6E938922
:10B4C0009BB243F0080338469381F8BD78BD040869
:10B4D000182900201D4B1E48196C1E4A10B441F05B
:10B4E00080510124196404625321FF24CA2054624C
:10B4F000506251625B6FDB0085B017D4164804239D
:10B50000002102910290029A1A440292029A043394
:10B510001C2B1160F5D103910390039B0393039BB4
:10B520000E4A1A6005B05DF8044B70470A4B0022C2
:10B5300001920193019B0193019A084B12689A4270
:10B54000DCD105B05DF8044B704700BF0038024005
:10B5500000000E420028004050280040316665423D
:10B5600070B5056E8668AB8923F400531B041B0C71
:10B57000AB8142790446007912F0040F14BF4FF4F6
:10B58000805C4FF0000C110310F0010F4FEA022213
:10B590000CBF0023042302F48062800748BF43F0FD
:10B5A000080342EA0C0213432A8A92B201F40051C2
:10B5B00022F440520A432A82AA8922F4B05222F08D
:10B5C0000C021204120C1A43AA81AB8A23F44073B2
:10B5D0001B041B0C90B0AB8201A838F01DFB7A4B0A
:10B5E0009D4205D003F580639D4201D0039A00E09F
:10B5F000049AAB897549A8891B0402EB82024CBFEF
:10B600007300B30002EB8202B2FBF3F3A1FB03620F
:10B6100052096426000406FB12334FEA021200F1BD
:10B6200098801B013233A1FB0313C3F3431313436D
:10B630009BB22B816679256EF30700F19280360765
:10B64000AB8A48D59BB243F00803AB82AB899BB26F
:10B6500043F40053AB812379D80732D5E06B00283F
:10B6600000F08D800023CDE90833CDE90C33CDE91E
:10B670000E334FF4807204930693E3680A920593A5
:10B68000E26D636CCDE90132636903934FF480315D
:10B690004FF4806307930B9138F00CFB01A9E06B2A
:10B6A00038F09EFBE26B216E136843F001031360D8
:10B6B0008B8A9BB243F040038B825268237992B20B
:10B6C000626599070DD4226E93899BB243F40053AF
:10B6D000938110B070BD23F008031B041B0CAB82D8
:10B6E000B4E7206C002856D0A36D02934FF480334A
:10B6F0000B934FF48063079323690593A36C019325
:10B70000002540230493CDE90855CDE90C55CDE93A
:10B710000E55039506950A9538F0CCFA206C01A9D0
:10B7200038F05EFB236C226E586940F0800058614F
:10B73000186840F0160018605D60938A9BB243F071
:10B74000800302F10C0193820B6843F040030B600D
:10B75000BAE7DB003233A1FB0313C3F342131343F5
:10B7600066E7194B9D422DD0A3F54C439D421AD05C
:10B7700003F550439D427FF462AF052114E04FF67C
:10B78000DF722A80EA6842F02002EA60EA6842F04A
:10B790001002EA6095E7226ED36843F0800302F15D
:10B7A0000C01D360D0E70121094AD2F898320B444A
:10B7B000987D0AF02BFE00283FF441AF0368828891
:10B7C0001A833CE70021EFE7001001401F85EB5191
:10B7D0007026002010B5044690F871000AF016FE9D
:10B7E000226E938923F008031B041B0C9381012311
:10B7F00084F87C3020B1BDE810402021FFF740B82C
:10B8000010BD00BFF8B5037D1F2B044680694CD9DD
:10B810002168A3F120024E68202595402E4233D0A6
:10B8200010239340CD60CB604B68D340DE0771D4CA
:10B83000EFF31183502282F31288026C1168C9075A
:10B840005AD4516889B271B9D0E90965AE4250D075
:10B8500087692F44D76062D9751BADB25560866287
:10B86000002180F86410116841F00101DBB2116021
:10B8700083F3118890F86430002B44D1237D1F2B73
:10B8800027D92168A3F120024C6808209040044287
:10B8900000D0C8604C68042000FA02F2224203D0B3
:10B8A000203B00FA03F3CB60F8BD22682025166820
:10B8B0009D402E4219460ED010219940956091600E
:10B8C0001168D940CD07B3D5012101FA03F3936084
:10B8D000AEE722681946106808238B40184200D052
:10B8E00093601068042303FA01F10142DCD09160F7
:10B8F000F8BD012280F86420DBB283F3118890F850
:10B900006430002BBAD090F87C30002BB6D1FFF712
:10B9100061FFB3E7012303FA02F2CA6088E7066910
:10B92000751BADB2556081629AE700BFC36B10B55D
:10B930000446002B41D0236E99891A88490692B299
:10B9400001D5500619D4226C0AB3998A1A88C907FE
:10B9500092B204D5100744BF4FF6F7721A80998946
:10B960001A88C90692B207D5D20605D5626B0AB10C
:10B970009047236E1A889B8810BD94F87C20002A7B
:10B980002AD04FF6BF721A80226C002ADDD1998925
:10B990001A88090692B2D8D51006D6D5D4E909126C
:10B9A0008A421ED0A1692069895C99800132B2FB6C
:10B9B000F0F100FB1122A262C7E7036E99891A8891
:10B9C000890692B2B8D59006B6D5E26A72B1988867
:10B9D000216B80B29047AEE72046FFF7FBFE236E57
:10B9E000CFE7DA6822F08002DA60AEE79B88E2698E
:10B9F0006169DBB28B54E269E168236E0132B2FB0C
:10BA0000F1F001FB1022E26196E700BFBFF34F8F18
:10BA10000549064BCA6802F4E0621343CB60BFF3EA
:10BA20004F8F00BFFDE700BF00ED00E00400FA0506
:10BA300008B572B6FFF7EAFF00B583B00D490022E2
:10BA400000920091009B0C330093009B1B68012B1C
:10BA500002D003B05DF804FB01920191019B0649FD
:10BA60000C330193019B1A600B6883F308884B68C1
:10BA70009847FEE7502800400000FF1F38B5FFF749
:10BA800029FDFFF7D9FF012038F02CFA704A93689E
:10BA900023F003039360936813F00C0FFBD113683A
:10BAA0006B49002841D143F00103136041F2883310
:10BAB0000A6895075CD4013BFAD1664C664D644B2D
:10BAC000664AEA60596F664AC4F84015AA605A6B24
:10BAD000644C22F080025A63586F634A40F08070D1
:10BAE0005867186B40F4CE001863596B5963196C92
:10BAF00021431964596C0A435A640AF043FF5B4BB3
:10BB00005B4AD3F87C36A2FB03239B09013BB3F1CC
:10BB1000807F09D24FF0E022F020536100210723FB
:10BB200085F823009161136138BD43F480331360BD
:10BB30000A68940341F2883304D4013BBDD00A68FB
:10BB40009403FAD5434C4B4A4B4BB0FBF3F3B0FB99
:10BB5000F2F0B3EB400F18BF18464FF48002B3FB6E
:10BB6000F0F3C4F83C25C4F82805C4F82C3509E0E6
:10BB7000384C002108220223C4F83C15C4F82825BB
:10BB8000C4F82C35022038F0ADF902280FD83B4B11
:10BB9000D4F82C1503EBC0008588C2884388C4F80C
:10BBA0003455B3FBF1F3C4F83825C4F83035284BCD
:10BBB00033491A6C42F080521A640A6842F44042D7
:10BBC0000A609A689A609A689A609A6842F4805209
:10BBD0009A60D4F82815D4F83C25D4F830050A43E7
:10BBE00042EA8012D4F8380542EA0062D4F83405FB
:10BBF0004008013842EA00425A601A6842F08072F6
:10BC00001A601A689201FCD51E4A40F20270106058
:10BC1000986820F003009860986840F00200A2F550
:10BC200080629860936803F00C03082BFAD1D4F873
:10BC30002C551548D823B3FBF5F341EA831141F0A5
:10BC400000510123C2F884108366FCF765FE35E7D6
:10BC5000003802407026002000ED00E00005FA05E3
:10BC600000000020FFC9FE36335F07007815002072
:10BC7000D34D621080841E0040420F0030CC040877
:10BC800000700040003C0240000047421D4AB2EBF9
:10BC9000902F4FEA90230CD3B3F5801F1CD3A3F54C
:10BCA0008013013B042B2BD8DFE803F0181C1E2067
:10BCB0001A00A3F58013403B122B0DD8122B0BD882
:10BCC000DFE803F01C0A0A0A0A0A0A0A0A0A0A0A30
:10BCD0000A0A0A0A1A181600FE2070470220704746
:10BCE00006207047032070470420704705207047E6
:10BCF00009207047082070470720704700207047D0
:10BD000001207047050010002DE9F04F8D4BDFF842
:10BD1000549293F856358C4F8FB000250193013B18
:10BD2000DBB2CDF80C900293DFF83C82874E4046A0
:10BD3000FFF7ACFF092844D8019B3C56012B00F0CB
:10BD4000E180022B01D1082C31D14FF0000B594674
:10BD500020460CF021FA0CF081FA037813B1542B31
