:020000040800F2
:10000000F8FF012099420A0835430A08A52205088D
:1000100035430A0835430A0835430A080000000042
:1000200000000000000000000000000035430A0846
:1000300035430A080000000035430A08E9120508A4
:1000400035430A0835430A0835430A0835430A0888
:1000500035430A0835430A08F1200408F92004084A
:1000600001210408092104081121040839070000AE
:100070004D070000610700007507000089070000B8
:100080009D070000B107000035430A0835430A0800
:1000900035430A0835430A0835430A08192104087C
:1000A00035430A08D137040835430A08C137040824
:1000B000E1370408F137040801380408791A040804
:1000C0006D1A0408AD1A0408A11A040835430A0879
:1000D00035430A08A5100000F91100004D13000077
:1000E0002121040835430A0800000000CD38040827
:1000F000A5380408DD38040895380408C507000051
:1001000035430A0835430A081138040835430A08FC
:10011000A1140000F515000021380408A17C09088D
:10012000D9070000ED0700000108000015080000D5
:100130002908000035430A0835430A0835430A08F0
:1001400000000000000000000000000000000000AF
:100150003D08000051080000650800004917000034
:10016000E11A0408D51A040835430A0835430A0879
:1001700035430A0835430A0835430A0800000000E1
:1001800035430A0835430A089D180000F11900009C
:1001900035430A0835430A0835430A0835430A0837
:1001A00035430A0835430A0835430A0835430A0827
:1001B00035430A0835430A0835430A08151B040865
:1001C000091B040835430A0835430A0835430A0861
:1001D00035430A085980090835430A0835430A0897
:1001E00035430A0835430A0835430A0835430A08E7
:1001F00035430A0835430A0835430A0835430A08D7
:1002000035430A0835430A0835430A0835430A08C6
:10021000ED380408FD3804080D39040835430A0890
:1002200035430A0835430A0835430A080000000030
:1002300035430A0835430A080000000035430A0820
:1002400035430A0835430A0835430A0835430A0886
:1002500035430A0835430A0835430A0835430A0876
:1002600035430A0835430A0835430A0835430A0866
:1002700035430A0835430A08451B0000000000000A
:1002800035430A080000000035430A08000000005A
:080290000000000035430A08DC
:020000040804EE
:100000004368426D30B49A61EFF31182502383F359
:1000100012884168D2B2856C0B68046D23EA05032F
:1000200023430B6082F31188436981681A68096869
:1000300022F00102D0E908541A60826A1D605C61F6
:100040005A60D0E90B429C60DA600023B0F86C2063
:1000500030BCCA620377704730B5FAB18E464FEABA
:10006000014C034600F1C005002419680C3353F815
:10007000042C43F8084C41EA0C0142EA0E02AB4260
:1000800043F80C1C43F8042CEFD1D0F8C03043EAFD
:100090000E03C0E93144C0F8C03030BD4FEA014E14
:1000A0008C46DEE710B40C4C6368002B11DD002099
:1000B00004F1080C0146DCF8AC3003F1C0025960D1
:1000C0000C339342FBD1013063680CF5867C83428C
:1000D000F1DC5DF8044B704704000020F0B5474C9C
:1000E00004EB401292F8543403B9F0BD4FF4B47CE1
:1000F000434B00264FEA401E0CFB004C9CF83A553F
:100100008CF83A6582F83A541D785A7895420DD0A9
:1001100002EB420C560003EBCC0C9CF804C00CF133
:10012000FF37012F5DD9BCF1030F55D004EB0E0052
:10013000A0F83814EFF31183902282F3128890F81C
:100140003A24DBB2B0F8381442EA4102002192B2FC
:1001500080F83A1483F311881309247883EA122370
:1001600083EA0201DCB11301C943D0F85024012411
:10017000D0F83C049BB201F00F01D2F8AC208440CF
:100180000B4302F1C000590013F4004F8BB202D1AF
:100190005168214351600C328242F4D1F0BD130109
:1001A000D0F83C44D0F8502401F00F0104F11000C5
:1001B0009BB20124D2F8AC200B43844002F1C00072
:1001C000590013F4004F8BB202D1516821435160A2
:1001D0000C329042F4D1F0BD571C07F00307AF4238
:1001E000A4D0324403EBC2030344597C00299DD0C0
:1001F00004EB0E03012283F83A2497E70400002061
:10020000881C0024704700BF024B03EB401090F89D
:100210005504704704000020704700BF0A4810F8DA
:100220004C1C81B101EB410100234438490010B45A
:100230001C4650F82320063302B114608B42F8D1DB
:100240005DF8044B70477047FC1000200A4810F816
:100250004C1C81B101EB410100234438490010B42A
:100260001C4650F82320063302B114609942F8D19D
:100270005DF8044B70477047FC1000200120704768
:10028000034B00EB400003EBC00010F8330C704749
:10029000FC1000202DE9F0431D4C14F84C3CABB38E
:1002A0000022A4F144034FF0500E1A4E4FF02C0CD4
:1002B000194F154607E053F8181B01320D6014F86A
:1002C0004C1C914222DD197C0029F4D05968FE2093
:1002D0004FEA9128A8F58018B8F1520F98BF17F887
:1002E0000800EFF311888EF31288D1F824900CFBEC
:1002F00000605FFA88F809F10109C0F88C9048693C
:1003000040F00100486188F31188D4E7BDE8F0832C
:10031000FC100020881C002430600A0807EE900AB8
:10032000B8EE670A704700BFBCEEC00A10EE103A84
:1003300098B27047B4224FF4A57C4FF4EB710023C0
:1003400082805922A0F802C04FF4E17C02814FF470
:100350008772C1809621828144220370A0F80AC06E
:10036000C1814382028270470346012200205A77EE
:10037000704700BF08B5D0E90B2183690B44836146
:100380000AB108469047002008BD00BF436A0246F4
:100390001B681B6A5B685B7813F0010008BF50772D
:1003A000704700BFC2628161704700BF704700BFE5
:1003B00004307047C2628161704700BF436A0246E1
:1003C0001B681B6A5B689B7813F0010008BF5077BD
:1003D000704700BF0346012200205A77704700BFD4
:1003E00008B5D0E90B2183690B4483610AB1084643
:1003F0009047002008BD00BF704700BF0430704721
:100400000C4B93F8FC22D3F8F81202440844D2B201
:10041000C3F8F80283F8FC2293F8FC22120605D5F3
:1004200093F8FC2282F0800283F8FC22024B012226
:100430001A707047881C0024000000242DE9F84F32
:10044000154FD7F80053ED0A20D00026DFF84CA056
:1004500007F54179B046AC19D7F80413102352467A
:100460006410D1F828B04846C7F83083E102D84775
:100470000F280BDD094B03F1100253F8041B013167
:1004800007D19342F9D12546B542E4DCE802BDE844
:10049000F88F661CF8E700BF881C002400F60024D3
:1004A000184BD3F83813D3F83C238A1A322A15D8BC
:1004B000D3F850238A4200D37047D3F84023E2B1E7
:1004C00010683231928810B44469C3F85013224244
:1004D0005DF8044B18BF120482617047D3F84023C3
:1004E0003AB193F84C031168C007928848BF1204D0
:1004F0008A610022C3F8502370473231C3F8501389
:10050000704700BF881C0024064AD2F840333BB134
:1005100092F84C131A68C9079B8848BF1B04936163
:1005200000207047881C0024044B4FF4007C0020FE
:10053000D3F86033A2F800C00B607047881C002419
:10054000002070470120704701207047002070474D
:1005500000B596461A6972450CD38C4671448A429E
:10056000996938BFA2EB0E0C71445DF804EB62464A
:1005700065F06ABB5DF804FB2DE9F84310F002FF5B
:10058000224F4FF0000C05464FF48678204E7968D4
:10059000002930DD00231C4608FB0372013392F86A
:1005A00005218B4244EA0204F6D144EA0C0C5FFABE
:1005B0008CF97368C3F30803D3B9EFF31183BBB9A4
:1005C00010F02EFF431BB3F5FA6FCCBF4FF0000CB9
:1005D00004F0010CBCF1000FD9D1B9F1000F04D027
:1005E0000C4B93F89023542A08D04846BDE8F88372
:1005F00010F09EFEE6E7E1460024DAE7B3F8982320
:1006000048460132A3F89823BDE8F883040000208F
:1006100000ED00E0881C00242DE9F04FBD4D87B0AF
:100620002B781BB9012007B0BDE8F08F6B68BA4A80
:10063000002BD2F8387318DD05F108040020B74903
:10064000D4F8F430BFF34F8F03F59072C1F85C32E9
:1006500020339342FAD1BFF34F8FBFF36F8F013036
:100660006B6804F586749842EADBAD4BAD4EA3FB94
:100670000723AD4FDFF8C8A25B09A7F17C0BA6FBEF
:100680000326F60806EB8606A3EB4606F3B207EB55
:100690008606059307F53873029300239946DBF825
:1006A00064344B4540F30F81DAF81830DAF80480EF
:1006B000D3E93D5410F066FE0122049002FA08F3DB
:1006C0009A4901936118944B05EB410193F8A403F7
:1006D00093F890331A46039305EB4003542A00F035
:1006E0004181019A994240F24481B3F800C01CEA6A
:1006F000020F00F04D81B3F802C01CEA020F00F0B7
:100700004A81B3F804C01CEA020F00F04781B3F835
:1007100006C008331CEA020FE4D10192A3EB050ED8
:1007200099424FEA6E0E40F22481A4EB0E04452C50
:1007300028BF452403EB4404A34280F01F81002519
:100740009C46019AA846294601961888104088427E
:1007500014D158881040814240F0D78098881040CA
:10076000814240F0D480D88808331040814206D1BD
:100770009C4207D9188810408842EAD002339C4234
:1007800000F2A880B8F1110F019E40F2F780D8F175
:10079000150200F1F3806649049C4B689E455E4B50
:1007A000D3F8A80338BFC1F804E0231A002B13DBE9
:1007B000604B03449C4200F2F6805748C0F8A833CF
:1007C0004B68052B40F2ED80053BDBB2524880F8C8
:1007D000A4334FF0FF334B6042B105FA02F2C8F187
:1007E0001408012505FA08F848EA0205524BC5F33A
:1007F000C43203EB8202506D05F01F0203EB82024C
:10080000516DC5F34412C5F3842503EB820203EB5B
:10081000850541EA0031536D41EA03116B6D41EAF0
:10082000032181EA112383EA131303F00F030F2B33
:1008300040F08880B1F5803F80F08480039B0909F7
:10084000542B05D1344AB2F894330133A2F89433CF
:10085000DBF86433B1F5606F03F10103CBF8643367
:1008600000F0B380029B998197F858300598834235
:100870000CD0B2683B689B1A3B607B68326B9B1A5A
:100880007B600023B360336387F858003B68013313
:100890003B60B3680133B3604FF6FF73994205D1F3
:1008A0007B6801337B60336B01333363029B09F157
:1008B00001095C375C361433B9F1080F0AF1200ADC
:1008C00002937FF4ECAE012301208BF8603407B073
:1008D000BDE8F08FA3EB0C0C184833F8021C4FEA6C
:1008E0006C0C11400CF1010C80FB0C60A0EBEC7067
:1008F0004FF0010C0128B8BF012085408044013829
:100900000CFA00F09C4605431FE7043337E7063333
:1009100035E700BF04000020881C002400ED00E043
:100920001F85EB51CDCCCCCC78110020C7FFFF7FC9
:100930000000002420A1070030600A0856555555D4
:100940003C040020039B542B33D0DBF86433013389
:10095000CBF86433DBF860334FF6FF710133CBF82B
:10096000603381E7204A9942A2F89A03019A3FF640
:10097000BCAE18B101381C4B83F8A403039B542B65
:1009800094D1194AB2F896330133A2F896338DE721
:1009900002330192C2E604330192BFE606330192AC
:1009A000BCE6002312E704980F4B0530C3F8A803F8
:1009B00006E70D4AB2F894330133A2F89433DBF81A
:1009C00064330133CBF86433C4E7074A537803EB4D
:1009D000430302EBC3034B445B7C0D2B7FF442AF1C
:1009E0008023029A93773FE7881C002410B50446C1
:1009F00064F0ACFB0146204689B2BDE81040FFF729
:100A00006DBB00BF00EB400010B5084C04EBC00408
:100A100014ED0F7A54ED0E7AE7EE007AB0EE670A25
:100A200064F094FB54F8443C186010BDFC100020A6
:100A3000F8B5264B1A785B789A4242D1244E7368F7
:100A4000002B23DD002506F10800224C2F46D0F8AC
:100A5000AC30BFF34F8F03F1E002C4F868322033AB
:100A60009342FAD1BFF34F8FBFF36F8F337813B137
:100A7000037F012B20D042690135716800F5867033
:100A80001368A94243F001031360E0DC10F07AFC24
:100A9000114BD3F86844002C0DDD03F26C4303EBDB
:100AA000C4041968083333F8042CC8689C4242EA2D
:100AB0000002CA60F5D1F8BD80F8FC70FFF7A0FA1B
:100AC000D9E75DF0C9FD0028B8D1F8BD881C002425
:100AD0000400002000ED00E0FC1000204FF0B042C8
:100AE000F8B5D2F88030D2F888502B4003EA0005E0
:100AF000C2F888507DB1084F0126B5FA85F4C4F1DB
:100B00001F0407EB840306FA04F4D3F8AC0303686C
:100B10009847A543F1D1F8BD881C00240269C36839
:100B20002DE9F04712EA03092AD005460E464FF098
:100B300000474FF00008B9FA89F327FA03F21B3B8C
:100B4000D24309EA02092A61042B16D8DFE803F030
:100B50003B30251A0300B36A002B3FD003F1FF3A64
:100B6000C6F828801FFA8AFA746A34B123682046CE
:100B7000514698476468002CF8D1B9F1000FDAD1DA
:100B8000BDE8F08770680028F7D0696B036889B208
:100B90009847B9F1000FCED1F2E7B0680028ECD049
:100BA000A96B036889B29847B9F1000FC3D1E7E791
:100BB000F0680028E1D0E96B036889B29847B9F181
:100BC000000FB8D1DCE730690028D6D0296C036863
:100BD00089B29847B9F1000FADD1D1E7E96A1FFAA0
:100BE00081FAC1E78069B43053F0A2BC38B590F8FF
:100BF00028300446012B04D0407F40B100236377A6
:100C000038BD406A03681A7B9AB9637F0BB901202B
:100C100038BD0A4D022305F1200205F140010FF015
:100C200013F995F8213003F0010383F00100637795
:100C3000E6E71B6A002BE8D0002038BD00F6002450
:100C4000F8B5144E044690F8281006F12007437FAB
:100C5000012904D00BB1002363770120F8BD606A3D
:100C600001680D7B85B9002BF7D002233A460A496B
:100C70000FF0EAF896F8213003F001036377002BB8
:100C8000EBD094F82810E3E70A6A002AE8D1002B99
:100C9000E3D0EAE700F6002440F60024F0B511F0B6
:100CA000010583B00AD190F828600446012E07D0D0
:100CB000C368B3F1807F01D90123237703B0F0BD6E
:100CC0000A4B476AD3F88C040FF0B0F9E368B88098
:100CD000B3F1807FF2D9B7212A46384633468DF8E2
:100CE000041001A926770FF0AFF8E7E7881C00246D
:100CF00070B5002394B00546224C069302200B9356
:100D000004F1200210931393119301921E4E6A6A0C
:100D100004960E4600940290CDE90E3301238DF81F
:100D20000C3007938DF820308DF834308DF8483032
:100D30002B7F002B14BF052304230C9304F14003E5
:100D40000593124B0993A4F120030A93106861F0F4
:100D50004FFF2B7FA3B1A4F18002330E1E3C82F81B
:100D60006130320C6946330AA67022706370686A7B
:100D70000FF03AF86B6A186861F03AFF14B070BD72
:100D80001F3CEEE780F600248D0304086903040885
:100D900010B594B0044650220649684664F054FFEA
:100DA0006946606A0FF020F8636A186861F020FFF6
:100DB00014B010BD04610A082DE9F8431F46436AC8
:100DC000044688461868914661F012FF237F002B85
:100DD0003BD0A0690523264D264EAB63030EE236B9
:100DE00006F8013CB070030C000A012F33707070DC
:100DF0004FF00000D8F800306B64D9F80030EB6495
:100E00002363E86527D0022F1DD1D9F80420686537
:100E10001344D8F8041085F850002A660122A96509
:100E20002363154B85F86420AB66144B617F03F197
:100E30001402606A002914BF194611460EF0D4FF4F
:100E4000E36A7BB1206BBDE8F883094D0423A069F8
:100E50000B4EAB63C6E7084B85F85070A865286653
:100E60006B65E2E7636A186861F0C2FEEAE700BFFB
:100E70000000002400F60024750304080800002484
:100E8000E1F6002400B583B08161019201A9049AC2
:100E900000930123C2626A46FFF78EFF03B05DF83C
:100EA00004FB00BF2DE9F0439846436A95B0054620
:100EB00018680E46344C914661F09AFE0223334A7C
:100EC0000027029304F59073049204F58072009356
:100ED00004F5A073297F0193012305928DF80C304E
:100EE0000697002937D08DF8343004F581748DF8D9
:100EF0004830330ECDF82C9004F8013C05238DF8D2
:100F00002070CDF8308013970793CDE90977CDE9AC
:100F10000E77CDE91077330CA6701D4F360A23707B
:100F20006670D7F88C040FF081F86C6A6B7FA08034
:100F30003BBB05A920460EF057FF6B6A186861F0AD
:100F400057FED7F890040FF071F86B6A988040460E
:100F500015B0BDE8F0838DF8343004F201148DF83B
:100F600048300423CDF82C908DF82010CDF8308037
:100F700013910793CDE90911CDE90E11CDE91011B7
:100F8000C9E76946D6E700BF00F600248D030408D0
:100F9000881C002410B590F828300446012B03D09B
:100FA00000230120637710BD406A03681A7B3AB9B9
:100FB00061F022FE00F0010383F001006377F2E7A5
:100FC0001B6A002BF4D0002010BD00BF38B5114DB6
:100FD000044694F82830012B05D0002363770023C2
:100FE0000120236238BD606A03681A7B72B961F020
:100FF00003FE00F0010060770028F0D0D5F8383308
:10100000226A9B1A002BE4DB002038BD1B6A002BF0
:10101000EDD0F3E7881C002410B5FF22044690F8B9
:101020002810406A62F03AF90E4B2046D3F8383364
:1010300003F5FA732362FFF7C9FF94F82830012BF8
:1010400000D010BD0022A021606A62F001F994F87E
:101050002830012BF5D1606A1822B021BDE810407C
:1010600062F0F6B8881C0024CB0700D5704710B595
:101070000446FFF7D1FF94F82830012B00D010BDB3
:1010800002480EF0D3FF636A988010BD00E1F505B9
:1010900038B504460D46FFF799FF062294F828104C
:1010A000606A62F0FBF8012294F82830627793427C
:1010B00005D0074BD3F838330F33236238BDE288AD
:1010C000D821606AB5FBF2F262F09EF8F1E700BF4A
:1010D000881C00242DE9F843838853B30446002577
:1010E000DFF85480012707E0D8F838330135A288AB
:1010F0000F33AA4223621CD92046268AB4F80690F0
:10110000FFF764FF062294F82810606A62F0C6F8C0
:1011100094F828306777012BE6D109FB06F6E288C0
:10112000D821606A05FB06F6B6FBF2F262F06CF8B5
:10113000DAE7BDE8F88300BF881C002470B5114DC4
:1011400095F8943403B970BDC2880446D5F8986404
:101150000D4BB6FBF2F6C3F88060FFF737FF94F84B
:101160002830012B07D0D5F838330022023385F818
:101170009424236270BD32461021606A62F044F804
:10118000F1E700BF881C002400000024B0F806C06E
:101190002DE9F047B1FBFCF5DFF80CA11F4690B03C
:1011A0000646DAF880300C469046AB4222D1DFF892
:1011B000FC900CFB154496F82830ACEB040CBC45B5
:1011C00034BF1FFA8CF5BDB2012B3ED0D9F83833AD
:1011D000304602333362FFF7F9FE38B196F8283013
:1011E000012B25D0284610B0BDE8F087002010B0B4
:1011F000BDE8F087FFF7EAFE0028F7D04FF0FF3395
:10120000CAF8803096F82830012B46D0DFF89C9041
:101210003046D9F8383302333362FFF7D7FE00285F
:10122000E4D0B6F806C0CAF88050B4FBFCF5C0E7BD
:10123000706A61F0E1FCC0F3011001380228D1D8D6
:101240003046FFF7E9FE2846CDE78DF80240240A34
:101250008DF8243000228DF8383003238DF80140BA
:1012600001A9746A8DF80030042320468DF803200C
:1012700002928DF810200F92CDF804D00393CDE99F
:101280000787CDE90522CDE90A22CDE90C220EF02F
:10129000ABFD206861F0ACFC98E72A461321706A28
:1012A00061F0B2FFB2E700BF00000024881C0024F8
:1012B000436A2DE9F047404E044618680D469046B3
:1012C00061F096FC96F89434002B41D0E288D6F871
:1012D0009C34DFF8F0A0DFF8F090B3FBF2F102FBF2
:1012E00011338AF862311B0A8AF861312B6849464A
:1012F000324F606AC7F8243107F59272D8F800308F
:10130000C7F82C310023C7F834310FF02BF9D6F889
:101310009C340120D8F80020E188134486F8940416
:10132000B3FBF1F501FB1535C6F89C3425B3244B0E
:10133000C7F83431637F0BB909F114094946606A73
:1013400022630EF051FDE36A7BB3206BBDE8F087AA
:10135000A369E288DFF86CA0C6F89C34C6F898341C
:10136000DFF86890B3FBF2F102FB11338AF88231A7
:101370001B0A8AF88131B9E7D6F8983407F5A672C6
:10138000606AB3FBF1F1C7F8801049BAAAF8A2115C
:1013900007F592710FF0E6F8D6F89C34D8F80020E3
:1013A00086F89454C6F89834C4E7636A186861F004
:1013B0001FFC206BBDE8F087881C0024000000247F
:1013C000E103040800F6002484000024D400002473
:1013D00033B910B51C46C36A20469847204610BD55
:1013E00066E700BF10B582B00C46019201A9049ACD
:1013F0008461C2626A460093FFF75AFF02B010BDD3
:101400002DE9F843DDF820800F4616460021202202
:1014100004461D4664F08CFCB8F1000F0CD0D8F8DF
:101420000030B8F80A20E3811B0C2382D8F804307E
:101430006282E3821B0C2383384662F02DF8F306A8
:1014400019D4431EB8B107EB000C01E0013B12D3E5
:101450001CF801EDBEF12E0FF8D1C01A03F10109FD
:10146000421EB944032AA8BF0322082BA8BF0823A1
:1014700090461A4606E008280246B9464FF0000892
:10148000A8BF08224FF0203339462046236063600E
:1014900064F0DAFB04F1080317484246494620810C
:1014A000A072184664F0D0FB04F1FF3C0346E21D35
:1014B0001CF8011FA1F1610E2039BEF1190F98BF70
:1014C0008CF800106245F3D1184604F10B0110F8B6
:1014D000013BA3F16102203B192A98BF00F8013CAF
:1014E0008842F4D1182365832D0CE6722373099B7F
:1014F000A582E361BDE8F883202020002DE9F04FAC
:10150000DFF88C9487B0D9F83803C9F83C03002B76
:1015100000F0DA801344154601F1200601F5FE774C
:10152000DFF870A403931FE0002D63D0D9F86C237B
:10153000AA4200F0CD80D9F86823AA4200F00281C7
:10154000D9E9DC21AA424CD8A94200F2CF81691A1C
:1015500018465BF059FD0135039B06F5007607F54B
:1015600000779D4200F0B080D9F87843A6F12003BF
:10157000AC42D9D82C1BD9F88883E208D8F83010AF
:1015800004F0070402328A4203D3D8F838108A42A2
:101590000DD941461046059304925BF005FD804647
:1015A000DDE90423002800F0C181C9F8880398F818
:1015B0000410002940F03F81D8F828B0BBF1000F9B
:1015C00000F0AD811846D8F830304FF40071D21ACF
:1015D000D8F80C3004EBC20203EB42224346D84752
:1015E000B9E7A942B3D918464FF40072002164F05C
:1015F0009FFBB0E74FF400722946184664F098FB51
:1016000080220346D94886F89E210C2286F8A22122
:10161000D9F86813D9F860238142C3F8C611C3F81A
:10162000CA2100F36881D24B013AD24C83FB0103FB
:10163000C81784FB01C40B44C0EB6313C0EB243018
:10164000CD4C84FB03C4C3EB831C86F8A10180103E
:10165000A1EB0C011C4420F03F000131014386F84E
:10166000A011D917C1EBE4110B4486F89F31BF4B91
:101670009A4200F34C81BE4BBE4883FB0213D11744
:1016800080FB02401344C1EB6313C1EB2031BA4825
:1016900080FB0340C3EB831486F8A5118910121B4D
:1016A000184421F03F0101320A4386F8A421DA17D9
:1016B000C2EBE010034486F8A331552386F8DE31EF
:1016C000AA2386F8DF3146E7002007B0BDE8F08F97
:1016D0004FF0FF320024A6F11C00049383F8EC21A4
:1016E000214683F8ED2183F8EE2183F8EF21522281
:1016F0001A705A7061229A7083F8E7214122DA70D9
:1017000083F8E621722283F8E42183F8E521D9F8F1
:101710008023C3F8E8214FF4F07264F009FB049BC6
:101720005522C6F8D041C6F8D441C6F8D84183F84E
:10173000FE216FF0550283F8FC4183F8FD4183F8E8
:10174000FF2108E78D4C00214FF40072184664F029
:10175000EFFA03464FF0000C022203CC46F8191CA6
:10176000EB2146F81D0C082006F8201C582106F82D
:101770001F1C902106F81E1CF8211A7383F80BC059
:1017800006F8130C9A7383F80FC006F8102C06F8AD
:101790000B1C83F82C20D9F86813D9F8602383F840
:1017A00019C0521A83F81BC083F81DC01A6283F84F
:1017B0001EC083F81FC083F82DC083F82EC083F8A5
:1017C0002FC0D9E9DC12521A80215A623F221A76C0
:1017D0004FF0FF329A763E221A77012283F83020AA
:1017E00083F831C086F820102921654B86F8221035
:1017F000942186F8260086F823100E21614A86F887
:1018000024100D2186F82510552186F8DE11AA2115
:1018100086F8DF1103CBC6F82B101988C6F827000D
:101820009B78A6F82F1086F8313003CAC6F832002C
:10183000C6F836108FE64FF400721846002164F0A7
:1018400077FAD8F840200346002C76D1002A00F021
:10185000A380D8F8303011224B49CDE90044FFF77E
:10186000CFFDD8F840301A6C002A00F0A1801B6B25
:10187000CDE900441122454930464FF4E07BFFF7A3
:10188000BFFD06F12003D8F84480B8F1000F3FF403
:1018900062AE03F120049B440495234644469846D7
:1018A00010E05CF81C1B0025236BCDE900C5FFF799
:1018B000A7FDABEB0803A46C08F12008002C18BFAF
:1018C0001F2B51D92379A44604F11C0E1122A8F133
:1018D0002000002BE5D162792569236B42F02102BB
:1018E0002168CDE900E5FFF78BFDE2E7A91A18466C
:1018F0005BF08AFB2FE6FF23013A86F89F3186F8DA
:10190000A13186F8A031194B9A427FF7B4AEFF237C
:1019100086F8A33186F8A53186F8A431CDE659467C
:1019200018464FF4007264F003FA14E6A6F124039B
:1019300043F804AF9F42FBD10DE6002AD8F844805B
:101940000CBF01220222C2EB0414B8F1000F3FF4D5
:1019500002AE4246013C926C002C01DD002AF9D116
:1019600090464FF4007B90E7049DF4E5FF03FB00F5
:1019700083200882975545418180808048F50A0878
:1019800054F50A0860F50A0840F50A0844F50A0803
:10199000881C0024DEADBEEF23460822D9F864136C
:1019A0004FF4F07BCDE90044FFF72AFD33466AE7A8
:1019B0002346CDE900445DE710B4294C94F88C34FB
:1019C0006BB3D4F89424904235D0012B27D0D4F8AF
:1019D0007025824237D0022B21D0D4F84C26904279
:1019E00033D0032B1BD0D4F8282790422FD0042BC0
:1019F00015D0D4F8042890422BD0052B0FD0D4F862
:101A0000E028904227D0062B09D0D4F8BC29904278
:101A100023D0072B03D0D4F8982A824211D0DC229D
:101A2000591C02FB034284F88C14C2F89404184633
:101A30005DF8044B70470023DBB25DF8044B184699
:101A400070470723F8E70123F6E70223F4E70323AF
:101A5000F2E70423F0E70523EEE70623ECE700BFF7
:101A6000FC10002000207047704700BF014854F070
:101A70002BB800BF40210024084810B4D0F8B83477
:101A8000D0F8EC4499691A682CB1234600F59760A8
:101A90005DF8044B18475DF8044B7047881C002420
:101AA000014854F011B800BFA4210024084810B424
:101AB000D0F81C35D0F8504599691A682CB12346E6
:101AC00000F21C505DF8044B18475DF8044B70475A
:101AD000881C0024014853F0F7BF00BF08220024EF
:101AE000084810B4D0F88035D0F8B44599691A6820
:101AF0002CB1234600F5B0605DF8044B18475DF843
:101B0000044B7047881C0024014853F0DDBF00BF20
:101B10006C220024084810B4D0F8E435D0F81846F8
:101B200099691A682CB1234600F2E4505DF8044B21
:101B300018475DF8044B7047881C002403282DE9E2
:101B4000F04FD4BF0026012685B0B0F1FF3F08BF9B
:101B500046F001068DF80F30002E40F0AC80894F22
:101B60006423054603FB0073D3F8B804002800F093
:101B7000A38093F8F944202C40F0B28093F8F84405
:101B8000012C00F0AD800124D7F8308683F8F844AA
:101B900006E0D7F83036A3EB0803192B00F290804B
:101BA000846914F40044F4D14FF0640B764BCDF803
:101BB00000804FEA41090BFB05FB49460BEB030A8A
:101BC000BB4421235046CBF8EC448BF8F934402336
:101BD0008BF8FA340DF10F03CBF8FC44CBF8DC346E
:101BE0000123ABF8E2340A235CF0D2FD002840F078
:101BF000B080BBF8E2349BB2FF2B7BD8BBF8E23459
:101C0000DBF8B8149BB261484A68ABF8E034DBB249
:101C1000024049EA0343134343F000734B606424DA
:101C200004FB057405E0B4F8E2349BB2002B00F02D
:101C3000938042460A21504653F084FF00284FD13A
:101C4000D4F8DC34D4F8B82413F8010BB4F8E01459
:101C50009062C4F8DC340139B4F8E23489B2013B53
:101C6000A4F8E0149BB2A4F8E234B4F8E2349BB2D6
:101C7000002BD8D00029D6D1916911F0800109D16B
:101C8000D7F83036A3EB08030A2B51D8916911F02D
:101C90008001F5D0B4F8E2349BB2FF2B38D95368F9
:101CA0003A490B403A4943EA09031943FF23A4F890
:101CB000E0345160B7E70026304605B0BDE8F08F4C
:101CC00064232021002203FB0575D5F8FC3485F838
:101CD000F8240B43C5F8FC3485F8F91485F8FA2488
:101CE000B7F83436304601339BB2A7F8343605B026
:101CF000BDE8F08FDBF8B814FF232448ABF8E034DC
:101D00004B68234A034043EA09031A434A6086E7C3
:101D1000B4F8E2341D489BB25168A4F8E034DBB259
:101D2000014049EA03430B4343F0007353607AE7F1
:101D3000642303FB0575D5F8FC3485F8F81443F0EB
:101D40002003C5F8FC34202385F8F93485F8FA140B
:101D5000C6E78BF8F844C3E7414650465CF094FD73
:101D60000028BDD1D4F8B83420210A4D0126D9610C
:101D70005A682A405A6084F8F91484F8F80484F800
:101D8000FA0499E7881C002440210024009C00FCF0
:101D90000000FF0100E800FE114A037A0168D35CED
:101DA00010B4CC58CA1824F00104CC501368DB07D7
:101DB000FCD4037D1F2B09D9203B20225DF8044B66
:101DC00002FA03F343F01803CB60704720225DF85A
:101DD000044B02FA03F343F018038B60704700BF13
:101DE00064F60A08F8B507680646D7E90454A06106
:101DF0002B7D1F2B49D9203B2022286802FA03F3B0
:101E000043F01803C360237D1F2B48D92022203BB9
:101E100002FA03F3226843F01803D36063680022D8
:101E200069680A601A601A6842F010021A60BA699A
:101E3000297A5EF0A3FBFA69217A20685EF09EFBA6
:101E400033682E681A6A5B6891685868184A0240BD
:101E500020680A4317495A602A7A8D5C725942F009
:101E600001027251227A895C425842F001024250CA
:101E70009A6842F440429A601A6842F001021A607D
:101E80001A6842F400721A60F8BD2022286802FA2B
:101E900003F343F018038360237D1F2BB6D8202261
:101EA00002FA03F3226843F018039360B6E700BF19
:101EB0000000FFFF64F60A0810B1036882889A6187
:101EC000704700BF18B1838802681B049361704794
:101ED00008B51D200EF04CFC08B183794BB11E20D3
:101EE0000EF046FC08B1837903B108BD5523C380C9
:101EF00008BD5523C380F2E7D3B20F2B2AD84FF089
:101F0000000C10B46346144C04E001332A2B1DD09E
:101F100014F803CF6045F8D194F801C08C45F4D192
:101F20000E4C03EB43030E4902EB420C23445DF8D5
:101F3000044B01EB8C0201F5CE7093F8263100EBD7
:101F40008C00C2F8A43182F89C31704700205DF803
:101F5000044B70470020704754610A0830600A083B
:101F60000000002410B40C4C002304F5C76C01E001
:101F7000152B0CD003EB430201331CF802108142F5
:101F8000F6D122445DF8044B92F93A0670474FF0BF
:101F9000FF305DF8044B7047881C002430B40023E8
:101FA000114C124D04E001331A2B1AD054F8085F7B
:101FB000A842F8D125798D42F5D10D4C02EB4205AE
:101FC0000C4904EBC30301EB850201F5CE7093F8D5
:101FD000A93100EB8500C2F8A43182F89C3130BCF5
:101FE0007047002030BC7047D4610A0800000140EF
:101FF00030600A0800000024F0B1002310B5044648
:102000000E4894F804E000F5C76C01E0152B11D0E0
:1020100003EB430201331CF802107145F6D1024470
:102020006179206892F93A26D3B20F2B02D8BDE825
:102030001040B3E7002010BD00207047881C00242A
:102040000138074B074A00EBC00003EB8000D0F8D3
:102050005C0290420CBFA020A1205CF09FBE00BF9C
:10206000000000240000024001382DE9E84100EBA7
:10207000C000134D1E46134B05EB800590460F46DE
:10208000D5F85C0298420CBFA020A1205CF086FE2F
:10209000B5F972024FEA9811C5F86C72C5F874620E
:1020A0005CF04CFEB5F97232002B07DB03F01F0029
:1020B00001225B090449824041F82320BDE8E88100
:1020C000000000240000024000E100E0800AA0F5CA
:1020D0008010522806D8044B1B5C0D2B02D8034AF3
:1020E000D05670470020704730600A0854F60A083E
:1020F0000120FEF7F3BC00BF0220FEF7EFBC00BFDB
:102100000420FEF7EBBC00BF0820FEF7E7BC00BFD1
:102110001020FEF7E3BC00BF4FF47870FEF7DEBC82
:102120004FF47C40FEF7DABC30B1036882881B694B
:102130001A4214BF01200020704700BF70B50C4642
:1021400086B00546164640B101680E4B0E4A0B4458
:102150009B0A02EB4303B3F874025CF01FFE04F029
:102160001303AA8801A90293C4F341132868C4F396
:10217000810401920596CDE9033453F05FFB06B06C
:1021800070BD00BF0000FEA730600A0800B1D5E7AF
:1021900070472DE9F84FC34F6423044603FB0073D7
:1021A000D3F8A064002E00F06D81D3F8A8A4BAF192
:1021B000000F04D09AF80630002B40F063816423AE
:1021C00003FB0473D3F8AC541DB1AB79002B40F082
:1021D0005981631CDBB2BAF1000F04D015228AF8D2
:1021E00007308AF8062015B11622EB71AA714FF05C
:1021F0006409308B5CF0D2FD294609FB04F9504696
:1022000060F026FD504607EB090898F8B23498F8BC
:10221000B024002B14BF3E211E21FFF7B7FF98F812
:10222000B2342846A04D002B98F8B1244D44DFF875
:10223000989214BF3E211E21FFF7A8FF4C220021D7
:10224000284663F075FDD8F8A034984A5B6893423D
:10225000C8F8B834DFF8748240F0168153F0A4FF58
:10226000D9F82030C3F302139FED917A9FED915A74
:10227000B0EE084A4344F7EE003A4FF0000E40F249
:10228000145893F8883203F01F03D840642307EEF4
:10229000900A03FB0473F8EE677AB3F8B494C7EEC0
:1022A000275A07EE909A9FED847AF8EEE77AC7EE08
:1022B000274ADFED827AB0EE007AE5EE877AA5EE66
:1022C000875A25EE844A37EE856A74EEE72AB9F517
:1022D000C87F0EF1010CD5BF642332234FF49670F2
:1022E000782007EE90CAD8BF4FF4167A0344C8BFCF
:1022F0004FF4827AB8EEE77AD8BF414607EE903ABB
:10230000C8BF4FF4FA7127EE257A01EB0A03F8EE05
:10231000E76A86EE873A73EE636AFCEEE67A17EEBA
:10232000902A07EE90AAB8EEE73A07EE903AF8EE58
:10233000E77A23EE243AC3EE276A36EEC53A72EE08
:10234000E66AC3EE077A77EEE37AFCEEE77A17EEF9
:10235000901AC6EE877A77EEE37AFCEEE77A17EE0C
:10236000903A03F1020A0AEB010BF0EE466A07EE1F
:1023700090BAF8EE677AE7EE276AF4EEE64AF1EEF5
:1023800010FA00F388805FFA82FABAF10F0F00F2B8
:102390008480323807EE900AF8EEE77A77EEC47A56
:1023A000C7EE876AFCEEE67A17EE900A5FFA80FACB
:1023B000BAF10F0F71D81FFA81FABAF1FF0F6CD87A
:1023C0001FFA83FABAF1FF0F67D812054AEA0E73B3
:1023D00002F07F620004134300F47F00384A034395
:1023E00002EA01210B43642000FB04740027284605
:1023F000C4F8BC340123C4F8C074C4F8C434C4F8AD
:10240000C874C4F8CC74C4F8D474C4F8D8745FF039
:102410000BF894F8F934202BD9B21AD194F8F83487
:10242000012B16D0242384F8F934D4F8B8341A6870
:1024300022F001021A601A6822F480521A601A68A7
:102440001A601A6842F001021A6084F8F91484F8DC
:10245000F8740021F07E5CF071FCF37E0124194DCC
:102460005A0903F01F03002104FA03F345F8223050
:10247000B07E5CF063FCB37E5A0903F01F039C40FE
:1024800045F82240BDE8F88F53F08EFED9F81C3095
:10249000E8E6E6461BE7013165E7BCF10F0FF8D12E
:1024A0000023A0E7881C002440210024001C0058C1
:1024B000286B6E4E000016430024744900007042E1
:1024C00000FFFF0000E100E00044025830600A080D
:1024D0002DE9F843B14C04EB0017D7F87836002B00
:1024E00000F0BF8005460601B7F882065CF056FC96
:1024F000B7F88236012103F01F025B09023B01FAA3
:1025000002F2082B0FD8DFE813F0080110011801C0
:10251000200128010900300138014001A04BD96F8A
:1025200021EA0202DA67A319013593F87C06EDB2BD
:102530000EF01EF9074610B11223C5718371A3195D
:1025400093F87D060EF014F9814610B11323C5717E
:102550008371A31993F87E060EF00AF9804610B134
:102560001423C5718371344448462E2194F8802683
:10257000FFF70CFE94F881260E214046FFF706FE79
:1025800094F87F262E213846FFF700FED4F87836DF
:1025900084491A688B4222F001021A6063D0824A91
:1025A000934200F08F8002F58062934279D17C4A99
:1025B000D2F8901041F40041C2F89010D2F8901077
:1025C00021F40041C2F89010DA6842F00042DA606B
:1025D0009A6822F4F0729A601A68D60741D4734957
:1025E0009D68D1F8B424D1F8BC4444EA0200D1F883
:1025F000A42410436E4A2A401043D1F8B0249860B6
:10260000DD68D1F8A004ED007BD50243D1F8A80421
:10261000DE68B4F5800F42EA0002D1F8AC04654DE3
:1026200042EA0002D1F8B80405EA060542EA0002CF
:10263000D1F89C0400F4C02600F4006042EA0602CF
:1026400042EA0502DA601A6822F4006242EA0002F5
:102650001A6002D1D1F8C0241A641A6D22F0010266
:102660001A65BDE8F8834E4AD2F8981041F48051BB
:10267000C2F89810D2F8981021F48051C2F898103E
:102680004D4A9342A0D1464AD2F89C1041F0200115
:10269000C2F89C10D2F89C1021F02001C2F89C10C6
:1026A00092E7464A93421BD13D4AD2F8981041F432
:1026B0000051C2F89810D2F8981021F40051C2F8D5
:1026C000981081E7364AD2F8901041F48041C2F860
:1026D0009010D2F8901021F48041C2F89010CFE70A
:1026E000374A9342CCD12E4AD2F8981041F4801147
:1026F000C2F89810D2F8981021F48011C2F89810FE
:1027000062E7B2F1806F80D1B0F5800F7FF47DAFCA
:102710001D6845F480551D6077E7214BD3F898106C
:1027200021EA0202C3F89820FDE61D4BD3F8901071
:1027300021EA0202C3F89020F5E6194BD3F8941071
:1027400021EA0202C3F89420EDE6154BD3F880107D
:1027500021EA0202C3F88020E5E6114BD3F8841089
:1027600021EA0202C3F88420DDE60D4BD3F88C1079
:1027700021EA0202C3F88C20D5E6094BD3F8881071
:1027800021EA0202C3F88820CDE6054BD3F89C105D
:1027900021EA0202C3F89C20C5E600BF881C002481
:1027A000004402580030014000380040000000247E
:1027B000E0FFBF8FFFFF39D80014005800340140FC
:1027C0000050014008B10022B8E470470E4B70B5CC
:1027D000D3F86464002E14DD0C4C002503E0B542F0
:1027E00004F120040DD0237F0135002BF7D0E068E1
:1027F00000220028F3D0217D2034FFF79FFCB54252
:10280000F1D1012070BD00BFFC1000203C0400206D
:10281000F8B590F8EE311C09013C062C0FD81B4E80
:10282000054603F00F0306EB4402B2F8B80240FA83
:1028300003F2D20703D595F8F971012F01D00120D9
:10284000F8BD07FA03F33444013B184061F050FB34
:1028500094F8C82213180E4A02EBC30152F8332031
:102860008B8810691840EBD0002395F8EF210846BB
:10287000022185F8F931FFF761FCD5F8502138467F
:10288000136843F008031360F8BD00BF30600A0806
:1028900060230024014B53F820007047504000583B
:1028A000014B43F8201070475040005819481A4B0C
:1028B00001681A4A41F4807130B4016082B0D3F8E3
:1028C000F410FF24CA2041F48031C3F8F410D3F887
:1028D000F41001F4803101915321019D5462506242
:1028E0005162D3F8D030DB010CD40D4B00210D4ADE
:1028F00043F8041B9342FBD1084B0B4A1A6502B004
:1029000030BC7047126D084B9A42EED102B030BC19
:10291000704700BF00480258004402580040005869
:10292000544000586C40005831666542F0B504468A
:10293000D0F85C01454B83B0A16804F5967204F1B0
:10294000E0070E68C1B220F0FF0001921039A3FB2E
:10295000013109095DF062FED4F81C110023019ACF
:10296000012984F8203118D0042916D0102958D014
:10297000402912D0B1F5807F56D0B1F5806F53D089
:10298000B1F5805F58D0B1F5803F4FF03C030CBFEC
:102990006FF0080C6FF4006C01E06FF0080C06F1AA
:1029A00018053046E95801EA0C01E950D4F81C1129
:1029B0005DF0D4FAD4F81C31012B16D0042B14D0BE
:1029C000102B0FD0402B10D0B3F5807F30D0B3F553
:1029D000806F2DD0B3F5805F32D0B3F5803F06F124
:1029E000540502D04FF4006100E008212B683A46FC
:1029F000D4F85C010B4340212B60C4F8E810C1B24D
:102A0000124B20F0FF001039A3FB013109095DF0E2
:102A1000B5FDD4F85C21136843F01003136003B0D4
:102A2000F0BD6FF4006CBAE76FF0080C0423B6E752
:102A300006F11C050821D9E76FF4006C0423AEE70A
:102A400006F11C054FF40061D0E700BFABAAAAAAAB
:102A50002DE9F04FDFF848B185B09BF8004024B96C
:102A60000124204605B0BDE8F08F474BD3F838531A
:102A70000EF088FC454A92F8B83B002B00F0BC8170
:102A8000434B02F17C070BF5A7640026A3FB05135B
:102A9000404D5B09A5FB0315ED0805EB8505A3EB90
:102AA0004505D2F87C3BC31A0193EBB207EB8505D1
:102AB000029302F557730093019A002A04DBD4F8BD
:102AC0002431934200F37C814FF4B47303FB06B3CB
:102AD00093F85836002B00F0C080D4F85C11A3683E
:102AE0002D481A68CBB221F0FF01103BA0FB030375
:102AF0002A481B09C35C19444B68A1891FFA83FE4D
:102B0000D368CEF1160E23EA0103BEF1070FD3609E
:102B100040F2A3801D4A0121D2F864338A46013372
:102B2000C2F864330022D4F8643190469C46039383
:102B30005CF8049B48461DE0DCF80090B8F1140FE7
:102B4000A9EB000348462DDC13F1080948BF03F147
:102B500017094FEA291308EB291803F1FF3901314E
:102B600002FA03F30CF1040C0AFA09F28E4542EA68
:102B7000030217D38E45DFD8C8F11503DCF8000037
:102B80004FF01508E9E700BF881C0024FC10002066
:102B90001F85EB51CDCCCCCCABAAAAAA64F60A080F
:102BA00004000020B8F1150F40F000819649C2F3EF
:102BB0008423C2F3441001EB830301EB8000D3F8BC
:102BC000D032D0F8D0021B0243EA001302F01F00FB
:102BD000C2F3C43201EB800001EB8202D0F8D012C4
:102BE000D2F8D0220B4343EA023383EA132282EA6B
:102BF000121202F00F020F2A40F0D880C3F30F1315
:102C00004FF6FF72934200F0D180B3F5606F00F091
:102C1000DC80009A938197F85820029882420CD069
:102C2000A9683A68521A3A607A68296B521A7A602F
:102C30000022AA602A6387F858003A6801323A6095
:102C4000AA680132AA604FF6FF72934205D17B68F1
:102C500001337B602B6B01332B63009B20460136D5
:102C60005C3714335C3504F5B4740093FFF75EFEF3
:102C7000664B93F8B83BB3423FF71EAF6348012160
:102C8000002280F86014C0F87C2B002B3FF4E8AEE3
:102C90009BF81026DBF8540612F0020FDBF84025F3
:102CA00011680A6A0CBF024342EA8002012B0A62E1
:102CB0003FF4D6AE9BF87827DBF8BC0712F0020F82
:102CC000DBF8A82611680A6A0CBF024342EA8002B8
:102CD000022B0A623FF4C4AE9BF8E028DBF824091B
:102CE00012F0020FDBF8102811680A6A0CBF0243C9
:102CF00042EA8002032B0A623FF4B2AE9BF8482AF4
:102D0000DBF88C0A12F0020FDBF8782911680A6AE6
:102D10000CBF024342EA8002042B0A623FF4A0AED9
:102D20009BF8B02BDBF8F40B12F0020FDBF8E02A73
:102D300011680A6A0CBF024342EA8002052B0A624C
:102D40003FF48EAE9BF8182DDBF85C0D12F0020FED
:102D5000DBF8482C11680A6A0CBF024342EA800281
:102D6000062B0A623FF47CAE9BF8802EDBF8C40E83
:102D700012F0020FDBF8B02D11680A6A0CBF024393
:102D800042EA8002082B0A627FF46AAE9BF8E83FB1
:102D9000DBF8182F13F0020F1D4B1268D96A136A63
:102DA00014BF43EA81030B43136259E6174AD2F872
:102DB00060330133C2F86033B6B14FF6FF732AE7D0
:102DC0000024204605B0BDE8F08F12494A7802EB96
:102DD000420201EBC2023244527C0D2A7FF419AF49
:102DE000802200998A7716E7039958220A4862F0F0
:102DF0002BFF4FF6FF730EE704490122C1F87C3B1D
:102E000081F860242DE600BF30600A08FC10002025
:102E100004100020881C002404150020D0F8501154
:102E20002422F8B5C0F8D02104460A68002380683F
:102E300004F5A87522F001020A600B604B608B60FC
:102E400094F805C0C4F8D83184F8CC31C4F8D03136
:102E5000C4F86831C4F8D431C4F87031C4F86431AE
:102E60004FEA8C23B44A03F48053C4F854019142CE
:102E7000C4F858314FEA0C3303F40053C4F85C3102
:102E80004FEA0C2303F48063C4F8603100F0AE8194
:102E9000237913F0010002D00422C4F8642113F056
:102EA000020305D0D4F8642142F00802C4F864217A
:102EB0001CF0010F0DD048B1D4F8782142F0020285
:102EC000C4F878214FF48032C4F88021002B40F000
:102ED00081819A4B03F12C0053F8042B944200F0AB
:102EE0003F819842F8D11CF0080F40F04F81D4F890
:102EF000D031002B00F09C8124232846C4F8D03127
:102F00000B6823F001030B6053F030FD012815D04E
:102F1000D4F87831002B40F09181D4F85031284614
:102F20005A6822F490425A609A6822F02A029A6003
:102F30001A6842F001021A605DF06EFC2379DA072C
:102F40006DD5D4F82C21002A00F05F810023D4F83D
:102F5000341104F13C06E2634FF48062C4F8B81007
:102F60003046E264C4E91133C4E91433C4E91833C8
:102F7000C4E91A334FF48033E3654FF48073A365DB
:102F80005EF0A0FA304651F05BFFD4F8D431C4F8BB
:102F9000C861202B65673DD1E368626999B2CAB305
:102FA000B1FA81F04009A9B394F8CCC1BCF1010F8A
:102FB00030D02227C4F8D80194F870C0C4F8D47176
:102FC0005F4FA4F8AC110121A7675E4F8C45C4F890
:102FD000A821E7675C4FC4F88C0084F8CC11C4F8D2
:102FE00088700ED094F8717084F87010012FD4F8A6
:102FF000501100F02B814FF4006384F87000C4F886
:103000009030102100222023C4F8D81184F8CC215C
:10301000C4F8D031E26B23795268C4F844219B078D
:1030200040F18880D4F83021002A00F0E3800023AA
:10303000D4F8381104F1B406C4F8B420C4F8C03090
:103040004022C4F8D0303046C4E93233C4E93633C4
:10305000C4E938334FF48033C4F8D4304FF480637C
:10306000C4E92E12C4F8C4305EF02CFA304651F098
:10307000E7FE002840F0B980D4F8B420334B344840
:103080003449824218BF9A42C4F8C461C4F8EC5073
:1030900000F160000CBF012300232F4C8A4208BFBF
:1030A00043F001033031A24208BF43F00103603412
:1030B0008A4208BF43F001033031824208BF43F027
:1030C000010300F568708A4208BF43F0010301F56F
:1030D0005C71A24208BF43F0010304F568748A42A0
:1030E00008BF43F001033031824208BF43F00103BF
:1030F00060308A4208BF43F001033031A24208BF6A
:1031000043F001038A4208BF43F001033031824299
:1031100008BF43F001038A4208BF43F001033BB9F3
:103120000E4BD31AB3FA83F35B09002B00F0A78090
:1031300000235360F8BD00BF000C0058BC1C0020E9
:10314000E5220908192309081D2309081000024077
:10315000280002404000024058000240B8040240EB
:10316000002C3FF4C0AE94F8F831002B3FF4BBAE16
:10317000D4F878311CF0080F43F00803C4F8783114
:103180004FF40043C4F888313FF4B1AED4F8D031E5
:10319000002B50D024232846C4F8D0310B6823F0EC
:1031A00001030B6053F0E2FB01283FF4C7AED4F8F3
:1031B0007831002B46D1D4F8503128465A6822F491
:1031C00090425A609A6822F022029A609A6842F00D
:1031D0000802ACE6D4F8783143F00103C4F8783142
:1031E0004FF40033C4F87C3173E6FEE70423C4F8DF
:1031F00074314DE6D4F8DC311A6842F080021A606E
:103200001A6842F040021A60F8BDD4F8DC21116857
:1032100041F480711160916841F001019160116881
:1032200041F020011160116841F010011160F6E6D3
:1032300084F8CC3160E684F8CC31ABE7284653F013
:103240006FFE6AE6284653F06BFEB4E79BB224316A
:10325000304652F015F800287FF4D3AED4F8503140
:1032600084F8CC011A6842F480721A609A6842F0BD
:1032700001029A609A6842F040029A60CAE653607E
:10328000F8BD00BFF8B50446EFF31185502383F372
:103290001288D0F830311B6803F001031BB1EDB286
:1032A00085F31188F8BDD0F8D021D0F8D4110A43A5
:1032B00002F02102212AF2D0D0E909218A424FD01E
:1032C0004BD800691A46431A9BB2A262002284F8C6
:1032D000E021D4F8D021202AE1D1A2695118DED012
:1032E000B3FA83F25209002BD9D094F8CC0101280B
:1032F000D5D02120A4F8A6314FF0010CC4F8D82174
:10330000C4F8D001D4F8C401C4F8A011A4F8A431C1
:1033100084F8CCC170B31D4E90F834E0C6631C4EE7
:10332000E645026506641B4EC6640CD090F8356015
:10333000D4F85071664580F834C015D04FF400635E
:1033400080F834204365102100222023C4F8D811CE
:1033500084F8CC21C4F8D031A1E7531A9BB2B4E76A
:10336000012380F8E0319AE707F1280251F088FF45
:103370000028E8D1D4F8503100224021196284F8A5
:10338000CC219A6842F080029A6088E7BD22090841
:10339000E12209081D2309082DE9F8434D4C04EBEF
:1033A0008004D4F8C04B002C44D0D4F8E8511F4618
:1033B000494B0646A1602046236090466B68C4F8DE
:1033C000DC31AB6B63616B6BA361EB8FE360AB8F45
:1033D0002361424BC4F8E4310DF068FD6B68A88DA1
:1033E000C4F85031002863D194F8EE010DF0C0F913
:1033F000022117F00802034694F8EC9184F8F911C1
:103400001BD060B317F0510F4FF00B0206F101060D
:1034100014BF0A211A2117F0410FC671827114BF1F
:103420004023202394F8EF211943FEF787FED4F8B8
:103430002C314BB32046BDE8F88318F0020F0ED0B4
:1034400068B14FF00B0C3B0680F806C006F1010C8A
:1034500080F807C02FD494F8EF21FEF76FFE48469E
:103460000DF086F90028E2D018F0010FDFD00C2211
:1034700001360221C671827194F8ED21FEF75EFEDD
:10348000D4F82C31002BD5D195F8321095F83000B6
:1034900089095BF053FC95F830300122104903F0A4
:1034A0001F005B098240204641F82320BDE8F883D5
:1034B0005BF074FC98E7D4F850714FF0010C2021B8
:1034C0003B6823F008033B6084F8F9C1FEF736FE41
:1034D000C5E700BFFC10002080630A08112804081B
:1034E00000E100E0BFF34F8F0549064BCA6802F4C4
:1034F000E0621343CB60BFF34F8F00BFFDE700BF17
:1035000000ED00E00400FA051C481D4AC1681D4B8F
:1035100010B44FF6FF0485B021401B4C0A43C26033
:10352000D3F8D010D3F8DC20C4F8581A42F0005277
:10353000C3F8DC20D3F8DC2002F000520192019A9B
:10354000D3F8DC2042F08042C3F8DC20D3F8DC2042
:1035500002F080420292029AD3F8DC2042F000424C
:10356000C3F8DC20D3F8DC3003F000430393039B63
:1035700005B05DF8044B0DF08FBE00BF00ED00E01C
:103580000005FA0500440258881C002408B51D48AF
:103590000023C0F88430BFF34F8F436923F4803396
:1035A0004361BFF34F8FD0F8803043F6E074C3F32C
:1035B0004E3CC3F3C90E4FEA4C1C0CEA040173469F
:1035C00041EA8372013BC0F874225A1CF8D1ACF175
:1035D000200C1CF1200FF0D1BFF34F8FBFF36F8F82
:1035E000BFF34F8FBFF36F8F4369002223F4003383
:1035F0004361C0F85022BFF34F8FBFF36F8F72B695
:10360000FFF770FF00ED00E003689B0AA3F580134D
:10361000522B57D870B53E4C14F803C0BCF10D0FB7
:103620004FD840798508002951D04FEA900E4C249C
:1036300038480CEB8C0304FB0C040CEB4303D4F86C
:103640005C6A02242B4404FA0EFEF46800EB830546
:103650004EEA0404A966AA67F460EFF311845023CC
:1036600083F312882C2303FB0CF3C1184A6E52B368
:10367000131DC1F88820284A2C21284D01FB0CF18C
:1036800005EB010E14310A4452F8041B19B11960FC
:1036900052F8043C04339645F6D10022E4B21A6095
:1036A00084F311882C2303FB0C03D3F888302BB34D
:1036B0004C2303FB0C00D0F85C2AD36843F00103D1
:1036C000D36070BD7047144A24331344D4E71148C3
:1036D0004C23022403FB0C0304FA05FED3F85C6AB6
:1036E0000CEB8C03F4680CEB430324EA0E042B442C
:1036F000F46000EB8304A166A267AEE74C2303FBF2
:103700000C00D0F85C2AD36823F00103D36070BDAD
:1037100030600A08881C0024EC1C0024101D0024C2
:1037200003689B0AA3F58013522B00D97047144AF3
:10373000D35C0D2BFAD84FF04C0C10B4114C79B966
:10374000417902220CFB03405DF8044B21FA02F39D
:10375000D0F85C1A9A40CB6823EA0203CB6070472A
:10376000417902220CFB03405DF8044B21FA02F37D
:10377000D0F85C1A02FA03F3CA681343CB607047AF
:1037800030600A08881C002403689B0AA3F5801394
:10379000522B10D8084AD25C0D2A0CD8407902234B
:1037A00006494FF04C0CD8400CFB02128340D2F873
:1037B0005C2ADB431361704730600A08881C0024D0
:1037C00001490248FDF7AAB9EC1C002400000140A1
:1037D00001490248FDF7A2B9EC1C00240000014099
:1037E00002494FF08040FDF799B900BF181D002431
:1037F00001490248FDF792B9441D0024000400402D
:1038000001490248FDF78AB9701D002400080040F4
:1038100001490248FDF782B99C1D0024000C0040BC
:103820002DE9F843194E3569F3681D4010D04FF06B
:103830000047DFF85C80B5FA85F227FA02F31F2A09
:103840006FEA030305EA0305336103D0002DF2D1CB
:10385000BDE8F883D8F86831A3B103F1FF3900233C
:103860001FFA89F9C8F86831D8F86441002CEDD006
:1038700023682046494698476468002CF8D1002DFB
:10388000D9D1E5E7F16A1FFA81F9EDE700100040B0
:10389000881C002401490248FDF740B9201E00247D
:1038A0000004014010B5064C064804F5CC71FDF744
:1038B00035F904F5F8710448BDE81040FDF72EB95C
:1038C000881C002400040140001C004001490248FB
:1038D000FDF724B94C1E002400180040014902489D
:1038E000FDF71CB9A41E0024002000400149024835
:1038F000FDF714B9D01E00240040014001490248E0
:10390000FDF70CB9FC1E00240044014001490248A7
:10391000FDF704B9281F0024004801402DE9F041BB
:103920004FF425728EB000217B4862F001FA7B4B88
:103930007B4E4FF08041D3F8F02006F684153746D1
:1039400042F00102DFF8E08106F66814C3F8F020C7
:10395000D3F8F02002F001020092009AD3F8E82098
:1039600042F00102C3F8E820D3F8E82002F0010297
:103970000192019AD3F8E82042F00202C3F8E8204D
:10398000D3F8E82002F002020292029AD3F8E8206B
:1039900042F00402C3F8E820D3F8E82002F0040261
:1039A0000392039AD3F8E82042F00802C3F8E82013
:1039B000D3F8E82002F008020492049AD3F8E82031
:1039C00042F01002C3F8E820D3F8E82002F0100219
:1039D0000592059AD3F8E82042F02002C3F8E820C7
:1039E000D3F8E82002F020020692069AD3F8F020DD
:1039F00042F00202C3F8F020D3F8F02002F00202F5
:103A00000792079AD3F8E82042F04002C3F8E82072
:103A1000D3F8E82002F040020892089AD3F8E82090
:103A200042F08002C3F8E820D3F8E82002F08002D8
:103A30000992099AD3F8E82042F48072C3F8E8208A
:103A4000D3F8E82002F480720A920A9AD3F8F020A0
:103A500042F48032C3F8F020D3F8F02002F4803230
:103A60000B920B9AD3F8F02042F40032C3F8F02006
:103A7000D3F8F02002F400320C920C9AD3F8F02024
:103A800042F48022C3F8F020D3F8F03003F480230E
:103A90000D930D9B4246002301E054F833209142E0
:103AA0000BD00133112BF8D11C3700205BF076F9D5
:103AB000AF420CD057F81C1CECE71A4A1C3702EB3B
:103AC000C303B3F8080D5BF069F9AF42F2D14FF0D0
:103AD0008041154F154C3A46002301E054F833203D
:103AE00091420BD00133112BF8D11C3600205BF032
:103AF00055F9AE420CD056F81C1CECE7094A1C36AE
:103B000002EBC303B3F8080D5BF048F9AE42F2D103
:103B10000EB0BDE8F08100BFEC1C00240044025848
:103B2000CC630A0830600A0800000140346D0A08BE
:103B3000800AA0F5801052280DD8074B1A5C0D2A78
:103B400009D8064B4C2101FB0233D3F85C2A1368D9
:103B500043F001031360704730600A08881C00249A
:103B600038B590F83DE08446BEF1020F5FFA8EF062
:103B700018D014469CF83D20012A02D102228CF86C
:103B80003D200C290DD8DFE801F05D0C0C0C290C50
:103B90000C0C430C0C0C0E0040322146284651F010
:103BA0006FFB002038BDDCF83050334AEA63334AFB
:103BB000EA6495F83420012AF3D00121DCF80020D2
:103BC00085F8341095F835100129E5D000234FF41D
:103BD0000062184685F834306A6538BDDCF8285034
:103BE000254AEA63254AEA6495F83420012AD8D0A8
:103BF0000121DCF8002085F8341095F835100129F2
:103C0000E4D138322146284651F03AFB002038BD35
:103C1000DCF82C50184AEA63184AEA6495F8342014
:103C2000012ABED00121DCF8002085F8341095F877
:103C300035100129CAD13C322146284651F020FBDB
:103C4000002038BDDCF824500B49DCF80020E96383
:103C50000A49E96495F834100129A2D0012185F8B8
:103C6000341095F835100129B0D134322146284658
:103C700051F006FB002038BD5D2209080522090825
:103C80001F4B984210B50ED003F5806398420AD0BE
:103C90001C4A03F58043984218BF904203D003F5B5
:103CA000806398421BD152F07FFA174B1749DC69A9
:103CB000DA69C4F3022CC2F3022201EB0C0393F87D
:103CC000883203F01F03D8400F4B11491B69C3F31F
:103CD000C03342EAC303CB5C03FB00F010BD52F0DB
:103CE00063FA094B0949DC69DA69C4F30214C2F3C7
:103CF00002120B1993F8883203F01F03D840E3E750
:103D000000000140004001400044025830600A08B1
:103D100040F60A082DE9F04FB34B91B00024DFF8CC
:103D2000F0820193B14BA3F68C5BB14E0025DFF816
:103D3000BC92B30AA3F58013522B57D81BF803305B
:103D40000D2B53D818F90370AA4B93F8E23E012BC0
:103D500040F01081012F3FD14FF0000A5146384604
:103D60000EF026F90EF0ACF990F800C0BCF1000F8F
:103D700018BFBCF1540F14BF4FF0010C4FF0000CF2
:103D800040F0F4800AF1040A1FFA8AFABAF1100F1F
:103D9000E4D1002C00F0B580934A00210DE01BF81F
:103DA00003300D2B10D818F90330BB420FD001316E
:103DB00002F58672A14280F2A080906803689B0A97
:103DC000A3F58013522BEAD90023BB42EFD14379EC
:103DD00099F805009842EAD10135082D14D059F818
:103DE0001C6FB30AA3F58013522BA7D9814B93F80C
:103DF000E23E012BF0D001220027022BACD1002A99
:103E0000AAD00135082DEAD1019B013403F5867350
:103E1000042C019389D1784F0026DFF8F8B1774B55
:103E2000D3F86434B34265DDD7F80C80B8F1000FE5
:103E300060D0734BB8F804105D68D8F800003B7C84
:103E4000002DDFF8D4C10193B1FA81F38444C3F1AA
:103E50001F0902934FEA9C2C40F3A980624A002478
:103E600005E0013402F58672AC4200F09D801368D3
:103E70006345F6D14FF486735B4A03FB0424019B30
:103E80000322C7F8049001363B744FEA4903C7F890
:103E90000C8002FA03FCBC6188F80620012288F835
:103EA000076002FA03F5A36C43EA0C03A364236DD5
:103EB0002B432365524B1B78002B60D0636D02FAB5
:103EC00009F943EA0903636581611FFA89F1D4F8AE
:103ED000AC00FCF7C1F820462037FCF791F801232D
:103EE000082E0BF1180B07F8043C07F8033C0BF8FD
:103EF000073C94D111B0BDE8F08FBCF1000F7FF406
:103F00006BAFD9F8080000223E4B04E001320C33BD
:103F1000102A00F02A8359688842F7D152B23046FD
:103F200099F80510FEF73AF8374A406800235168BF
:103F30000133884217D0102B02F12402F7D14FF041
:103F4000FF3303EBC303314A02EB830393F8783268
:103F5000002B7FF441AF254BC5EBC50503EB850571
:103F6000019B9D6050E7DBB2013BEAE7002C7FF448
:103F700013AF31E7B7F1080218BF01223DE7029DF8
:103F80004FEA014C02FA09F1C5F12F0589B202FA94
:103F900005F51A46636D2B436365C0F818C0D4F865
:103FA000AC00FCF759F896E7032C00F3E9804FF4D6
:103FB0008673134A03FB05231869002800F0C182A9
:103FC0005422C3F808C00CF1010C0E4C83F81021E8
:103FD00083F811C16B1C0A4A53600022054B93F809
:103FE000F93E039383681EE00C000020BC6D0A08B4
:103FF00000040140881C00243C040020FC10002028
:10400000040000209C0100245C0200240000002425
:1040100054F60A08B81000200000FEA701320C3444
:10402000102A00F0A28261688B42F7D1417952B226
:104030000068FDF7B3FF4FF48672B14BDFF804A3BD
:1040400002FB0532D0E90141C2E907410022514695
:104050004B6801329C4217D0102A01F12401F7D19C
:10406000A84BA94693F85422002A00F05C82A64887
:10407000A649A74AA74BC0F8101CC0F8082CC0F8E6
:10408000183C11B0BDE8F08FD2B24FF48671013AFE
:1040900001FB05F39B4902EBC202049301EB820290
:1040A0009749194492F87832B1F810010593002B22
:1040B000DDD1049CA2F87802974BA210086903FB9B
:1040C00002F2964B0068C2EBC20C02EBC20203EB99
:1040D0004C1C03F5607303EB4212D8F80030C1F8B2
:1040E000B4C0C1F8FC203322CB60C1F8B8208C22C8
:1040F000C1F80021FFF7C4FD894B1C19039B062B57
:1041000000F00E82072B874B874908BF1946874B63
:10411000874A18BF1A464FF48673B0FBF2F2B0FB21
:10412000F1F1013A7648013903FB050392B2A3F895
:10413000BC10A3F87420226600220393A4F8582030
:104140006266E265049A02F1580100F10802114426
:104150001A6910685CF07EF8039B1A691068039274
:10416000036843F08003036053790C2B0DD8DFE81C
:1041700003F06F0C0C0C670C0C0C5E0C0C0C550057
:1041800003236C4A82F8F83E71E74FF486735C4A69
:1041900003FB052359694FF0600C02680023CDF83A
:1041A00020C04FF4807C0A9322F00102CDF838C081
:1041B0004FF0010C0D930F930223CDF824C04FF064
:1041C0000A0CCDE90BC3026008AA5BF0C7FE4C4B9A
:1041D0004FF4867202FB0532039B52691968002373
:1041E000012A3DD0042A3BD0102A00F0AF81402A9A
:1041F00036D0B2F5807F00F0AC81B2F5806F00F070
:10420000A881B2F5805F00F0A981B2F5803F4FF040
:104210003C030CBF08224FF4006222E04FF4867387
:10422000374A4FF4805103FB05235961B3E74FF43C
:104230008673334A4FF4807103FB05235961AAE763
:104240004FF486732E4A102103FB05235961A2E720
:104250004FF486732A4A012103FB052359619AE72B
:10426000082201F1180050F803C042EA0C02C250C3
:10427000039B1879002840F03E81214B4FF4867251
:1042800002FB053200231069D1690068026842F020
:1042900001020260DAF804200133914200F0278124
:1042A000102B0AF1240AF5D14FF0FF33154A03EB26
:1042B000C30302EB8303D3F85C021F4B98420CBF8D
:1042C000A020A1205AF06AFD0D4A4FF4867303FB2B
:1042D00005231A6951790C2900F20681174B03EB6B
:1042E0004103B3F86CCED2F800E04FF48673044A71
:1042F0001349704603FB0523A3F818C000232AE0E6
:104300000400002000000024FC10002015DC04083C
:1043100011DC04081DDC04086B4CA407C048012410
:104320000C0000201055220044950800D0DD060046
:1043300040771B00881C00240000024030600A08FF
:10434000681500205C020024904200F005810133D2
:10435000042B00F0078151F83320002AF4D1844A5D
:1043600086461046D2F868240132C0F8682400EB73
:10437000C302DB00C2F86CE419440598234690227E
:10438000B1F804E0DFF804A24CEA0E0CA1F804C076
:104390007849FDF769FE4FF48673774A4FF4403E43
:1043A00040214FF4805C03FB05250023E869026887
:1043B00042F010020260026842F014020260C4E996
:1043C0001F33C4E92733C4E929334FF480632A6AD1
:1043D000C4F898E0C4F88430A167C4F89420D5F8F4
:1043E000B820C4F89020C2B220F0FF00103AAAFB17
:1043F0000231EA68049B1832C4F888C04FF4804C3C
:104400000909226703F170025C4B1A44D5F8B430F5
:10441000C4F88CC063675CF0B1F8E869049B4FF4A2
:104420000031D0F800E04FF4006C03F1B802534BB8
:10443000C4F820E0D0F814E01A440023C4F824E0C3
:10444000D0F804E0C4F828E0D0F808E0C4F82CE084
:10445000D0F80CE0C4F8C830C4F830E0C4E9303318
:10446000C4E93933C4E93B332B6AC4F8E010039341
:104470004FF48063C4F8CC30039BC4F8DC30D5F82B
:104480000031C4F8D830C3B220F0FF00103BAAFBC3
:104490000331EB68C4F8D0C010330909C4F8B83050
:1044A000D5F8FC3003934FF48043C4F8D430039B19
:1044B000C4F8BC305CF062F8EB69B8F804101A6814
:1044C000D8F8000062635A69A2635A68E2639A6886
:1044D0002264DA6862641A6842F010021A601A688C
:1044E00042F014021A60CAE44FF0000CFBE6DBB2A3
:1044F0000593013BDAE607910CF03AF9079906902B
:1045000048B1039B0221DA79FDF718FE069B54227D
:10451000DA80039B19684B6C43F400434B64ACE6B0
:104520001749184AF7E5144A4FF4867808FB09281A
:1045300098F8111198F8102183F8551283F8542235
:1045400095E50223104A82F8F83E90E54FF40062A8
:1045500087E60822042384E6DB000DE74FF40062BF
:1045600004237EE600239B88FFDE00235B68FFDEDA
:10457000FC10002001000000040000200C000020BE
:10458000882A1100A0BB0D00881C0024ABAAAAAA8F
:104590002DE9F04F00228FB02F2107460DF0E8FDE6
:1045A000D0B1B04C06464379D0F80080A4F8383436
:1045B000FDF722FD80B1456875B1DFF8E0B2002259
:1045C00059464B68013224319D4210D0102AF8D14F
:1045D000A54B93F854221AB100200FB0BDE8F08F1C
:1045E0002F21104683F8552283F85412F5E7D2B2F2
:1045F000DFF874A2013A02EBC2020AEB820292F8DF
:104600007892B9F1000FE7D12F2183684046C4F8B2
:10461000EC83A2F878120393FFF732FB934A90429F
:1046200080F0FF8001234A46029340460192FFF743
:1046300027FB029B019A8E49C4F8F023B0FBF3F2EA
:10464000120A0020A1FB02328A4BC4F8FC031109B4
:10465000C4F8F4031209A3FB0131C4F8F8234A0893
:10466000A4F8FC2E5200A4F8FA2E94F8292402F0A3
:10467000FF01002A00F0E38002227F49D4F8EC0316
:1046800084F8292452F098F80122384684F834241A
:1046900084F82A2484F82B2484F82C2484F82D24EC
:1046A00084F82E2484F82F2484F8302484F83124CC
:1046B00084F8322484F8332484F829240CF058F840
:1046C000C4F8000F28B12F21C1804E21F279FDF7E7
:1046D00035FD6A4A0021039BC4F8101FC4F8083F47
:1046E000C4F8201FC4F8281FC4F8301FC4F8341FB2
:1046F000D2F8D800C4F8045F40F00100C2F8D80036
:10470000D2F8D80000F0010005900598D2F8D80042
:1047100040F00200C2F8D800D2F8D82002F002021D
:104720000692069A4022C4F80C2F4FF48062C4F817
:10473000142F4FF48052C4F8182F4FF48042C4F85D
:104740001C2F4FF40032C4F8242F0322C4F82C2F5E
:1047500094F838240C2A75D8494901EB4202B2F882
:10476000887EB846083747485946002204EB870C34
:10477000CCF8EC03A0F61830C4F83C0F48680132BE
:104780002431854264D0102AF8D14FF0FF3202EB79
:10479000C2020AEB820A3C4ADAF85C0290420CBF81
:1047A000A020A1205AF0FAFA0022DBF8041001320E
:1047B0000BF1240B8D4248D0102AF6D104EB870769
:1047C0004846434660223149FDF74EFCD7F8EC03DA
:1047D00050F036FB00287FF4FFAE60210C90B379D7
:1047E000079159000D90DB00089001F002010B9039
:1047F00003F00803B4F838242548CDE9091307A9C4
:1048000059F070FB00287FF4E7AEB379B4F83814A0
:104810009B071F481FD552F05BF8B0FA80F04009A3
:10482000DBE64046FFF72CFA1A4A1B490244A1FB7B
:104830000232920D013A92B2531C0293F5E684F8CB
:10484000281419E788460F468CE75FFA82F9B5E726
:10485000D2B2013A9BE751F025FFB0FA80F040094F
:10486000BBE600BF881C002400000024006CDC02B2
:10487000598B4F01ABAAAAAA782000240044025801
:1048800030600A088C2B0024000002409D010000CB
:104890007420002400366E01819F5E165C020024A5
:1048A000830AA3F58013522B00D970472DE9F041FC
:1048B00015460F4AD65C0D2E17D80E4C4FF04C08FB
:1048C000013908FB064789B2C7F8681AFFF7D8F91B
:1048D00007F52661B0FBF5F2013AD7F85C0AC7F894
:1048E000602ABDE8F04151F067BFBDE8F08100BF2C
:1048F00030600A08881C0024830AA3F58013522B19
:104900006BD82DE9F0411646794A84B0D75C0D2F5B
:1049100060D8DFF804824C25044605FB0785D5F8EE
:104920005C3A834256D00139C5F85C0A89B2C5F8B1
:10493000681AFFF7A5F90023B0FBF6F2C5F86C3A48
:10494000013AC5F8643AC5F8703A95F8993AC5F84D
:10495000602A03F0FF02002B40D04C23654903FB83
:10496000078503FB07110223D5F85C0A85F8993AFD
:10497000043151F021FF012385F8A43A85F89A3AD1
:1049800085F89B3A85F89C3A85F89D3A85F89E3AD9
:1049900085F89F3A85F8A03A85F8A13A85F8A23AB9
:1049A00085F8A33A85F8993A534B9C4219D0B4F153
:1049B000804F16D0A3F57C439C4212D003F5806350
:1049C0009C420ED003F580639C426CD003F5784383
:1049D0009C4268D004B0BDE8F081704785F8982A01
:1049E000BBE74C234FF48051002203FB0783009167
:1049F00093F8981A03920129CDE90122EAD0022105
:104A0000D3F85C0A012483F8991A3C498568294047
:104A1000816083F8994A83F8982A4C22002302FB8C
:104A200007820293CDE9003392F8983A012BD1D056
:104A3000D2F85C3A0221304882F8991A83425A68C7
:104A400099682CD000F58060834228D022F0700253
:104A50002B485A602B4A934218BFB3F1804F0CBFCA
:104A600001220022834208BF42F0010200F580606B
:104A7000834208BF42F0010212B9234A934202D195
:104A800021F0800199604C230121002203FB07875C
:104A900087F8991A87F8982A04B0BDE8F0811B4876
:104AA00010405860ECE700214FF48053CDE900310D
:104AB0004C2303FB078393F8982A012ACDE90211BE
:104AC00088D0D3F85C0A022283F8992A0B4A8568B9
:104AD0002A4082600E4A83F8981A0121944283F892
:104AE000991A9AD00B4B9C427FF474AF95E700BFA4
:104AF00030600A08E4260024000001408800CEFF50
:104B00000008004000040040001800408FFF0FFF25
:104B100000040140000C0040881C00242DE9F04FE7
:104B20000546086889B00C464FEA902CBDF84880CD
:104B3000ACF5801C9DF84CA0BCF1520F69D8DFF891
:104B4000EC9019F80C700D2F63D807EBC706DFF84F
:104B5000E0B0194607EB4606FFF7CEFE23680BEBE5
:104B600086066179A279BAF1000F55D194469B0A65
:104B7000A3F58013522B25D819F803000D2821D84E
:104B800000EBC0030A4601A9CDF8088000EB430002
:104B90004FEA4C034FEACC0C03F002030BEB80000E
:104BA00003930CF008034FF4807C0493602301937B
:104BB0004FF40073CDE906C30023059359F092F931
:104BC0006179A2799307304629D551F081FE154BC2
:104BD0004C2202FB073797F8993A012B10D1022398
:104BE000D7F85C2A87F8993A0F4B91680B40062B4F
:104BF00006D0B3F5803F03D0136843F00103136080
:104C00002168637901F1340269600021D0182860BD
:104C1000D15009B0BDE8F08F82F0010CA7E751F048
:104C200041FDD4E7881C00240700010030600A0819
:104C3000E426002470B504460068830AA3F58013B7
:104C4000522B03D82B4DEE5C0D2E00D970BDFFF713
:104C500053FE294B4C2202FB063696F8993A012B5B
:104C600013D021680023254A254801E050F833205D
:104C700091421CD00133112BF8D1012100205AF0B0
:104C80005DF8204B01221A6070BD0223D6F85C2A21
:104C900086F8993A1C4B91680B40062BE1D0B3F58E
:104CA000803FDED0136843F001031360D9E705EBC2
:104CB000C3030121134D93F80A4D20465AF03EF8E4
:104CC00004F01F03012162091B2C01FA03F345F8CC
:104CD000223006D119205AF031F84FF000732B60C2
:104CE00070BD2E2CB2D12C205AF028F84FF48053EE
:104CF0006B6070BD30600A08881C00240000014011
:104D0000346D0A0800E100E00700010070B5154CA1
:104D100082B094F88A3403F0FF05002BF9D1012604
:104D200094F87C3F84F88A640BB902B070BD0E4AD7
:104D3000B4F88814138A14320C480191FEF710FF5E
:104D40000199034618B184F88A5402B070BDD4F8B2
:104D50003C4432460548636202B0BDE870405EF0F4
:104D6000BFBA00BF881C002480FB0024C42000249C
:104D700038B5264C94F8803F012B12D1042894BFFB
:104D8000002301236BB904EB40000D4694F8981FF3
:104D9000C4F8AC3FB4F89A2FB0F8A23FB4F89E0F15
:104DA00001B138BD07EE902AD4F8902F9FED180A74
:104DB000B8EEE77ADFED177A27EE277A07EE902A2A
:104DC0006422F8EE676A02FB03F307EE903A02FBF7
:104DD000003366EE806AB8EEE76A07EE903AF8EEC6
:104DE000E77A27EE067A87EE270A20EE260A60F099
:104DF000ADF9D4F8882FB4F89C3F1060D4F838137C
:104E000019442944C4F8B01F38BD00BF881C0024D1
:104E1000CA269B3E0AD7233C2DE9F043BDB0BFF321
:104E20005F8FA34A0020516A0346044621F4803173
:104E300051620146C2F89400C2F898300133C2F8BA
:104E40009C10112BC2F8A010F6D10523C2F89430A3
:104E5000536A43F480335362BFF34F8FBFF36F8FB6
:104E60009448954A9549121A60F0EEFE9448954A86
:104E70009549121A60F0E8FE944AD368042B00F0BA
:104E8000FD8005D8012B00F08183022B00F0778391
:104E9000874A00238E4C0120D2F888108D4E41F4B1
:104EA00070018D4DC2F8881020602361216841F0A7
:104EB00080012160216801432160216841F4803133
:104EC0002160216841F480512160A361E361236284
:104ED000A362E36223636363A363E36323646364A2
:104EE000216821F4802121607C492366C1F80801F2
:104EF0004FF000614FF6FF00794B9160D16801409F
:104F00000B43D36051F02EF9A36902460F20C3F37F
:104F10000323A169334493F8883203F01F0322FA74
:104F200003F3C5F8EC344FF097FA6E4AD36813F0E8
:104F3000040FD36840F0A4806B4B0021694A0391B1
:104F4000D96A21F00101D962DB6A03F001030393FE
:104F5000936943F440439361936903F4404303939B
:104F6000039B93699B04FCD54C2200210DA85F4C48
:104F700060F0DEFE5E4A42F203031268B3EB124FAA
:104F80004FF00003079304F1140318BF1C46E268B6
:104F9000002A4FD0544B5349D86A20F00100D86200
:104FA000DB6A03F0010307938B6923F44043134347
:104FB0008B618B6903F440430793079B494A9369CC
:104FC0009F04FCD5424B4FF440314A484FF0010852
:104FD000D3F8E020002742F08002C3F8E020D3F8A5
:104FE000E03003F080030693069B0323816108A948
:104FF00008930B93CDE9098750F020FC02230DA8FC
:10500000CDF834801E97CDE91633A3781893A38882
:105010001993A3791A93E3791B93237A1C93236939
:105020001D934FF480330E9350F0DEFD03283BD0E8
:1050300098B1FEE72B4A2C4B916941F440419161B4
:10504000926902F440420792DA6A42F00102DA629F
:10505000DB6A03F001030793AFE7274B1A6812F0EE
:105060000E0F4DD11A6822F00F0242F002021A60B0
:105070001B6803F00F03022B42D0FEE7D46007E762
:1050800023F007031D4C43F00203D360D4F830161D
:1050900006E0D4F830365B1AB3F57A7F3FF64CAFB2
:1050A00053689804F5D547E772B6FEF71BFA00BFC0
:1050B00000ED00E00000000080470000D4890B08EC
:1050C000000000200400002077F90B085040005831
:1050D0000044025830600A0800000024008000519B
:1050E0000003FA050048025800040058C4040024D4
:1050F0000010005C001C025800200052881C002494
:105100006E4A936903F070033F2B05D8936923F02F
:10511000700343F040039361684AD36903F070035E
:105120003F2B05D8D36923F0700343F04003D361CC
:10513000624AD36903F4E063B3F5806F05D2D369A3
:1051400023F4E06343F48063D3615C4A136A03F0A1
:1051500070033F2B05D8136A23F0700343F040031C
:105160001362564B9A69140705D49A6922F00F020C
:1051700042F008029A61514A936923F47063936183
:10518000136898017FF579AF136941F288304C4C70
:1051900023F0070343F003031361D4F8301605E04E
:1051A000D4F830365B1A834200F2A181136903F010
:1051B0003803182BF4D1936903F00F03082B05D99A
:1051C000936923F00F0343F0080393613D4A13688A
:1051D00003F00F03022B0BD9136823F00F0343F0E6
:1051E00002031360136803F00F03022B7FF445AF33
:1051F000324A936903F07003402B05D9936923F079
:10520000700343F0400393612C4AD36903F07003A9
:10521000402B05D9D36923F0700343F04003D361D9
:10522000264AD36903F4E063B3F5806F05D9D369E7
:1052300023F4E06343F48063D361204A136A03F0EC
:105240007003402B00F24B811C4F50F08BFF034644
:10525000D5F8F004BA69B969C2F30322164496F886
:10526000882202F01F02D340C5F8EC344FF0F4F866
:10527000002840F03D811023149016900DA80D9346
:1052800050F0B2FC002840F029813B680E4943F001
:1052900080033B60D7F8F43043F00203C7F8F430E2
:1052A000D7F8F43003F002030293029B0A6A074B1B
:1052B00042F001020A62D4F830160CE000440258B1
:1052C000881C0024002000520004005800E2040062
:1052D000013B3FF4E9AED4F830269142F8D0D4F83F
:1052E0003026D4F830369B1A0A2BFAD94FF4802393
:1052F000B14C0DA84FF000080D934FF44013032656
:1053000002272E935BF086FBD4F8EC300DA843F017
:105310000203C4F8EC30D4F8EC3003F0020301933C
:10532000019BD4F8943043F00203C4F89430D4F8CD
:10533000943023F00203C4F89430A04B1A6841F271
:105340000303B3EB124F9E4B9E4A38BF1A469E4B47
:105350005A601A6822F47C5242F400521A601A68A9
:1053600042F060021A600D96CDE92A885BF052FB8C
:105370004FF4E0430DA8CDF8E0800D93CDE92488EB
:105380005BF048FB18230DA8CDF8B4800D93CDF841
:10539000C8805BF03FFB4FF400230DA80D934FF442
:1053A000003335935BF036FBD4F8E03008A987482A
:1053B00043F00103C4F8E030D4F8E030CDF8308099
:1053C00003F001030593059B4FF48073CDE90A8632
:1053D000CDE9083750F032FA236908A97C4823F058
:1053E000FE7343F088732361D4F8E03043F0040384
:1053F000C4F8E030D4F8E030099703F004030B96CA
:10540000CDF8288004934FF40073049A0893CDF8E4
:10541000308050F013FA236923F07E4343F0FC43BD
:10542000236150F09FFE6B4B6B4A4146C5F8EC047C
:105430001846D21A60F07CFC6848694A6949121A19
:1054400060F002FCBFF35F8F674D4646674C012753
:105450006B6A23F480336B62C5F8948023E0002AE2
:1054600044D0D4F80080637A103414F8061C1B066C
:1054700043EA017343EA420314F8052C43EA8243EA
:1054800014F8042C43EA424314F8032CC5F898603E
:10549000013643EA0243C5F89C80032E43F0010322
:1054A000C5F8A03025D06368227A002BD7D0D4F875
:1054B0000080002AD7D128F01F09A3EB0903202B75
:1054C00038BF20231846994660F0B8FB431E07FA00
:1054D00003F2914518BF0346DAB2C4E7FEE7136A48
:1054E00023F0700343F040031362ADE6FEE7C4E52A
:1054F000C3E50523C5F894306B6A43F480336B62CF
:10550000BFF34F8FBFF36F8FBFF34F8FBFF36F8F1B
:105510000022C5F85022BFF34F8FBFF36F8F6B6926
:1055200043F400336B61BFF34F8FBFF36F8FC5F848
:105530008420BFF34F8FD5F8805043F6E0762A4998
:10554000C5F34E34C5F3C905640104EA06002B46D1
:1055500040EA8372013BC1F86022F9D2203C14F189
:10556000200FF2D1BFF34F8F4B6943F480334B616F
:10557000BFF34F8FBFF36F8F3DB0BDE8F0830421C1
:105580000320FDF78DF972B6FDF7ACFF02200A4B40
:105590001749D060D3F8F4200243C3F8F420D3F8BD
:1055A000F43003400D930D9AD1F8003883F3088846
:1055B000D1F804389847FEE7004402580010005C18
:1055C0007FBB22307FBB22000084004000000258D5
:1055D00000080258E0FA002480FB002400F60024B2
:1055E000E0FA00247BF90B0800ED00E0F40400244D
:1055F0000090F01F0548D0F8043323B1DB6A13B1E3
:1056000000F5417018470248704700BF881C00240D
:10561000D46E0A0830B5114C4FF0000C234693F8B5
:1056200000E00633864515D00CF1010CBCF1060FE5
:10563000F5D10B4DD5F8D83F052B0AD00CFB034C08
:105640000133C5F8D83F8CF80000ACF80210ACF874
:10565000042030BD062303FB0C4CF4E73C2C002453
:10566000881C002410B5174CD4F8DC3F1B883BB9CC
:10567000002384F8E43F84F8FC32C4F8F83210BD0B
:10568000D4F8D82F002AF3DD012A08D0D4F8E03F5F
:1056900059880123A4F8E61F84F8E83FE8E7D4F826
:1056A000E01F8A8849880132521A9A42F1D10022B9
:1056B000D4F8043304F541701B69C4F830239847CB
:1056C000D6E700BF881C00240748D0F8003313B188
:1056D00090F8E83F0BB100207047D0F8043300F594
:1056E00041705B68184700BF881C0024174B10B43A
:1056F000174C93F8FC222244C0E9002493F8FC02E2
:1057000093F8E42F824217D893F8FC02824206D322
:1057100000235DF8044B1846C1E90033704793F845
:10572000FC32002A5DF8044BC3F180030CBF01205A
:1057300002204A600B60704793F8FC42002301206E
:10574000121B5DF8044BC1E900237047881C00243C
:10575000E0FA00240F4B93F8FC2293F8E40F93F83F
:10576000FC22904293F8FC220FD8904204D3D3F845
:10577000F83200201844704793F8FC22D3F8F8322E
:10578000C2F18002104418447047801AD3F8F832EE
:1057900018447047881C002410B51B4C84B01B4B68
:1057A00094F8FC220393134494F8E41F029394F8B2
:1057B000FC32994294F8FC3214D899420AD294F8F7
:1057C000FC320191C3F180030093C9B901223F2B40
:1057D0000ED868B994F8FC02401AB0FA80F040097B
:1057E00004B010BD0022CB1A019201220093EEE713
:1057F0006946002302A85DF0B5FC94F8E41FE9E7D0
:105800000B440222E3E700BF881C0024E0FA0024D6
:105810002DE9F043164685B000293BD0451E284CA3
:10582000DFF8A4804FF000096F180DE094F8FC3207
:1058300008468B4294F8FC321CD9C3F1800318440B
