:020000040800F2
:1000000000000120753105081132050869B70108A3
:10001000C1B50108113205081132050800000000C1
:100020000000000000000000000000001132050880
:1000300011320508000000001132050851A901081D
:100040001132050811320508113205081132050870
:1000500011320508113205086DA8000875A80008BE
:100060007DA8000885A800088DA8000885A60008BE
:1000700095A60008A9A60008BDA60008D1A60008FC
:10008000E5A60008F9A60008113205081132050896
:1000900011320508113205081132050895A800082B
:1000A0002DE5000819E400083DE5000809E4000812
:1000B00041E4000851E4000861E4000819A20008C6
:1000C0000DA200084DA2000841A200081132050847
:1000D000113205089DA80108A9A80108B5A80108C2
:1000E0009DA8000811320508113205084DE50008E9
:1000F00005E5000811320508F5E400080DA7000821
:10010000113205082DD6000871E4000811320508E7
:10011000C1A80108CDA8010881E40008E9AE0408DF
:1001200021A7000835A7000849A700085DA7000817
:1001300071A700080000000000000000000000009F
:1001400000000000000000000000000029A40408D6
:1001500085A7000899A70008ADA70008D9A801083D
:1001600081A2000875A200081132050811320508A5
:1001700011320508113205080000000000000000DF
:10018000113205081132050811320508113205082F
:10019000113205081132050800000000113205086F
:1001A00000000000000000000000000011320508FF
:1001B000113205081132050800000000000000009F
:1001C000000000000000000000000000000000002F
:1001D00000000000000000000000000011320508CF
:10800000084A0346D0F8E4005268D3F8F010121A78
:1080100000209142B8BFC3F8F020012283F81C2150
:10802000704700BF001000E01B4B1C4A03F5727C38
:10803000016803E063452BD053F82C2F9142F9D10E
:1080400070B593F804E0427996450AD0634505D0AF
:1080500053F82C2F9142F4D06345F9D14FF0FF3003
:1080600070BD9E4684680022DEF80C50A54208D000
:1080700001320EF10C0E032AE8D0DEF80C50A542B6
:10808000F6D1DEF81050C668B542F1D150B270BDDD
:108090004FF0FF30704700BFC04C050800000140A2
:1080A0004368426D30B49A61EFF31182502383F339
:1080B00012884168D2B2856C0B68046D23EA05030F
:1080C00023430B6082F31188436981681A68096849
:1080D00022F00102D0E908541A60826A1D605C61D6
:1080E0005A60D0E90B429C60DA600023B0F86C2043
:1080F00030BCCA620377704730B5FAB18E464FEA9A
:10810000014C034600F1C005002419680C3353F8F4
:10811000042C43F8084C41EA0C0142EA0E02AB423F
:1081200043F80C1C43F8042CEFD1D0F8C03043EADC
:108130000E03C0E93144C0F8C03030BD4FEA014EF3
:108140008C46DEE783695969B3F810C00A6830B419
:108150009C6822F0010224680A60E26822EA0C02AC
:10816000E260027D04681F2A06D9203A082065686B
:108170009040284242D0FEE70820256890402842DF
:10818000F9D1202000FA02F2A260254A1278002AD2
:1081900032D01A7F012A36D0D3F800210132C3F839
:1081A0000021EFF31181502282F312885868C9B27E
:1081B0009D6C0268DC6C22EA05022243026081F3B6
:1081C00011885A699968D3E90D40096814605061B3
:1081D000D3E90F40546090605C6CB3F8B400D46095
:1081E0000124C8621068204310601A8A1C7783F843
:1081F000FD40CB681343CB6030BC7047202000FAB1
:1082000002F2E260C1E70022D3F8040183F8FD2006
:1082100001300A68C3F8040122F001020A60EBE7AA
:108220006801002010B40C4C6368002B11DD0020A5
:1082300004F1080C0146DCF8AC3003F1C0025960CF
:108240000C339342FBD1013063680CF5867C83428A
:10825000F1DC5DF8044B704768010020704700BFF7
:10826000024B03EB401090F8550470476801002062
:10827000704700BF0B4890F86C1589B101EB4101C4
:10828000002300F27450490010B41C4650F823201B
:10829000063302B114608B42F8D15DF8044B70478D
:1082A000704700BF680100200B4890F86C1589B139
:1082B00001EB4101002300F27450490010B41C4648
:1082C00050F82320063302B114609942F8D15DF8CA
:1082D000044B7047704700BF6801002001207047C1
:1082E000034B00EB400003EBC00090F8850570479E
:1082F00068010020204890F86C35002B3AD000220D
:1083000000F274534FF02C0C2DE9F0434FF0500E57
:108310001A4E1B4D144607E053F8181B01320C602F
:1083200090F86C15914223DD197C0029F4D05F6828
:108330004FF0FE08B90AA1F580115229294498BFCF
:1083400091F8F483EFF311818EF31288D7F824901B
:108350000CFB0868C9B209F10109C8F82890D7F8E0
:10836000148048F00108C7F8148081F31188D3E71E
:10837000BDE8F083704700BF680100202817012086
:10838000C04C050807EE900AB8EE670A704700BFB8
:10839000BCEEC00A10EE103A98B27047C84BD3E951
:1083A000A51270B58C0FC2F3072C100E83F8C842CB
:1083B000C1F38364000183F8C942C1F3016483F807
:1083C000CA42C1F3074483F8CB42C1F30724C9B2C0
:1083D00083F8CC42C2F3035483F8CD12A3F8CE0243
:1083E000C2F3C030B3F8CE1289B22143C2F30344C2
:1083F000A3F8CE12C2F3403183F8D042C2F38034E6
:1084000083F8D102002083F8D24283F8D312C2F35A
:10841000003183F8D41293F8201383F8D502012990
:1084200040F2F380022900F0C580D3F89C122A2084
:108430004FEA4C0C83F8E142C1F3C01201F07F0116
:108440000CF07E0C83F8E2C24FF0010C93F8E2428C
:108450001443D3F8A02283F8E242D40F83F8E31246
:10846000910D83F8E442C2F3417401F00C01C2F3B0
:10847000815583F8E542C2F3826483F8E64283F8CB
:10848000E71293F8E712D3F8A442294383F8E712DE
:10849000C2F3405183F8E812002183F8E912C2F3D5
:1084A000004183F8EA12C2F3C03183F8EB12C2F341
:1084B000803183F8EC12C2F3403183F8ED12C2F33D
:1084C000003183F8EE12C2F3812183F8EF12C2F378
:1084D0000121C2F3460283F8F012C4F3074183F886
:1084E000F122220E090283F8F2C283F8F422C4F3C7
:1084F0000722A3F8F6122406B3F8F61289B2114344
:10850000A3F8F612D3F8A812C3F8F8420C0ED3F869
:10851000F82242EA0442C3F8F8220A0AD3F8F842E1
:1085200002F47F422243C1F30724C9B2C3F8F82200
:10853000D3F8F852D3F8AC222C43C3F8F84283F8AE
:10854000FC12110E83F8FD12110C0906C3F800137A
:108550001102D3F800430A4601F47F01214392B28D
:10856000D3F8B042C3F80013D3F800130A43C3F89A
:108570000023C4F30352D3F8001341EA1461C3F893
:10858000001393F804131143C4F3072283F8041370
:10859000210A01F47061A3F80613B3F8061389B237
:1085A0001143C4F34602A3F8061383F8082383F8A3
:1085B00009C370BD1204D3F89C1202F47C12C1F3FB
:1085C000072CC3F8D8220A0ED3F8D84244EA022472
:1085D000C1F30742C3F8D842D3F8D84222434FF43C
:1085E0000074C3F8D822D3F8D822C3F81843013254
:1085F00040F10004A40244EA92549202C3F81443E6
:10860000C1F38034C3F8102312E74FEA8C2CD3F85F
:108610009C1292004FF0010E0CF44064C1F3C2654D
:1086200002F47F72C1F3072CC3F8D842D3F8D842C2
:108630002243CC0BC3F8D82204F00602D3F8D84268
:1086400044EA9174C3F8D842C1F3026483F8DC525F
:1086500083F8DD42C1F3425483F8DE42C1F3824421
:1086600083F8DF42C1F3C03483F8E02293F8E022BC
:10867000224383F8E022D3F8D84293F8E02293F81B
:10868000D05202320EFA05F50EFA02F2C3F8185370
:10869000D617A2FB052E05FB06EE04FB0EEE0134F9
:1086A000A2FB0424A644520AC1F3803442EACE520B
:1086B000C3F810234FEA5E22C3F81423B8E600BFC4
:1086C000281701202DE9F0410022794B846982B0FE
:1086D000D3F824630192082204F19C07D4E93D8376
:1086E0009A40D8F80050154205D0D4F89C1008687C
:1086F000400700F1B08001229A40154205D0D4F81D
:108700009C104969080600F19D8004229A40154298
:1087100005D0D4F89C100968890700F18A801022DE
:108720009A40154204D0D4F89C10086800076AD417
:1087300020229A40154218D0D4F89C100868C00630
:1087400013D5C8F8082094F8D120052A39D00B6831
:1087500013F4802F0B6800F09280190340F19D8084
:10876000D4F8D8300BB138469847D4F8F030002B05
:1087700046D0D4F8F030DA071BD54E4BD4F89C2005
:10878000A3FB0636052384F8D130B60A136823F01C
:108790000103136002E01368DB0704D5019B01337A
:1087A0009E420193F7D20022012384F8D02084F85E
:1087B000D130D4F8E8301BB3384602B0BDE8F04100
:1087C00018470A6822F016020A604A6922F08002FD
:1087D0004A61D4F8DC20002A65D00A6822F0080239
:1087E0000A603F22002102FA03F30122C8F8083090
:1087F000D4F8EC3084F8D01084F8D120002BDBD1F1
:1088000002B0BDE8F081C8F808200A6812F4802F91
:108810000A682DD1D20503D40A6822F008020A6042
:10882000D4F8DC20002A83D038469047D4F8F830BA
:108830007EE7C8F80820D4F8F02042F00402C4F81B
:10884000F0206CE7C8F80820D4F8F02042F00202CB
:10885000C4F8F02059E7086820F004000860C8F860
:108860000820D4F8F02042F00102C4F8F02042E7DA
:108870001103D5D5D4F8E420002AD5D158E713F454
:1088800080737FF46DAF0A6822F010020A60012243
:1088900084F8D03084F8D12062E7D4F8E030002B9F
:1088A0007FF461AF61E7D4F8E420002A95D198E71E
:1088B00028170120B5814E1B70B50E4E0D4614468B
:1088C000D6F87C333BB11A689B881269134096F83E
:1088D000792352B15BB9FFF761FDD6F810234FF44D
:1088E000007300202A60238070BD002BF3D14FF06D
:1088F000FF3070BD2817012000207047002070470E
:1089000038B5074B14460D46D3F81C341B6A9847FC
:1089100002464FF40073002012682A60238038BD9D
:108920002817012008B5074BD3F81C3433B15B6915
:10893000984780F00100404240B208BD4FF0FF3040
:1089400008BD00BF28170120002070472DE9F04125
:1089500023B3164688469F18144DD5F81C440023AF
:1089600041463046A4681A46A0470028F5D0D5F8FD
:108970001C3433B15B69984720B9D5F81C34002BFF
:10898000F8D1FEE7013608F50078B742E5D1D5F811
:1089900020340020C5F82434BDE8F081034D0020C8
:1089A000D5F82034C5F82434BDE8F081281701201B
:1089B0002DE9F0415BB316460F4603EB0208184C55
:1089C00004E0D4F81C1419B14B699847D4F81C146E
:1089D00000230D69304639461A46A8470028F0D1D1
:1089E000D4F81C3433B15B69984720B9D4F81C34EF
:1089F000002BF8D1FEE7013607F50077B045E5D149
:108A0000D4F820340020C4F82434BDE8F081044CAC
:108A10000020D4F82034C4F82434BDE8F08100BF2D
:108A20002817012000207047034B93F84C030038AF
:108A300018BF0120704700BF281701201C4AD2F838
:108A40007C336BB1186892F879139B8800690340F6
:108A500021B12BB1002382F84C337047002BF9D0A1
:108A600092F84C33032B0FD892F840330133DBB22A
:108A7000072B82F84033EDD8D2F820140123C2F836
:108A80003C1382F84C337047D2F8243309489908D4
:108A9000B0EB930F4FF0020306D249085B0081420E
:108AA0009BB201D9FF2BF8D9A2F88433DCE700BFD1
:108AB00028170120801A0600826D136A5B681B78F4
:108AC000FF2B08D090F8F030013BDBB280F8F0309B
:108AD0001BB10120704700207047126A02205268C3
:108AE00013707047836D1B6A5B681B78FF2B0AD17C
:108AF00090F8F030002B03F1FF3280F8F02014BF23
:108B00000120022070470020704700BF034B93F8FC
:108B10004C03032894BF0020012070472817012030
:108B200000487047781A0120034B93F84C03003833
:108B300018BF0120704700BF28170120034B93F88E
:108B40004C03032894BF0020012070472817012000
:108B500000487047781A0120184B002030B49C7BE5
:108B600014B11D688D4205D0013010330B28F6D1A9
:108B700030BC7047AAB1124B03EB40218A4201D1AD
:108B8000022C19D00F4B93F8E4278AB10E4B012227
:108B90005A7000F5B170012203EB00139A7130BCDA
:108BA0007047094B00F5B17003EB00139A71DFE7D2
:108BB000012283F8E427E9E7183BEAE7DC400120DB
:108BC000DC2A0120C43A0120C42A0120002330B449
:108BD0001C4C04F5C36084F8D03603E00133103038
:108BE0000B2B15D005688D42F8D190F80EC0BCF162
:108BF000030FF3D1C2B1144901EB4320824209D1E2
:108C0000A1F1180203F5B173012102EB031399716D
:108C100030BC704794F8E42712B9012284F8E427A5
:108C20000A4A01215170EDE7D4F8CC1603F5B1736F
:108C3000064A0420013102EB0313C4F8CC169871E4
:108C4000E6E700BFC43A0120DC2A0120C42A012043
:108C5000134BD0F8D8105B68D0F8E02010B504466C
:108C6000581A824200DC22B9D4F8E4200A44C4F83D
:108C7000DC2094F8D020C4F8D830012A05D0D4F8EC
:108C8000D4300133C4F8D43010BD04F1E801201D04
:108C900011F0CAF8D4F8D4300133C4F8D43010BD80
:108CA000001000E010B58CB0114C002301220DF132
:108CB0000701844604F56070049203910D498DF814
:108CC0002820069102A902938DF8143009930B9382
:108CD00084F818C4CDE9073311F0A6F8D4F880233E
:108CE000136A002BFCD19DF807000CB010BD00BF2B
:108CF00028170120E58A000870B5054690B00820C5
:108D00000C46FFF7CFFFFF2826D0FE2802D0022016
:108D100010B070BD0023124E0220012201A98DF86F
:108D200010308DF824300F9303948DF83820CDE95E
:108D3000073006F56070CDE90135CDE90533CDE9A1
:108D40000A33CDE90C3311F06FF8D6F88033186A86
:108D50000028FCD110B070BD012010B070BD00BF64
:108D60002817012030B591B000231D4DFD200DF1D5
:108D7000030101228DF8030005F56070C5F8483342
:108D80008DF810308DF824300F9303928DF8382031
:108D9000CDE9053101A9CDE90133CDE90732CDE9AE
:108DA0000A33CDE90C3311F03FF8D5F880331C6A53
:108DB000002CFCD10120FFF775FFFF2809D0092204
:108DC000D5F82034204685F84C23C5F83C3311B043
:108DD00030BD0423022085F84C3311B030BD00BFF4
:108DE000281701200C4AF8B5136855692B4003EA8F
:108DF000000555617DB1094F0126B5FA85F4C4F12E
:108E00001F0407EB840306FA04F4D3F8280403686C
:108E10009847A543F1D1F8BD003C01402817012037
:108E20000269C3682DE9F04712EA03092AD0054612
:108E30000E464FF000474FF00008B9FA89F327FAC1
:108E400003F21B3BD24309EA02092A61042B16D81C
:108E5000DFE803F03B30251A0300B36A002B3FD054
:108E600003F1FF3AC6F828801FFA8AFA746A34B10F
:108E700023682046514698476468002CF8D1B9F120
:108E8000000FDAD1BDE8F08770680028F7D0696B71
:108E9000036889B29847B9F1000FCED1F2E7B06804
:108EA0000028ECD0A96B036889B29847B9F1000F8C
:108EB000C3D1E7E7F0680028E1D0E96B036889B225
:108EC0009847B9F1000FB8D1DCE730690028D6D057
:108ED000296C036889B29847B9F1000FADD1D1E789
:108EE000E96A1FFA81FAC1E78369F0B593F8DC20DB
:108EF0008BB00546012A27D0023A012A2FD893F8D1
:108F00004C21EC46D3F89C1062F07F03154C0B709B
:108F10008669D6F8A0305F1C0FCCACE80F00D6F8FD
:108F20009C30CDE900370FCCACE80F0094E803008B
:108F30008CE80300694606F1100010F075FFAB697C
:108F400019690A6A002AFCD1D3F8A0305A8852BAAB
:108F5000EA819A8852BA2A82DB885BBA6B82012046
:108F60000BB0F0BD08510508F0B590F8DC308BB0BF
:108F70000446D0F8A060012B4BD015D8D0F89C3017
:108F80004FF0FF3205211A605A609A60DA60D0F81B
:108F9000E030C0F8F010B3F57A7F54D8032380F89E
:108FA000DC3001200BB0F0BD023B012BF9D890F86A
:108FB0004D31EC46D0F89C2063F07F03384D1370A0
:108FC000D0F8A0305F1C0FCDACE80F00D4F89C3077
:108FD000CDE900370FCDACE80F0095E803008CE831
:108FE0000300694604F1100010F01EFF2269136AA5
:108FF000002BFCD1738801205BBAA4F8D030B38871
:109000005BBAA4F8D230F3885BBAA4F8D4300BB0C2
:10901000F0BD90F84C2190F84D319B1A5B10013354
:10902000DBB236F8132006EB430653BAA0F8D03073
:1090300073885BBAA0F8D230B3885BBAA0F8D4309A
:1090400001200BB0F0BD03691A7B2AB35B691BB327
:1090500090F8983003B390F84C310122D0F89C007E
:1090600063F07F03C4F8A4400E49037094F84D31B7
:1090700094F84C0184F800211B1A84F8DC20D4F801
:10908000A0200733C4F804110132D4F89C10C4E9BD
:109090003E23C4F8F41084E7022384F8DC3080E730
:1090A00008510508018000082DE9F041304F07EB19
:1090B000401898F854340BB9BDE8F08100EB8003F8
:1090C0000E460021044607EB4313450193F836266C
:1090D00083F8361688F83A244BF0D6FDB8BB3D44E9
:1090E0002448A5F8386400EB44104BF0D5FD3B78DC
:1090F000D5F85024A3B1D5F83C140124D2F8AC30F3
:109100008C4003F1C001420010F4004F90B202D134
:109110005A6822435A600C339942F4D1BDE8F08179
:10912000D5F83C140124D2F8AC3001F1100203F15F
:10913000C0019440420010F4004F90B202D15A682E
:1091400022435A600C339942F4D1BDE8F0810A4BB6
:1091500093F8E02402EB420203EBC203234493F8AA
:109160008D64002EBBD0012388F83A34B7E700BFE6
:1091700068010020A0050020281701202DE9F84FE4
:10918000374D2B7813B90120BDE8F88F354F05F521
:10919000876A05F634360024D7F820B44FF6FE79F6
:1091A0004FF6FF7815E0B0F5606F4AD0B081B0EBB4
:1091B00008012D4B4FF05C005A4618BF012100FBFF
:1091C000043010F047FC01340AF1200A1436082C50
:1091D00031D0D5F81C2FA2422DDDDAF81800DAF8CC
:1091E0000420D0E93D014BF063FD484597F8692420
:1091F00014D0542A04D1B7F86C240132A7F86C2497
:10920000D5F83C2B404502F10102C5F83C2BCAD1F0
:10921000D5F8382B0132C5F8382BC8E7542AD2D1FB
:10922000B7F86E2401340AF1200A14360132082CF2
:10923000A7F86E24CDD10123012085F8383CBDE884
:10924000F88F97F8E02402EB420207EBC2022244B7
:1092500092F88D240D2AA9D18022B277A7E700BF0A
:109260006801002028170120A40D00202DE9F843F3
:1092700011F0C4FC2F4E4FF0000C0746DFF8BC8005
:109280002D4C716800294ADD00234FF486701D467D
:1092900000FB0362013392F80521994245EA020579
:1092A000F6D145EA0C0C5FFA8CF9D8F80430C3F318
:1092B00008038BBBEFF3118373BB4FF0E02CD4F8A2
:1092C0002034DCF81810D4F820249342F7D1D4F8D5
:1092D000E4249142F3D8D4F8E8C44FF47A7202FB44
:1092E0000CF0401AB0FBFCF002FB0300C31BB3F50B
:1092F000FA6FCCBF4FF0000C05F0010CBCF1000F71
:10930000BFD1B9F1000F04D00B4B93F86924542A54
:1093100008D04846BDE8F88311F040FBE6E7E14697
:109320000025C2E7B3F8702448460132A3F8702440
:10933000BDE8F883680100202817012000ED00E057
:1093400010B504464AF014FD0146204689B2BDE836
:109350001040A9E638B50B4D00EB400005F2745300
:10936000C40003EBC0032C4493ED027AD3ED037ADF
:10937000E7EE007AB0EE670A4AF0FAFCD4F87435EA
:10938000186038BD680100202DE9F0414BF04CFC1D
:1093900080B31B4F7D68002D12DD3846002410F885
:1093A000086BA046013416B1037F012B1DD0426922
:1093B000AC4200F58670136843F001031360F1D1ED
:1093C00011F01CFCD7F8204F002C0CDD0D4B03EBEB
:1093D000C4041968083333F8042CC8689C4242EA74
:1093E0000002CA60F5D1BDE8F08180F8FC80FEF78C
:1093F00057FEDCE745F036FA0028CAD1BDE8F08117
:10940000680100208C100020830AA3F58013522BE2
:1094100052D8F0B504466A4885B0034493F8F40383
:109420000D2847D8674D860105EB8013D3F8F074FB
:10943000A7423FD00139C3F8F04489B2C3F8FC1405
:10944000D5F82413B1FBF2F2013AC3F8F424002258
:10945000C3F80025C3F8F824C3F8042593F82D2594
:1094600002F0FF014AB358490223AF1901EB801102
:10947000204687F82D3504313CF01CF8012387F88D
:109480002D35524B9C421BD0B4F1804F18D0A3F520
:109490007C439C4275D003F580639C4271D04C4A5A
:1094A00003F57C439C4218BF944249D003F57053A6
:1094B0009C4245D005B0F0BD704783F82C15D2E72B
:1094C00000234FF48051AA19CDE9001392F82C150E
:1094D0000129CDE90233EDD00221D2F8F0040124B4
:1094E00082F82D153B4987683940816082F82D4507
:1094F00082F82C350023AA19CDE90033029392F8A3
:109500002C35012BD6D0D2F8F03402212F4882F826
:109510002D1583425A6899684ED000F580608342C9
:109520004AD022F0700221F08001354401205A60B7
:109530009960002385F82D0585F82C3505B0F0BD20
:1095400000214FF48053CDE90031AB1993F82C255D
:10955000012ACDE90211ADD0D3F8F004022283F83C
:109560002D251C4A87683A4082601B4A83F82C15D7
:109570000121944283F82D15BCD0154B9C4299D102
:10958000B8E700224FF48051AB19CDE9001293F8EF
:109590002C150129CDE902228CD00221D3F8F00448
:1095A000012483F82D150B4987683940816083F8C1
:1095B0002D4583F82C259DE722F47002B1E700BF0A
:1095C000C04C050828170120181C0120000001408C
:1095D000000C00408800FEFF0004014010B50E4C56
:1095E000D4F8B0383BB194F8BC181A68C9079B8806
:1095F00048BF1B04936144F0CBFF02E05B699847CE
:1096000020B9D4F81C34002BF8D1FEE7D4F820346C
:109610000020C4F8243410BD2817012010B50446DA
:1096200092B0080E4FF0950C8DF8081000238DF8BD
:109630000500080C01228DF809C08DF80600080A03
:10964000062144F0400C8DF8070001A80591039015
:109650000DF10300174904938DF818300793089310
:109660008DF82C3011938DF804C00A9209908DF872
:109670004020CDE90C13CDE90E3344F059FF80F0C2
:109680000103DBB203B18CB90B4C082303A904F529
:10969000607084F8183410F0C7FBD4F88023136A84
:1096A000002BFCD19DF8030012B010BDFF2012B0BA
:1096B00010BD00BFE58A000828170120817899B104
:1096C0000C48D0F8C038102B0FD003EB4302013305
:1096D0004FF0200C0244C0F8C038012382F8C418AF
:1096E00082F8C5C882F8C63870470521002011F0FD
:1096F000BDBC00BF281701202DE9F043BD4C93B03D
:1097000094F87863002E00F0C78194F84C3304F588
:109710005A775A1E082A00F25C81DFE812F0350001
:109720007000BB005A0148016F011C005A0109007A
:1097300044F0FEFE0546002840F04683D4F83C3352
:10974000D4F82024FA33934280F04081FFF776F971
:1097500094F84C33DDE744F0EBFE0028EED0D4F86B
:1097600048330022012B84F8402340F24083D4F890
:109770004423013B082106460132C4F8483384F8EB
:109780004C13C4F844230EE100210846FFF746FFBE
:10979000D4F880230546136A002BFCD10A2011F06F
:1097A0005BFAD4F8883313B11A689B889361012D52
:1097B00040F00C814FF0000840F2AB11082084F813
:1097C0004183FFF72BFF052800F0EC81012800F012
:1097D0009F81D4F88023136A002BFCD10A2011F05A
:1097E0003BFAD4F8883313B11A689B88936194F8D4
:1097F0004133002B00F0E482022384F84C3394F8C8
:10980000413300213720022B0CBF4FF080450D461D
:10981000FFF704FF29202946FFF700FFD4F8802333
:109820000546136A002BFCD10A2011F015FAD4F872
:10983000883313B11A689B889361002D40F0C6806D
:1098400094F84133022B00F0198284F8425300212E
:109850000920FFF7E3FE002800F0A9810025D4F8D5
:109860008023136A002BFCD10A2011F0F5F9D4F8FB
:10987000883313B11A689B889361002D00F0A6808D
:1098800000210A20FFF7CAFE002840F0C48103230C
:1098900084F84C33102103A8FFF72EFA002840F07B
:1098A0009580BDF80D209DF8143052BA9DF80C102B
:1098B000DDF81500A4F854239DF80F2000BA84F8B1
:1098C000561303F00F0184F857239DF8102084F8F5
:1098D000611384F858239DF81120C4F85C0384F8C0
:1098E00059239DF8122084F85A239DF8132084F8F8
:1098F0005B231A099DF8193084F860231B019DF839
:109900001A20DBB243EA121302F00F0203F5FA63E6
:1099100084F86423D4F88023A4F86233136A002BFC
:10992000FCD10A2011F098F9D4F8883313B11A68E1
:109930009B88936194F84233B3B94FF400711020BF
:10994000FFF76CFED4F880230546136A002BFCD188
:109950000A2011F081F9D4F8883313B11A689B8872
:109960009361002D7FF4F2AED4F8243322499A0893
:10997000B1EB930F4FF0020306D252085B008A420C
:109980009BB201D9FF2BF8D904220021A4F884331B
:109990001346C4F8481384F84C23082B18BF042B33
:1099A0000CBF01260026304613B0BDE8F0834FF40B
:1099B0000071D4F82803FFF79FF9012800F0CA804E
:1099C000022800F0CF80002800F0368194F84C3354
:1099D0005A1ED2B2022AE0D8D4F82034D4F83C235C
:1099E0009B1AC82B00F289800026304613B0BDE8D0
:1099F000F08300BF2817012040787D01D4F8802330
:109A0000117B136A00294DD05269002A4AD094F87C
:109A10000824002A46D0B3FA83F35B09002BD5D083
:109A200002AA002303A9B24803920222ADF808302B
:109A300005920DF107020493099201228DF8183066
:109A4000079308938DF82C3011930A928DF84020DB
:109A5000CDE90C33CDE90E3310F0E6F9D4F88033BC
:109A60001D6A002DFCD19DF8073003F01F03052B64
:109A700000F09081FEF7E2FFD4F83483B8F1000FD4
:109A800000F08D80D4F838332A46D4F82C13012006
:109A9000C04794F84C333CE6304684F84C6313B02E
:109AA000BDE8F083D4F8283303A994F83023904814
:109AB00003EB02220023CDE90323CDE90733CDE9EF
:109AC00009330C9301238DF818308DF82C304FF4A6
:109AD0008073059310F0A8F9D4F88023136A002B43
:109AE000FCD194F830230132D2B2A2F1020384F8FF
:109AF0003023B3FA83F35B0990E7FEF79FFF94F8F6
:109B00004C63042E18BF082E0CBF012600264AE71E
:109B100002AB03A97648049304238DF82C50CDF8AA
:109B20000C808DF81880CDF830800593CDE907883A
:109B3000CDE9098810F078F9D4F88023136A002B56
:109B4000FCD19DF80B30AB2B7FF445AE022384F89B
:109B5000413340E6D4F83C33D4F8202464339342B4
:109B6000BFF434AFD4F88023136A002BFCD10A2051
:109B700011F072F8D4F8883313B11A689B88936196
:109B8000FEF75CFFD4F834534DB10022D4F83833DB
:109B9000D4F82C131046A84794F84C33B9E594F840
:109BA0004C33B6E5D4F8802384F8415313E61021F2
:109BB0003846FFF7A1F800287FF450AE94F87733C9
:109BC000DB077FF54BAE94F86823921100F0948088
:109BD000012A7FF443AE94F86F231621DFF814C1F5
:109BE00002259200D2B2C5F108038B4228BF0B4672
:109BF000C3F108059840C91A42FA05F24FF0000572
:109C000040EA02001CF8012FEDD1431C35469B02AF
:109C1000C4F8503323E6D4F88023136A002BFCD118
:109C20000A2011F019F8D4F88833002B3FF48EADD8
:109C30001A689B88936189E5D4F88023136A002B06
:109C4000FCD10A2011F008F8D4F8883313B11A684F
:109C50009B88936104230020D4F8345384F84C3358
:109C600084F84003002D3FF49EAED4F83833D4E995
:109C7000CA21A84794F84C335A1EAAE629463A202E
:109C8000FFF7CCFC02AB804603A9049304231848D9
:109C90000593012303958DF82C308DF818500C9501
:109CA000CDE90755CDE9095510F0BEF8D4F8803359
:109CB0001A6A002AFCD1B8F1000F12D11A6A002AE0
:109CC000FCD10A2010F0C8FFD4F8883313B11A6809
:109CD0009B889361029B1BBAC3F3807384F8423361
:109CE000B5E51A6A002A9BD01A6A002AF9D197E7CB
:109CF000A81A0120971A012094F86D33012094F8D6
:109D000071134FF0030C03F00F03DFF828E1890112
:109D10009840CDB20621C1F10803634528BF6346D0
:109D2000C3F108019A40BCEB030C45FA01F11EF89F
:109D3000015F42EA01024FF00001ECD194F86E138A
:109D40000232DFF8F4800C2589014FF0060EC9B20B
:109D5000CEF108034FF0000EAB4228BF2B46C3F1F3
:109D600008090CFA03FCED1A41FA09F141EA0C0C5E
:109D700018F8011FECD10CF10103C11735469340CF
:109D8000A3FB000203FB0122400A40EAC250C4F8D0
:109D9000500364E50722D4F82034D4F8346384F8FF
:109DA0004C23C4F83C33002E3FF4FDADD4F83833D7
:109DB0000120D4E9CA21B04794F84C335A1E08E672
:109DC0001E4684F84C33EEE5D4F88023136A002B4A
:109DD000FCD10A2010F040FFD4F8883313B11A6880
:109DE0009B88936104232E4684F84C33DBE516D020
:109DF0000423D4F8802384F84C33136A002BFCD15D
:109E00000A2010F029FFD4F88833002B3FF4DEAD90
:109E10001A689B88936194F84C335A1ED9E5FEF773
:109E2000A1FF02287FF4D2ADD4F880331A6A002A49
:109E3000FCD1E5E7991A0120961A01202DE9F0419D
:109E40000546884617461E46304C94F84C030428B5
:109E500039D0082807D1D4F84433AB4206D0FEF7F6
:109E600081FF0228F1D00120BDE8F081FC23D4F865
:109E7000802384F8F438117B254BC3F82C8051B132
:109E8000526942B194F80824002A0CBF4FF4807242
:109E90004FF4007201E04FF480725A631D491E486E
:109EA0000FF0C2FF012206230020C4F82883C4F863
:109EB0002C53C4F83473C4F8386384F8302384F81E
:109EC0004C33BDE8F08194F8423353B9690218204D
:109ED000FFF7A4FB38B994F84C33082BC6D0FE2307
:109EE000C5E72946F3E7D4F88023136A002BFCD199
:109EF0000A2010F0B1FED4F8883313B11A689B8899
:109F00009361FEF79BFD0320AEE700BF28170120F9
:109F10000000012004000120A81A012070B5224E83
:109F200005460C4696F84C33042B09D0082B1FD15C
:109F3000D6F84433834235D0FEF714FF022817D1F8
:109F400000213720FFF76AFB21461720FFF766FB49
:109F5000B0B996F842336BB969021920FFF75EFB7E
:109F600070B908230220C6E9D15486F84C3370BD7D
:109F7000012070BD29461920FFF750FB0028F0D0C2
:109F8000D6F88023136A002BFCD10A2010F064FE5F
:109F9000D6F8883313B11A689B889361FEF74EFD9B
:109FA000032070BD022070BD281701202DE9F84361
:109FB000224D80468946174695F84C431E46042C90
:109FC00008D0082C02D00020BDE8F883FEF7CAFEB6
:109FD0000228F8D195F84233B3B141461120FFF77A
:109FE0001DFBC0B90522D5F820340120C5F82893FF
:109FF000C5F82C83C5F83473C5F8386385F84C234D
:10A00000C5F83C33BDE8F8834FEA48211120FFF73B
:10A0100005FB0028E6D0D5F880331C6A002CFCD163
:10A020000A2010F019FED5F88833002BCBD01A681F
:10A0300020469B889361BDE8F88300BF2817012064
:10A0400070B5044690F8210100B970BD10F0C2FA55
:10A0500021460546A8B126220023C2800D4A41F8B8
:10A060000C2F1A4644F09EFDAB884FF00042B3FA25
:10A0700083F332FA03F3E8D007490A6813430B600D
:10A0800070BD044C0346024641F80C4FBDE87040D9
:10A0900044F088BD518C0008003C014090F8DB3052
:10A0A000052B03D890F81E31032B01D000207047F8
:10A0B00090F8233103F0FB03022B0CBF0020072094
:10A0C000704700BF30B490F8443000F10801484AAE
:10A0D000012BC2F8F8186ED083684649DC68464DFB
:10A0E00024F46004AB42DC60DC6844F46004DC60AF
:10A0F0009C6B24F440149C639C6B44F480149C631C
:10A100009C6B24F4F8449C639C6B44F488449C63EB
:10A110009C6824F470249C609C689C609C6824F477
:10A1200040149C609C689C605C6824F480645C6063
:10A130005C6824F480545C605C6901EA0401596144
:10A140005969596147D0DC682A4924F0E064DC6031
:10A15000DC6844F0E064DC609C6B24F440149C6395
:10A160009C6B44F480149C639C6B24F478249C6363
:10A170009C6B44F410249C639C6824F470249C60C1
:10A180009C689C609C6824F440149C609C689C6063
:10A190005C6824F480645C605C6824F480545C60D7
:10A1A0009C692140144C9961A3429969996118D026
:10A1B000002380F844301148114B848DC18D408DAF
:10A1C000091BC2F80049C2F8FC0893FBF1F330BC4C
:10A1D000C2F8043970470B4C616841F400016160BA
:10A1E000B1E708494B6843F400034B60E0E700BF68
:10A1F0002817012000F0FFFF00200140007AF01F27
:10A200008038010000230140704700BF01483AF048
:10A2100079BE00BF44200120084810B4D0F81C3992
:10A22000D0F8504999691A682CB1234600F61C10E1
:10A230005DF8044B18475DF8044B70472817012060
:10A2400001483AF05FBE00BFA4200120084810B4C6
:10A25000D0F87C39D0F8B04999691A682CB12346F6
:10A2600000F67C105DF8044B18475DF8044B70470E
:10A270002817012001483AF045BE00BF0421012003
:10A28000084810B4D0F8DC39D0F8104A99691A6837
:10A290002CB1234600F6DC105DF8044B18475DF83E
:10A2A000044B70472817012030B40469002341682B
:10A2B0004025E46882690C315462446995605360BA
:10A2C00093631160C2E90333C2E90533C2E907337E
:10A2D000C2E90A33C2E90C3384B1C269E06893630E
:10A2E00050621160C2E90133C2E90333C2E90533A8
:10A2F000C2E90733C2E90A33C2E90C3330BC704704
:10A30000114A037A0168D35C10B4CC58CA1824F0FF
:10A310000104CC501368DB07FCD4037D1F2B09D943
:10A32000203B20225DF8044B02FA03F343F01803AC
:10A33000CB60704720225DF8044B02FA03F343F030
:10A3400018038B60704700BF94C30508F0B506681A
:10A35000356A00295CD12F68AC68D6F818E0002F68
:10A360005FD0364B3B40B3F1005F61D007F01F0177
:10A3700004F11F0327F01F02194421F01F01BFF34E
:10A380004F8F00290BDD114402F12003DFF8B0C02C
:10A390008B42CCF868221A4603F12003F8D1BFF3B0
:10A3A0004F8FBFF36F8F03684FF48062CEF8047055
:10A3B000CEF814205B69CEF8204043B36868F66994
:10A3C000002837D01D4B0340B3F1005F1AD000F0D6
:10A3D0001F0220F01F011F32224422F01F02BFF390
:10A3E0004F8F002A0ADD0A4401F12003144D9A42DE
:10A3F000C5F87012194603F12003F8D1BFF34F8F4F
:10A40000BFF36F8F4FF48063706073613462F0BD8F
:10A41000EC69002CFBD06F691435D6F818E0002FDA
:10A420009FD1084A3346CEF81470CEF80420C1E715
:10A430003346B9E7044B70617360E7E70000FFFF44
:10A4400000ED00E00000002004000020F8B50768DF
:10A450000646D7E90454002C50D0A0612B7D1F2B59
:10A4600039D82022286802FA03F343F018038360E6
:10A47000237D1F2B3AD92022203B02FA03F32268C6
:10A4800043F01803D3606368002269680A601A60A9
:10A490001A6842F010021A60BA69297A46F098FBED
:10A4A000FA69217A206846F093FB2A7A2A492F68B4
:10A4B00033688D5C5A687B59206843F001037B51F7
:10A4C000237AC95C435843F001034350536843F077
:10A4D00003035360F8BD203B2022286802FA03F3EF
:10A4E00043F01803C360237D1F2BC4D8202202FA37
:10A4F00003F3226843F018039360C4E72A7D6B6876
:10A500001F2AA8611FD82021286801FA02F242F010
:10A51000180282600021BA691960196841F01001BF
:10A520001960297A46F054FB2A7A0B493368286867
:10A53000895C5A68435843F001034350536843F021
:10A5400002035360F8BD203A2021286801FA02F284
:10A5500042F01802C260DDE794C3050810B1036839
:10A5600082889A61704700BF18B1838802681B0413
:10A570009361704708B51D2010F02CF808B183795D
:10A580004BB11E2010F026F808B1837903B108BD45
:10A590005523C38008BD5523C380F2E7D3B2012BF6
:10A5A00023D802EB42024FF0000C70B54FEA820E46
:10A5B0000F4C634622460EF1080504E00133182BC8
:10A5C00011D012F81CCF6045F8D192F801C08C452B
:10A5D000F4D15659002EF1D0C3EBC3030EEB830325
:10A5E0000433E01870BD002070BD0020704700BF2C
:10A5F000B051050810B40C4C002304F6882C01E07F
:10A60000152B0CD003EB430201331CF802108142DE
:10A61000F6D122445DF8044B92F98A0A70474FF054
:10A62000FF305DF8044B704728170120D3B2022B8E
:10A6300021D802EB4202002330B54FEA820C0F4DC5
:10A640000F4C2A460CF10C0E04E00133172B10D0EE
:10A6500052F82C4FA042F8D114798C42F5D152F81F
:10A660000E40002CF1D02C2202FB03C30833E81863
:10A6700030BD002030BD0020704700BFC04C050831
:10A68000000001400248436E0BB154301847704738
:10A69000000001200348D0F888300BB1783018470B
:10A6A000704700BF000001200348D0F8AC300BB168
:10A6B0009C301847704700BF000001200348D0F8C5
:10A6C000D0300BB1C0301847704700BF00000120E8
:10A6D0000348D0F8F4300BB1E4301847704700BF9E
:10A6E000000001200348D0F8183113B100F5847040
:10A6F00018477047000001200348D0F83C3113B1DF
:10A7000000F5967018477047000001200348D0F804
:10A71000603113B100F5A8701847704700000120A0
:10A720000348D0F8843113B100F5BA701847704768
:10A73000000001200348D0F8A83113B100F5CC7017
:10A7400018477047000001200348D0F8CC3113B1FE
:10A7500000F5DE7018477047000001200348D0F86C
:10A76000F03113B100F5F070184770470000012078
:10A770000348D0F8143213B100F501701847704740
:10A78000000001200348D0F8383213B100F50A70F8
:10A7900018477047000001200348D0F85C3213B11D
:10A7A00000F5137018477047000001200348D0F8E7
:10A7B000803213B100F51C7018477047000001206B
:10A7C0000138064B064A00EBC00003EB8000406DE9
:10A7D00090420CBF9520962044F040BA0000012022
:10A7E0000060024001382DE9E84100EBC000124D45
:10A7F0001E46124B05EB800590460F46686D984249
:10A800000CBF9520962044F029FA95F969004FEA8B
:10A8100098116F66EE6644F095F995F96930002B52
:10A8200007DB03F01F0001225B090549824041F864
:10A830002320BDE8E88100BF000001200060024045
:10A8400000E100E0800AA0F58010522808D8054BEE
:10A85000184490F8F4330D2B02D8034AD0567047B1
:10A8600000207047C04C050884C305080120FEF78E
:10A87000B9BA00BF0220FEF7B5BA00BF0420FEF748
:10A88000B1BA00BF0820FEF7ADBA00BF1020FEF736
:10A89000A9BA00BF4FF47870FEF7A4BA4FF47C4019
:10A8A000FEF7A0BA30B1036882881B691A4214BF50
:10A8B00001200020704700BF2DE9F04F884683B08B
:10A8C00004461746002800F0BC8002685E4B134423
:10A8D0009B0A5E4AC8F3411B134493F8900744F067
:10A8E000BDF9C8F38103B4F804E008F00302256859
:10A8F00001939EFAAEF0B0FA80F002F1FF3A3EFA10
:10A9000000F35ED00126032103E001303EFA00F39C
:10A9100057D006FA00F313EA0E03F6D0D5F80090EC
:10A9200093FAA3F4B4FA84F493FAA3FCBCFA8CFC73
:10A930006400BAF1010F4FEA4C0C01FA04F402FA78
:10A940000CFC29EA040444EA0C042C6049D9D5F82B
:10A950000C9093FAA3F4B4FA84F493FAA3FCBCFA2F
:10A960008CFC6400022A4FEA4C0C01FA04F40BFA46
:10A970000CFC29EA040444EA0C04EC60C5D193FA07
:10A98000A3FCBCFA8CFC1C0ABCF1070F41DC2C6A4E
:10A9900093FAA3FCBCFA8CFC93FAA3F34FF00F09D3
:10A9A000B3FA83F34FEA8C0C01309B0009FA0CFCDC
:10A9B00007FA03F324EA0C0423432B623EFA00F364
:10A9C000A7D1BAF1010F09D86B68C8F3001823EAC0
:10A9D0000E030EFB08FE4EEA03036B6003B0BDE8F6
:10A9E000F08FD5F8089093FAA3F4B4FA84F493FAAC
:10A9F000A3FC6400BCFA8CFC01FA04F44FEA4C0C92
:10AA000029EA0409019C04FA0CFC49EA0C04AC6034
:10AA10009DE7D5F824C094FAA4F9B9FA89F994FA13
:10AA2000A4F30F24B3FA83F34FEA89099B0004FAD5
:10AA300009F907FA03F32CEA090C4CEA03036B62E9
:10AA400063E74FF0FF3344E70000FEBFC04C05084A
:10AA500000B131E770472DE9F84FC04F602306463B
:10AA600003FB0073D3F80849002C00F06B81D3F886
:10AA700010A9BAF1000F04D09AF80630002B40F06C
:10AA80006181602303FB0673D3F814591DB1AB79C0
:10AA9000002B40F05781731CDBB2BAF1000F04D0D9
:10AAA00015228AF807308AF8062015B11622EB71B4
:10AAB000AA714FF06009207C44F0D0F8294609FBC8
:10AAC00006F9504646F0F6FE042207EB0908504608
:10AAD00098F81839002B14BF3E211E21FFF7B8FF4C
:10AAE00098F8183928469E4D002B4FF004024D442B
:10AAF00014BF3E211E21FFF7ABFF4C220021284648
:10AB000049F022FFD8F808399FED967AB0EE084A4E
:10AB10005B68F7EE003AB8F81A994FF0000EC8F8E3
:10AB20001C3940F21458904B9FED905A9A68904B04
:10AB3000C2F38222134493F89827D7F82433D340E2
:10AB400007EE903AF8EE677AC7EE275A07EE909A2A
:10AB50009FED887AF8EEE77AC7EE274ADFED867A2E
:10AB6000B0EE007AE5EE877AA5EE875A25EE844AA4
:10AB700037EE856A74EEE72AB9F5C87F0EF1010C4D
:10AB8000D5BF642332234FF49670782007EE90CA25
:10AB9000D8BF4FF4167A0344C8BF4FF4827AB8EE98
:10ABA000E77AD8BF414607EE903AC8BF4FF4FA7132
:10ABB00027EE257A01EB0A03F8EEE76A86EE873A7C
:10ABC00073EE636AFCEEE67A17EE902A07EE90AA1F
:10ABD000B8EEE73A07EE903AF8EEE77A23EE243A39
:10ABE000C3EE276A36EEC53A72EEE66AC3EE077A1E
:10ABF00077EEE37AFCEEE77A17EE901AC6EE877AE4
:10AC000077EEE37AFCEEE77A17EE903A03F1020A68
:10AC10000AEB010BF0EE466A07EE90BAF8EE677A9F
:10AC2000E7EE276AF4EEE64AF1EE10FA00F38E80C2
:10AC30005FFA82FABAF10F0F00F28A80323807EE1B
:10AC4000900AF8EEE77A77EEC47AC7EE876AFCEEF0
:10AC5000E67A17EE900A5FFA80FABAF10F0F77D80A
:10AC60001FFA81FABAF1FF0F72D81FFA83FABAF10C
:10AC7000FF0F6DD812054AEA0E7302F07F620004DE
:10AC8000134300F47F003D4A034302EA01210B43D2
:10AC9000602000FB067600272846C6F820390123ED
:10ACA000C6F82479C6F82839C6F82C79C6F8307960
:10ACB000C6F83879C6F83C7946F0E2F996F85D397D
:10ACC000202BD9B21AD196F85C39012B16D0242347
:10ACD00086F85D39D6F81C391A6822F001021A602C
:10ACE0001A6822F480521A601A681A601A6842F0D0
:10ACF00001021A6086F85D1986F85C79002194F9E2
:10AD0000120043F01FFF94F91230A27C002B07DBE6
:10AD100002F01F0101225B098A40194941F82320F2
:10AD2000002194F9110043F00DFF94F91130627C79
:10AD3000002B07DB02F01F0101225B098A4010494A
:10AD400041F82320BDE8F88FE64615E701315FE7BB
:10AD5000BCF10F0FF8D100239AE700BF281701209C
:10AD600044200120286B6E4E00380240000016433C
:10AD7000C04C0508002474490000704200FFFF0029
:10AD800000E100E02DE9F047814DC0EB001605EB36
:10AD9000C606D6F8C83A002B00F0B8800446070172
:10ADA00096F8380B43F05AFF96F8383B012203F02F
:10ADB0001F015B09013B8A40032B0AD8DFE813F02F
:10ADC000DC000400E200D60072494B6A23EA02026A
:10ADD0004A623B1B04F1010905EBC3035FFA89F9E1
:10ADE00093F8CC0A0FF0F6FB064618B1122380F850
:10ADF000079083713B1B05EBC30393F8CD0A0FF05B
:10AE0000E9FB824618B1132380F8079083713B1B3E
:10AE100005EBC30393F8CE0A0FF0DCFB804618B1B4
:10AE2000142380F8079083713C1B50462E2105EBBC
:10AE3000C40595F8D02AFFF70BFE95F8D12A0E210C
:10AE40004046FFF705FE95F8CF2A2E213046FFF742
:10AE5000FFFDD5F8C83A50491A688B4222F04002EB
:10AE60001A6055D04D4A934269D002F580629342F0
:10AE700058D1484A116A41F400411162116A21F423
:10AE8000004111625A6842F480525A601A685206B0
:10AE900034D443491E68D1F8A842D1F8B402D1E9AC
:10AEA000A525B0F5005F42EA0502D1F8A05242EABA
:10AEB0000502D1F8A45242EA0502D1F8AC5242EAA6
:10AEC000040242EA0502D1F8B05242EA0502354DC9
:10AED00042EA000205EA060542EA05021A60D1F8D4
:10AEE0009C225D6842EA14422F4C04EA050442EABF
:10AEF00004025A6002D1B1F8B8221A61DA6922F468
:10AF00000062DA611A6842F040021A60BDE8F08718
:10AF1000204A516A41F480515162516A21F48051B2
:10AF20005162AFE7214A934213D11A4A516A41F460
:10AF300000515162516A21F400515162A2E7154A51
:10AF4000116A41F480411162116A21F48041116259
:10AF500098E7174A934295D10E4A516A41F48011FD
:10AF60005162516A21F4801151628BE709490B69E2
:10AF700023EA02020A612CE706494B6923EA02022E
:10AF80004A6126E703490B6A23EA02020A6220E7C4
:10AF900028170120003802400030014000380040EE
:10AFA000000001204000FFFFFBF0FFFF00340140E4
:10AFB0000050014008B100227EE470472DE9F047BF
:10AFC000CB781BB900273846BDE8F08700F11008A0
:10AFD0000D460646897840460EF0AAFD0746002831
:10AFE000F0D0E8780FF0F6FAB0612B780133DBB2DD
:10AFF00010B1C371222383710D21DFF89C90FFF7FC
:10B00000D9FFB069FFF7AAFAD9F82034632BFBD92E
:10B010001F480EF079FDDFF884A01E4CB08202E0DC
:10B020005AF8044B8CB14046A0470028F8D0336949
:10B0300086F8D8001B78012B24D0022BC3D199F8B5
:10B04000A83C013389F8A83CBDE7E8780FF0C2FAC4
:10B05000D9F8C0780646002FB4DDDFF8448002E05E
:10B060000134A742AED004EB440518F805000FF0F8
:10B07000B1FA8642F4D1214608EB050000270FF013
:10B08000EBFAA0E799F8A93C013389F8A93C9AE7C3
:10B0900040420F005122040828170120645405087B
:10B0A000EC1F012070B50E4CD4F81C6F002E15DD7E
:10B0B00004F58764002503E0B54204F120040DD0B7
:10B0C000237F0135002BF7D0E06800220028F3D061
:10B0D000217D2034FFF7F0FBB542F1D1012070BD96
:10B0E00068010020AB4B2DE9F04F91B093F8BE8C76
:10B0F000A94B0025A94F0093A94BA3F68C0ADFF8B2
:10B10000B892DFF8B8B24E46B30AA3F58013522BBB
:10B1100055D8534493F8F4330D2B50D8B8F1010FA0
:10B12000FC5640F01E81012C3FD14FF000094946EA
:10B13000204610F0ADF810F033F990F800C0BCF1E3
:10B14000000F18BFBCF1540F14BF4FF0010C4FF0AB
:10B15000000C40F0028109F104091FFA89F9B9F1E4
:10B16000100FE4D1002D00F0BA808B4A00210DE0D1
:10B17000534493F8F4330D2B0FD8FB56A3420FD052
:10B18000013102F58672A94280F2A58090680368B9
:10B190009B0AA3F58013522BEAD90023A342EFD1D7
:10B1A00043799BF805009842EAD17D4B5B4513D06B
:10B1B0005BF81C6FB30AA3F58013522BA9D9B8F121
:10B1C000010FF2D001230024B8F1020FADD1002B02
:10B1D000ABD0734B5B45EBD1009B013503F5867318
:10B1E000042D00938BD1DFF8D8814FF0000B08F5C8
:10B1F0009E77A8F5876ADAF81C3F5B4568DDD8F8CA
:10B200000C60002E64D098F81030B088D6F800900A
:10B21000DAF8045063490193B0FA80F34944002DF1
:10B220000293C3F11F034FEA9121009340F3CD80B5
:10B23000594B002405E0013403F58673AC4200F05D
:10B24000C1801A688A42F6D14FF48673524A03FBD2
:10B250000424009A0BF1010B019B5100C8F8042053
:10B2600088F810300323C8F80C6003FA01F5C8F819
:10B270001840B371012386F807B01646A26C03FA92
:10B2800001F12A43A264226D0A4322659AF8002044
:10B29000002A6BD003FA06F11A46636D0B4389B29C
:10B2A0006365C9F81800D4F8AC00FCF725FF204608
:10B2B00008F12008FCF7F4FE0123BBF1080F07F1A9
:10B2C000180708F8043C08F8033C07F8073C92D13B
:10B2D00011B0BDE8F08FBCF1000F7FF466AF5846A7
:10B2E000FCF7A2FE9BF80540C3B2022B00F24B8391
:10B2F000431C2D4A5BB203EB430398002B4B03F531
:10B30000727104E0994200F03E8353F82C2FB24250
:10B31000F8D11A79A242F5D11A58002AF2D09446EF
:10B320000023234A51680133614513D0102B02F1E9
:10B330002402F7D14FF0FF3303EBC3031D4A02EBA6
:10B34000830393F87030002B7FF42FAF009BC3F87A
:10B3500008B041E7DBB2013BEEE7002D7FF405AF1B
:10B3600023E7B4F1080318BF01232DE70299000475
:10B37000C1F12F05009903FA01F1AB40656D89B267
:10B380002B436365C9F81800D4F8AC00FCF7B4FE91
:10B390008DE700BF281701207001002084C3050835
:10B3A0004C5505080000FEBF00000140C04C0508D8
:10B3B0005400012000000120000401406C540508E5
:10B3C000A0050020032C00F398824FF4867303FB42
:10B3D00005A31869002800F0C08299600131CAB243
:10B3E00083F811210492542283F810216B1C026807
:10B3F000CAF8043044790392FCF716FEA04B864647
:10B4000093F8D53C0593C3B2022B00F2BC8200F145
:10B41000010C9C499C4800234FFA8CFC039A0CEBCE
:10B420004C0C4FEA8C0C05E00133172B00F0AB827B
:10B4300051F82C0F9042F7D10879A042F4D151F87D
:10B440000C000028F0D02C210EEB4E0E002401FB46
:10B4500003F303EB8E0E8B4B734419694FF4867321
:10B4600003FB05A3C3E90701884B9C46DCF80410E5
:10B47000884217D001340CF1240C102CF6D1844BE7
:10B4800093F84C20002A00F06182824B8248834965
:10B49000834AC3F84804C3F84014C3F8502411B0D9
:10B4A000BDE8F08F611C7A48C9B2013901EBC101D6
:10B4B00000EB810191F8700006900028E5D1049816
:10B4C0004FF08C0C81F871004FF4867000FB05F48E
:10B4D0002046542481F8704004468110714803943A
:10B4E000544400FB01F1C4F800C101FB0CF001EB76
:10B4F0004101C4F80C9001EB011C6B4901EB4000C9
:10B50000A1F54C7101EB8C01C4F8FC00C4F8B41037
:10B510003321C4F8B8106549039C0C195849D1F877
:10B5200024930599062900F00D8207296048614996
:10B53000DFF888E10CBF84468C465F4908BF71463E
:10B5400010460593039BB9FBF1F1B9FBFCFC4A1EC5
:10B550004FF486790CF1FF3192B209FB05A9A9F8E5
:10B56000BC1003F15801A9F87420504B2266002248
:10B570001944A4F858206266E26545F0C1F9D9F88B
:10B58000103018680493026842F0800202605A7911
:10B59000059B0C2A08D8DFE802F06B070707640751
:10B5A00007075C07070754004FF4867202FB05A2E9
:10B5B00051694FF0600C02684FF000094FF0020E25
:10B5C000CDF820C04FF4807C22F00102CDF8289005
:10B5D000CDF838C04FF0010CCDF83490CDF824C030
:10B5E0004FF00A0CCDF83C900593CDE90BCE0260EC
:10B5F00008AA45F043F84FF48672049B02FB05A2AB
:10B6000019685269059B012A5AD0042A58D0102A79
:10B6100000F0A881402A53D0B2F5807F00F0A581C8
:10B62000B2F5806F00F0A181B2F5805F00F0A381D8
:10B63000B2F5803F4FF03C090CBF08224FF4006286
:10B640003FE04FF486724FF4805102FB05A2516136
:10B65000AFE74FF486724FF4807102FB05A251618F
:10B66000A7E74FF48672102102FB05A25161A0E703
:10B670004FF48672012102FB05A2516199E700BFD8
:10B6800028170120C04C050800000140540001208B
:10B690000000012060120020CD7A0108C97A01085B
:10B6A000D57A01086B4CA407F01900207001002026
:10B6B0001055220044950800D0DD060040771B009D
:10B6C000082201F1180050F809C042EA0C0240F8C3
:10B6D0000920049A1079002840F01B814FF48671EC
:10B6E000002201FB05A1D1F810C0C869DCF800C038
:10B6F000DCF8001041F00101CCF80010596801326B
:10B70000884200F00281102A03F12403F6D14FF0A1
:10B71000FF339E4A03EBC30302EB8303586D9C4B3C
:10B7200098420CBF9520962043F098FA4FF4867308
:10B7300003FB05A31A6953790C2B00F2E3809549AA
:10B7400001EB4303B3F8A8C84FF48673106892491D
:10B7500003FB05A3A3F818C0002306E0904200F005
:10B7600008810133042B00F00B8151F83320002AAB
:10B77000F4D1DAF8202F0132CAF8202F0AEBC302E5
:10B78000DB00C2F8240F1944069823469022B1F832
:10B7900004E0DFF818924CEA0E0CA1F804C07F49CF
:10B7A000FFF720F84FF486734FF4403C402103FB31
:10B7B00005A50023E869026842F0100202600268F1
:10B7C00042F014020260C4F8A830C4E91F33C4E98F
:10B7D000283304232A6AC4F898C04FF4804CC4F874
:10B7E0009C304FF48063A167C4F88430C4F894207F
:10B7F000D5F8B820C4F89020C2B220F0FF00103A6B
:10B80000A9FB0231EA68039B1832090922674FF449
:10B810008052C4F8882003F17002614B1A44D5F8B5
:10B82000B430C4F88CC0636745F0D2F9E869039B73
:10B830004FF40031D0F800E04FF4006C03F1B8028F
:10B84000574BC4F820E0D0F814E01A440023C4F8A1
:10B8500024E0D0F804E0C4F828E0D0F808E0C4F808
:10B860002CE0D0F80CE0C4F8C830C4F830E0C4F8DC
:10B87000F030C4E93033C4E93A332B6A039304232C
:10B88000C4F8E4304FF48063C4F8CC30039BC4E9BF
:10B890003731D5F80031C4F8D830C3B220F0FF00FA
:10B8A000103BA9FB0331EB68C4F8D0C01033090981
:10B8B000C4F8B830D5F8FC3003934FF48043C4F893
:10B8C000D430039BC4F8BC3045F082F9EB69B088F2
:10B8D0001A68D6F8009062635A69A2635A68E263F4
:10B8E0009A682264DA6862641A6842F010021A6088
:10B8F0001A6842F014021A60ABE40323294A82F862
:10B90000D43CC2E54FF0000C1EE7D3B20693013BD6
:10B91000FFE6079305910EF05DFE05998146079BB2
:10B9200058B105930221049BDA79FEF7C5FF049B09
:10B930005422A9F806201968059B4A6C42F400427B
:10B940004A64CBE6DFF868C01749F9E50499542248
:10B9500083F84D1083F84C2097E50223114A82F8B2
:10B96000D43C92E54FF40062ABE608224FF00409A4
:10B97000A7E6DB0007E74FF400624FF00409A0E6FA
:10B9800000239B88FFDE00235B68FFDE00000120B0
:10B9900000600240C04C05088C1000204581000862
:10B9A0007001002028170120A0BB0D00ABAAAAAA95
:10B9B000882A11002DE9F84F704E0022704B054681
:10B9C000D6F8D84C5968013224338C4200F0B0804C
:10B9D000102AF7D100246B4B9D4205D048339D427D
:10B9E00002D00020BDE8F88F04F1FF39664F09EB63
:10B9F000C9034FEAC90807EB830393F87020002AB4
:10BA0000EFD14FF0170BA3F870B0002CE9D0DFF89E
:10BA100090A10120DAF8243043F40063CAF82430FE
:10BA20000FF0C8FADAF82430012023F40063CAF8D2
:10BA300024300FF0BFFAA6F82ABEDAF8443043F4F7
:10BA40000063CAF84430DAF8303043F48003CAF8AF
:10BA50003030DAF8303043F00C03CAF8303096F862
:10BA6000DE3C002B66D10C220E214848A6F84ABEC7
:10BA7000A6F87ABEFEF720FF0C220E214448FEF7FE
:10BA80001BFF0C220E214348FEF716FF424BDA68DB
:10BA9000C6F8D85CC2F30222C2F10701131D0429C3
:10BAA00028BF0421062B4FF0FF338CBF033A00223E
:10BAB0008B403A49DB4303F001039340384A1B01B2
:10BAC000DBB281F831334FF400334B60136B43F436
:10BAD0008003136300232B60324BAB6003F59B3371
:10BAE00003F5EC739D4244D02F4B4FF47412DA608F
:10BAF000C8442E4B07EB8807786D98420CBF952001
:10BB000096202B4B2B6007236B6143F0A7F8D6F8E8
:10BB1000D82C1C4B20469A424FF000034FF00102F4
:10BB20000CBF24492449FEF75DFE0120BDE8F88FD3
:10BB3000D4B250E70C220E211448A6F832BEA6F863
:10BB40003ABEA6F842BEA6F84ABEA6F87ABEFEF7EE
:10BB5000B3FE0C220E211948FEF7AEFE0C220E2178
:10BB60001748FEF7A9FE0C220E211648FEF7A4FE88
:10BB700082E74FF0746243F8502CB9E72817012090
:10BB80005400012058640240000001204C2501208F
:10BB90006C2501209C25012000ED00E000E100E083
:10BBA00000380240802C01400064024000600240E6
:10BBB0006054A30825C80008EDC8000854250120DA
:10BBC0005C25012064250120F8B590F8B2311C09EC
:10BBD000013C052C0FD81B4E054603F00F0306EB66
:10BBE0004402B2F8C40840FA03F2D20703D595F82C
:10BBF000BD71012F01D00120F8BD07FA03F33444D1
:10BC0000013B184047F038F994F8D02813180E4A31
:10BC100002EBC30152F833208B8810691840EBD037
:10BC2000002395F8B3210846022185F8BD31FEF7BF
:10BC300043FED5F820213846136843F0080313600B
:10BC4000F8BD00BFC04C05080C24012070B5037975
:10BC50008AB0344C002B14BF0122002284F87823D0
:10BC600003D184F84C330AB070BD04F56076054604
:10BC700090F9001030460DF05BFFAD78002D44D1F7
:10BC800001232949294A84F88C33D4F82433C4F891
:10BC90001424B1EB930FC4F888534FEA93024FF08A
:10BCA000020306D252085B008A429BB201D9FF2BE5
:10BCB000F8D94FF47A70A4F884330FF07BF9D4F8F4
:10BCC000883313B11A689B889361194DEC460FCDE8
:10BCD000ACE80F000FCDACE80F0095E803008CE84E
:10BCE0000300694630460EF09FF8D4F88023136AAB
:10BCF000002BFCD1D4F82014012284F84033C4F87E
:10BD00003C1384F84C230AB070BD28460EF062FC48
:10BD100005460028B4D01E2300220D21C380FEF763
:10BD2000CBFDADE728170120801A0600501A01202C
:10BD300098550508014B43F82010704750280040E3
:10BD40001D4B1E48196C1E4A41F0805130B41964D5
:10BD500082B0196CFF2401F08051019101990168B2
:10BD600041F480710160CA20196C41F4806119644A
:10BD7000196C01F4806100915321009D546250625E
:10BD800051625B6FDB000DD40E4B00210E4A43F86D
:10BD9000041B9342FBD10D4B0D4AC3F8502802B04F
:10BDA00030BC7047094A0A4BD2F850289A42EBD16E
:10BDB00002B030BC704700BF003802400070004045
:10BDC00000280040542800406C280040002000401B
:10BDD000316665422DE9F04F0646086883B0850A52
:10BDE000BDF83040A5F580159DF8349001940C46BF
:10BDF000522D59D8DFF82883454495F8F4530D2D7A
:10BE000052D81946FDF700FB21686279B9F1000F9D
:10BE10004DD18B0A94F806B0A3F58013DC46522B63
:10BE20004ED9BC4B1CF0020F00F0CD8002F01F0772
:10BE300003EB8512AD01D2F8F0040422BA40076A80
:10BE400027EA02070762076A3A430262426C42F439
:10BE500000424264B04A87683A40062A06D0B2F5EA
:10BE6000803F03D0026842F0010202605A190220AA
:10BE700082F82D05D2F8F004A74A87683A40062ACE
:10BE800006D0B2F5803F03D0026842F001020260A2
:10BE90002B44012283F82D2501F13402637971606E
:10BEA0000021D0183060D15003B0BDE8F08F8B0A6C
:10BEB00094F806C0A3F580138CF0010B522BB0D878
:10BEC000434493F8F483934BB8F10D0FAAD84FEA8B
:10BED0004B0003EB881E4FEACB0B00F002000BF087
:10BEE000080A4FEA881B9EF82C85B8F1010F99D0FB
:10BEF0004FF001088EF82C854FF002088EF82D8542
:10BF0000142A53D8DFE812F08C015200520052007C
:10BF100051015200520052001401520052005200CE
:10BF2000C7005200520052008900520052005200D5
:10BF3000150003EB0B0EDFF8EC81DFF8E0A1DEF873
:10BF4000F0E4DEF82090D64529F48019CEF8209050
:10BF5000DEF8209029F4001949EA0050DEF8049038
:10BF6000DEF8547007EA080848F4C04800F09681EB
:10BF70000AF5806AD64500F09181019FCEF80490C1
:10BF8000CEF85480CEF85C70CEF82000DEF8540075
:10BF900040F40060CEF85400DEF8540020F48060D5
:10BFA000CEF85400DEF85400CEF8540003EB0B003A
:10BFB00001271CF0020F80F82D754FF0000780F864
:10BFC0002C757FF433AF03EB8510012702F01F02BD
:10BFD000AD01D0F8F00407FA02F2076A27EA020777
:10BFE0000762076A3A4302624C4A90420AD002F55D
:10BFF0008062904206D08768474A3A40062A7FF41A
:10C000002EAF33E7426C42F400424264424A8768F2
:10C010003A40062A7FF423AF28E703EB0B0EDFF844
:10C020000881DFF8F8A0DEF8F0E4DEF82090D645CD
:10C0300029F48039CEF82090DEF8209029F40039D8
:10C0400049EA0040DEF80490DEF8547007EA080878
:10C0500048F0600800F01F810AF5806AD64500F0BC
:10C060001A81019FCEF80490CEF85480CEF8587013
:10C07000CEF82000DEF8540040F00800CEF854005E
:10C08000DEF8540020F00400CEF85400DEF854002E
:10C09000CEF854008AE703EB0B0EDFF89080DFF850
:10C0A0007CA0DEF8F0E4DEF82090D64529F4805933
:10C0B000CEF82090DEF8209029F4005949EA0030AB
:10C0C000DEF80490DEF81C7007EA080848F4C0485F
:10C0D00000F0F0800AF5806AD64500F0EB80019F01
:10C0E000CEF80490CEF81C80CEF84070CEF8200038
:10C0F000DEF81C0040F40060CEF81C00DEF81C00E6
:10C1000020F48060CEF81C00DEF81C00CEF81C0085
:10C110004CE700BF28170120070001000000014084
:10C12000C04C0508FF8FFFFE8FFFFEFFFF8CFFFE58
:10C1300003EB0B0EDFF8AC81DEF8F0E4DEF82090C4
:10C1400029F48079CEF82090DEF8209029F4007947
:10C1500049EA0020DEF80490DEF81C7007EA0808BF
:10C160005F4FBE4548F0600800F09B8007F5806790
:10C17000BE4500F09680019FCEF80490CEF81C805A
:10C18000CEF83C70CEF82000DEF81C0040F008002D
:10C19000CEF81C00DEF81C0020F00400CEF81C00D5
:10C1A000DEF81C00CEF81C0000E703EB0B0EDFF8F6
:10C1B0003881DEF8F0E4DEF8209029F01009CEF89E
:10C1C0002090DEF8209029F0200949EA0010DEF8DE
:10C1D0000490DEF8187007EA0808414FBE4548F49D
:10C1E000C04873D007F58067BE456FD0019FCEF879
:10C1F0000490CEF81880CEF83870CEF82000DEF823
:10C20000180040F40060CEF81800DEF8180020F4A2
:10C210008060CEF81800DEF81800CEF81800C5E6E9
:10C2200003EB0B0EDFF8BC80DEF8F0E4DEF82090C4
:10C2300029F00109CEF82090DEF8209029F00209BB
:10C2400040EA0900DEF80490DEF8187007EA0808F2
:10C25000234FBE4548F060082FD007F58067BE45E4
:10C260002BD0019FCEF80490CEF81880CEF8347011
:10C27000CEF82000DEF8180040F00800CEF81800D4
:10C28000DEF8180020F00400CEF81800DEF81800E0
:10C29000CEF818008AE649F48039E2E649F48029AC
:10C2A0006BE620F4006049F4405940EA0A2020F48B
:10C2B000806060E749F4804911E720F0080049F404
:10C2C00040794AEA000020F00400CAE720F080002C
:10C2D00049F4406940EA0A1020F0400086E700BFB8
:10C2E000000001408CFFFEFFFF8CFFFEF0B504460E
:10C2F000D0F89400434B83B0A16804F1640204F1C8
:10C3000018070E68C1B220F0FF0001921039A3FB9C
:10C310000131090944F0A6FC616D0023019A01294D
:10C3200084F8583018D0042916D0102955D0402947
:10C3300012D0B1F5807F53D0B1F5806F50D0B1F5F8
:10C34000805F55D0B1F5803F4FF03C030CBF6FF0DC
:10C35000080C6FF4006C01E06FF0080C06F1180592
:10C360003046E95801EA0C01E950616D44F086F964
:10C37000636D012B16D0042B14D0102B0FD0402B43
:10C3800010D0B3F5807F2FD0B3F5806F2CD0B3F5EC
:10C39000805F31D0B3F5803F06F1540502D04FF4F1
:10C3A000006100E008212B683A46D4F894000B4362
:10C3B00040212B602162C1B2124B20F0FF001039E6
:10C3C000A3FB0131090944F003FCD4F8942013685D
:10C3D00043F01003136003B0F0BD6FF4006CBDE7D1
:10C3E0006FF0080C0423B9E706F11C050821DAE711
:10C3F0006FF4006C0423B1E706F11C054FF40061F3
:10C40000D1E700BFABAAAAAA2DE9F04FDFF85CB2D2
:10C410009BF800402DED028B87B034B901242046F3
:10C4200007B0BDEC028BBDE8F08F8B4BDFF840A26C
:10C43000D3F8203408EE103A0EF0E0FB9AF8243CD2
:10C440000390002B00F001810BF234670BF63433BC
:10C450000BF63C4400263D4601930597DAF81C3460
:10C46000039AD31A03D4EA6D9A4200F3D08006EB04
:10C4700086030BEB431393F88C3603F0FF02029212
:10C48000002B00F08D80D5F89410AB6873481A68C3
:10C49000CBB221F0FF01103BA0FB030370481B0946
:10C4A000C35C19444B68A9891FFA83FCD368CCF19B
:10C4B000160C23EA0103BCF1070FD36070D9DBF837
:10C4C0003C3B00220121013396468946CBF83C3B98
:10C4D000D5F89C301F46049357F8048B40461CE067
:10C4E000D7F80080BEF1140FA8EB000340461CDC17
:10C4F00013F1080848BF03F117084FEA28130EEBA1
:10C50000281E03F1FF38013102FA03F3043709FA58
:10C5100008F28C4542EA030207D38C45E0D8CEF1FD
:10C52000150338684FF0150EEBE7BEF1150F65D116
:10C530004C49C2F38423C2F3441001EB830301EBA3
:10C540008000D3F80039D0F800091B0243EA001339
:10C5500002F01F00C2F3C43201EB800001EB820243
:10C56000D0F80019D2F800290B4343EA023383EADA
:10C57000132282EA121202F00F020F2A3ED1C3F3F5
:10C580000F134FF6FF72934238D0B3F5606F45D06A
:10C59000019A9381029918EE102A20460DF05AFA5A
:10C5A000019B284601365C341433A0350193FFF714
:10C5B0009DFE9AF8243CB3423FF750AF0122059FFD
:10C5C0008BF8382C0022CAF81C24002B3FF426AF2D
:10C5D00003EB830307EB43133A7CA03757F84C0C6B
:10C5E00012F0020F57F8982C11680A6A14BF42EA39
:10C5F00080020243BB420A62EED10FE7DBF8383B10
:10C600000133CBF8383BCEB100230293C2E70024BC
:10C61000204607B0BDEC028BBDE8F08F0E4991F8C3
:10C62000E02402EB420201EBC202324492F88D2474
:10C630000D2AADD18023019A9377ABE70499582254
:10C64000094848F059F90296A4E70122CAF81C34B7
:10C650008BF8382CE3E600BF28170120ABAAAAAA62
:10C6600094C30508C04C0508480D0020680100204F
:10C67000601200204A1C4FF4003310B408BF4FF082
:10C68000800C4C4C18BF4FF0450C00E0FBB1626BC6
:10C69000013B12EA0C0FF9D0002923DD626B52072F
:10C6A0001CD403291ED0434A536B13F0010320D13D
:10C6B000022908D01369DBB283421ED101295369D4
:10C6C0002BD006291BD000205DF8044B70470029B1
:10C6D00004DD636B5C0701D40329E4D103205DF81A
:10C6E000044B7047002B5DF8044B14BF002003205F
:10C6F000704701205DF8044B70471020EFE713F4FA
:10C70000604F02D12C4AC2F8E43F990431D45A0454
:10C71000F3D41B04D7D50F20E1E7284818400028A0
:10C72000DDD0002B29DB5C0025D4980029D4D9006A
:10C7300025D41A0129D45C0125D4D8012FD419029B
:10C74000E9D45A02D9D49C0227D4D8022FD4190391
:10C750000FD45A0329D49C0325D4D80321D4190417
:10C7600019D45A0415D49C0411D41807ABD51A2037
:10C77000B5E71320B3E70920B1E71C20AFE70B2092
:10C78000ADE70A20ABE70D20A9E70C20A7E71920A9
:10C79000A5E71820A3E71720A1E711209FE70E20A7
:10C7A0009DE716209BE7152099E7142097E71220B4
:10C7B00095E700BF002C01402817012008E0FFFD8D
:10C7C000F8B5164DD5F8BC32A3B1D5F8C41204465D
:10C7D000012915D0124B40F2FF500021DA6A22F0F5
:10C7E0000802DA629863C5F8BC12236823F00103DB
:10C7F0002360F8BD0A4AD36B43F48073D363F8BD5A
:10C80000074E40F2FF5700230C20B763B36040F29D
:10C810004C43F360FFF72EFFB763DBE728170120D7
:10C82000002C01402F4B1A68910102D59A6D5207D6
:10C830004BD42C4B1A68500202D5DA6E11063CD448
:10C84000284B1A68D20102D59A6D90072DD4254B3A
:10C850001A68510102D59A6D120717D4214B1A6834
:10C86000120112D59A6DD0060FD59A6D510334D4AA
:10C870009A6DD20503D49A6D22F010029A65194B75
:10C880004FF0006218489A609AE770479A6D50031B
:10C8900007D49A6DD10503D49A6D22F008029A65E7
:10C8A000104B4FF080629A60D8E79A6D4FF080711C
:10C8B00022F002029A659960C9E7DA6E4FF48001AE
:10C8C00022F08002DA669960BAE79A6D4FF0007143
:10C8D00022F004029A659960ABE74FF000629A601B
:10C8E000704700BF0064024058640240384B5A68E9
:10C8F000110303D5D3F8A02052075BD4344B5A68F8
:10C90000D00303D5D3F8B420110649D4304B5A686C
:10C91000520303D5D3F8A020900737D42C4B5A6884
:10C92000D10203D5D3F8A02012071CD4284B5A6893
:10C93000920217D5D3F8A020D00613D5D3F8A020A3
:10C94000510341D4D3F8A020D20505D4D3F8A020B8
:10C9500022F01002C3F8A0201D4B4FF400121D4816
:10C96000DA602DE77047D3F8A02050030AD4D3F83B
:10C97000A020D10505D4D3F8A02022F00802C3F8E6
:10C98000A020134B4FF48012DA60CFE7D3F8A02039
:10C990004FF4802122F00202C3F8A020D960BDE745
:10C9A000D3F8B4204FF4803122F08002C3F8B420D1
:10C9B000D960ABE7D3F8A0204FF4002122F00402A5
:10C9C000C3F8A020D96099E74FF40012DA607047ED
:10C9D00000640240A06402402DE9F041564E82B04E
:10C9E00096F82033022B00F29380544D6B6913F0BC
:10C9F000007303D00E2002B0BDE8F081CDE9003312
:10CA000040F2FF574FF48A634FF008080446AF63C3
:10CA10000121C5F808801020EB60FFF72BFEAF6303
:10CA20000028E8D1AF630121D6F8E43F3720AB609E
:10CA300040F27743EB60FFF71DFEAF630028DAD1C9
:10CA40003F4A40F2734301216A62C5F82880EA6ACE
:10CA500042F03302EA62AF63A8603320EB60FFF775
:10CA600009FEAF630028C6D1694640F22A4201E0C0
:10CA70009B0253D46B6B13426B6BF9D01F0752D4DC
:10CA80006B6B980751D46B6B990650D46B6B9B0200
:10CA90004FD4B4F5006F009B08BF4FF480221BBA3F
:10CAA00018BF4FF480321A4236D0D6F8E42F40F245
:10CAB0007743224D40F2FF5601213720AE63AA6032
:10CAC000EB60FFF7D7FDAE63002894D1B4F5006F9B
:10CAD00040F24643AE634FF0010108BF0220A86058
:10CAE0000620EB60FFF7C6FDAE63002883D16B68BC
:10CAF00003F400639C423FF47EAF124A6B6813401C
:10CB000023436B606B6803F40063A342F6D172E7C2
:10CB1000282002B0BDE8F08126206CE7D5F88030EF
:10CB200041F8043BA6E7042065E7022063E70620FE
:10CB300061E722205FE700BF28170120002C014099
:10CB400000E1F5050081FFFF0E4A01210D20D2F81A
:10CB5000E42F38B50C4C40F2FF5540F24D43A5632D
:10CB6000A260E360FFF786FDA56340B96069C0F38A
:10CB70004320A0F10400B0FA80F0400938BD002045
:10CB800038BD00BF28170120002C0140A24A022016
:10CB9000A24B516C41F400612DE9F043516483B024
:10CBA000526C03259E4C02F400620192019A626865
:10CBB000134043F076036360636823F4807363601B
:10CBC00025600EF0F7F9636840F2FF50002143F44E
:10CBD00080734FF4806263604FF40033A063A16000
:10CBE000E26001E0002B60D0626B013B1706F9D5D3
:10CBF000002B5AD040F2FF554FF4D5724FF48963A1
:10CC00000721A5630820A563A260E360FFF732FD5A
:10CC1000A563002842D04FF00009814F40F27743CE
:10CC200040F2FF58002201213720C7F83880BA604F
:10CC3000FB60FFF71FFDC7F83880034650BB794DF6
:10CC40000446064649EA050510E0C7F83880BD608D
:10CC5000FA60FFF70FFD4FF6FE720346C7F8388003
:10CC6000C0B97B69002B29DB944227D840F2774377
:10CC7000C7F838800121BE603720FB60FFF7FAFC5F
:10CC8000034640F26942032129200134C7F8388065
:10CC9000002BDAD0184603B0BDE8F083624B0122C6
:10CCA0004FF0804983F82023B7E703235C4A40F222
:10CCB000FF511846916303B0BDE8F0834FF6FF7251
:10CCC000944200F0A2805E002CD4554B1B6898075C
:10CCD00030D0554C94F82003042830D1FBF75EFB8C
:10CCE00003460028D6D14E4D40F24743D4F8E42FF6
:10CCF00040F2FF5601210720AE63AA60EB60FFF708
:10CD0000B9FCAE63454A6B681A4003466A60002866
:10CD1000C0D194F8DE3C0BB14FF4006003B0BDE825
:10CD2000F04359E6404C02203D4B84F820031B6839
:10CD30009D0704D12623184603B0BDE8F083384987
:10CD400040F2FF5200238A6340F2C2428B604FF4EC
:10CD50000033CA6000E023B14A6B013B12F0450F7B
:10CD6000F9D02F4A536B5B0751D4536BD90747D483
:10CD700040F2FF53012893635369C4F8A4329369C6
:10CD8000C4F8A832D369C4F8AC32136AC4F8B0321C
:10CD900001D9062831D1224D40F2434340F2FF56DB
:10CDA000002206210320AE63AA60EB60FFF762FC5D
:10CDB000AE63034600287FF46DAFD4F8E42F40F251
:10CDC000C943174D40F2FF5602210920AE63AA6005
:10CDD000EB60FFF74FFCAE63034600287FF45AAFC9
:10CDE0006B69C4F89432AB69C4F89832EB69C4F843
:10CDF0009C322B6AC4F8A03270E70228CBD0DCE763
:10CE000040F2FF510123916344E71B2342E740F2C4
:10CE1000FF51032391633DE7003802400081FFFF8B
:10CE2000002C0140000010802817012010B52D4C67
:10CE300094F8E90F0DF0CEFB28B11F210022C1802C
:10CE40002021FDF739FDD4F8B0383BB194F8BC1877
:10CE50001A68C9079B8848BF1B04936194F9DF2CAB
:10CE6000D3B2012B17D8204B4FF00C0C082003F540
:10CE700021711CFB020C99420DD013F81C2F032AC0
:10CE8000F9D15A78002AF6D153F80C000028F2D0D4
:10CE9000FEF790FD08B9012010BDD4F87C3343B1F2
:10CEA000196894F879239B8809690B4072B9002BA3
:10CEB000F1D094F8ED3F63B10C4B93F8BC0200281D
:10CEC000E9D1D4F82034C4F8243410BD002BE2D1C9
:10CED000EFE7012384F8ED3FFFF758FE034B83F89B
:10CEE000BC02ECE728170120B05105080000012022
:10CEF00010B51A4C94F8ED3F7BB1194B93F8BC0276
:10CF000050B194F840330133DBB2072B84F840333F
:10CF10000CD9002384F84C3310BD012384F8ED3F75
:10CF2000FFF734FE0E4B83F8BC02E9E7D4F87C33FC
:10CF300043B1196894F879239B8809690B404AB179
:10CF4000002BE6D1D4F820240123C4F83C2384F834
:10CF50004C3310BD002BDCD0F4E700BF28170120B4
:10CF60000000012010B503793E4C002B14BF0123B3
:10CF7000002384F8783303D1002384F84C3310BDA8
:10CF800094F9DF2CD3B2012BF6D8374B4FF00C0CB1
:10CF9000082003F521711CFB020C9942ECD013F818
:10CFA0001C2F032AF9D15A78002AF6D153F80C0025
:10CFB0000028F2D02D4913464A682431904208D007
:10CFC0000133102BF8D1002384F8193484F84C3342
:10CFD00010BD94F8DD2C0133003A84F8193418BFE1
:10CFE000012284F81A24FEF7E5FCD4F87C3393B1CF
:10CFF000196894F879239B8809690B40DAB9003BDA
:10D0000018BF01233BB994F8402384F84C33531CD8
:10D0100084F8403310BD94F8ED3F83B1144B93F87E
:10D02000BC02A8B194F840330022013384F84C23A9
:10D0300084F8403310BDB3FA83F35B09E2E70123C0
:10D0400084F8ED3FFFF7A2FD094B83F8BC02E8E747
:10D05000D4F82024012384F84003C4F83C2384F846
:10D060004C3310BD28170120B05105085400012091
:10D070000000012070B5184D40F2FF56174C40F2E9
:10D080004D43D5F8E42F0121A6630D20A260E36093
:10D09000FFF7F0FAA66320B96369C3F34323042BB7
:10D0A00002D04FF0FF3070BDD5F87C030028FAD0D5
:10D0B00001688388096995F879230B402AB1002B10
:10D0C0000CBF00204FF0FF3070BD002B14BF0020BC
:10D0D0004FF0FF3070BD00BF28170120002C014029
:10D0E00070B51B4D1046D5F87C433CB12668A2882C
:10D0F0003469224095F8794324B32ABB0A460021BB
:10D1000041F0F4FA00BBD5F8BC32002BFBD1114C36
:10D1100040F2FF56D5F8E42F40F24D43A6630121BB
:10D12000A2600D20E360FFF7A5FAA6630028F1D105
:10D130006369C3F34323042BECD1D5F82034C5F83D
:10D14000243470BD002AD9D14FF0FF3070BD00BF2C
:10D1500028170120002C014070B51B4D1046D5F852
:10D160007C433CB12668A2883469224095F8794313
:10D1700024B32ABB0A46002141F052FA00BBD5F87D
:10D18000C032002BFBD1114C40F2FF56D5F8E42FF2
:10D1900040F24D43A6630121A2600D20E360FFF73A
:10D1A00069FAA6630028F1D16369C3F34323042B12
:10D1B000ECD1D5F82034C5F8243470BD002AD9D17B
:10D1C0004FF0FF3070BD00BF28170120002C014038
:10D1D00070B5154C002394F81A24C4F848330AB1EA
:10D1E000C4F8F03F114D40F2FF56D4F8E42F40F25E
:10D1F0004D43AE630121AA600D20EB60FFF73AFAC0
:10D20000AE6320B96B69C3F34323042B08D0092212
:10D21000D4F82034002084F84C23C4F83C3370BD8B
:10D22000022084F84C3370BD28170120002C0140E7
:10D23000F8B58F4C94F87853002D00F0FC8094F8EA
:10D240004C230226531E082B3CD8DFE803F032346F
:10D25000A13B674A163B0500FFF776FC002840F02B
:10D26000FB80D4F83C33D4F82024FA33934226D2FE
:10D27000FFF73EFE94F84C23E4E7FFF765FC002837
:10D28000EFD0D4F848330022012B84F8402340F239
:10D29000E780D4F84413013B0131C4E9D11394F879
:10D2A0001A340BB1C4F8F02F0823054684F84C3328
:10D2B00015E084F84C63FFF747FC002849D194F847
:10D2C0004C23531EDBB2022B00F2AD80D4F8203485
:10D2D000D4F83C239B1AC82B00F2B18000252846C5
:10D2E000F8BDD4F8C032002BF8D10722D4F820348E
:10D2F000D4F8345384F84C23C4F83C33002DEED0DA
:10D30000D4F838330120D4E9CA21A847D7E7D4F8A4
:10D310003C33D4F8202464339342DFD2D4F8BC7277
:10D32000002FF4D1FFF710FC0028A3D00423D4F879
:10D33000345384F8407384F84C33002D00F08A8015
:10D34000D4F838333846D4F82823D4F82C13A84717
:10D35000B5E7FBF723F80028B1D194F82033002B70
:10D36000A3F10203B3FA83F314BF022201225B0983
:10D3700084F8412384F84233FBF710F800287FF447
:10D3800077AFD4F810230323C4F8502384F84C3328
:10D39000FBF704F8002892D194F8F4520422B4F870
:10D3A000F612D4F8F832C4F84803A4F85413180E4F
:10D3B000D4F8F812D4F8F832090C84F857031B0A91
:10D3C00084F8565384F8581384F85933D4F8F81273
:10D3D00094F8FC0294F8FD3284F85A13D34094F880
:10D3E000FD1284F85B0384F8603301F00F01D4F878
:10D3F0000033B4F80603C4F85C33B4F8063384F899
:10D400006113C3F30B13B4F8061384F84C2343EAF7
:10D41000102301F00F0103F00F0384F8641303F5E8
:10D42000FA63A4F86233082A18BF042A0CBF012546
:10D4300000252846F8BD284684F84C53F8BDFFF770
:10D4400057FD94F84C53082D18BF042D0CBF01252F
:10D45000002544E7054642E7042384F84C333EE7C1
:10D46000FAD1FFF7B5FE94F84C23531E2AE700BF0C
:10D47000281701202DE9F043054683B00E4690465B
:10D480001F46394C94F84C0304280DD0082807D1C6
:10D49000D4F84433AB4207D0FFF79AFE0228F1D00C
:10D4A000012003B0BDE8F083D4F8F03FC3F34F216F
:10D4B0005A0A0F29C4E9CA652DD8D4F84893B9F19E
:10D4C000000F28D094F81A0428B3B3F5005F42D0B7
:10D4D000264831464FF400720193184447F00CFA85
:10D4E000019B03F50073C3F34F215A0AC4F8F03FC0
:10D4F000102930D0B9F1010F2DD0D4F8442309F10F
:10D50000FF33042102200132C4F8483384F84C135D
:10D51000C4F84423C5E701230621284601253246E5
:10D5200084F84C130021C4F83483C4F8387384F8A9
:10D53000305341F075F80028B3D0FFF7D9FCD4F888
:10D54000346376B12846D4F838330022D4F82C134B
:10D55000B0470320A5E792B20B46044E013AAD1A3C
:10D56000DAE703209DE700BF2817012018430120B8
:10D5700070B50E4D04460E4695F84C33042B0BD077
:10D58000082B07D1D5F8443383420CD0FFF720FE97
:10D59000022801D0012070BD08230220C5E9D14630
:10D5A00085F84C3370BD022070BD00BF28170120E4
:10D5B0002DE9F0411C4C05468846174694F84C036B
:10D5C0001E46042808D0082802D00020BDE8F081BB
:10D5D000FFF7FEFD0228F8D101234246284600212C
:10D5E00041F084F868B1FFF783FCD4F83453002D80
:10D5F000EBD00022D4F83833D4F82C131046A847C7
:10D60000E3E70522D4F820340120C4F82883C4F8C5
:10D610002C53C4F83473C4F8386384F84C23C4F82A
:10D620003C33BDE8F08100BF2817012070B52F4CB6
:10D63000636BD9051DD54FF4807240F2FF562C4B19
:10D64000A263A663E26B2B4D1340E363D5F8C432AB
:10D650009A0721D401220023C5F8B422C5F8B832B4
:10D66000224B40F2FF51224A9963D96B0A40DA6398
:10D6700070BD636B980704D51E4B0222C3F8B82215
:10D68000EEE7636B190723D4636B9A0625D5194B14
:10D690000622C3F8B822E3E7D5F8D82C136823F0A4
:10D6A000010313600022E36A23F00803E362C5F874
:10D6B000C022D5F8C432DB07CCD540F24C43A66378
:10D6C0000121A2600C20E360FEF7D4FFA663C1E74E
:10D6D000084B0422C3F8B822C2E7636BDB06BFD550
:10D6E000044B0522C3F8B822BAE700BF002C014062
:10D6F000C53EFFFF28170120D0F820112422002367
:10D700002DE9F041C0F8942104460A68806804F5C8
:10D71000907522F001020A600B604B608B6094F8F8
:10D7200005C0C4F89C314FEA8C22C4F8943184F8C7
:10D73000903102F48052C4F89831C4F83831C4F8FA
:10D7400028214FEA0C32C4F8403102F40052C4F8E8
:10D7500034312379C4F82C214FEA0C22C4F8240177
:10D7600013F0010002F48062C4F8302102D00422D8
:10D77000C4F8342113F0020305D0D4F8342142F068
:10D780000802C4F834211CF0010F0DD048B1D4F8C0
:10D79000442142F00202C4F844214FF48032C4F81C
:10D7A0004C21002B40F0FF80A84B03F1200053F8E0
:10D7B000042F944200F0BD809842F8D11CF0080F6D
:10D7C00040F0CD80D4F89431002B00F01681242352
:10D7D0002846C4F894310B6823F001030B6037F03E
:10D7E000F5FE012815D0D4F84431002B40F0188103
:10D7F000D4F8203128465A6822F490425A609A6838
:10D8000022F02A029A601A6842F001021A6043F07C
:10D8100017FB2379DA0761D5D4F8FC20002A00F041
:10D82000D9800023D4F8041104F13C06E263A36418
:10D830004FF480623046E264C4E91013C4E9143343
:10D84000C4E91833C4E91A334FF48033E3654FF465
:10D850008073A36543F062FC304637F051F9D4F889
:10D860009881C4F88C61B8F1200F656731D1E36805
:10D87000626999B26AB3B1FA81F77F0949B394F842
:10D880009001012825D030460126C4F89C710B4632
:10D8900084F890612226A4F87811C4F898616C4E3F
:10D8A000D4F82011A6676B4E2431C4F87421E667C2
:10D8B000694EC4F88C70C4F8886037F0BBF9002852
:10D8C00000F0B280102384F89071C4F89C31C4F841
:10D8D0009481E26B23795268C4F814219B0777D5B1
:10D8E000D4F80021002A69D00023D4F8081104F1EB
:10D8F0009C06C4F89C20C4F8A8304022C4F8B83074
