:020000040800F2
:10000000000001200D120508A912050835C00108DD
:100010008DBE0108A9120508A912050800000000FC
:10002000000000000000000000000000A912050808
:10003000A912050800000000A912050879AC010802
:10004000A9120508A9120508A9120508A912050890
:10005000A9120508A912050881AF000889AF000898
:1000600091AF000899AF0008A1AF00088DAD00085E
:10007000A1AD0008B5AD0008C9AD0008DDAD0008B0
:10008000F1AD000805AE0008A9120508A91205087F
:10009000A9120508A9120508A9120508A9AF0008A8
:1000A000A9EA000895E90008B9EA000885E900080E
:1000B000BDE90008CDE90008DDE9000821A9000834
:1000C00015A9000855A9000849A90008A9120508A2
:1000D000A9120508C5AB0108D1AB0108DDAB0108C9
:1000E000B1AF0008A9120508A9120508C9EA00085D
:1000F00081EA0008A912050871EA000819AE000893
:10010000A9120508ADDB0008EDE90008A9120508F1
:10011000E9AB0108F5AB0108FDE9000861D8040866
:100120002DAE000841AE000855AE000869AE0008CB
:100130007DAE00080000000000000000000000008C
:100140000000000000000000000000008D7C04089A
:1001500091AE0008A5AE0008B9AE000801AC0108D8
:1001600089A900087DA90008A9120508A912050897
:10017000A9120508A91205080000000000000000EF
:10018000A9120508A9120508A9120508A91205084F
:10019000A9120508A912050800000000A912050807
:1001A000000000000000000000000000A912050887
:1001B000A9120508A91205080000000000000000AF
:1001C000000000000000000000000000000000002F
:1001D000000000000000000000000000A912050857
:10800000084A0346D0F8E4005268D3F8F010121A78
:1080100000209142B8BFC3F8F020012283F81C2150
:10802000704700BF001000E01B4B1C4A03F5727C38
:10803000016803E063452BD053F82C2F9142F9D10E
:1080400070B593F804E0427996450AD0634505D0AF
:1080500053F82C2F9142F4D06345F9D14FF0FF3003
:1080600070BD9E4684680022DEF80C50A54208D000
:1080700001320EF10C0E032AE8D0DEF80C50A542B6
:10808000F6D1DEF81050C668B542F1D150B270BDDD
:108090004FF0FF30704700BF082E05080000014078
:1080A0004368426D30B49A61EFF31182502383F339
:1080B00012884168D2B2856C0B68046D23EA05030F
:1080C00023430B6082F31188436981681A68096849
:1080D00022F00102D0E908541A60826A1D605C61D6
:1080E0005A60D0E90B429C60DA600023B0F86C2043
:1080F00030BCCA620377704730B5FAB18E464FEA9A
:10810000014C034600F1C005002419680C3353F8F4
:10811000042C43F8084C41EA0C0142EA0E02AB423F
:1081200043F80C1C43F8042CEFD1D0F8C03043EADC
:108130000E03C0E93144C0F8C03030BD4FEA014EF3
:108140008C46DEE783695969B3F810C00A6830B419
:108150009C6822F0010224680A60E26822EA0C02AC
:10816000E260027D04681F2A06D9203A082065686B
:108170009040284242D0FEE70820256890402842DF
:10818000F9D1202000FA02F2A260254A1278002AD2
:1081900032D01A7F012A36D0D3F800210132C3F839
:1081A0000021EFF31181502282F312885868C9B27E
:1081B0009D6C0268DC6C22EA05022243026081F3B6
:1081C00011885A699968D3E90D40096814605061B3
:1081D000D3E90F40546090605C6CB3F8B400D46095
:1081E0000124C8621068204310601A8A1C7783F843
:1081F000FD40CB681343CB6030BC7047202000FAB1
:1082000002F2E260C1E70022D3F8040183F8FD2006
:1082100001300A68C3F8040122F001020A60EBE7AA
:10822000C801002010B40C4C6368002B11DD002045
:1082300004F1080C0146DCF8AC3003F1C0025960CF
:108240000C339342FBD1013063680CF5867C83428A
:10825000F1DC5DF8044B7047C8010020704700BF97
:10826000024B03EB401090F855047047C801002002
:10827000704700BF0B4890F86C1589B101EB4101C4
:10828000002300F27450490010B41C4650F823201B
:10829000063302B114608B42F8D15DF8044B70478D
:1082A000704700BFC80100200B4890F86C1589B1D9
:1082B00001EB4101002300F27450490010B41C4648
:1082C00050F82320063302B114609942F8D15DF8CA
:1082D000044B7047704700BFC80100200120704761
:1082E000034B00EB400003EBC00090F8850570479E
:1082F000C8010020204890F86C35002B3AD00022AD
:1083000000F274534FF02C0C2DE9F0434FF0500E57
:108310001A4E1B4D144607E053F8181B01320C602F
:1083200090F86C15914223DD197C0029F4D05F6828
:108330004FF0FE08B90AA1F580115229294498BFCF
:1083400091F8F483EFF311818EF31288D7F824901B
:108350000CFB0868C9B209F10109C8F82890D7F8E0
:10836000148048F00108C7F8148081F31188D3E71E
:10837000BDE8F083704700BFC80100203818012015
:10838000082E050807EE900AB8EE670A704700BF8E
:10839000BCEEC00A10EE103A98B270472DE9F041D9
:1083A0000022794B846982B0D3F89462019208224A
:1083B00004F19C07D4E93D839A40D8F80050154257
:1083C00005D0D4F89C100868400700F1B080012265
:1083D0009A40154205D0D4F89C104969080600F16E
:1083E0009D8004229A40154205D0D4F89C1009685B
:1083F000890700F18A8010229A40154204D0D4F8EF
:108400009C10086800076AD420229A40154218D0B0
:10841000D4F89C100868C00613D5C8F8082094F852
:10842000D120052A39D00B6813F4802F0B6800F097
:108430009280190340F19D80D4F8D8300BB13846B2
:108440009847D4F8F030002B46D0D4F8F030DA0753
:108450001BD54E4BD4F89C20A3FB0636052384F88D
:10846000D130B60A136823F00103136002E01368E9
:10847000DB0704D5019B01339E420193F7D2002212
:10848000012384F8D02084F8D130D4F8E8301BB32D
:10849000384602B0BDE8F04118470A6822F01602DB
:1084A0000A604A6922F080024A61D4F8DC20002A7E
:1084B00065D00A6822F008020A603F22002102FA11
:1084C00003F30122C8F80830D4F8EC3084F8D01057
:1084D00084F8D120002BDBD102B0BDE8F081C8F8D0
:1084E00008200A6812F4802F0A682DD1D20503D41F
:1084F0000A6822F008020A60D4F8DC20002A83D03F
:1085000038469047D4F8F8307EE7C8F80820D4F809
:10851000F02042F00402C4F8F0206CE7C8F808200C
:10852000D4F8F02042F00202C4F8F02059E70868BD
:1085300020F004000860C8F80820D4F8F02042F0C9
:108540000102C4F8F02042E71103D5D5D4F8E420A5
:10855000002AD5D158E713F480737FF46DAF0A6811
:1085600022F010020A60012284F8D03084F8D12071
:1085700062E7D4F8E030002B7FF461AF61E7D4F814
:10858000E420002A95D198E738180120B5814E1BC8
:10859000B4224FF4A57C4FF4EB71002382801022AB
:1085A000A0F802C04FF4E17C02814FF48772C180D1
:1085B0009621828144220370A0F80AC0C1814382BF
:1085C000028270470346012200205A77704700BF9D
:1085D00008B5D0E90B2183690B4483610AB10846D1
:1085E0009047002008BD00BF436A02461B681B6A13
:1085F0005B685B7813F0010008BF5077704700BFDD
:10860000C2628161704700BF704700BF043070478D
:108610000C4B93F89C22D3F8981202440844D2B22F
:10862000C3F8980283F89C2293F89C22120605D581
:1086300093F89C2282F0800283F89C22024B012254
:108640001A70704738180120000001202DE9F84FFA
:10865000154FD7F8A052ED0A20D00026DFF84CA025
:1086600007F52979B046AC19D7F8A4121023524661
:108670006410D1F828B04846C7F8D082E102D84744
:108680000F280BDD094B03F1100253F8041B0131D5
:1086900007D19342F9D12546B542E4DCE802BDE8B2
:1086A000F88F661CF8E700BF381801200000002092
:1086B000184BD3F8D812D3F8DC228A1A322A15D8EC
:1086C000D3F8F0228A4200D37047D3F8E022E2B117
:1086D00010683231928810B44469C3F8F012224213
:1086E0005DF8044B18BF120482617047D3F8E02292
:1086F0003AB193F8EC021168C007928848BF12049F
:108700008A610022C3F8F02270473231C3F8F012B8
:10871000704700BF38180120064AD2F8E0323BB15A
:1087200092F8EC121A68C9079B8848BF1B04936132
:108730000020704738180120044B4FF4007C0020C3
:10874000D3F80033A2F800C00B607047381801203E
:1087500000207047012070470120704700207047BB
:10876000002070470020704738B5074B14460D466F
:10877000D3F830331B6A984702464FF40073002049
:1087800012682A60238038BD3818012008B5074BCD
:10879000D3F8303333B15B69984780F00100404231
:1087A00040B208BD4FF0FF3008BD00BF38180120AF
:1087B000002070472DE9F04123B3164688469F18E4
:1087C000144DD5F83043002341463046A4681A467C
:1087D000A0470028F5D0D5F8303333B15B6998470E
:1087E00020B9D5F83033002BF8D1FEE7013608F573
:1087F0000078B742E5D1D5F8D8320020C5F8DC3290
:10880000BDE8F081034D0020D5F8D832C5F8DC3240
:10881000BDE8F081381801202DE9F0415BB3164620
:108820000F4603EB0208184C04E0D4F8301319B1DA
:108830004B699847D4F8301300230D693046394608
:108840001A46A8470028F0D1D4F8303333B15B6919
:10885000984720B9D4F83033002BF8D1FEE7013621
:1088600007F50077B045E5D1D4F8D8320020C4F838
:10887000DC32BDE8F081044C0020D4F8D832C4F8D2
:10888000DC32BDE8F08100BF3818012000207047BD
:10889000034B93F85803003818BF0120704700BFFE
:1088A000381801201C4AD2F888336BB1186892F846
:1088B00085139B880069034021B12BB1002382F806
:1088C00058337047002BF9D092F85833032B0FD848
:1088D00092F84C330133DBB2072B82F84C33EDD8DE
:1088E000D2F8D8120123C2F8481382F858337047DF
:1088F000D2F8943209489908B0EB930F4FF0020375
:1089000006D249085B0081429BB201D9FF2BF8D9FE
:10891000A2F89033DCE700BF38180120801A060067
:10892000826D136A5B681B78FF2B08D090F8F030DB
:10893000013BDBB280F8F0301BB101207047002012
:108940007047126A0220526813707047836D1B6A69
:108950005B681B78FF2B0AD190F8F030002B03F1F5
:10896000FF3280F8F02014BF012002207047002061
:10897000704700BF034B93F85803032894BF0020AF
:10898000012070473818012000487047941B0120CF
:10899000034B93F85803003818BF0120704700BFFD
:1089A00038180120134BD0F8D8105B68D0F8E020BD
:1089B00010B50446581A824200DC22B9D4F8E420EB
:1089C0000A44C4F8DC2094F8D020C4F8D830012A36
:1089D00005D0D4F8D4300133C4F8D43010BD04F13C
:1089E000E801201D11F000FDD4F8D4300133C4F8A3
:1089F000D43010BD001000E030B590F828308BB0B6
:108A00000446012B05D0407F48B1002363770BB0AB
:108A100030BD456A2B681A7B22BB637F13B90120E6
:108A20000BB030BD12490220002301220290081F22
:108A30008DF80C208DF820200993CDE900106946AF
:108A40002846CDE90433CDE9063311F0CDFC2A6880
:108A5000136A002BFCD1074B5B7C03F0010383F00E
:108A60000100D3E71B6A002BD7D00020CFE700BF5F
:108A700014000020000000202DE9F0411F4F8AB0B3
:108A8000044690F82820A7F10408A7F11406437FB4
:108A9000012A06D00BB10023637701200AB0BDE89C
:108AA000F081656A2A68117B09BB002BF5D0002391
:108AB000694628460993CDE90433CDE906330123FD
:108AC0008DF80C308DF820300223CDE90078029328
:108AD00011F08AFC2A68136A002BFCD1737C03F026
:108AE00001036377002BD8D094F82820D0E7126ACE
:108AF000002AD7D1002BD0D0D9E700BF1400002026
:108B0000CB070AD490F82830012B08D0C368B3F102
:108B1000807F03D9012303777047704770471C4A51
:108B2000D2F89432D2F828149A08B1EB930F4FF090
:108B3000020310B5446A8CB006D252085B00914221
:108B40009BB201D2FF2BF8D9C268A380B2F1807F1B
:108B50001BD90122002301A94FF0B70C0277204650
:108B600004928DF814208DF828208DF804C00B9302
:108B7000CDE9021302A9CDE90633CDE9083311F09E
:108B800033FC2268136A002BFCD10CB010BD00BF6F
:108B900038180120244A002330B5044695B0101D32
:108BA000224D0693019002200B931093139311937F
:108BB0000290207F009200280495CDE90E334FF0FB
:108BC00001038DF80C3007938DF820308DF8343088
:108BD0008DF8483002F10803A2F10802059314BF92
:108BE000052304230A920C93114B0993636A1A68B4
:108BF000136A002BFCD1A0B10E480A0E00F11A0333
:108C000042760A0A9970080C69465A701870606AB0
:108C100011F0EAFB636A1A68136A002BFCD115B0E5
:108C200030BD054BEDE700BF20000020E9850008BE
:108C3000C5850008000000201900002010B594B080
:108C4000044650220749684649F0F8FE6946606AC2
:108C500011F0CAFB636A1A68136A002BFCD114B0C6
:108C600010BD00BF50320508F8B50546406A0068DF
:108C7000046A002CFCD1287F002839D0A869052778
:108C8000254E4FEA106C254C2E3606F801CC676352
:108C9000B0704FEA104C000A012B86F800C07070CB
:108CA0004FF000000E6826641668A6642E63A06567
:108CB00024D0022B1BD15368012220651E44496831
:108CC000E365174B84F84C0061652E6384F86020DF
:108CD0006366144B697F03F11402686A002914BFAC
:108CE0001946114611F080FBEB6A73B1286BF8BD91
:108CF00004200A4C0C4E6063A869C9E7084A84F84E
:108D00004C306065E0652265E3E76B6A1A68136AB8
:108D1000002BFCD1EAE700BF00000020000001208A
:108D2000D1850008040001202D00002000B583B08B
:108D30008161019201A9049A00930123C2626A46EB
:108D4000FFF792FF03B05DF804FB00BF70B51D464E
:108D5000436A94B006461B681C6A002CFCD13B4B4E
:108D600002204FF0010C0694029003F13C008DF8B4
:108D70000CC0009003F1400001903548049003F1CD
:108D800034000590307F00284DD00B920A0E363308
:108D90008DF8204003F8012C05220C958DF834C085
:108DA0008DF848C013940792CDE90944CDE90E44EB
:108DB000CDE910440A0C9970264C090A1A705970B2
:108DC000D4F89422D4F828349108706AB3EB920F47
:108DD0004FF0020206D2490852008B4292B201D2F1
:108DE000FF2AF8D9737F8280DBB905A911F0FCFA5C
:108DF000706A03681A6A002AFCD1D4F894320222FD
:108E0000D4F82C449908B4EB930F06D249085200C9
:108E10008C4292B201D2FF2AF8D98280284614B03F
:108E200070BD6946E2E70B92042235338DF82000CD
:108E30000C958DF834C08DF848C013900792CDE999
:108E40000900CDE90E00CDE91000B3E700000020D5
:108E5000E98500083818012070B590B000230D4650
:108E600025490DF1030401228DF8103006460893C0
:108E70000A93059101A903928DF82420CDE90134CC
:108E80001E4CCDE90633082304F5637084F82434BE
:108E900011F0AAFAD4F88C2304F56370136A002B3E
:108EA000FCD19DF80320FF2A22D0FE2A02D0022006
:108EB00010B070BD022201A901938DF810308DF819
:108EC00024300F9302960395CDE907320122CDE9B4
:108ED0000533CDE90A33CDE90C338DF8382011F094
:108EE00083FAD4F88C33186A0028FCD110B070BD16
:108EF000012010B070BD00BF4D8900083818012056
:108F000030B59BB02A4CFD21002301220DF1020552
:108F100004F563708DF802100BA90D928DF8602096
:108F20001095C4F854338DF838300F938DF84C30C9
:108F30001993CDE91132CDE90B33CDE91433CDE9E5
:108F4000163311F051FAD4F88C2304F56370136AC8
:108F5000002BFCD10DF1030101228DF81030089394
:108F60000A9303928DF8242084F82424CDE901315A
:108F70001049059101A9CDE9063311F035FAD4F86D
:108F80008C33186A0028FCD19DF80330FF2B08D0E1
:108F90000922D4F8D83284F85823C4F848331BB0D7
:108FA00030BD0423022084F858331BB030BD00BF0D
:108FB000381801204D8900088369F0B593F8DC204A
:108FC0008BB00546012A27D0023A012A2FD893F800
:108FD0004C21EC46D3F89C1062F07F03154C0B70CB
:108FE0008669D6F8A0305F1C0FCCACE80F00D6F82D
:108FF0009C30CDE900370FCCACE80F0094E80300BB
:109000008CE80300694606F1100011F0EDF9AB6938
:1090100019690A6A002AFCD1D3F8A0305A8852BADA
:10902000EA819A8852BA2A82DB885BBA6B82012075
:109030000BB0F0BDA0320508F0B590F8DC308BB075
:109040000446D0F8A060012B4BD015D8D0F89C3046
:109050004FF0FF3205211A605A609A60DA60D0F84A
:10906000E030C0F8F010B3F57A7F54D8032380F8CD
:10907000DC3001200BB0F0BD023B012BF9D890F899
:109080004D31EC46D0F89C2063F07F03384D1370CF
:10909000D0F8A0305F1C0FCDACE80F00D4F89C30A6
:1090A000CDE900370FCDACE80F0095E803008CE860
:1090B0000300694604F1100011F096F92269136A61
:1090C000002BFCD1738801205BBAA4F8D030B388A0
:1090D0005BBAA4F8D230F3885BBAA4F8D4300BB0F2
:1090E000F0BD90F84C2190F84D319B1A5B10013384
:1090F000DBB236F8132006EB430653BAA0F8D030A3
:1091000073885BBAA0F8D230B3885BBAA0F8D430C9
:1091100001200BB0F0BD03691A7B2AB35B691BB356
:1091200090F8983003B390F84C310122D0F89C00AD
:1091300063F07F03C4F8A4400E49037094F84D31E6
:1091400094F84C0184F800211B1A84F8DC20D4F830
:10915000A0200733C4F804110132D4F89C10C4E9EC
:109160003E23C4F8F41084E7022384F8DC3080E75F
:10917000A0320508018000082DE9F041304F07EBCF
:10918000401898F854340BB9BDE8F08100EB800327
:109190000E460021044607EB4313450193F836269B
:1091A00083F8361688F83A2449F01EFEB8BB3D44D1
:1091B0002448A5F8386400EB441049F0F1FD3B78F1
:1091C000D5F85024A3B1D5F83C140124D2F8AC3022
:1091D0008C4003F1C001420010F4004F90B202D164
:1091E0005A6822435A600C339942F4D1BDE8F081A9
:1091F000D5F83C140124D2F8AC3001F1100203F18F
:10920000C0019440420010F4004F90B202D15A685D
:1092100022435A600C339942F4D1BDE8F0810A4BE5
:1092200093F8A82402EB420203EBC203234493F811
:109230005564002EBBD0012388F83A34B7E700BF4D
:10924000C801002000060020381801202DE9F84F41
:10925000374D2B7813B90120BDE8F88F354F05F550
:10926000876A05F634360024D7F8D8B24FF6FE796F
:109270004FF6FF7815E0B0F5606F4AD0B081B0EBE3
:1092800008012D4B4FF05C005A4618BF012100FB2E
:10929000043010F0BDFE01340AF1200A1436082C07
:1092A00031D0D5F81C2FA2422DDDDAF81800DAF8FB
:1092B0000420D0E93D0149F077FD484597F8312475
:1092C00014D0542A04D1B7F834240132A7F8342436
:1092D000D5F83C2B404502F10102C5F83C2BCAD120
:1092E000D5F8382B0132C5F8382BC8E7542AD2D12B
:1092F000B7F8362401340AF1200A14360132082C5A
:10930000A7F83624CDD10123012085F8383CBDE8EB
:10931000F88F97F8A82402EB420207EBC20222441E
:1093200092F855240D2AA9D18022B277A7E700BF71
:10933000C801002038180120040E00202DE9F84350
:1093400011F0F0FD2F4E4FF0000C0746DFF8BC8007
:109350002D4C716800294ADD00234FF486701D46AC
:1093600000FB0362013392F80521994245EA0205A8
:10937000F6D145EA0C0C5FFA8CF9D8F80430C3F347
:1093800008038BBBEFF3118373BB4FF0E02CD4F8D1
:10939000D832DCF81810D4F8D8229342F7D1D4F898
:1093A000AC249142F3D8D4F8B0C44FF47A7202FBE3
:1093B0000CF0401AB0FBFCF002FB0300C31BB3F53A
:1093C000FA6FCCBF4FF0000C05F0010CBCF1000FA0
:1093D000BFD1B9F1000F04D00B4B93F83124542ABC
:1093E00008D04846BDE8F88311F06CFCE6E7E1469A
:1093F0000025C2E7B3F8382448460132A3F83824E0
:10940000BDE8F883C80100203818012000ED00E015
:1094100010B5044648F04EFD0146204689B2BDE82D
:109420001040A9E638B50B4D00EB400005F274532F
:10943000C40003EBC0032C4493ED027AD3ED037A0E
:10944000E7EE007AB0EE670A48F034FDD4F87435E0
:10945000186038BDC80100202DE9F04149F0C8FC72
:1094600080B31B4F7D68002D12DD3846002410F8B4
:10947000086BA046013416B1037F012B1DD0426951
:10948000AC4200F58670136843F001031360F1D11C
:1094900011F048FDD7F8204F002C0CDD0D4B03EBED
:1094A000C4041968083333F8042CC8689C4242EAA3
:1094B0000002CA60F5D1BDE8F08180F8FC80FEF7BB
:1094C000EFFDDCE741F002FE0028CAD1BDE8F081E3
:1094D000C8010020EC1000200C4AF8B5136855694B
:1094E0002B4003EA000555617DB1094F0126B5FA0D
:1094F00085F4C4F11F0407EB840306FA04F4D3F8DF
:10950000B80403689847A543F1D1F8BD003C014079
:10951000381801200269C3682DE9F04712EA0309EF
:109520002AD005460E464FF000474FF00008B9FA22
:1095300089F327FA03F21B3BD24309EA02092A61A5
:10954000042B16D8DFE803F03B30251A0300B36A7A
:10955000002B3FD003F1FF3AC6F828801FFA8AFAA1
:10956000746A34B123682046514698476468002CD9
:10957000F8D1B9F1000FDAD1BDE8F08770680028A2
:10958000F7D0696B036889B29847B9F1000FCED163
:10959000F2E7B0680028ECD0A96B036889B298475D
:1095A000B9F1000FC3D1E7E7F0680028E1D0E96B1B
:1095B000036889B29847B9F1000FB8D1DCE7306988
:1095C0000028D6D0296C036889B29847B9F1000FFA
:1095D000ADD1D1E7E96A1FFA81FAC1E7830AA3F5A1
:1095E0008013522B52D8F0B504466A4885B0034424
:1095F00093F8F4030D2847D8674D860105EB8013D7
:10960000D3F8F874A7423FD00139C3F8F84489B2BF
:10961000C3F80415D5F89412B1FBF2F2013AC3F87D
:10962000FC240022C3F80825C3F80025C3F80C2544
:1096300093F8352502F0FF014AB358490223AF19C8
:1096400001EB8011204687F8353504313CF0EAFA09
:10965000012387F83535524B9C421BD0B4F1804F23
:1096600018D0A3F57C439C4275D003F580639C42DF
:1096700071D04C4A03F57C439C4218BF944249D0B8
:1096800003F570539C4245D005B0F0BD704783F898
:109690003415D2E700234FF48051AA19CDE9001305
:1096A00092F834150129CDE90233EDD00221D2F828
:1096B000F804012482F835153B49876839408160F8
:1096C00082F8354582F834350023AA19CDE90033F4
:1096D000029392F83435012BD6D0D2F8F834022117
:1096E0002F4882F8351583425A6899684ED000F5A4
:1096F000806083424AD022F0700221F0800135441C
:1097000001205A609960002385F8350585F83435C5
:1097100005B0F0BD00214FF48053CDE90031AB1905
:1097200093F83425012ACDE90211ADD0D3F8F8041D
:10973000022283F835251C4A87683A4082601B4A1A
:1097400083F834150121944283F83515BCD0154BAC
:109750009C4299D1B8E700224FF48051AB19CDE972
:10976000001293F834150129CDE902228CD0022190
:10977000D3F8F804012483F835150B49876839407C
:10978000816083F8354583F834259DE722F4700223
:10979000B1E700BF082E050838180120301D012050
:1097A00000000140000C00408800FEFF0004014062
:1097B0002DE9F843DDF820800F46164600212022CF
:1097C00004461D4649F062F9B8F1000F0CD0D8F8F4
:1097D0000030B8F80A20E3811B0C2382D8F804304B
:1097E0006282E3821B0C2383384646F065FEF30653
:1097F00019D4431EB8B107EB000C01E0013B12D3B2
:109800001CF801EDBEF12E0FF8D1C01A03F10109C9
:10981000421EB944032AA8BF0322082BA8BF08236D
:1098200090461A4606E008280246B9464FF000085E
:10983000A8BF08224FF020333946204623606360DA
:1098400049F0FCF804F108031748424649462081D4
:10985000A072184649F0F2F804F1FF3C0346E21DFD
:109860001CF8011FA1F1610E2039BEF1190F98BF3C
:109870008CF800106245F3D1184604F10B0110F882
:10988000013BA3F16102203B192A98BF00F8013C7B
:109890008842F4D1182365832D0CE6722373099B4B
:1098A000A582E361BDE8F883202020002DE9F04F78
:1098B000DFF88C9487B0D9F8D802C9F8DC02002B05
:1098C00000F0DA801344154601F1200601F5FE7719
:1098D000DFF870A403931FE0002D63D0D9F80C23A8
:1098E000AA4200F0CD80D9F80823AA4200F00281F4
:1098F000D9E9C421AA424CD8A94200F2CF81691A01
:10990000184640F0A1FD0135039B06F5007607F5EA
:1099100000779D4200F0B080D9F81843A6F12003EB
:10992000AC42D9D82C1BD9F82883E208D8F83010DB
:1099300004F0070402328A4203D3D8F838108A426E
:109940000DD9414610460593049240F04DFD8046E6
:10995000DDE90423002800F0C181C9F8280398F844
:109960000410002940F03F81D8F828B0BBF1000F67
:1099700000F0AD811846D8F830304FF40071D21A9B
:10998000D8F80C3004EBC20203EB42224346D8471E
:10999000B9E7A942B3D918464FF40072002149F043
:1099A00075F8B0E74FF400722946184649F06EF892
:1099B00080220346D94886F89E210C2286F8A221EF
:1099C000D9F80813D9F800238142C3F8C611C3F8A7
:1099D000CA2100F36881D24B013AD24C83FB0103C8
:1099E000C81784FB01C40B44C0EB6313C0EB2430E5
:1099F000CD4C84FB03C4C3EB831C86F8A10180100B
:109A0000A1EB0C011C4420F03F000131014386F81A
:109A1000A011D917C1EBE4110B4486F89F31BF4B5D
:109A20009A4200F34C81BE4BBE4883FB0213D11710
:109A300080FB02401344C1EB6313C1EB2031BA48F1
:109A400080FB0340C3EB831486F8A5118910121B19
:109A5000184421F03F0101320A4386F8A421DA17A5
:109A6000C2EBE010034486F8A331552386F8DE31BB
:109A7000AA2386F8DF3146E7002007B0BDE8F08F63
:109A80004FF0FF320024A6F11C00049383F8EC2170
:109A9000214683F8ED2183F8EE2183F8EF2152224D
:109AA0001A705A7061229A7083F8E7214122DA70A5
:109AB00083F8E621722283F8E42183F8E521D9F8BE
:109AC0002023C3F8E8214FF4F07248F0DFFF049B35
:109AD0005522C6F8D041C6F8D441C6F8D84183F81B
:109AE000FE216FF0550283F8FC4183F8FD4183F8B5
:109AF000FF2108E78D4C00214FF40072184648F012
:109B0000C5FF03464FF0000C022203CC46F8191C97
:109B1000EB2146F81D0C082006F8201C582106F8F9
:109B20001F1C902106F81E1CF8211A7383F80BC025
:109B300006F8130C9A7383F80FC006F8102C06F879
:109B40000B1C83F82C20D9F80813D9F8002383F8CC
:109B500019C0521A83F81BC083F81DC01A6283F81B
:109B60001EC083F81FC083F82DC083F82EC083F871
:109B70002FC0D9E9C412521A80215A623F221A76A4
:109B80004FF0FF329A763E221A77012283F8302076
:109B900083F831C086F820102921654B86F8221001
:109BA000942186F8260086F823100E21614A86F853
:109BB00024100D2186F82510552186F8DE11AA21E2
:109BC00086F8DF1103CBC6F82B101988C6F82700DA
:109BD0009B78A6F82F1086F8313003CAC6F83200F9
:109BE000C6F836108FE64FF400721846002148F090
:109BF0004DFFD8F840200346002C76D1002A00F013
:109C0000A380D8F8303011224B49CDE90044FFF74A
:109C1000CFFDD8F840301A6C002A00F0A1801B6BF1
:109C2000CDE900441122454930464FF4E07BFFF76F
:109C3000BFFD06F12003D8F84480B8F1000F3FF4CF
:109C400062AE03F120049B440495234644469846A3
:109C500010E05CF81C1B0025236BCDE900C5FFF765
:109C6000A7FDABEB0803A46C08F12008002C18BF7B
:109C70001F2B51D92379A44604F11C0E1122A8F1FF
:109C80002000002BE5D162792569236B42F0210287
:109C90002168CDE900E5FFF78BFDE2E7A91A184638
:109CA00040F0D2FB2FE6FF23013A86F89F3186F879
:109CB000A13186F8A031194B9A427FF7B4AEFF2349
:109CC00086F8A33186F8A53186F8A431CDE6594649
:109CD00018464FF4007248F0D9FE14E6A6F12403AA
:109CE00043F804AF9F42FBD10DE6002AD8F8448028
:109CF0000CBF01220222C2EB0414B8F1000F3FF4A2
:109D000002AE4246013C926C002C01DD002AF9D1E2
:109D100090464FF4007B90E7049DF4E5FF03FB00C1
:109D200083200882975545418180808058A6050888
:109D300064A6050870A6050850A6050854A60508DF
:109D400038180120DEADBEEF23460822D9F80413EF
:109D50004FF4F07BCDE90044FFF72AFD33466AE774
:109D60002346CDE900445DE710B50E4CD4F8E0324F
:109D70003BB194F8EC121A68C9079B8848BF1B04D2
:109D8000936140F0F1FA02E05B69984720B9D4F89A
:109D90003033002BF8D1FEE7D4F8D8320020C4F8D5
:109DA000DC3210BD3818012010B5044692B0080E00
:109DB0004FF0950C8DF8081000238DF80500080C65
:109DC00001228DF809C08DF80600080A062144F02A
:109DD000400C8DF8070001A8059103900DF10300D8
:109DE000174904938DF81830079308938DF82C3099
:109DF00011938DF804C00A9209908DF84020CDE9A6
:109E00000C13CDE90E3340F07FFA80F00103DBB292
:109E100003B18CB90B4C082303A904F5637084F8D3
:109E2000243410F0E1FAD4F88C23136A002BFCD10F
:109E30009DF8030012B010BDFF2012B010BD00BF8E
:109E40004D89000838180120817899B10C48D0F864
:109E5000B838102B0FD003EB430201334FF0200C26
:109E60000244C0F8B838012382F8BC1882F8BDC893
:109E700082F8BE3870470521002011F0BBBC00BF3E
:109E8000381801202DE9F043BD4C93B094F8846359
:109E9000002E00F0C78194F8583304F55D775A1E00
:109EA000082A00F25C81DFE812F035007000BB0088
:109EB0005A0148016F011C005A01090040F024FAC0
:109EC0000546002840F04683D4F84833D4F8D82219
:109ED000FA33934280F04081FEF7E4FC94F8583363
:109EE000DDE740F011FA0028EED0D4F85433002218
:109EF000012B84F84C2340F24083D4F85023013BDB
:109F0000082106460132C4F8543384F85813C4F8C3
:109F100050230EE100210846FFF746FFD4F88C23BA
:109F20000546136A002BFCD10A2011F029F8D4F859
:109F3000943313B11A689B889361012D40F00C8112
:109F40004FF0000840F2AB11082084F84D83FFF772
:109F50002BFF052800F0EC81012800F09F81D4F848
:109F60008C23136A002BFCD10A2011F009F8D4F8D5
:109F7000943313B11A689B88936194F84D33002B86
:109F800000F0E482022384F8583394F84D33002122
:109F90003720022B0CBF4FF080450D46FFF704FF22
:109FA00029202946FFF700FFD4F88C230546136AC1
:109FB000002BFCD10A2010F0E3FFD4F8943313B146
:109FC0001A689B889361002D40F0C68094F84D3349
:109FD000022B00F0198284F84E5300210920FFF76C
:109FE000E3FE002800F0A9810025D4F88C23136A31
:109FF000002BFCD10A2010F0C3FFD4F8943313B126
:10A000001A689B889361002D00F0A68000210A2029
:10A01000FFF7CAFE002840F0C481032384F85833B8
:10A02000102103A8FEF718FF002840F09580BDF826
:10A030000D209DF8143052BA9DF80C10DDF8150073
:10A04000A4F860239DF80F2000BA84F8621303F08F
:10A050000F0184F863239DF8102084F86D1384F8B1
:10A0600064239DF81120C4F8680384F865239DF8E3
:10A07000122084F866239DF8132084F867231A09B8
:10A080009DF8193084F86C231B019DF81A20DBB26F
:10A0900043EA121302F00F0203F5FA6384F8702307
:10A0A000D4F88C23A4F86E33136A002BFCD10A2059
:10A0B00010F066FFD4F8943313B11A689B8893614B
:10A0C00094F84E33B3B94FF400711020FFF76CFED3
:10A0D000D4F88C230546136A002BFCD10A2010F01B
:10A0E0004FFFD4F8943313B11A689B889361002D05
:10A0F0007FF4F2AED4F8943222499A08B1EB930F70
:10A100004FF0020306D252085B008A429BB201D98B
:10A11000FF2BF8D904220021A4F890331346C4F889
:10A12000541384F85823082B18BF042B0CBF0126A6
:10A130000026304613B0BDE8F0834FF40071D4F828
:10A140003403FEF789FE012800F0CA80022800F0DF
:10A15000CF80002800F0368194F858335A1ED2B2CE
:10A16000022AE0D8D4F8D832D4F848239B1AC82B56
:10A1700000F289800026304613B0BDE8F08300BFAE
:10A180003818012040787D01D4F88C23117B136AA4
:10A1900000294DD05269002A4AD094F81424002A8C
:10A1A00046D0B3FA83F35B09002BD5D002AA002373
:10A1B00003A9B24803920222ADF8083005920DF1CE
:10A1C00007020493099201228DF81830079308932F
:10A1D0008DF82C3011930A928DF84020CDE90C3384
:10A1E000CDE90E3310F000F9D4F88C331D6A002D40
:10A1F000FCD19DF8073003F01F03052B00F0908180
:10A20000FEF750FBD4F84083B8F1000F00F08D80CA
:10A21000D4F844332A46D4F838130120C04794F8C0
:10A2200058333CE6304684F8586313B0BDE8F083F9
:10A23000D4F8343303A994F83C23904803EB02226A
:10A240000023CDE90323CDE90733CDE909330C938E
:10A2500001238DF818308DF82C304FF4807305935E
:10A2600010F0C2F8D4F88C23136A002BFCD194F8B8
:10A270003C230132D2B2A2F1020384F83C23B3FAA8
:10A2800083F35B0990E7FEF70DFB94F85863042E07
:10A2900018BF082E0CBF012600264AE702AB03A90F
:10A2A0007648049304238DF82C50CDF80C808DF85B
:10A2B0001880CDF830800593CDE90788CDE909886D
:10A2C00010F092F8D4F88C23136A002BFCD19DF87F
:10A2D0000B30AB2B7FF445AE022384F84D3340E6C0
:10A2E000D4F84833D4F8D82264339342BFF434AF5F
:10A2F000D4F88C23136A002BFCD10A2010F040FE06
:10A30000D4F8943313B11A689B889361FEF7CAFAA4
:10A31000D4F840534DB10022D4F84433D4F8381364
:10A320001046A84794F85833B9E594F85833B6E581
:10A33000D4F88C2384F84D5313E610213846FEF7E9
:10A340008BFD00287FF450AE94F88333DB077FF554
:10A350004BAE94F87423921100F09480012A7FF49C
:10A3600043AE94F87B231621DFF814C10225920036
:10A37000D2B2C5F108038B4228BF0B46C3F10805D2
:10A380009840C91A42FA05F24FF0000540EA02006F
:10A390001CF8012FEDD1431C35469B02C4F85C33F9
:10A3A00023E6D4F88C23136A002BFCD10A2010F08A
:10A3B000E7FDD4F89433002B3FF48EAD1A689B88E8
:10A3C000936189E5D4F88C23136A002BFCD10A2011
:10A3D00010F0D6FDD4F8943313B11A689B889361BA
:10A3E00004230020D4F8405384F8583384F84C03F5
:10A3F000002D3FF49EAED4F84433D4E9CD21A847D4
:10A4000094F858335A1EAAE629463A20FFF7CCFCA6
:10A4100002AB804603A90493042318480593012343
:10A4200003958DF82C308DF818500C95CDE9075513
:10A43000CDE909550FF0D8FFD4F88C331A6A002AF9
:10A44000FCD1B8F1000F12D11A6A002AFCD10A20FF
:10A4500010F096FDD4F8943313B11A689B88936179
:10A46000029B1BBAC3F3807384F84E33B5E51A6AB6
:10A47000002A9BD01A6A002AF9D197E7C41B012051
:10A48000B31B012094F87933012094F87D134FF029
:10A49000030C03F00F03DFF828E189019840CDB2E7
:10A4A0000621C1F10803634528BF6346C3F10801D3
:10A4B0009A40BCEB030C45FA01F11EF8015F42EA39
:10A4C00001024FF00001ECD194F87A130232DFF868
:10A4D000F4800C2589014FF0060EC9B2CEF10803B5
:10A4E0004FF0000EAB4228BF2B46C3F108090CFA0F
:10A4F00003FCED1A41FA09F141EA0C0C18F8011FAE
:10A50000ECD10CF10103C11735469340A3FB0002C7
:10A5100003FB0122400A40EAC250C4F85C0364E530
:10A520000722D4F8D832D4F8406384F85823C4F80A
:10A530004833002E3FF4FDADD4F844330120D4E974
:10A54000CD21B04794F858335A1E08E61E4684F8C9
:10A550005833EEE5D4F88C23136A002BFCD10A2083
:10A5600010F00EFDD4F8943313B11A689B889361F0
:10A5700004232E4684F85833DBE516D00423D4F8A0
:10A580008C2384F85833136A002BFCD10A2010F076
:10A59000F7FCD4F89433002B3FF4DEAD1A689B88A7
:10A5A000936194F858335A1ED9E5FEF7A9FC0228A6
:10A5B0007FF4D2ADD4F88C331A6A002AFCD1E5E7D7
:10A5C000B51B0120B21B01202DE9F041054688464C
:10A5D00017461E46304C94F8580304283AD00828F1
:10A5E00007D1D4F85033AB4206D0FEF789FC0228DD
:10A5F000F1D00120BDE8F081FC23D4F88C2384F84D
:10A60000EC38117B254BC3F8A88051B1526942B197
:10A6100094F81424002A0CBF4FF480724FF4007297
:10A6200001E04FF48072C3F8B0201D491D480FF0BF
:10A63000DBFE012206230020C4F83483C4F838531B
:10A64000C4F84073C4F8446384F83C2384F8583356
:10A65000BDE8F08194F84E3353B969021820FFF732
:10A66000A3FB38B994F85833082BC5D0FE23C4E7B0
:10A670002946F3E7D4F88C23136A002BFCD10A2077
:10A6800010F07EFCD4F8943313B11A689B88936160
:10A69000FEF708F90320ADE738180120000001207B
:10A6A00080000120C41B012070B5224E05460C46D7
:10A6B00096F85833042B09D0082B1FD1D6F8503305
:10A6C000834235D0FEF71CFC022817D10021372029
:10A6D000FFF76AFB21461720FFF766FBB0B996F833
:10A6E0004E336BB969021920FFF75EFB70B908237E
:10A6F0000220C6E9D45486F8583370BD012070BDDD
:10A7000029461920FFF750FB0028F0D0D6F88C23FB
:10A71000136A002BFCD10A2010F032FCD6F89433D7
:10A7200013B11A689B889361FEF7BCF8032070BDD3
:10A73000022070BD381801202DE9F843224D8046D3
:10A740008946174695F858431E46042C08D0082C15
:10A7500002D00020BDE8F883FEF7D2FB0228F8D132
:10A7600095F84E33B3B141461120FFF71DFBC0B938
:10A770000522D5F8D8320120C5F83493C5F83883BE
:10A78000C5F84073C5F8446385F85823C5F84833C5
:10A79000BDE8F8834FEA48211120FFF705FB0028A8
:10A7A000E6D0D5F88C331C6A002CFCD10A2010F0BE
:10A7B000E7FBD5F89433002BCBD01A6820469B8852
:10A7C0009361BDE8F88300BF3818012030B490F8D9
:10A7D000443000F10801484A012BC2F8F0186ED04D
:10A7E00083684649DC68464D24F46004AB42DC6073
:10A7F000DC6844F46004DC609C6B24F440149C63CB
:10A800009C6B44F480149C639C6B24F4F8449C631C
:10A810009C6B44F488449C639C6824F470249C6082
:10A820009C689C609C6824F440149C609C689C60BC
:10A830005C6824F480645C605C6824F480545C6030
:10A840005C6901EA040159615969596147D0DC68C2
:10A850002A4924F0E064DC60DC6844F0E064DC60F9
:10A860009C6B24F440149C639C6B44F480149C63A4
:10A870009C6B24F478249C639C6B44F410249C63AC
:10A880009C6824F470249C609C689C609C6824F400
:10A8900040149C609C689C605C6824F480645C60EC
:10A8A0005C6824F480545C609C692140144C99617C
:10A8B000A3429969996118D0002380F84430114867
:10A8C000114B848DC18D408D091BC2F8F848C2F828
:10A8D000F40893FBF1F330BCC2F8FC3870470B4C22
:10A8E000616841F400016160B1E708494B6843F4D5
:10A8F00000034B60E0E700BF3818012000F0FFFFC5
:10A9000000200140007AF01F803801000023014040
:10A91000704700BF01483AF05BBE00BF4C210120E8
:10A92000084810B4D0F81439D0F8484999691A6821
:10A930002CB1234600F614105DF8044B18475DF85F
:10A94000044B70473818012001483AF041BE00BF5F
:10A95000AC210120084810B4D0F87439D0F8A849C7
:10A9600099691A682CB1234600F674105DF8044BFF
:10A9700018475DF8044B70473818012001483AF039
:10A9800027BE00BF0C220120084810B4D0F8D439EB
:10A99000D0F8084A99691A682CB1234600F6D410F9
:10A9A0005DF8044B18475DF8044B704738180120D8
:10A9B00030B40469002341684025E46882690C31A1
:10A9C000546244699560536093631160C2E9033334
:10A9D000C2E90533C2E90733C2E90A33C2E90C33DD
:10A9E00084B1C269E068936350621160C2E90133C7
:10A9F000C2E90333C2E90533C2E90733C2E90A33C6
:10AA0000C2E90C3330BC7047114A037A0168D35C49
:10AA100010B4CC58CA1824F00104CC501368DB07DA
:10AA2000FCD4037D1F2B09D9203B20225DF8044B69
:10AA300002FA03F343F01803CB60704720225DF85D
:10AA4000044B02FA03F343F018038B60704700BF16
:10AA50000CA70508F0B50668356A00295CD12F6897
:10AA6000AC68D6F818E0002F5FD0364B3B40B3F10E
:10AA7000005F61D007F01F0104F11F0327F01F02E0
:10AA8000194421F01F01BFF34F8F00290BDD114442
:10AA900002F12003DFF8B0C08B42CCF868221A46DE
:10AAA00003F12003F8D1BFF34F8FBFF36F8F03681B
:10AAB0004FF48062CEF80470CEF814205B69CEF8B3
:10AAC000204043B36868F669002837D01D4B034027
:10AAD000B3F1005F1AD000F01F0220F01F011F32F7
:10AAE000224422F01F02BFF34F8F002A0ADD0A44DE
:10AAF00001F12003144D9A42C5F87012194603F172
:10AB00002003F8D1BFF34F8FBFF36F8F4FF48063F3
:10AB1000706073613462F0BDEC69002CFBD06F692A
:10AB20001435D6F818E0002F9FD1084A3346CEF8E6
:10AB30001470CEF80420C1E73346B9E7044B7061C6
:10AB40007360E7E70000FFFF00ED00E04400002035
:10AB500048000020F8B507680646D7E90454002CE1
:10AB600050D0A0612B7D1F2B39D82022286802FAF3
:10AB700003F343F018038360237D1F2B3AD920226F
:10AB8000203B02FA03F3226843F01803D3606368A2
:10AB9000002269680A601A601A6842F010021A609E
:10ABA000BA69297A44F06EF8FA69217A206844F08B
:10ABB00069F82A7A2A492F6833688D5C5A687B596C
:10ABC000206843F001037B51237AC95C435843F06A
:10ABD00001034350536843F003035360F8BD203B27
:10ABE0002022286802FA03F343F01803C360237D90
:10ABF0001F2BC4D8202202FA03F3226843F0180363
:10AC00009360C4E72A7D6B681F2AA8611FD82021A2
:10AC1000286801FA02F242F0180282600021BA6943
:10AC20001960196841F010011960297A44F02AF876
:10AC30002A7A0B4933682868895C5A68435843F07C
:10AC400001034350536843F002035360F8BD203AB8
:10AC50002021286801FA02F242F01802C260DDE702
:10AC60000CA7050810B1036882889A61704700BF7D
:10AC700018B1838802681B049361704708B51D20D2
:10AC80000FF01AFE08B183794BB11E200FF014FEAD
:10AC900008B1837903B108BD5523C38008BD55238E
:10ACA000C380F2E7D3B2012B23D802EB42024FF06C
:10ACB000000C70B54FEA820E0F4C634622460EF12F
:10ACC000080504E00133182B11D012F81CCF6045A1
:10ACD000F8D192F801C08C45F4D15659002EF1D02C
:10ACE000C3EBC3030EEB83030433E01870BD0020F5
:10ACF00070BD0020704700BF4833050810B40C4CED
:10AD0000002304F5286C01E0152B0CD003EB430263
:10AD100001331CF802108142F6D122445DF8044B45
:10AD200092F9820A70474FF0FF305DF8044B70478C
:10AD300038180120D3B2022B21D802EB42020023A3
:10AD400030B54FEA820C0F4D0F4C2A460CF10C0E19
:10AD500004E00133172B10D052F82C4FA042F8D149
:10AD600014798C42F5D152F80E40002CF1D02C22EF
:10AD700002FB03C30833E81830BD002030BD0020BB
:10AD8000704700BF082E0508000001400348D0F8B6
:10AD9000E0300BB1D0301847704700BF00000120F1
:10ADA0000348D0F804310BB1F4301847704700BFA6
:10ADB000000001200348D0F8283113B100F58C7051
:10ADC00018477047000001200348D0F84C3113B1F8
:10ADD00000F59E7018477047000001200348D0F826
:10ADE000703113B100F5B0701847704700000120B2
:10ADF0000348D0F8943113B100F5C270184770477A
:10AE0000000001200348D0F8B83113B100F5D47028
:10AE100018477047000001200348D0F8DC3113B117
:10AE200000F5E67018477047000001200348D0F88D
:10AE3000003213B100F5F870184770470000012088
:10AE40000348D0F8243213B100F505701847704755
:10AE5000000001200348D0F8483213B100F50E700D
:10AE600018477047000001200348D0F86C3213B136
:10AE700000F5177018477047000001200348D0F80C
:10AE8000903213B100F52070184770470000012080
:10AE90000348D0F8B43213B100F529701847704751
:10AEA000000001200348D0F8D83213B100F5327009
:10AEB00018477047000001200348D0F8FC3213B156
:10AEC00000F53B7018477047000001200138074B20
:10AED000074A00EBC00003EB8000D0F8D00090429E
:10AEE0000CBF9520962040F093BB00BF00000120CE
:10AEF0000060024001382DE9E84100EBC000134D2D
:10AF00001E46134B05EB800590460F46D5F8D00042
:10AF100098420CBF9520962040F07AFB95F9E50009
:10AF20004FEA9811C5F8E070C5F8E86040F074FA8F
:10AF300095F9E530002B07DB03F01F0001225B09C8
:10AF40000449824041F82320BDE8E8810000012047
:10AF50000060024000E100E0800AA0F58010522865
:10AF600008D8054B184490F8F4330D2B02D8034A47
:10AF7000D056704700207047082E0508FCA605082B
:10AF80000120FEF7A9BA00BF0220FEF7A5BA00BF54
:10AF90000420FEF7A1BA00BF0820FEF79DBA00BF4B
:10AFA0001020FEF799BA00BF4FF47870FEF794BAFC
:10AFB0004FF47C40FEF790BA30B1036882881B6979
:10AFC0001A4214BF01200020704700BF2DE9F04F46
:10AFD000884683B004461746002800F0BC8002680B
:10AFE0005E4B13449B0A5E4AC8F3411B134493F81B
:10AFF000E00740F00DFBC8F38103B4F804E008F06B
:10B000000302256801939EFAAEF0B0FA80F002F1D7
:10B01000FF3A3EFA00F35ED00126032103E001303F
:10B020003EFA00F357D006FA00F313EA0E03F6D007
:10B03000D5F8009093FAA3F4B4FA84F493FAA3FC3D
:10B04000BCFA8CFC6400BAF1010F4FEA4C0C01FA17
:10B0500004F402FA0CFC29EA040444EA0C042C600F
:10B0600049D9D5F80C9093FAA3F4B4FA84F493FA7E
:10B07000A3FCBCFA8CFC6400022A4FEA4C0C01FAD7
:10B0800004F40BFA0CFC29EA040444EA0C04EC6016
:10B09000C5D193FAA3FCBCFA8CFC1C0ABCF1070FC7
:10B0A00041DC2C6A93FAA3FCBCFA8CFC93FAA3F360
:10B0B0004FF00F09B3FA83F34FEA8C0C01309B0079
:10B0C00009FA0CFC07FA03F324EA0C0423432B626D
:10B0D0003EFA00F3A7D1BAF1010F09D86B68C8F3A3
:10B0E000001823EA0E030EFB08FE4EEA03036B6012
:10B0F00003B0BDE8F08FD5F8089093FAA3F4B4FA42
:10B1000084F493FAA3FC6400BCFA8CFC01FA04F406
:10B110004FEA4C0C29EA0409019C04FA0CFC49EAA8
:10B120000C04AC609DE7D5F824C094FAA4F9B9FAF0
:10B1300089F994FAA4F30F24B3FA83F34FEA890947
:10B140009B0004FA09F907FA03F32CEA090C4CEA0C
:10B1500003036B6263E74FF0FF3344E70000FEBF79
:10B16000082E050800B131E770472DE9F84FC04FB0
:10B170006023064603FB0073D3F80049002C00F05F
:10B180006B81D3F808A9BAF1000F04D09AF8063001
:10B19000002B40F06181602303FB0673D3F80C5948
:10B1A0001DB1AB79002B40F05781731CDBB2BAF1B3
:10B1B000000F04D015228AF807308AF8062015B14E
:10B1C0001622EB71AA714FF06009207C40F020FA42
:10B1D000294609FB06F9504644F0F0FB042207EB30
:10B1E0000908504698F81039002B14BF3E211E2143
:10B1F000FFF7B8FF98F8103928469E4D002B4FF006
:10B2000004024D4414BF3E211E21FFF7ABFF4C2228
:10B210000021284647F03AFCD8F800399FED967A8D
:10B22000B0EE084A5B68F7EE003AB8F812994FF0B2
:10B23000000EC8F8143940F21458904B9FED905A04
:10B240009A68904BC2F38222134493F8E827D7F808
:10B250009432D34007EE903AF8EE677AC7EE275A59
:10B2600007EE909A9FED887AF8EEE77AC7EE274AC4
:10B27000DFED867AB0EE007AE5EE877AA5EE875AA2
:10B2800025EE844A37EE856A74EEE72AB9F5C87F61
:10B290000EF1010CD5BF642332234FF49670782051
:10B2A00007EE90CAD8BF4FF4167A0344C8BF4FF4D4
:10B2B000827AB8EEE77AD8BF414607EE903AC8BF27
:10B2C0004FF4FA7127EE257A01EB0A03F8EEE76AEC
:10B2D00086EE873A73EE636AFCEEE67A17EE902A02
:10B2E00007EE90AAB8EEE73A07EE903AF8EEE77A62
:10B2F00023EE243AC3EE276A36EEC53A72EEE66ACA
:10B30000C3EE077A77EEE37AFCEEE77A17EE901A4F
:10B31000C6EE877A77EEE37AFCEEE77A17EE903A9C
:10B3200003F1020A0AEB010BF0EE466A07EE90BA4F
:10B33000F8EE677AE7EE276AF4EEE64AF1EE10FAE5
:10B3400000F38E805FFA82FABAF10F0F00F28A8062
:10B35000323807EE900AF8EEE77A77EEC47AC7EE55
:10B36000876AFCEEE67A17EE900A5FFA80FABAF185
:10B370000F0F77D81FFA81FABAF1FF0F72D81FFAB0
:10B3800083FABAF1FF0F6DD812054AEA0E7302F084
:10B390007F620004134300F47F003D4A034302EA46
:10B3A00001210B43602000FB067600272846C6F8E3
:10B3B00018390123C6F81C79C6F82039C6F8247953
:10B3C000C6F82879C6F83079C6F8347943F08AFE91
:10B3D00096F85539202BD9B21AD196F85439012B49
:10B3E00016D0242386F85539D6F814391A6822F075
:10B3F00001021A601A6822F480521A601A681A60F0
:10B400001A6842F001021A6086F8551986F85479D4
:10B41000002194F912003FF0FFFF94F91230A27C52
:10B42000002B07DB02F01F0101225B098A4019494A
:10B4300041F82320002194F911003FF0EDFF94F929
:10B440001130627C002B07DB02F01F0101225B0937
:10B450008A40104941F82320BDE8F88FE64615E7F9
:10B4600001315FE7BCF10F0FF8D100239AE700BF6D
:10B47000381801204C210120286B6E4E0038024004
:10B4800000001643082E050800247449000070428D
:10B4900000FFFF0000E100E02DE9F047814DC0EB27
:10B4A000001605EBC606D6F8C03A002B00F0B880AF
:10B4B0000446070196F8300B40F0AAF896F8303BA6
:10B4C000012203F01F015B09013B8A40032B0AD8CC
:10B4D000DFE813F0DC000400E200D60072494B6A9A
:10B4E00023EA02024A623B1B04F1010905EBC30394
:10B4F0005FFA89F993F8C40A0FF0DEF9064618B12D
:10B50000122380F8079083713B1B05EBC30393F86C
:10B51000C50A0FF0D1F9824618B1132380F80790BD
:10B5200083713B1B05EBC30393F8C60A0FF0C4F904
:10B53000804618B1142380F8079083713C1B504655
:10B540002E2105EBC40595F8C82AFFF70BFE95F8E8
:10B55000C92A0E214046FFF705FE95F8C72A2E217D
:10B560003046FFF7FFFDD5F8C03A50491A688B42C4
:10B5700022F040021A6055D04D4A934269D002F53C
:10B580008062934258D1484A116A41F400411162E5
:10B59000116A21F4004111625A6842F480525A60E3
:10B5A0001A68520634D443491E68D1F82443D1F8AE
:10B5B0003003D1E9C425B0F5005F42EA0502D1F8B5
:10B5C0001C5342EA0502D1F8205342EA0502D1F8A1
:10B5D000285342EA040242EA0502D1F82C5342EA17
:10B5E0000502354D42EA000205EA060542EA050277
:10B5F0001A60D1F818235D6842EA14422F4C04EA1D
:10B60000050442EA04025A6002D1B1F834231A61F7
:10B61000DA6922F40062DA611A6842F040021A60C4
:10B62000BDE8F087204A516A41F480515162516A65
:10B6300021F480515162AFE7214A934213D11A4A53
:10B64000516A41F400515162516A21F40051516232
:10B65000A2E7154A116A41F480411162116A21F48E
:10B660008041116298E7174A934295D10E4A516A78
:10B6700041F480115162516A21F4801151628BE7CB
:10B6800009490B6923EA02020A612CE706494B6962
:10B6900023EA02024A6126E703490B6A23EA02020F
:10B6A0000A6220E7381801200038024000300140CB
:10B6B00000380040000001204000FFFFFBF0FFFFCA
:10B6C000003401400050014008B100227EE4704780
:10B6D000F8B5CB7813B900252846F8BD00F110075E
:10B6E0000C460646897838460EF000FD05460028CF
:10B6F000F1D0E0780FF0E0F8B06123780133DBB2ED
:10B7000010B1C371222383710D21FFF7DDFFB069F2
:10B71000FFF7A8FA0C4AD2F8D832632BFBD90B48B2
:10B720000EF0D0FC03463846B38236F09BFB03464E
:10B7300020B90546E0780FF01DF9CDE7306986F8AD
:10B74000D83044F005FAC7E73818012040420F000E
:10B7500070B50E4CD4F81C6F002E15DD04F587640F
:10B76000002503E0B54204F120040DD0237F01350C
:10B77000002BF7D0E06800220028F3D0217D203490
:10B78000FFF724FCB542F1D1012070BDC8010020B3
:10B79000AB4B2DE9F04F91B093F8B28CA94B00253B
:10B7A000A94F0093A94BA3F50D6ADFF8B892DFF813
:10B7B000B8B24E46B30AA3F58013522B55D8534462
:10B7C00093F8F4330D2B50D8B8F1010FFC5640F02C
:10B7D0001E81012C3FD14FF000094946204610F050
:10B7E00015F910F09BF990F800C0BCF1000F18BFDC
:10B7F000BCF1540F14BF4FF0010C4FF0000C40F09F
:10B80000028109F104091FFA89F9B9F1100FE4D195
:10B81000002D00F0BA808B4A00210DE0534493F8CC
:10B82000F4330D2B0FD8FB56A3420FD0013102F594
:10B830008672A94280F2A580906803689B0AA3F5EE
:10B840008013522BEAD90023A342EFD143799BF80E
:10B8500005009842EAD17D4B5B4513D05BF81C6F25
:10B86000B30AA3F58013522BA9D9B8F1010FF2D076
:10B8700001230024B8F1020FADD1002BABD0734BE4
:10B880005B45EBD1009B013503F58673042D0093D6
:10B890008BD1DFF8D8814FF0000B08F59E77A8F523
:10B8A000876ADAF81C3F5B4568DDD8F80C60002E2B
:10B8B00064D098F81030B088D6F80090DAF80450C8
:10B8C00063490193B0FA80F34944002D0293C3F118
:10B8D0001F034FEA9121009340F3CD80594B002480
:10B8E00005E0013403F58673AC4200F0C1801A68AC
:10B8F0008A42F6D14FF48673524A03FB0424009A1D
:10B900000BF1010B019B5100C8F8042088F810309E
:10B910000323C8F80C6003FA01F5C8F81840B371A6
:10B92000012386F807B01646A26C03FA01F12A43F8
:10B93000A264226D0A4322659AF80020002A6BD087
:10B9400003FA06F11A46636D0B4389B26365C9F8C1
:10B950001800D4F8AC00FCF7CFFB204608F1200813
:10B96000FCF79EFB0123BBF1080F07F1180708F84D
:10B97000043C08F8033C07F8073C92D111B0BDE83D
:10B98000F08FBCF1000F7FF466AF5846FCF74CFB1C
:10B990009BF80540C3B2022B00F24C83431C2D4A96
:10B9A0005BB203EB430398002B4B03F5727104E089
:10B9B000994200F03F8353F82C2FB242F8D11A7904
:10B9C000A242F5D11A58002AF2D094460023234A05
:10B9D00051680133614513D0102B02F12402F7D1D5
:10B9E0004FF0FF3303EBC3031D4A02EB830393F8CD
:10B9F000EC30002B7FF42FAF009BC3F808B041E779
:10BA0000DBB2013BEEE7002D7FF405AF23E7B4F195
:10BA1000080318BF01232DE702990004C1F12F0587
:10BA2000009903FA01F1AB40656D89B22B43636560
:10BA3000C9F81800D4F8AC00FCF75EFB8DE700BF36
:10BA400038180120D0010020FCA60508D8360508CA
:10BA50000000FEBF00000140082E0508D0000120B4
:10BA60000000012000040140F83505080006002010
:10BA7000032C00F399824FF4867303FB05A3186926
:10BA8000002800F0C18299600131CAB283F8112107
:10BA90000492542283F810216B1C0268CAF8043007
:10BAA00044790392FCF7C0FAA04B864693F8C93C50
:10BAB0000593C3B2022B00F2BD8200F1010C9C4938
:10BAC0009C4800234FFA8CFC039A0CEB4C0C4FEA79
:10BAD0008C0C05E00133172B00F0AC8251F82C0FD1
:10BAE0009042F7D10879A042F4D151F80C00002817
:10BAF000F0D02C210EEB4E0E002401FB03F303EBE0
:10BB00008E0E8B4B734419694FF4867303FB05A3A8
:10BB1000C3E90701884B9C46DCF80410884217D023
:10BB200001340CF1240C102CF6D1844B93F8C8206E
:10BB3000002A00F06282824B82488349834AC3F81C
:10BB40004804C3F84014C3F8502411B0BDE8F08F86
:10BB5000611C7A48C9B2013901EBC10100EB8101D6
:10BB600091F8EC0006900028E5D104984FF08C0C79
:10BB700081F8ED004FF4867000FB05F42046542454
:10BB800081F8EC400446811071480394544400FB52
:10BB900001F1C4F800C101FB0CF001EB4101C4F854
:10BBA0000C9001EB011C6B4901EB4000A1F54C71BD
:10BBB00001EB8C01C4F8FC00C4F8B4103321C4F8C4
:10BBC000B8106549039C0C195849D1F8949205990D
:10BBD000062900F00E82072960486149DFF888E1F4
:10BBE0000CBF84468C465F4908BF714610460593DA
:10BBF000039BB9FBF1F1B9FBFCFC4A1E4FF48679BB
:10BC00000CF1FF3192B209FB05A9A9F8BC1003F1B0
:10BC10005801A9F87420504B226600221944A4F858
:10BC200058206266E26542F0E9F8D9F810301868E9
:10BC30000493026842F0800202605A79059B0C2A44
:10BC400008D8DFE802F06B070707640707075C07FF
:10BC5000070754004FF4867202FB05A251694FF0AA
:10BC6000600C02684FF000094FF0020ECDF820C0C2
:10BC70004FF4807C22F00102CDF82890CDF838C036
:10BC80004FF0010CCDF83490CDF824C04FF00A0CE1
:10BC9000CDF83C900593CDE90BCE026008AA41F0A7
:10BCA0006BFF4FF48672049B02FB05A21968526970
:10BCB000059B012A5AD0042A58D0102A00F0A981E5
:10BCC000402A53D0B2F5807F00F0A681B2F5806F94
:10BCD00000F0A281B2F5805F00F0A481B2F5803F50
:10BCE0004FF03C090CBF08224FF400623FE04FF4D4
:10BCF00086724FF4805102FB05A25161AFE74FF409
:10BD000086724FF4807102FB05A25161A7E74FF4E0
:10BD10008672102102FB05A25161A0E74FF48672E2
:10BD2000012102FB05A2516199E700BF38180120EB
:10BD3000082E050800000140D0000120000001206D
:10BD4000C0120020F9790108F5790108017A01088B
:10BD50006B4CA407501A0020D0010020105522007F
:10BD600044950800D0DD060040771B00082201F151
:10BD7000180050F809C042EA0C0240F80920049A61
:10BD80001079002840F01C814FF48671002201FBDD
:10BD900005A1D1F810C0C869DCF800C0DCF80010BB
:10BDA00041F00101CCF8001059680132884200F0DE
:10BDB0000381102A03F12403F6D14FF0FF339F4A89
:10BDC00003EBC30302EB8303D3F8D0009C4B9842F0
:10BDD0000CBF952096203FF01BFC4FF4867303FBAD
:10BDE00005A31A6953790C2B00F2E380954901EB06
:10BDF0004303B3F8ECC84FF486731068924903FB11
:10BE000005A3A3F818C0002306E0904200F00881C3
:10BE10000133042B00F00B8151F83320002AF4D1B8
:10BE2000DAF8202F0132CAF8202F0AEBC302DB0018
:10BE3000C2F8240F1944069823469022B1F804E072
:10BE4000DFF818924CEA0E0CA1F804C07F49FFF706
:10BE500051F84FF486734FF4403C402103FB05A595
:10BE60000023E869026842F010020260026842F0B2
:10BE700014020260C4F8A830C4E91F33C4E92833AF
:10BE800004232A6AC4F898C04FF4804CC4F89C304C
:10BE90004FF48063A167C4F88430C4F89420D5F8C7
:10BEA000B820C4F89020C2B220F0FF00103AA9FBDD
:10BEB0000231EA68039B1832090922674FF4805265
:10BEC000C4F8882003F17002614B1A44D5F8B430ED
:10BED000C4F88CC0636742F0D5FEE869039B4FF459
:10BEE0000031D0F800E04FF4006C03F1B802584B79
:10BEF000C4F820E0D0F814E01A440023C4F824E089
:10BF0000D0F804E0C4F828E0D0F808E0C4F82CE049
:10BF1000D0F80CE0C4F8C830C4F830E0C4F8F03011
:10BF2000C4E93033C4E93A332B6A03930423C4F8D9
:10BF3000E4304FF48063C4F8CC30039BC4E937315C
:10BF4000D5F80031C4F8D830C3B220F0FF00103B60
:10BF5000A9FB0331EB68C4F8D0C010330909C4F859
:10BF6000B830D5F8FC3003934FF48043C4F8D43094
:10BF7000039BC4F8BC3042F085FEEB69B0881A68B8
:10BF8000D6F8009062635A69A2635A68E2639A68BD
:10BF90002264DA6862641A6842F010021A601A6851
:10BFA00042F014021A60AAE403232A4A82F8C83C29
:10BFB000C1E54FF0000C1EE7D3B20693013BFEE64D
:10BFC000079305910EF078FC05998146079B58B1BF
:10BFD00005930221049BDA79FEF7F8FF049B5422B3
:10BFE000A9F806201968059B4A6C42F400424A648D
:10BFF000CAE6DFF86CC01849F8E50499542283F8C2
:10C00000C91083F8C82096E50223124A82F8C83C7A
:10C0100091E54FF40062AAE608224FF00409A6E673
:10C02000DB0007E74FF400624FF004099FE60023AE
:10C030009B88FFDE00235B68FFDE00BF000001205D
:10C0400000600240082E0508EC1000204581000821
:10C05000D001002038180120A0BB0D00ABAAAAAA6D
:10C06000882A11002DE9F84F714E0022714B0546C8
:10C07000D6F8CC4C5968013224338C4200F0B180A0
:10C08000102AF7D100246C4B9D4205D048339D42C5
:10C0900002D00020BDE8F88F04F1FF39674F09EBAB
:10C0A000C9034FEAC90807EB830393F8EC20002A81
:10C0B000EFD14FF0170BA3F8ECB0002CE9D0DFF86C
:10C0C00094A10120DAF8243043F40063CAF8243044
:10C0D0000FF072F9DAF82430012023F40063CAF873
:10C0E00024300FF069F9A6F81EBEDAF8443043F4A4
:10C0F0000063CAF84430DAF8303043F48003CAF8F9
:10C100003030DAF8303043F00C03CAF8303096F8AB
:10C11000D23C002B67D10C220E214948A6F83EBE26
:10C12000A6F86EBEFEF752FF0C220E214548FEF720
:10C130004DFF0C220E214448FEF748FF434BDA68BE
:10C14000C6F8CC5CC2F30222C2F10701131D042918
:10C1500028BF0421062B4FF0FF338CBF033A002287
:10C160008B403B49DB4303F001039340394A1B01F9
:10C17000DBB281F831334FF400334B60136B43F47F
:10C180008003136300232B60334BAB6003F59B33B9
:10C1900003F5EC739D4245D0304B4FF47412DA60D6
:10C1A000C8442F4B07EB8807D7F8D00098420CBF44
:10C1B000952096202B4B2B6007236B613FF028FACC
:10C1C000D6F8CC2C1C4B20469A424FF000034FF07F
:10C1D00001020CBF24492549FEF78CFE0120BDE871
:10C1E000F88FD4B24FE70C220E211548A6F826BED0
:10C1F000A6F82EBEA6F836BEA6F83EBEA6F86EBEBF
:10C20000FEF7E4FE0C220E211948FEF7DFFE0C2299
:10C210000E211848FEF7DAFE0C220E211648FEF712
:10C22000D5FE81E74FF0746243F8502CB8E700BFA9
:10C2300038180120D000012058640240000001207D
:10C240005026012070260120A026012000ED00E0EC
:10C2500000E100E000380240802C01400064024010
:10C26000006002406054A308E1CE0008A9CF000896
:10C27000582601206026012068260120F8B590F894
:10C28000B2311C09013C052C0FD81B4E054603F0AA
:10C290000F0306EB4402B2F8080940FA03F2D20792
:10C2A00003D595F8BD71012F01D00120F8BD07FA23
:10C2B00003F33444013B184044F02AFE94F8142957
:10C2C00013180E4A02EBC30152F833208B88106911
:10C2D0001840EBD0002395F8B3210846022185F8D9
:10C2E000BD31FEF773FED5F820213846136843F0C0
:10C2F00008031360F8BD00BF082E050810250120B3
:10C3000070B503798AB0344C002B14BF012200228F
:10C3100084F8842303D184F858330AB070BD04F53F
:10C320006376054690F9001030460DF0DFFEAD78DB
:10C33000002D44D101232949294A84F89833D4F89F
:10C340009432C4F82024B1EB930FC4F894534FEA0D
:10C3500093024FF0020306D252085B008A429BB25E
:10C3600001D9FF2BF8D94FF47A70A4F890330FF06D
:10C3700023F8D4F8943313B11A689B889361194D4C
:10C38000EC460FCDACE80F000FCDACE80F0095E800
:10C3900003008CE80300694630460EF025F8D4F817
:10C3A0008C23136A002BFCD1D4F8D812012284F814
:10C3B0004C33C4F8481384F858230AB070BD28469B
:10C3C0000EF07AFA05460028B4D01E2300220D2173
:10C3D000C380FEF7FBFDADE738180120801A060088
:10C3E0006C1B012024370508014B53F820007047CF
:10C3F00050280040014B43F820107047502800405F
:10C400001D4B1E48196C1E4A41F0805130B419640E
:10C4100082B0196CFF2401F08051019101990168EB
:10C4200041F480710160CA20196C41F48061196483
:10C43000196C01F4806100915321009D5462506297
:10C4400051625B6FDB000DD40E4B00210E4A43F8A6
:10C45000041B9342FBD10D4B0D4AC3F8502802B088
:10C4600030BC7047094A0A4BD2F850289A42EBD1A7
:10C4700002B030BC704700BF00380240007000407E
:10C4800000280040542800406C2800400020004054
:10C49000316665422DE9F04F0646086883B0850A8B
:10C4A000BDF83040A5F580159DF8349001940C46F8
:10C4B000522D59D8DFF82883454495F8F4530D2DB3
:10C4C00052D81946FDF78AF821686279B9F1000F50
:10C4D0004DD18B0A94F806B0A3F58013DC46522B9D
:10C4E0004ED9BC4B1CF0020F00F0CD8002F01F07AC
:10C4F00003EB8512AD01D2F8F8040422BA40076AB2
:10C5000027EA02070762076A3A430262426C42F472
:10C5100000424264B04A87683A40062A06D0B2F523
:10C52000803F03D0026842F0010202605A190220E3
:10C5300082F83505D2F8F804A74A87683A40062AF7
:10C5400006D0B2F5803F03D0026842F001020260DB
:10C550002B44012283F8352501F13402637971609F
:10C560000021D0183060D15003B0BDE8F08F8B0AA5
:10C5700094F806C0A3F580138CF0010B522BB0D8B1
:10C58000434493F8F483934BB8F10D0FAAD84FEAC4
:10C590004B0003EB881E4FEACB0B00F002000BF0C0
:10C5A000080A4FEA881B9EF83485B8F1010F99D02C
:10C5B0004FF001088EF834854FF002088EF835856B
:10C5C000142A53D8DFE812F08C01520052005200B6
:10C5D0005101520052005200140152005200520008
:10C5E000C70052005200520089005200520052000F
:10C5F000150003EB0B0EDFF8EC81DFF8E0A1DEF8AD
:10C60000F8E4DEF82090D64529F48019CEF8209081
:10C61000DEF8209029F4001949EA0050DEF8049071
:10C62000DEF8547007EA080848F4C04800F0968124
:10C630000AF5806AD64500F09181019FCEF80490FA
:10C64000CEF85480CEF85C70CEF82000DEF85400AE
:10C6500040F40060CEF85400DEF8540020F480600E
:10C66000CEF85400DEF85400CEF8540003EB0B0073
:10C6700001271CF0020F80F835754FF0000780F895
:10C6800034757FF433AF03EB8510012702F01F02EE
:10C69000AD01D0F8F80407FA02F2076A27EA0207A8
:10C6A0000762076A3A4302624C4A90420AD002F596
:10C6B0008062904206D08768474A3A40062A7FF453
:10C6C0002EAF33E7426C42F400424264424A87682C
:10C6D0003A40062A7FF423AF28E703EB0B0EDFF87E
:10C6E0000881DFF8F8A0DEF8F8E4DEF82090D645FF
:10C6F00029F48039CEF82090DEF8209029F4003912
:10C7000049EA0040DEF80490DEF8547007EA0808B1
:10C7100048F0600800F01F810AF5806AD64500F0F5
:10C720001A81019FCEF80490CEF85480CEF858704C
:10C73000CEF82000DEF8540040F00800CEF8540097
:10C74000DEF8540020F00400CEF85400DEF8540067
:10C75000CEF854008AE703EB0B0EDFF89080DFF889
:10C760007CA0DEF8F8E4DEF82090D64529F4805964
:10C77000CEF82090DEF8209029F4005949EA0030E4
:10C78000DEF80490DEF81C7007EA080848F4C04898
:10C7900000F0F0800AF5806AD64500F0EB80019F3A
:10C7A000CEF80490CEF81C80CEF84070CEF8200071
:10C7B000DEF81C0040F40060CEF81C00DEF81C001F
:10C7C00020F48060CEF81C00DEF81C00CEF81C00BF
:10C7D0004CE700BF381801200700010000000140AD
:10C7E000082E0508FF8FFFFE8FFFFEFFFF8CFFFE68
:10C7F00003EB0B0EDFF8AC81DEF8F8E4DEF82090F6
:10C8000029F48079CEF82090DEF8209029F4007980
:10C8100049EA0020DEF80490DEF81C7007EA0808F8
:10C820005F4FBE4548F0600800F09B8007F58067C9
:10C83000BE4500F09680019FCEF80490CEF81C8093
:10C84000CEF83C70CEF82000DEF81C0040F0080066
:10C85000CEF81C00DEF81C0020F00400CEF81C000E
:10C86000DEF81C00CEF81C0000E703EB0B0EDFF82F
:10C870003881DEF8F8E4DEF8209029F01009CEF8CF
:10C880002090DEF8209029F0200949EA0010DEF817
:10C890000490DEF8187007EA0808414FBE4548F4D6
:10C8A000C04873D007F58067BE456FD0019FCEF8B2
:10C8B0000490CEF81880CEF83870CEF82000DEF85C
:10C8C000180040F40060CEF81800DEF8180020F4DC
:10C8D0008060CEF81800DEF81800CEF81800C5E623
:10C8E00003EB0B0EDFF8BC80DEF8F8E4DEF82090F6
:10C8F00029F00109CEF82090DEF8209029F00209F5
:10C9000040EA0900DEF80490DEF8187007EA08082B
:10C91000234FBE4548F060082FD007F58067BE451D
:10C920002BD0019FCEF80490CEF81880CEF834704A
:10C93000CEF82000DEF8180040F00800CEF818000D
:10C94000DEF8180020F00400CEF81800DEF8180019
:10C95000CEF818008AE649F48039E2E649F48029E5
:10C960006BE620F4006049F4405940EA0A2020F4C4
:10C97000806060E749F4804911E720F0080049F43D
:10C9800040794AEA000020F00400CAE720F0800065
:10C9900049F4406940EA0A1020F0400086E700BFF1
:10C9A000000001408CFFFEFFFF8CFFFEF0B5044647
:10C9B000D0F89400434B83B0A16804F1640204F101
:10C9C00018070E68C1B220F0FF0001921039A3FBD6
:10C9D0000131090942F0A0F9616D0023019A012992
:10C9E00084F8583018D0042916D0102955D0402981
:10C9F00012D0B1F5807F53D0B1F5806F50D0B1F532
:10CA0000805F55D0B1F5803F4FF03C030CBF6FF015
:10CA1000080C6FF4006C01E06FF0080C06F11805CB
:10CA20003046E95801EA0C01E950616D41F0A4F883
:10CA3000636D012B16D0042B14D0102B0FD0402B7C
:10CA400010D0B3F5807F2FD0B3F5806F2CD0B3F525
:10CA5000805F31D0B3F5803F06F1540502D04FF42A
:10CA6000006100E008212B683A46D4F894000B439B
:10CA700040212B602162C1B2124B20F0FF0010391F
:10CA8000A3FB0131090942F0FDF8D4F894201368A2
:10CA900043F01003136003B0F0BD6FF4006CBDE70A
:10CAA0006FF0080C0423B9E706F11C050821DAE74A
:10CAB0006FF4006C0423B1E706F11C054FF400612C
:10CAC000D1E700BFABAAAAAA2DE9F04FDFF85CB20C
:10CAD0009BF800402DED028B87B034B9012420462D
:10CAE00007B0BDEC028BBDE8F08F8B4BDFF840A2A6
:10CAF000D3F8D83208EE103A0EF014FA9AF8243C23
:10CB00000390002B00F001810BF234670BF63433F5
:10CB10000BF63C4400263D4601930597DAF81C3499
:10CB2000039AD31A03D4EA6D9A4200F3D08006EB3D
:10CB300086030BEB431393F88C3603F0FF0202924B
:10CB4000002B00F08D80D5F89410AB6873481A68FC
:10CB5000CBB221F0FF01103BA0FB030370481B097F
:10CB6000C35C19444B68A9891FFA83FCD368CCF1D4
:10CB7000160C23EA0103BCF1070FD36070D9DBF870
:10CB80003C3B00220121013396468946CBF83C3BD1
:10CB9000D5F89C301F46049357F8048B40461CE0A0
:10CBA000D7F80080BEF1140FA8EB000340461CDC50
:10CBB00013F1080848BF03F117084FEA28130EEBDA
:10CBC000281E03F1FF38013102FA03F3043709FA92
:10CBD00008F28C4542EA030207D38C45E0D8CEF137
:10CBE000150338684FF0150EEBE7BEF1150F65D150
:10CBF0004C49C2F38423C2F3441001EB830301EBDD
:10CC00008000D3F84439D0F844091B0243EA0013EA
:10CC100002F01F00C2F3C43201EB800001EB82027C
:10CC2000D0F84419D2F844290B4343EA023383EA8B
:10CC3000132282EA121202F00F020F2A3ED1C3F32E
:10CC40000F134FF6FF72934238D0B3F5606F45D0A3
:10CC5000019A9381029918EE102A20460DF0D8F916
:10CC6000019B284601365C341433A0350193FFF74D
:10CC70009DFE9AF8243CB3423FF750AF0122059F36
:10CC80008BF8382C0022CAF81C24002B3FF426AF66
:10CC900003EB830307EB43133A7CA03757F84C0CA4
:10CCA00012F0020F57F8982C11680A6A14BF42EA72
:10CCB00080020243BB420A62EED10FE7DBF8383B49
:10CCC0000133CBF8383BCEB100230293C2E70024F6
:10CCD000204607B0BDEC028BBDE8F08F0E4991F8FD
:10CCE000A82402EB420201EBC202324492F855241E
:10CCF0000D2AADD18023019A9377ABE7049958228E
:10CD0000094845F09BFE0296A4E70122CAF81C34AC
:10CD10008BF8382CE3E600BF38180120ABAAAAAA8A
:10CD20000CA70508082E0508A80D0020C801002042
:10CD3000C01200204A1C4FF4003310B408BF4FF05B
:10CD4000800C4C4C18BF4FF0450C00E0FBB1626BFF
:10CD5000013B12EA0C0FF9D0002923DD626B520768
:10CD60001CD403291ED0434A536B13F0010320D176
:10CD7000022908D01369DBB283421ED1012953690D
:10CD80002BD006291BD000205DF8044B70470029EA
:10CD900004DD636B5C0701D40329E4D103205DF853
:10CDA000044B7047002B5DF8044B14BF0020032098
:10CDB000704701205DF8044B70471020EFE713F433
:10CDC000604F02D12C4AC2F8D83F990431D45A049A
:10CDD000F3D41B04D7D50F20E1E7284818400028DA
:10CDE000DDD0002B29DB5C0025D4980029D4D900A4
:10CDF00025D41A0129D45C0125D4D8012FD41902D5
:10CE0000E9D45A02D9D49C0227D4D8022FD41903CA
:10CE10000FD45A0329D49C0325D4D80321D4190450
:10CE200019D45A0415D49C0411D41807ABD51A2070
:10CE3000B5E71320B3E70920B1E71C20AFE70B20CB
:10CE4000ADE70A20ABE70D20A9E70C20A7E71920E2
:10CE5000A5E71820A3E71720A1E711209FE70E20E0
:10CE60009DE716209BE7152099E7142097E71220ED
:10CE700095E700BF002C01403818012008E0FFFDB5
:10CE8000F8B5154D6B6893B1E9680446012914D0D3
:10CE9000124B40F2FF500021DA6A22F00802DA62F7
:10CEA00098636960236823F001032360F8BD0B4A8F
:10CEB000D36B43F48073D363F8BD084E40F2FF5741
:10CEC00000230C20B763B36040F24C43F360FFF7DC
:10CED00031FFB763DCE700BF38280120002C014098
:10CEE0002F4B1A68910102D59A6D52074BD42C4BE7
:10CEF0001A68500202D5DA6E11063CD4284B1A6823
:10CF0000D20102D59A6D90072DD4254B1A68510194
:10CF100002D59A6D120717D4214B1A68120112D547
:10CF20009A6DD0060FD59A6D510334D49A6DD205FF
:10CF300003D49A6D22F010029A65194B4FF00062EB
:10CF400018489A609CE770479A6D500307D49A6D11
:10CF5000D10503D49A6D22F008029A65104B4FF068
:10CF600080629A60D8E79A6D4FF0807122F00202D9
:10CF70009A659960C9E7DA6E4FF4800122F0800269
:10CF8000DA669960BAE79A6D4FF0007122F00402F8
:10CF90009A659960ABE74FF000629A60704700BFF6
:10CFA0000064024058640240384B5A68110303D5AC
:10CFB000D3F8A02052075BD4344B5A68D00303D572
:10CFC000D3F8B420110649D4304B5A68520303D524
:10CFD000D3F8A020900737D42C4B5A68D10203D540
:10CFE000D3F8A02012071CD4284B5A68920217D5F8
:10CFF000D3F8A020D00613D5D3F8A020510341D4F4
:10D00000D3F8A020D20505D4D3F8A02022F0100236
:10D01000C3F8A0201D4B4FF400121D48DA602FE723
:10D020007047D3F8A02050030AD4D3F8A020D1052C
:10D0300005D4D3F8A02022F00802C3F8A020134B97
:10D040004FF48012DA60CFE7D3F8A0204FF48021AC
:10D0500022F00202C3F8A020D960BDE7D3F8B420C3
:10D060004FF4803122F08002C3F8B420D960ABE7DE
:10D07000D3F8A0204FF4002122F00402C3F8A0202E
:10D08000D96099E74FF40012DA60704700640240FB
:10D09000A0640240554B13F8E83C022B00F2958047
:10D0A0002DE9F041524D82B06B6913F0007303D04B
:10D0B0000E2002B0BDE8F081CDE9003340F2FF560A
:10D0C0004FF48A6308270446AE630121AF60102045
:10D0D000EB60FFF72FFEAE630028EAD1DFF81C817A
:10D0E00040F27743AE630121D8F8D82F3720AA60E9
:10D0F000EB60FFF71FFEAE630028DAD13D4A40F235
:10D10000734301216A62AF62EA6A42F03302EA6263
:10D11000AE63A8603320EB60FFF70CFEAE6300281F
:10D12000C7D1694640F22A4201E09F0251D46B6B9D
:10D1300013426B6BF9D01E0750D46B6B98074FD41A
:10D140006B6B99064ED46B6B9B024DD4B4F5006F9C
:10D15000009B08BF4FF480221BBA18BF4FF48032E7
:10D160001A4234D0224D40F2FF56D8F8D82F40F260
:10D170007743AE630121AA603720EB60FFF7DAFD49
:10D18000AE63002895D1B4F5006F40F24643AE631C
:10D190004FF0010108BF0220A8600620EB60FFF7F6
:10D1A000C9FDAE63002884D16B6803F400639C4220
:10D1B0003FF47FAF104A6B68134023436B606B688A
:10D1C00003F40063A342F6D173E7282070472620BA
:10D1D0006FE7D5F8803041F8043BA8E7042068E702
:10D1E000022066E7062064E7222062E7302901205A
:10D1F000002C014000E1F5050081FFFF38180120F7
:10D2000070B5184D40F2FF56174C40F24D43D5F81B
:10D21000D82F0121A6630D20A260E360FFF78AFDED
:10D22000A66320B96369C3F34323042B02D04FF0F4
:10D23000FF3070BDD5F888030028FAD001688388D4
:10D24000096995F885230B402AB1002B0CBF0020FB
:10D250004FF0FF3070BD002B14BF00204FF0FF30A7
:10D2600070BD00BF38180120002C014070B51B4E66
:10D270001046D6F888433CB12568A2882C69224024
:10D2800096F8854324B32ABB0A4600213DF062FE8E
:10D2900000BB134A5368002BFCD1124C40F2FF55DF
:10D2A000D6F8D82F40F24D43A5630121A2600D208E
:10D2B000E360FFF73FFDA5630028F1D16369C3F385
:10D2C0004323042BECD1D6F8D832C6F8DC3270BD3B
:10D2D000002AD9D14FF0FF3070BD00BF38180120AF
:10D2E00038280120002C014070B51B4E1046D6F89E
:10D2F00088433CB12568A2882C69224096F8854372
:10D3000024B32ABB0A4600213DF0BEFD00BB134AF0
:10D310009368002BFCD1124C40F2FF55D6F8D82F61
:10D3200040F24D43A5630121A2600D20E360FFF7A9
:10D3300001FDA5630028F1D16369C3F34323042BE6
:10D34000ECD1D6F8D832C6F8DC3270BD002AD9D17B
:10D350004FF0FF3070BD00BF381801203828012081
:10D36000002C0140F0B5C94CC94BD4F8DC1FD4F8EF
:10D37000E02F880FC2F38035C2F3072C03F8E00CCE
:10D38000C1F3836003F8DF0CC1F3016003F8DE0C26
:10D39000C1F3074003F8DD0CC1F30720C9B203F85D
:10D3A000DC0C100E03F8DB1C0101C2F3035023F860
:10D3B000DA1C33F8DA1C89B20143C2F3034023F8C4
:10D3C000DA1CC2F3C03103F8D80C002003F8D71CD4
:10D3D000C2F3403103F8D65C03F8D51CC2F3003128
:10D3E00003F8D41C13F8E81C03F8D30C012940F20D
:10D3F000F380022900F0C580D4F8E41F2A204FEA08
:10D400004C0C03F8C75CC1F3C016D4F8E82F0CF03D
:10D410007E0C01F07F0103F8C6CC4FF0010C13F82D
:10D42000C65C3543C2F3815603F8C65C03F8C51CDD
:10D43000D10FD4F8EC5F03F8C41CC2F3417103F8B8
:10D44000C31CC2F3826103F8C21C910D01F00C01F0
:10D4500003F8C11C13F8C11C3143C2F3405603F852
:10D46000C11CC5F3074103F8C06C0026090203F88C
:10D47000BF6CC2F3004603F8BE6CC2F3C03603F8BB
:10D48000BD6CC2F3803603F8BC6CC2F3403603F8BF
:10D49000BB6CC2F3003603F8BA6CC2F3812603F802
:10D4A000B96CC2F30126C2F3460203F8B86C03F864
:10D4B000B72C2A0E03F8B6CC03F8B42CC5F3072218
:10D4C00023F8B21C2D0633F8B21CD4F8F06F89B2E1
:10D4D000114323F8B21C310E43F8B05CC6F30725A4
:10D4E00053F8B02C42EA014243F8B02C320A53F808
:10D4F000B01C02F47F420A43D4F8F81F43F8B02C62
:10D50000D4F8F42F53F8B04C2543F4B243F8B05C90
:10D51000150E03F8AC4C140C03F8AB5C240643F86E
:10D52000A84C140253F8A85C224604F47F042C4350
:10D5300092B243F8A84C53F8A84C2243C1F30354C9
:10D5400043F8A82C53F8A82C42EA116243F8A82CFF
:10D5500013F8A42C2243C1F3072403F8A42C0A0ACD
:10D56000C1F3460102F4706223F8A22C33F8A22C16
:10D5700092B2224323F8A22C03F8A01C03F89FCCFC
:10D58000F0BD1204D4F8E41F02F47C120D0EC1F3B6
:10D59000072C43F8D02C53F8D02C42EA052243F84C
:10D5A000D02CC1F3074253F8D05C2A434FF40075E6
:10D5B00043F8D02C53F8D02C43F8905C013240F162
:10D5C0000005AD0245EA9255920243F8945CC1F31E
:10D5D000803543F8982C12E74FEA8C2C4FF0010E5F
:10D5E00092000CF4406102F47F7243F8D01C53F8AF
:10D5F000D01C0A43D4F8E41F43F8D02CCA0B53F8CC
:10D60000D05CC1F3072C02F0060245EA917543F89D
:10D61000D05CC1F3C26503F8CC5CC1F3026503F8CA
:10D62000CB5CC1F3425503F8CA5CC1F3824503F8F1
:10D63000C95CC1F3C03503F8C82C13F8C82C2A43C1
:10D6400003F8C82C53F8D05C13F8C82C13F8D86C26
:10D6500002320EFA06F60EFA02F243F8906CD71771
:10D66000A2FB062E06FB07EE05FB0EEE0135A2FB24
:10D670000525AE44520AC1F3803542EACE5243F842
:10D68000982C4FEA5E2243F8942CB8E63818012013
:10D6900030290120A34A0220A34B516C41F40061C0
:10D6A0002DE9F043516483B0526C03259F4C02F482
:10D6B00000620192019A6268134043F0760363604E
:10D6C000636823F48073636025600DF075FE636802
:10D6D00040F2FF50002143F480734FF48062636096
:10D6E0004FF40033A063A160E26001E0002B60D042
:10D6F000626B013B1506F9D5002B5AD040F2FF555D
:10D700004FF4D5724FF489630721A5630820A56300
:10D71000A260E360FFF70EFBA563002842D04FF044
:10D720000009824F40F2774340F2FF580022012166
:10D730003720C7F83880BA60FB60FFF7FBFAC7F8FC
:10D740003880034650BB7A4D0446064649EA050533
:10D7500010E0C7F83880BD60FA60FFF7EBFA4FF6CB
:10D76000FE720346C7F83880C0B97B69002B29DBFD
:10D77000944227D840F27743C7F838800121BE6031
:10D780003720FB60FFF7D6FA034640F269420321D7
:10D7900029200134C7F83880002BDAD0184603B0AE
:10D7A000BDE8F083634B01224FF0804903F8E82C79
:10D7B000B7E703235D4A40F2FF511846916303B077
:10D7C000BDE8F0834FF6FF72944200F0A48013F09E
:10D7D000804F564B2CD11B68980730D0554B13F80F
:10D7E000E80C042830D1FFF7BDFD03460028D5D151
:10D7F000514E40F247434D4C40F2FF55D6F8D82FDA
:10D800000121A5630720A260E360FFF793FAA563F7
:10D81000454A63681A40034662600028BED196F804
:10D82000D23C0BB14FF4006003B0BDE8F04331E4EB
:10D830001B6802203F4A9C0702F8E80C04D126230B
:10D84000184603B0BDE8F0833849002340F2FF5486
:10D8500040F2C2428C638B604FF40033CA6000E038
:10D8600023B14A6B013B12F0450FF9D02F4A536B9D
:10D870005B0752D4536BD90748D440F2FF532E4C68
:10D880000128936351699369C4F8EC1FC4F8F03F11
:10D89000D169136AC4F8F41FC4F8F83F01D9062807
:10D8A00031D1224D40F2434340F2FF56002206217F
:10D8B0000320AE63AA60EB60FFF73CFAAE63034659
:10D8C00000287FF46BAF194D40F2C943D4F8D82F2C
:10D8D00040F2FF5602210920AE63AA60EB60FFF719
:10D8E00029FAAE63034600287FF458AF6869A96936
:10D8F000EA692B6AC4F8DC0FC4F8E01FC4F8E42F0F
