:020000040800F2
:10000000F0FF0010616006084DE9050881F801085D
:100010000161060801610608016106080000000090
:1000200000000000000000000000000051E9050889
:1000300055E905080000000059E9050895A60108E2
:1000400001610608016106080161060801610608F0
:10005000016106080161060829AD000831AD0008FC
:1000600039AD000841AD000849AD0008F5A9000808
:1000700009AA00081DAA000831AA000845AA00081C
:1000800059AA00086DAA0008016106080161060866
:1000900001610608016106080161060851AD00080A
:1000A00075C30008D5C2000885C30008C5C2000892
:1000B000FDC200080DC300081DC30008DDA0000834
:1000C00081B80008E5A0000885B8000801610608AD
:1000D00001610608C99F0108CDA00108D1A101084E
:1000E00059AD000801610608E51C060895C3000823
:1000F0004DC30008A5C300083DC3000881AA00083D
:1001000001610608016106082DC3000801610608A7
:10011000D5A20108D9A3010859D8000891D8000830
:1001200095AA0008A9AA0008BDAA0008D1AA00083B
:10013000E5AA0008016106080161060801610608D8
:100140000161060801610608016106085DE905080C
:10015000F9AA00080DAB000821AB0008DDA40108D6
:10016000EDA0000889B800080161060801610608D1
:1001700001610608016106080161060801610608BF
:08018000016106080161060897
:10800000074BD0F8E4105B68D0F8F0205B1A9A4276
:10801000B8BFC0F8F030012380F81C310020704751
:10802000001000E0B74B00EB800270B503EBC20418
:1080300053F832205268B2F814C01CF0010F4FEA16
:1080400080016AD15FFA8CFE1EF0020F3DD0BFF3B3
:108050005F8F257F012D5FFA85FC00F0CC80148BAB
:10806000BFF35F8F0C1803EBC404257F022D00F0D3
:10807000E3800C1803EBC404257F032D06D1A47FF5
:1080800024B193F87940002C40F0E5809488A4B2A4
:1080900044F48064948093F978C001EB000E03EB04
:1080A000CE0E9EF81CE00EF1010EE6450CD1002428
:1080B00083F8794093F87A40002C40F0B680084469
:1080C00003EBC00300225A7670BD1EF0040F5BD193
:1080D0001EF0400E00F0C880158A93F978C0666AD9
:1080E000EDB206F80C505FFA8CFE267F0EF101040B
:1080F00064B2E51CAE4283F87840A44600F02A81C1
:108100000D1803EBC5052D7FAC42C6D10EF1020C54
:108110004FFA8CFC83F878C0BFE7B2F800C02CF4AB
:10812000006C4FEA0C4C4FEA1C4CA2F800C0B2F8AD
:1081300000C01FFA8CFC4CF4806CA2F800C0A57F34
:108140004FF0000C83F878C0002D46D093F879509A
:10815000002D3FD0012483F879400C1803EBC404B0
:10816000247F022C04D11488A4B244F40064148047
:108170000C1803EBC404A47E44F0010414820844E8
:1081800003EBC0031B7F70BDA57F4FF0010C83F88C
:108190007AC0002D6FD093F87950002D70D10C1853
:1081A00003EBC404647F002C00F0AE80148893F8C5
:1081B00078C0A4B244F400740CF1010C14804FFA9E
:1081C0008CF483F87840B2F800C01CF4807FFAD1B8
:1081D000A44662E7E47EFF2CBCD00C1803EBC40479
:1081E000A57E05F0FE051582E27EFF2AC7D0FF229C
:1081F00083F87820C3E7A47F002C3FF430AF93F8D6
:108200007940002C3FF42BAF148824F480642404BC
:10821000240C1480BFF35F8F148B148883F87AC00A
:10822000A4B244F40074148030E7948824F44074B9
:108230002404240C948042E7A47F002C3FF419AF5F
:1082400093F87940002C3FF414AF148824F4806430
:108250002404240C1480948824F480642404240CC2
:10826000948093F978C018E71FFA8CF52D0631D465
:1082700093F978C011E793F87940002C8FD095E7F7
:10828000257F022D15884AD925F480652D042D0CF3
:108290001580158A666A93F978C0EDB206F80C501D
:1082A000666A1488A4B244F4007414805FFA8CFCEB
:1082B000158A0CF1010464B2EDB2355595880CF1C4
:1082C000020CADB24FFA8CF445F4806583F8784027
:1082D000958078E793F978506E1C42D0266A765DD7
:1082E0001682247F05F1010C4FFA8CFC644583F85B
:1082F00078C07FF4D2AE948824F480642404240CE3
:108300009480CAE6801A00201488A4B244F48074D1
:108310001480012483F8794093F9784053E7ADB293
:1083200045F400751580158A666A93F978C0EDB238
:1083300006F80C505FFA8CFC666A158A0CF1010491
:1083400064B2EDB20CF1030C35554FFA8CF483F89E
:10835000784038E7958825F480652D042D0C9580AC
:10836000CEE6E57E1582A57F83F878E01DB9247FEF
:10837000002C7FF404AF948824F480642404240C3B
:108380009480FCE61B4B01681B4A03F5727C03E0FA
:1083900063452CD053F82C2F9142F9D170B593F846
:1083A00004E0427996450AD0634505D053F82C2F56
:1083B0009142F4D06345F9D14FF0FF3070BD9E4635
:1083C0008468DEF80C50A5424FF0000208D001325C
:1083D000032A0EF10C0EE7D0DEF80C50A542F6D1C0
:1083E000DEF81050C668B542F1D150B270BD4FF002
:1083F000FF307047AC7B06080000014030B5EAB1A1
:108400008E464FEA014C034600F1C005002419686E
:108410009A6841EA0C0142EA0E029A60C3E900142C
:108420000C33AB42F3D1D0F8C030C0F8C44043EABB
:108430000E03C0F8C030C0F8C84030BD4FEA014E4E
:108440008C46E0E783691969B3F80CC00A6830B458
:108450009C6822F0010224680A60A28992B222EA92
:108460000C02A281027D04681F2A06D96568203AA1
:1084700008209040284245D0FEE72568082090401B
:108480002842F9D1202000FA02F2A260264A12788E
:10849000002A35D01A7E012A39D0D3F8F4200132CF
:1084A000C3F8F420EFF31181502282F31288586848
:1084B0005C6C026822EA04029C6C2243C9B202602E
:1084C00081F31188D3E90C401A6999681D6C096819
:1084D00014605061D3E90E40546090600024B3F8FA
:1084E000A800D5604C62C862106801242043106067
:1084F0001C7683F8F1408A899B8913439BB28B8158
:1085000030BC7047202000FA02F2E260BEE7002291
:1085100083F8F120D3F8F8000A68013022F0010254
:10852000C3F8F8000A60EBE70400001010B40C4C2C
:108530006368002B11DD002004F1080C0146DCF813
:10854000A03003F1C00259600C339342FBD1636841
:10855000013083420CF5807CF1DC5DF8044B704700
:1085600004000010F0B5494C04EB401C9CF8242496
:1085700002B9F0BD464B4FF08C0E0EFB003E93F857
:10858000DC6493F8DD249EF87E708CF80A749642C1
:108590004FF0000C4FEA40158EF87EC00ED002EB73
:1085A000420C03EBCC0C57009CF8E0C40CF1FF3EEE
:1085B000BEF1010F5CD9BCF1030F53D06019A0F8D4
:1085C0000814EFF31182902383F3128890F80A3491
:1085D000B0F8081443EA41030021D2B29BB280F8FC
:1085E0000A1482F311881A09217882EA13225A4068
:1085F000D9B1D0F82044D0F80C14D4F8A040D2431C
:108600001B019BB202F00F0201208840134304F1CA
:10861000C0015A0013F4004F93B202D162680243C2
:1086200062600C348C42F4D1F0BDD0F82014D0F844
:108630000C04D1F8A0401B0100F110019BB202F024
:108640000F0201208840134304F1C0015A0013F4C3
:10865000004F93B202D16268024362600C34A142BF
:10866000F4D1F0BD02F1010C0CF0030CB445A5D01F
:108670003A4403EBC202131893F8ED1400299DD07D
:108680006319012283F80A2498E700BF0400001050
:10869000801A0020704700BF024B03EB401090F897
:1086A00025047047040000104368B0F8502010B44F
:1086B0001A83EFF31182502383F312884168446CCC
:1086C0000B6823EA0403C46C2343D2B20B6082F329
:1086D0001188D0E907418268036912681C605961FA
:1086E000D0E909415C60C46A9960B0F86010DC6050
:1086F0000023D1625DF8044B0376704710B4037D0C
:1087000001681F2B09D94C68203B202202FA03F391
:108710001C4215D15DF8044B70470C68202202FA08
:1087200003F31C42F6D00D4A4068002482F840450D
:1087300002685DF8044B22F0010202608B60704712
:10874000064A4068002482F8404502685DF8044B00
:1087500022F001020260CB60704700BF801A002047
:10876000704700BF0B4890F83C1589B101EB4101FF
:10877000002310B4490000F244501C4650F8232056
:10878000063302B114608B42F8D15DF8044B704798
:10879000704700BF040000100B4890F83C1589B1E9
:1087A00001EB4101002310B4490000F244501C4683
:1087B00050F82320063302B114609942F8D15DF8D5
:1087C000044B7047704700BF040000100120704741
:1087D000034B00EB400003EBC00090F855057047D9
:1087E000040000101F4890F83C35002B39D00022BF
:1087F0002DE9F04300F244531B4E1C4D4FF0500E38
:108800004FF02C0C144607E053F8181B0C6090F83E
:108810003C150132914222DD197C0029F4D05F68B9
:10882000B90AA1F5801105EB010952294FF0FE08A4
:1088300098BF99F8F483EFF311898EF31288796A5F
:108840000CFB08680131C8F86C15B98A89B241F08F
:1088500001015FFA89F8B98288F31188D4E7BDE88D
:10886000F083704704000010801A0020AC7B0608DB
:1088700007EE900AB8EE670A704700BFBCEEC00A68
:1088800010EE103A98B270470D4B0E49DB68DB438F
:10889000C3F30223C3F104030122DBB202FA03F3A0
:1088A00001EB000C1B0103F0F0038CF800334309CB
:1088B00000F01F0002FA00F041F82300704700BFEB
:1088C00000ED00E000E100E0037D1F2B08D9026805
:1088D000203B5168202202FA03F3194214D1704759
:1088E00001682022096802FA03F31942F7D00D4A01
:1088F00041684FF0000C82F8ACC70A68006822F0AB
:1089000001020A6083607047064A41684FF0000C1C
:1089100082F8ACC70A68006822F001020A60C360EE
:10892000704700BF801A0020122301480B80704757
:1089300088010020042301480B8070479C0100201F
:108940002048D0F8103AD0F8182A30B59B184FF0CC
:108950001A040C8001D11C4830BD1B4AD0F8141AEF
:108960004FF0000E10467546B3F1204F4FEA137CCE
:108970000CF130040EF1020E2ABF0CF1370C84709A
:1089800080F802C0BEF1100FC5704FEA031300F16A
:108990000200E9D100200446B1F1204F4FEA1173E3
:1089A00003F1300C00F102002ABF373382F812C005
:1089B00093740828D4744FEA011102F10202EBD13A
:1089C000014830BD0070FF1FA0010020B42282804A
:1089D00018224FF4A57C4FF4EB7102814FF487729B
:1089E0000023A0F802C0C1804FF4E17C962182816F
:1089F00044220370A0F80AC0C181028243827047FA
:108A000082B01F4B002201920193019B1D4A043347
:108A10000193019B1968936803F00C03042B07D0A2
:108A2000082B0AD0184B194AC3F8B02702B0704778
:108A3000154BC3F8B01702B070475368506813F471
:108A4000800F00F03F00536813D1C3F388130F4920
:108A5000B1FBF0F101FB03F30A4A0B495268C2F380
:108A6000014201325200B3FBF2F3C1F8B03702B059
:108A70007047C3F38813B1FBF0F101FB03F3EBE79D
:108A80005028004000380240801A00200024F400E2
:108A90000123437700207047D0E90B2108B5836993
:108AA0000B4483610AB108469047002008BD00BF0F
:108AB000436A1B681B6A5B685B78024613F001001F
:108AC00008BF5077704700BF70B5224A224C234B35
:108AD00094B00546CDE90042214A0992A4F108026A
:108AE0000A922A7F0493201D0023CDE905039A42B0
:108AF000CDE90E330B931093139314BF052004207C
:108B000011936B6A0C9002200122029018688DF874
:108B10000C200E4607928DF820208DF834208DF819
:108B200048205CF01DF92B7F93B1330E04F8073C0D
:108B3000063C320C330A22706370A670686A69467C
:108B400010F0E0F86B6A18685CF00AF914B070BDB8
:108B5000073CEEE734220020C4010020B18A00085F
:108B6000918A000810B5044694B050220649684620
:108B70005EF054FF606A694610F0C4F8636A1868D2
:108B80005CF0EEF814B010BDF47F0608C26281619B
:108B9000704700BF2DE9F0410446406A00681E4658
:108BA0000F4690465CF0DCF8237F002B3FD02A4D27
:108BB000A0690523EB67030E85F8453005F14603F0
:108BC0009870020C000A58701A703B68C5F888301B
:108BD0000020D8F80030C5F89030012E2363C5F886
:108BE000A0002BD0022E20D1D8F80420C5F8980080
:108BF000796885F89400C5F89C1013441749C5F8A6
:108C0000A4200120236385F8A800C5F8AC10144BFC
:108C1000617F606A03F11402002914BF19461146EE
:108C200010F070F8E36A8BB1206BBDE8F0810A4D5B
:108C3000A0690423EB6705F14503C1E7074B85F8FD
:108C40009460C5E92630C5F8A400E0E7636A1868B7
:108C50005CF086F8E8E700BF88010020998A0008E8
:108C6000D4010020704700BF00B583B0816101923C
:108C7000049A0093C26201236A4601A9FFF78AFFA2
:108C800003B05DF804FB00BF043070470D4B93F850
:108C9000BC27D3F8B8170244D2B283F8BC2793F8A4
:108CA000BC2708441206C3F8B80705D593F8BC27BB
:108CB00082F0800283F8BC27034B012283F8C42092
:108CC000704700BF801A0020880100202DE9F0477E
:108CD000144FD7F8C057ED0A1ED00026B04607F54E
:108CE000FF69D7F8C4371048D3F828A0C7F8F08731
:108CF000AC19641010234A46E102D0470F280BDD5F
:108D00000A4B03F1100C53F8041B013107D16345E2
:108D1000F9D12546B542E4DCE802BDE8F087661CDF
:108D2000F8E700BF801A00204422002078220020AB
:108D30001C4BD3F80818D3F80C288A1A322A16D8F4
:108D4000D3F820288A4200D37047D3F8142822B3DE
:108D50001068928810B444693231224218BF4283AD
:108D60005DF8044B08BF0283C3F82018704793F8DE
:108D70001028D3F8141802F0010219B132B90A68A8
:108D8000898811830022C3F8202870470A688988DF
:108D900051830022C3F8202870473231C3F82018CD
:108DA000704700BF801A0020094A92F81038D2F8A4
:108DB000142803F001031AB123B9136892881A83A7
:108DC00000207047136892885A830020704700BFC4
:108DD000801A00204FF40070034B1060D3F8303835
:108DE0000B600020704700BF801A002000207047F1
:108DF00001207047012070470020704710B51C69A2
:108E000094420DD396468A188C469442996938BF8D
:108E1000A4EB0E0C71446246BDE810405EF0FEBD4E
:108E200010BD00BF2DE9F0430446406A344D006890
:108E300095B00E46914698465BF092FF314B0193F8
:108E4000314B049305F1D0030093217F0223029359
:108E500005F1C802012300278DF80C300592069712
:108E6000002936D08DF834308DF84830CDE90977B7
:108E7000330ECDE90E77CDE9107785F8C93005239B
:108E8000CDF82C908DF82070CDF830801397CA352E
:108E90000793330C1D4F2B70330A6B70AE70D7F8ED
:108EA0006408656A10F05CF8637FA88033BB05A98D
:108EB00028460FF027FF636A18685BF051FFD7F868
:108EC000680810F04DF8636A9880404615B0BDE818
:108ED000F0838DF834308DF848300423CDE9091142
:108EE000CDE90E11CDE91011CDF82C908DF82010A0
:108EF000CDF830801391C9350793CAE76946D7E7A3
:108F000088010020E0220020B18A0008801A002099
:108F100070B5224B93F8DC2493F8DD349A4237D1B4
:108F20001F4D95F80436E3B195F808461D4B002017
:108F300040F20D3CB4B19A6899895160166819687D
:108F400046F001061660A1F848C08A8992B242F440
:108F500080728A8195F804260130824203F1180359
:108F6000E8DC70BD1A68118821F080010904090C41
:108F700011809988D162118889B241F080011180F5
:108F80005462998A9689314389B291819C82E1E742
:108F90005AF054FC0028C3D170BD00BF801A0020D5
:108FA00004000010EC2200202DE9F0411E4B93F844
:108FB000DC2493F8DD349A422FD11C4F7D68002DBC
:108FC00012DD3846002410F8086BA046013416B1B3
:108FD000037E012B1CD002691368AC4243F00103ED
:108FE00000F580701360F1D111F09EFBD7F80C46AC
:108FF000002C0BDD0E4A02EBC404116893888889AB
:10900000083203439BB294428B81F6D1BDE8F081D4
:1090100080F8F080FFF748FBDDE75AF00FFC0028EE
:10902000CBD1BDE8F08100BF801A00200400001001
:10903000140600102DE9F04F037D02681F2B83B04A
:10904000044609D95068A3F120052021A940014216
:1090500007D103B0BDE8F08F10682021994001428C
:10906000F7D05149514D4968C5F8301695F80816A2
:10907000A7694F4E19BB8C2101FB0761D1F8840011
:10908000D1F8FCE0D0F800C0DEF80000B1F888802C
:1090900020F00100CEF80000BCF80C1089B221EAE3
:1090A0000801ACF80C10297801BB1F2B6FD9A3F174
:1090B000200120238B40D36003B0BDE8F08F8C21CA
:1090C00001FB0761D1F88410D1F810C00868DCF802
:1090D000001021F00101CCF80010818921F4807189
:1090E0000904090C818129780029DED04FF08C0811
:1090F00008FB07F806EB08032E49D3F8FCA0D3F8C9
:1091000084200193504608F11809D2F800B0894430
:1091100055F002F9019BD5F838262649012083F83D
:10912000D000002A3AD0BBF800309BB243F0800355
:10913000ABF8003008F174084FF0FF334144CBF82E
:109140002C30584655F06EFA8C2303FB076600233B
:109150004946C6F8A030504655F074F9D6F8FC30B0
:1091600016225A601A6842F001021A60D6F884206A
:10917000B6F88830126891890B439BB293810A49F3
:10918000237D49682268C5F834161F2B8FD820210B
:1091900001FA03F3936003B0BDE8F08F11F0C4FA55
:1091A0000449C5F83806BEE7001000E004000010CE
:1091B000801A0020FC1A00202DE9F04111F0B4FAC9
:1091C0001F4F204E05464FF000087C68002C2ADD1A
:1091D00000231A4607EB0321013391F8F9109C4252
:1091E00042EA0102F6D142EA0804E4B2904673680A
:1091F000C3F30803A3B9EFF311838BB915F00EFC89
:10920000431BB3F5FA6F02DCB8F1000FDDD124B1D6
:109210000D4B93F82C29542A09D02046BDE8F08143
:1092200011F056FAECE744464FF00008DFE7B3F8D8
:1092300034290132A3F834292046BDE8F08100BF6B
:109240000400001000ED00E0801A0020BC4B1B78E9
:109250000BB9012070472DE9F04FBA4DBA49D5F846
:109260000828BA4BA1FB02125209A3FB023A4FEAAB
:10927000DA0A0AEB8A0AA2EB4A0A85B0B04A5FFA18
:109280008AF3039302F61C1302F23C670193002356
:1092900007EB8A0A02F581699846A94BD3F8243A6C
:1092A000434540F31781D9F81830D9F80460D3E961
:1092B0003A34029311F038FA029B95F82CC90290C7
:1092C0004FEA860E95F840090EF1085E04F18061C0
:1092D0000EEB431E3939BCF1540F0EEB81110EEB2E
:1092E000801301D1A5F83609994240F26A811A68C3
:1092F000002A00F05E811A6C002A00F07081D3F819
:109300008020002A00F06D81D3F8C02003F580731F
:10931000002AE9D1A3EB0E0E99424FEAAE1E40F2AD
:109320005081A4EB0E0145294FF0000428BF4521D0
:1093300003EB81119B46204626460DE01A6C002A5D
:1093400040F0D080D3F88020002A40F0F680D3F897
:10935000C02003F580732AB9994206D91A68002AF9
:10936000ECD04033994200F2C180112E344640F2D5
:109370002C81D6F1150200F128817549029ED1F8A1
:10938000D4309E45D5F8443938BFC1F8D4E0F11A3D
:10939000002919DB03F5F42303F590739E4288BF7F
:1093A000029B6B4988BF0533C5F84439684BD3F835
:1093B000D430052B86BF053BDBB2002385F840394E
:1093C0004FF0FF33C1F8D43042B100FA02F2C4F1D9
:1093D0001404012000FA04F444EA02005D4BC0F3D7
:1093E000C43203EB8202D2F8981400F01F0203EBA0
:1093F0008202D2F8982442EA0131C0F3441203EB0E
:109400008202C0F3842003EB8000D2F8983441EA52
:109410000311D0F8983441EA032181EA112383EA49
:10942000131303F00F030F2B40F0B180B1F5803F11
:1094300080F0AD80BCF1540F4FEA111104D1B5F8A2
:1094400030390133A5F830393D4AD2F82439B1F525
:10945000606F03F10103C2F8243900F0D480019B4E
:10946000998197F858300398834210D0DAF8082091
:109470003B689B1A3B60DAF830207B689B1A7B6064
:109480000023CAF80830CAF8303087F858003B6823
:1094900001333B60DAF808300133CAF808304FF680
:1094A000FF73994207D17B6801337B60DAF8303073
:1094B0000133CAF83030019B08F101081433B8F1C8
:1094C000080F07F15C070AF15C0A019309F1200912
:1094D0007FF4E3AE1A4A0123012082F8203A05B056
:1094E000BDE8F08F803399427FF63FAF5A469A1A13
:1094F0009211541C184A82FB04B2A2EBE472012AB6
:10950000B8BF0122904001241644013A04FA02F245
:1095100010431C4622680AB3226C002A63D0D4F898
:109520008020002A61D0D4F8C02004F58074B2B144
:10953000A142EFD89B4623460EE7C03312E700BF97
:1095400004000010801A00201F85EB51CDCCCCCC3C
:1095500088010020AC7B0608565555554034A14281
:10956000E8D9E31A9B115A1C2F4B83FB02B3A3EBE0
:10957000E273012BB8BF012398401E440122013B36
:1095800002FA03F3184323469B462346E4E6BCF164
:10959000540F2CD0254AD2F824390133C2F824398B
:1095A000224AD2F820390133C2F820394FF6FF7130
:1095B00057E74033A3EB0E0E99424FEAAE1E3FF63B
:1095C000B0AE10B1013885F84009BCF1540F7FF4FA
:1095D00072AFB5F832390133A5F832396BE7803311
:1095E00098E6C03396E68034B9E7C034B7E7B5F8FB
:1095F00030390E4A0133A5F83039D2F82439013315
:10960000C2F82439CCE795F8DD3403EB430305EBCE
:10961000C303434493F8ED340D2B7FF420AF019A3C
:10962000802393771DE700BF565555550400001061
:1096300010B504465DF07AFC81B22046BDE81040CA
:10964000FEF790BF38B50B4D00EB400005F24453D8
:1096500003EBC00393ED027AD3ED037AE7EE007AD1
:10966000C4002C44B0EE670A5DF060FCD4F84435C9
:10967000186038BD040000100C4AF8B5136855692D
:109680002B4003EA000555617DB1094F0126B5FA6B
:1096900085F4C4F11F0407EB840306FA04F4D3F83D
:1096A000480903689847A543F1D1F8BD003C014043
:1096B000801A0020038A2DE9F047B0F80C901FFAB9
:1096C00089F919EA03092BD005460E464FF00047E9
:1096D0004FF00008B9FA89F327FA03F2D24391B2A6
:1096E0001B3B298209EA0209042B16D8DFE803F0A4
:1096F000352C231A0300B36A002B37D003F1FF3A4D
:109700001FFA8AFAC6F82880746A34B123682046A2
:10971000514698476468002CF8D1B9F1000FD9D1AF
:10972000BDE8F0877068696B036889B29847B9F142
:10973000000FCFD1F4E7B068A96B036889B29847EE
:10974000B9F1000FC6D1EBE7F068E96B036889B2A5
:109750009847B9F1000FBDD1E2E73069296C036881
:1097600089B29847B9F1000FB4D1D9E7E96A1FFA75
:1097700081FAC9E70A4608B5054920B9054855F0F8
:1097800077F8034808BD044855F072F8004808BD52
:1097900008240020980B0708C00B070810B5044CDC
:1097A00004480A46214655F063F8204610BD00BF24
:1097B00008240020E80B070810B5044C04480A46AA
:1097C000214655F055F8204610BD00BF0824002062
:1097D000FC0B070810B5044C04480A46214655F016
:1097E00047F8204610BD00BF08240020080C0708D9
:1097F00038B590F82830012B044604D0407F40B1A2
:109800000023637738BD406A03681A7B92B9637F8F
:109810000BB9012038BD0A4D0A49022305F68822FA
:109820000FF02AFA95F8893A03F0010383F001005A
:109830006377E7E71B6A002BE9D0002038BD00BF43
:10984000801A0020600200202DE9F0410446154EE8
:1098500090F82800637F144F06F68828012805D069
:109860000BB1002363770120BDE8F081606A0568D1
:109870002A7B82B9002BF6D00223424639460FF0EC
:10988000FBF996F8893A03F001036377002BEAD0DD
:1098900094F82800E2E72A6A002AE8D1002BE2D0F7
:1098A000EAE700BF801A002060020020F0B511F046
:1098B000010583B00AD190F82860012E044607D034
:1098C000C368B3F1807F01D90123237703B0F0BDD2
:1098D0000A4B476AD3F864080FF042FBE368B8808C
:1098E000B3F1807FF2D9B7218DF804102677334683
:1098F0002A46384601A90FF0BFF9E7E7801A002091
:109900002DE9F047089F884615460021202204468D
:109910001E465EF0E6F84FB13B68E3811B0C2382E4
:109920007B687A89E3821B0C6282238340465BF06A
:1099300097FCEB0619D4431EB8B108EB000701E011
:10994000013B12D317F801CDBCF12E0FF8D1C01A8C
:10995000421E032AA8BF0322082B03F1010AA8BF55
:1099600008239146C2441A4606E008280246C24629
:10997000A8BF08224FF000094FF020334146236072
:10998000636004F1080720465EF048F8174B238116
:109990005146BB704A4638465EF040F8611EE31DF2
:1099A00011F801CFACF1610EBEF1190F9CBFACF103
:1099B000200C81F800C08B42F2D1384604F10B0133
:1099C00010F8013BA3F16102192A9CBF203B00F86B
:1099D000013C8842F4D118232373330CA382E5722F
:1099E000099B6683E361BDE8F08700BF202020006B
:1099F0002DE9F04FDFF88894D9F80808C9F80C0869
:109A000087B0002B00F0DA8001F5FE781344DFF810
:109A100074B40393164601F12007C24621E0002EDC
:109A200064D0D9F83C38B34200F0CC80D9F838384B
:109A3000B34200F0FF80D9F84038D9F84418B34257
:109A40004BD8B14200F29981711A204659F092F830
:109A5000039B01369E4207F500770AF5007A00F075
:109A6000AD80D9F84858B542A7F12004D7D8751B66
:109A7000D9F8588805F00702EB080492D8F830208E
:109A80000233934203D3D8F8382093420BD941468E
:109A90001846059359F03EF8059B8046002800F0D3
:109AA0008C81C9F8580898F80420002A40F03481C5
:109AB000D8F82850002D00F07981D8F830209B1A72
:109AC000049A02EBC303D8F80C20204602EB432291
:109AD0004FF400714346A847BAE7B142B4D92046D3
:109AE0004FF4007200215DF0FCFFB1E74FF400720B
:109AF000314620465DF0F5FF802387F89E310C2328
:109B000087F8A231D9F83838D44AD9F83018C4F8CF
:109B1000C6319342C4F8CA1100F33481D04AD14C03
:109B200082FB03021A44D817C0EB621284FB025472
:109B3000CD4D85FB03C5C0EB2530C2EB821587F800
:109B4000A1015B1B801020F03F000133034314444C
:109B500087F8A031D317C3EBE4142244BF4B87F836
:109B60009F214A1E9A4200F31981BD4BBD4883FBD9
:109B700002311144D317C3EB611180FB0140BA4C91
:109B800084FB0254C3EB2433C1EB811487F8A53165
:109B9000121B9B1023F03F0301321343084487F844
:109BA000A431CB17C3EBE010014487F8A311552370
:109BB00087F8DE31AA2387F8DF3149E7002007B0B4
:109BC000BDE8F08F4FF0FF3384F8EC3184F8ED31CD
:109BD00084F8EE3184F8EF31D9F85038C4F8E83120
:109BE0005223237063706123A37084F8E73141230B
:109BF0000025E37084F8E631722384F8E43184F8B8
:109C0000E5314FF4F0722946A7F11C005DF069FFC1
:109C10005523C7F8D051C7F8D451C7F8D85184F8A4
:109C2000FE316FF0550384F8FC5184F8FD5184F83F
:109C3000FF310DE700214FF4007220465DF051FF27
:109C40008A4A03CA47F81D0CEB2007F8200C58205D
:109C500007F81F0C902047F8191C07F81E0C00236A
:109C600002220821F820E372227307F8131CA27362
:109C7000E37307F8102C07F80B0CD9F8380884F8B0
:109C80002C20D9F830286376121A2262D9F84008BD
:109C9000D9F84428E376121A3F2020764FF0FF309F
:109CA000A0763E20207701206377A377E37784F8BE
:109CB0002D3084F82E3084F82F30626284F8300022
:109CC00084F8313087F82610802187F82010292168
:109CD00087F82210942187F823100E2187F824108A
:109CE0000D21634A87F82510552187F8DE11AA2136
:109CF00087F8DF1103CA5F4BC7F82700C7F82B109E
:109D000003CB1388A7F82F309378C7F83200C7F831
:109D1000361087F831309BE64FF400720021204660
:109D20005DF0DFFE049B002B4ED1D8F84030002BB5
:109D300000F0AA80049AD8F830304F49CDE90022CB
:109D400020461122FFF7DCFDD8F840301A6C002ABB
:109D500000F0AD80049A1B6BCDE900224749112227
:109D60003846FFF7CDFDD8F8448007F120044FF4C2
:109D7000E075B8F1000F3FD16AE6F11A204658F0BD
:109D8000F9FE65E6FF2387F89F3187F8A13187F850
:109D9000A031324B4A1E9A427FF7E7AEFF2387F885
:109DA000A33187F8A53187F8A43100E7294620467A
:109DB0004FF400725DF095FE4AE6A7F1240343F8E4
:109DC00004BF9A45FBD143E6D8F84030049AD8F84E
:109DD0004480002B0CBF01230223C3EB0215434632
:109DE000002B3FF435AE013D9B6CF9D198464FF402
:109DF0000075002B3FF42CAE25442034234620353B
:109E00004446049698460EE05CF81C1B236BCDF884
:109E100000C000260196FFF773FDA46C08F120082E
:109E2000CCB1A84517D02379A44604F11C0E112209
:109E3000A8F12000002BE7D162792669236B216805
:109E400042F02102CDE900E6FFF75AFDA46C08F1CB
:109E50002008002CE5D1049EFAE500BFFF03FB00BB
:109E6000832008828180808097554541200C070817
:109E70002C0C0708380C0708180C07081C0C0708DE
:109E8000801A0020DEADBEEF049BD9F83418CDE96E
:109E9000003320460822FFF733FDD8F84480B8F19C
:109EA000000F3FF4D5AD3C464FF4F075A4E7049B9A
:109EB000CDE9003352E7084B10B5D3F88C3A18447B
:109EC0000C46807D0FF010FB18B1828803680CB13E
:109ED0001A8310BD5A83FCE7801A002010B42A4967
:109EE0002A4A91F804367BB3D2F86C48A04239D0A4
:109EF000012B29D0D2F88448844239D0022B23D0B8
:109F0000D2F89C48A04235D0032B1DD0D2F8B448DB
:109F1000A04231D0042B17D0D2F8CC48A0422DD08B
:109F2000052B11D0D2F8E448A04229D0062B0BD043
:109F3000D2F8FC48A04225D0072B05D0D2F814490E
:109F4000844208BF07230ED003F1010C81F804C638
:109F500003EB430102EBC1025DF8044BC2F86C084D
:109F6000184670470023DBB218465DF8044B704773
:109F70000123F8E70223F6E70323F4E70423F2E7DB
:109F80000523F0E70623EEE704000010801A002006
:109F900038B5424C8C2303FB004393F88B3003B954
:109FA00038BD94F8DCC494F8DD349C450ED003EB46
:109FB000430204EBC20292F8E0E40EF1FF35012DFA
:109FC0004FEA430246D9BEF1030F3ED08C2202FB7A
:109FD0000042A2F87C10EFF31181902383F31288E2
:109FE000B2F87C5092F87E3043EA45030025C9B2AE
:109FF0009BB282F87E5081F3118829491A090D78A5
:10A0000082EA13225A4005B1D2431B019BB202F0EF
:10A010000F021A4391F808365BBB8C2303FB004404
:10A02000D1F8283AD4F8040101219847D4F8001156
:10A03000B4F888508A8AD4F8FC302A438A8258605F
:10A040001A6842F001021A6038BD5D1C05F0030574
:10A050006545BBD0134404EBC303034493F8ED14EC
:10A060000029B3D08C2303FB0043012283F87E2018
:10A07000ACE78C2303FB0044D1F8285AD4F8843091
:10A08000D4F800115B79086903F0FC03184404213B
:10A09000A847D4F800318000988138BD801A00208C
:10A0A0000400001043680B4A23F0407323F48073CC
:10A0B00043F48073436083681A4042F00202826076
:10A0C000C36A0139CAB223F4700141EA0251C16284
:10A0D000704700BFFDF7FFC0704700BF0020FDF7CD
:10A0E000A1BF00BF0120FDF79DBF00BF0220FDF70B
:10A0F00099BF00BF10B1036882881A83704700BF00
:10A1000030B1036882881B691A4214BF0120002005
:10A11000704700BF10B1036882885A83704700BF40
:10A1200010B404698269E468416814604024D46012
:10A13000446900230C31C2E90433C2E90633C2E9A1
:10A140000833C2E90A33C2E90C3393609363516068
:10A1500084B1C269E0689363C2E90233C2E904339F
:10A16000C2E90633C2E90833C2E90A33C2E90C3353
:10A17000C2E900015DF8044B704700BF436800224C
:10A180001A60037D1F2B08D9203B2022016802FAA8
:10A1900003F343F01803CB6070472022016802FAF2
:10A1A00003F343F018038B60704700BF0268136A23
:10A1B00011B1D96901B3143330B49C681D68916939
:10A1C000DDB14FF4806088618D60104640690C619C
:10A1D00080B15968D369C9B10A464FF480619A6069
:10A1E0009961224312F0010F14BF00224FF4005274
:10A1F0001A621C6130BC704770478D61054D4FF08D
:10A20000FF0C05F8DACF00688D60DFE7024A9A603C
:10A210009961E6E788010020102500200168F8B563
:10A22000D1E9042304465568002B49D09861107D7C
:10A230005E681F2831D81768202202FA00F040F02B
:10A240001800B8601A7D1F2A32D91868203A2023D6
:10A2500003FA02F242F01802C26000232B6033605E
:10A260003368896943F010033360284654F0EAF8F4
:10A2700023683046D96954F0E5F82B68226843F02A
:10A2800001032B603368526843F001033360938805
:10A290009BB243F003039380F8BD17682038202257
:10A2A00002FA00F040F01800F8601A7D1F2ACCD89E
:10A2B0001868202303FA02F242F018028260CCE709
:10A2C000137D90611F2B1CD81068202202FA03F323
:10A2D00043F01803836000232B602B68896943F0E7
:10A2E00010032B60284654F0ADF82B68226843F029
:10A2F000010352682B6093889BB243F00203938062
:10A30000F8BD1068203B202202FA03F343F0180343
:10A31000C360E0E72DE9F0417F4D804E07463C6881
:10A3200097F888806368B888012284F824201A8806
:10A3300022F040021204120C1A802289824223D099
:10A34000198821F038010904AB424FEA114100F0AD
:10A35000BF80734A934200F0BB800246B2F5807F13
:10A36000A8BF4FF48072022AB8BF0222002A92FAD4
:10A37000A2F2B2FA82F208BF4FF0FF32013A41EA8C
:10A38000C20292B21A802081397BA27A8A420CD012
:10A390001A8822F003021204120C1A801A8892B250
:10A3A000002900F092801A80A1721A8892B242F0BD
:10A3B00040021A80226A9168002900F0A3804FF0C1
:10A3C000000C1432E64652F8100C8E4400EA0601E6
:10A3D00020B1B1F1805F23D0616909B352F8140C48
:10A3E000143200EA060110B1B1F1805F18D052F8C2
:10A3F0000C1C0CF1010C0029E5D1227B82B1B8F1D3
:10A40000000F0DD0BCF1010F6FD8BEF1070F6CD853
:10A410000CEB8C018900226A11440A7B002A64D06B
:10A42000226A92684FF00008002A53D0B8F1000F5A
:10A4300002D098F80C2022B1BA6812B11168928843
:10A440004A83226AD2F800E0226A5168226A92683E
:10A45000501E9AB1BEF1000F23D01EF801CB1A890D
:10A460009207FCD5A3F80CC01A89D207FCD59A89AB
:10A4700092B209B101F8012B0138EBD2236A1B7BA0
:10A48000E3B9236A1B697BB1236AD7F894001B697F
:10A49000984701280DD0022806D100232362BDE889
:10A4A000F0814FF0FF0CDAE7D4F82080236A1433F0
:10A4B0002362236A9B686BB16368B7E7BB68002BB4
:10A4C000DFD01A689B881383DBE742F003026AE758
:10A4D000420843E7236A1B68DBB1236AD3E90072B1
:10A4E00022620022C3E9002219E700213846FFF763
:10A4F0005DFEBB6813B11A689B8853833846BDE87C
:10A50000F0418BE6227B002A8AD0B8F1000F82D17D
:10A5100086E72362C3E700BF003800400000FFFF6A
:10A52000003C004038B5D0F8E0102B4B04465A6888
:10A53000D0F8D80071B1131A99420BDC94F8D030DE
:10A54000C4F8D820012B10D0D4F8D4300133C4F88B
:10A55000D43038BDD4F8E430C4F8D8200344C4F86B
:10A56000DC3094F8D030012BEED16168201D04F16D
:10A57000E805EFF3118C102383F3128863681B6ADC
:10A580000BB3D4F8F0302A461BB1D3691432002B38
:10A59000FBD10B6A6BB1996839B9934209D019683C
:10A5A00029B15B6899680029F7D01433F3E7C3E950
:10A5B00000055FFA8CFC8CF31188D4F8D430013399
:10A5C000C4F8D43038BD0D625FFA8CFC8CF311886E
:10A5D000FFF7A0FEB8E700BF001000E02DE9F04152
:10A5E000826992F8DC30012B8AB005464CD0023BE0
:10A5F000012B54D892F84C31D2F89C202E4C63F0A9
:10A600007F0313708669D6F8A030D6F8108003F166
:10A61000010E0FCCEC46ACE80F00D6F89C30CDE92B
:10A62000003E0FCCACE80F0094E8030006F11007E1
:10A630008CE80300EFF31180102383F31288336951
:10A640001B6A002B2FD0029B6A461BB1D3691432C0
:10A65000002BFBD1D8F8203073B1996839B99342F7
:10A660000AD0196829B15B6899680029F7D01433BA
:10A67000F3E71F60C3F804D0C0B280F31188AA6961
:10A6800011690B6A002BFCD1D2F8A0305A8852BA5B
:10A69000EA819A8852BA2A82DB885BBA6B820120EF
:10A6A0000AB0BDE8F081C8F820D0C0B280F31188AC
:10A6B0003846FFF72FFEE2E7C48006082DE9F04197
:10A6C00090F8DC30D0F8A050012B8AB0044672D04C
:10A6D00016D8D0F89C304FF0FF321A605A609A605A
:10A6E000DA60D0F8E0300522B3F57A7FC0F8F020C8
:10A6F0007CD8032380F8DC3001200AB0BDE8F0816B
:10A70000023B012BF8D890F84D31D0F89C20524EE6
:10A7100063F07F031370D0F8A030D0F8108003F1FD
:10A72000010E00F110070FCEEC46ACE80F00D4F894
:10A730009C30CDE9003E0FCEACE80F0096E8030058
:10A740008CE80300EFF31180102383F31288236950
:10A750001B6A002B73D0029B6A461BB1D36914326B
:10A76000002BFBD1D8F8203073B1996839B99342E6
:10A770000AD0196829B15B6899680029F7D01433A9
:10A78000F3E71F60C3F804D0C0B280F311882269D8
:10A79000136A002BFCD16B885BBAA4F8D030AB886D
:10A7A0005BBAA4F8D230EB8801205BBAA4F8D430AD
:10A7B0000AB0BDE8F08190F84C2190F84D319B1A19
:10A7C0005B100133DBB205EB430235F813305BBAA3
:10A7D000A0F8D03053885BBAA0F8D23093885BBA27
:10A7E000A0F8D43001200AB0BDE8F08103691A7BDB
:10A7F00072B35B6963B390F898304BB390F84C3107
:10A80000D0F89C20C4F8A40063F07F03137090F884
:10A810004C1190F84D31D0F8A0201048C4F8040134
:10A820005B1A07330121C4F8FC30D4F89C3084F85B
:10A8300000110A44C4E93D3284F8DC105CE7C8F832
:10A8400020D0C0B280F311883846FFF763FD9EE741
:10A85000022384F8DC304FE7C4800608018000083A
:10A8600008B51D200EF040FE08B183794BB11E20C3
:10A870000EF03AFE08B1837903B108BD5523C380B9
:10A8800008BD5523C380F2E7D3B2012B23D870B59E
:10A8900002EB4202114C4FEA820E4FF0000C2246AE
:10A8A0000EF10805634604E00133152B11D012F8B0
:10A8B0001CCF6045F8D192F801C08C45F4D15659AF
:10A8C000002EF1D0C3EBC3030EEB83030433E01877
:10A8D00070BD002070BD0020704700BFEC800608EE
:10A8E00010B40C4C002304F6942C01E0152B0CD072
:10A8F00003EB430201331CF802108142F6D12244DB
:10A900005DF8044B92F9960A70474FF0FF305DF8FE
:10A91000044B7047801A0020D3B2022B21D830B5E7
:10A9200002EB4202104D114C4FEA820C0CF10C0E5E
:10A930002A46002304E00133172B10D052F82C4F85
:10A94000A042F8D114798C42F5D152F80E40002C77
:10A95000F1D02C2202FB03C30833E81830BD0020DD
:10A9600030BD0020704700BFAC7B060800000140EE
:10A97000002838D030B51C4D90F804C0002305F6EF
:10A98000942401E0152B2CD003EB43020133A15C8E
:10A990006145F7D12A44046892F9963A90F805E0A7
:10A9A000DAB2022A1DD803EB4303104810494FEADC
:10A9B000830C02460CF10C05002304E00133172B35
:10A9C0000FD052F82C1F8C42F8D111797145F5D176
:10A9D00051590029F2D02C2202FB03C3083318443A
:10A9E00030BD002030BD7047801A0020AC7B0608C7
:10A9F000000001400348D0F8EC300BB1DC301847C0
:10AA0000704700BF880100200348D0F8103113B10F
:10AA100000F5807018477047880100200348D0F87F
:10AA2000343113B100F59270184770478801002047
:10AA30000348D0F8583113B100F5A4701847704797
:10AA4000880100200348D0F87C3113B100F5B670BE
:10AA500018477047880100200348D0F8A03113B18F
:10AA600000F5C87018477047880100200348D0F8E7
:10AA7000C43113B100F5DA7018477047880100201F
:10AA80000348D0F8E83113B100F5EC70184770476F
:10AA9000880100200348D0F80C3213B100F5FE7095
:10AAA00018477047880100200348D0F8303213B1AE
:10AAB00000F5087018477047880100200348D0F857
:10AAC000543213B100F51170184770478801002007
:10AAD0000348D0F8783213B100F51A701847704760
:10AAE000880100200348D0F89C3213B100F5237090
:10AAF00018477047880100200348D0F8C03213B1CE
:10AB000000F52C7018477047880100200348D0F8E2
:10AB1000E43213B100F53570184770478801002002
:10AB20000348D0F8083313B100F53E70184770475A
:10AB300088010020094B0A4A013800EBC00003EBF2
:10AB40008000116BD0F8DC30064883420CBF4FF414
:10AB500000134FF480030B431363704788010020F8
:10AB6000003802400060024070B501383C4C3D4D59
:10AB700000EBC00C04EB8C0C9646DCF8DC603A4A27
:10AB8000AE420CBF4FF400154FF48005166B3543F1
:10AB90001563CCF8EC10CCF8F4303449DCF8E03034
:10ABA0008B424FEAC0023ED001F580618B423AD021
:10ABB000A1F57A718B4247D001F580618B4243D079
:10ABC000A1F57A718B4241D001F580618B423DD075
:10ABD000A1F57A718B4235D001F580618B4231D07D
:10ABE000A1F57A718B4233D001F580618B422FD071
:10ABF000A1F57A718B422DD001F580618B4229D06D
:10AC0000A1F57A718B4227D001F580618B4223D068
:10AC1000A1F57A718B4221D0154D01F580618B42EF
:10AC200018BF002500E0134D104404EB8003CEF361
:10AC30008711C3F8FC5093F8F100BDE87040002282
:10AC400058F0E8B90C4DEFE70C4DEDE70C4DEBE794
:10AC50000C4DE9E70C4DE7E70C4DE5E7044DE3E764
:10AC6000880100200060024000380240106002406D
:10AC7000008000282080001000800018008800104C
:10AC800000802010208000200088002000802020EC
:10AC90000D4B984214D0A3F58063984210D003F571
:10ACA000804398420CD003F58063984208D003F5A6
:10ACB0008063984204D0054BD3F8B0074008704732
:10ACC000024BD3F8B007704700040140801A0020FF
:10ACD000800AA0F58010522808D8054B184490F837
:10ACE000F4330D2B02D8034AD0567047002070472A
:10ACF000AC7B0608180D0708094910B54B6C094CC8
:10AD000043F480434B644022002104F648105CF079
:10AD1000E8FE4FF0FF33C4F8D43AC4F8D73A10BD78
:10AD200000380240801A00200120FEF7A5BC00BFB9
:10AD30000220FEF7A1BC00BF0420FEF79DBC00BFAF
:10AD40000820FEF799BC00BF1020FEF795BC00BF9D
:10AD50004FF47870FEF790BC4FF47C40FEF78CBC4B
:10AD600030B50C4683B0054618B3036803F13F4382
:10AD700003F57E039B0A104A134493F88C0758F09E
:10AD800081FAA988009104F00303C4F381028DF8CD
:10AD9000043028688DF80520C4F300136946C4F315
:10ADA00041148DF806308DF8074053F007FA03B0D0
:10ADB00030BD4FF0FF33DEE7AC7B060800B1CFE7D4
:10ADC000704700BF2DE9F047CB781BB90027384604
:10ADD000BDE8F08700F110080D4606468978404628
:10ADE0000EF0E8F807460028F0D0E8780EF07CFB7B
:10ADF000B0612B780133DBB210B1C37122238371B0
:10AE00000921FFF7DBFFB069DFF86490FFF772F903
:10AE1000D9F80838632BFBD91348DFF858A0134C36
:10AE20000EF09EF8B08202E05AF8044B8CB1404616
:10AE3000A0470028F8D0336986F8D8001B78012B8A
:10AE40000CD0022BC3D199F8DB3A013389F8DB3AF5
:10AE5000BDE7E8780EF0A8FB2746B8E799F8DC3A9A
:10AE6000013389F8DC3AB2E740420F00D5B6050855
:10AE7000801A0020448306080B4B10B5D3F88C3A97
:10AE800003440446987D0EF02FFB60B12E228271A0
:10AE9000621CC2710121FFF791FF20460021BDE82D
:10AEA0001040FFF708B810BD801A002070B50E4C96
:10AEB000D4F8246A002E15DD04F58164002503E032
:10AEC000B54204F120040DD0237F0135002BF7D0CB
:10AED000E0680028F4D0217DFFF742FFB54204F17D
:10AEE0002004F1D1012070BD04000010F8B5037DED
:10AEF00085691F2B04464DD90168A3F120024E68D5
:10AF000020209040064234D010239340C860CB608C
:10AF10004B68D340DE0700F18380EFF311835022AA
:10AF200082F312882A6C1168C9075AD4516889B211
:10AF300071B9D5E90960864250D0AF690744D7603E
:10AF400073D9301A80B25060AE62002185F8641067
:10AF5000116841F00101DBB2116083F3118895F8AB
:10AF60006430002B44D1237D1F2B27D92168A3F106
:10AF700020024C6808209040044200D0C8604C6811
:10AF8000042000FA02F2224203D0203B00FA03F32D
:10AF9000CB60F8BD0268202016689840064219462A
:10AFA0000ED010219940906091601168D940C80777
:10AFB000B3D5012101FA03F39360AEE72268194685
:10AFC000106808238B40184200D093601068042357
:10AFD00003FA01F10142DCD09160F8BD012285F84D
:10AFE0006420DBB283F3118895F86430002BBAD06B
:10AFF00095F87C30002BB6D195F871000EF074FAFC
:10B000002A6E938923F008031B0401211B0C9381F2
:10B0100085F87C100028A6D02021FFF7A1FEA2E72A
:10B02000012303FA02F2CA6077E72E69301A80B270
:10B030005060A96289E700BF70B50C4682B0154622
:10B040000646002839D0036803F13F4303F57E0329
:10B050009B0A1B4A134493F88C0758F013F9B288E3
:10B060000092B2FA82F304F003028DF80420C4F3D4
:10B07000810230688DF80520C3F11F03C4F300126C
:10B08000C4F341148DF80740C3F3CC0400EB8404EF
:10B0900003F007038DF806209B00226A0F269D40CF
:10B0A00006FA03F322EA03032362226A1543694680
:10B0B000256253F083F802B070BD4FF0FF33C8E74C
:10B0C000AC7B060800B1B7E7704700BF2DE9F0433D
:10B0D000774D05EB001683B0D6F8E03A002B00F070
:10B0E000938004464FEA001896F8E80A58F0CAF828
:10B0F00096F8E83A590903F01F0203294FF00103BB
:10B1000003FA02F300F09880042900F085800229F8
:10B110007DD005EB0803013493F8E40A0EF0E4F95E
:10B12000E4B2814610B112238371C47105EB0803A8
:10B1300093F8E50A0EF0D8F9074610B11323C4714D
:10B14000837105EB080393F8E60A0EF0CDF9064685
:10B1500010B11423C47183714544484695F8E72A19
:10B1600001924A21FFF7AEFF019A38462A21FFF7E4
:10B17000A9FF019A0A213046FFF7A4FFD5F8E02A7B
:10B180004C4B9A425DD04C4B9A424AD04B4B9A4220
:10B1900062D04B4B9A426AD04A4B9A4272D04A4B89
:10B1A0009A427AD049499088B1F81E43B1F81C33CD
:10B1B000B1F826532343B1F820432343B1F8224387
:10B1C00020F003002343B1F824430004000C234380
:10B1D000B1F8284390802B4310882343B1F82A43C9
:10B1E000B1F82C1300F44150234303439BB2138066
:10B1F000938B23F400631B041B0C9383118213882D
:10B200009BB243F04003138003B0BDE8F083304AA3
:10B21000516A0B4353627CE72D4A11690B4313615A
:10B2200077E703F50033196A41F480411962196A1E
:10B2300021F480411962B5E7254A116A0B43136274
:10B2400067E703F58433596A41F480515962596ABA
:10B2500021F480515962A5E703F5FE33196A41F4E0
:10B2600000411962196A21F4004119629AE703F555
:10B270008233596A41F400515962596A21F40051EC
:10B2800059628FE703F56843596A41F480115962A6
:10B29000596A21F48011596284E703F56443596ABD
:10B2A00041F400115962596A21F40011596279E799
:10B2B000801A00200030014000380040003C00406F
:10B2C000003401400050014000540140880100203A
:10B2D00000380240431C00F074812DE9F04F00EB70
:10B2E0008003BE4FDA0087B057F802908100054610
:10B2F000019107EBC303B9F1000F05D09C68002C46
:10B3000000F02F81A17911B107B0BDE8F08FD3F81B
:10B310000CA0BAF1000F00F0A2819AF80630002BC1
:10B32000F2D11832B818D9F80480BB50691CC0E9B2
:10B330000133C3601523A371C9B21623E1718AF8E2
:10B3400007108AF8063099F8180057F09BFFB8F8F4
:10B3500004302268A18823F440731B041B0CA8F856
:10B360000430DAF800301183BAF804201A8311216E
:10B370002046FFF7F5FC11215046FFF7F1FC0926A6
:10B380004FF0330B05E0BBF1010B00F0158113F01A
:10B3900067FB0A20002CF6D02268A18813691942A5
:10B3A000F1D05183052013F05BFB2368A2881A8338
:10B3B000052013F055FB013EE2D1332604E0013EA7
:10B3C00000F0308113F04CFB0A20002CF7D02368EA
:10B3D000A28819690A42F2D05A83052013F040FB73
:10B3E000BAF1000F00F05D81DAF80030BAF80420FD
:10B3F0005A83052013F034FB002C00F024812368CD
:10B40000A2881A83052013F02BFBDAF80030BAF873
:10B4100004201A83052013F023FB2368A2881B69EC
:10B420001A4240F0D580019B2B4407EBC3039A7C62
:10B43000002A40F0CA801A7C12212046FFF7FCFD4A
:10B44000019B2B4407EBC3039B7C002B00F0C480C3
:10B450003221BAF1000F07D0019B2B4407EBC30345
:10B4600050465A7CFFF7E8FD5D4B984500F0288177
:10B470005C4B984500F02F815B4B984500F036817E
:10B48000019B2B4407EBC3074FF47A73BC8A03FB81
:10B4900004F4B8F8043023F440731B041B0CA8F820
:10B4A0000430B8F800309BB243F00103A8F8003034
:10B4B000B8F8045002A852F0CBFE25F03F050499DD
:10B4C0004A4B2D04A3FB01232D0C45EA9345A8F814
:10B4D0000450B8F8002022F001021204120CA8F85F
:10B4E0000020434A980C9442034600F38380620094
:10B4F000B1FBF2F292B20133042A38BF0422A8F859
:10B500002030A8F81C20B8F800309BB243F00103AB
:10B51000A8F80030B8F8003023F4816323F0020368
:10B520001B041B0C4FF4804143F48063A8F80030E7
:10B53000A8F80810B8F8003023F080031B041B0C97
:10B540000022A8F8003099F81A00114657F062FD61
:10B55000002299F81900114607B0BDE8F04F57F0E6
:10B5600059BDD3F80CA0BAF1000F00F0D4809AF8BE
:10B570000630002B7FF4C8AE1832BB18D9F804800F
:10B58000BC50C3E90144DC6016238AF806306B1C0A
:10B590008AF8073099F8180057F074FEB8F80430AC
:10B5A000BAF8042023F440731B041B0CA8F80430E1
:10B5B000DAF800301A83DEE624B9052013F050FAD9
:10B5C000F6E67047A1882268EBE61A7C322134E760
:10B5D000DAF800301B6926E712213AE7801A0020CA
:10B5E0000054004000580040005C004083DE1B43D4
:10B5F000A086010004EB4404B1FBF4F18AB2C1F36C
:10B600000B0109B942F0010250494FF4967300FB57
:10B6100003F3A1FB03139B09013342F40042A8F892
:10B6200020306EE7002C40F08D80052013F018FAD2
:10B63000BAF1000F65D0DAF80030BAF804205A8366
:10B64000052013F00DFA052013F00AFADAF800309D
:10B65000BAF804201A83052013F002FAF0E6183233
:10B66000BB18D9F8048047F802A0C3E901AAC3F8BF
:10B670000CA01523A371431CE37199F8180057F02F
:10B6800001FEB8F80430A28823F440731B041B0C9D
:10B69000A8F80430236811211A832046FFF760FBC5
:10B6A0006DE6052013F0DCF92368A2881A830520D3
:10B6B00013F0D6F9052013F0D3F923681B69B2E61D
:10B6C00003F5F2331A6A42F400121A621A6A22F47B
:10B6D00000121A62D4E603F5F0331A6A42F48002CB
:10B6E0001A621A6A22F480021A62C9E603F5EE337E
:10B6F0001A6A42F400021A621A6A22F400021A62FA
:10B70000BEE6052013F0ACF9052013F0A9F90520D9
:10B7100013F0A6F994E61832BB18D9F8048047F85C
:10B7200002A0C3E901AAC3F80CA099F8180057F0C9
:10B73000A9FDB8F8043023F440731B041B0CA8F8CF
:10B7400004301CE6A288236846E600BFD34D621091
:10B750002DE9F84307460EF0BBFFDFF84C8007EBFE
:10B760008709044608EBC90542F20F7604E00EF0A3
:10B77000AFFF031BB3420ADC6B7E002BF7D108EB53
:10B78000C90898F8180080F00100BDE8F883B8F8FF
:10B79000103B013338469BB2A8F8103BFFF79AFDE7
:10B7A0000020BDE8F88300BF801A002010B582B0E9
:10B7B0008DF80730431C0CD00228044609DC0DF13B
:10B7C000070357F005FD20B12046FFF7C1FF02B087
:10B7D00010BD002002B010BD70B500EB8003274DF6
:10B7E00005EBC30255F833305C68A38A84B09BB282
:10B7F0000393039B13F4706F1CBF01231376039B09
:10B8000013F4E06F4FEA80060CD1A38A304423F48E
:10B81000706305EBC0051B041B0C0022A3826A7633
:10B8200004B070BD238BA38823F480631B041B0C1E
:10B83000A380039B9A05E8D423889B05E5D423883D
:10B84000D9050FD52388DA05FCD423889BB243F4AD
:10B850000073238023889B05FCD40190FFF73AFDF9
:10B860000198D2E723889BB243F400732380A38816
:10B8700023F440731B041B0CA380C6E7801A00202E
:10B880000020A9E70120A7E70220A5E72DE9F84F4E
:10B890002F4F00EB800407EBC404D4F80480B8F108
:10B8A000000F04D09A46637E03F0FF0923B14FF0E6
:10B8B00000094846BDE8F88F0E46934605460EF04F
:10B8C00007FF0A9B7600F6B2C4E908330123A67687
:10B8D00084F81BB084F81D90A37784F81CA06376CD
:10B8E00084F81890B8F804209105064622D4B8F8D8
:10B8F0000030DA0512D442F20F7404E00EF0E8FED4
:10B90000831BA3421ADCB8F800309B05F6D4B8F8C4
:10B9100000309BB243F48073A8F80030B8F80430CC
:10B920009BB24FF0010943F44073A8F80430484635
:10B93000BDE8F88F99464846BDE8F88FB7F8103B48
:10B9400001339BB22846A7F8103BFFF7C3FCB0E7D2
:10B95000801A0020F8B590F871301C09013C052CC4
:10B960000FD81B4E06EB44020546B2F8A00703F0C1
:10B970000F0340FA03F2D20703D595F87C70012F2C
:10B9800001D00120F8BD07FA03F3013B184034440D
:10B990005AF092F994F8AC270E4C104454F8302029
:10B9A00004EBC0041069A3881840EBD0EB6E0022B2
:10B9B00085F87C2093F8212020460221FFF73CFBEC
:10B9C0002A6E93899BB243F0080338469381F8BDF1
:10B9D000AC7B060894250020094BD3F8142ED3F82D
:10B9E000181E40F22A40002350604B620B889BB225
:10B9F00043F001030B80136843F0010313607047A9
:10BA0000801A00201D4B1E48196C1E4A10B441F0CC
:10BA100080510124196404625321FF24CA20546216
:10BA2000506251625B6FDB0085B017D41648042367
:10BA3000002102910290029A1A440292029A04335F
:10BA40001C2B1160F5D103910390039B0393039B7F
:10BA50000E4A1A6005B05DF8044B70470A4B00228D
:10BA600001920193019B0193019A084B12689A423B
:10BA7000DCD105B05DF8044B704700BF00380240D0
:10BA800000000E4200280040502800403166654208
:10BA900010B5174C84B00139002389B2A042ADF82B
:10BAA0000C30ADF806308DF80E30029113D0114BEA
:10BAB000984210D003F5804398420CD003F5806380
:10BAC000984208D003F58063984204D00A4BD3F81B
:10BAD000B0375B0802E0084BD3F8B037B3FBF2F2A3
:10BAE00001A9013AADF8042052F04EFD04B010BD9A
:10BAF0000004014000000140801A002030B50446D7
:10BB0000006EA268838923F400531B041B0C8381FD
:10BB1000637995B013F0040F4FF00001019214BF48
:10BB20004FF480520A46ADF808201A031B0203F4B2
:10BB30008063ADF80C302379ADF80E1002F400529A
:10BB4000ADF80A20DA0744BF0422ADF80E209B07A7
:10BB5000ADF8101005D5BDF80E3043F00803ADF870
:10BB60000E3001A952F022FE6279236ED50700F152
:10BB70008B8012F0080F9A8A48D092B242F00802E5
:10BB80009A829A8992B242F400529A812279D0071D
:10BB900032D5E06B002800F089800023E26D089325
:10BBA000CDE90C33CDE91033CDE912334FF4807574
:10BBB0000A936369E1680E9506920793626C059299
:10BBC0004FF480634FF480350B9309910F9552F039
:10BBD000A3FB05A9E06B52F035FCE26B216E136804
:10BBE00043F0010313608B8A9BB243F040038B82C6
:10BBF000536822799BB2636591070DD4226E9389B5
:10BC00009BB243F40053938115B030BD22F008027B
:10BC10001204120C9A82B4E7206C002852D02369D7
:10BC2000A26D0993A36CCDE90532402300254FF4A2
:10BC3000803108934FF480630B930F91CDE90C553D
:10BC4000CDE91055CDE9125507950A950E9552F09C
:10BC500063FB206C05A952F0F5FB236C226E58693A
:10BC600040F080005861186840F0160018605D6070
:10BC7000938A9BB243F0800302F10C0193820B681C
:10BC800043F040030B60BAE71E498B4224D0A1F574
:10BC90004C418B421ED001F580618B421ED10220A7
:10BCA0000121FEF708F96279236E62E74FF6DF7132
:10BCB0001980D96841F02001D960D96841F010019C
:10BCC000D96099E7226ED36843F0800302F10C013A
:10BCD000D360D4E70120E3E70020E1E701F58061CC
:10BCE0008B420AD001F580618B4208D001F54441B6
:10BCF0008B427FF43EAF0520D2E70320D0E704203B
:10BD0000CEE700BF001001402DE9F84F4F4C04EB87
:10BD10008004D4F82C4A002C00F08180E56E002DC0
:10BD200079D01F46EB6A6361AB6AA3616B8EE360F7
:10BD30002B8E23616B682366454B2360454BA160C6
:10BD4000A3660646204690460DF088FF94F87100E1
:10BD50000DF0CAFB814695F8200094F870B0A24619
:10BD600000284FD102213B0784F87C1037D418F00B
:10BD7000020F11D0B9F1000F0ED00B2389F8063055
:10BD80003A0606F1010389F807304AD495F82120D4
:10BD900048462221FFF750F918F0010F04D1E26B59
:10BDA0009AB15046BDE8F88F58460DF09DFB00282B
:10BDB000F5D00C220136C671827195F8212022211E
:10BDC000FFF73AF9E26B002AEBD195F8241095F8C9
:10BDD0002200890957F01EF95046BDE8F88F013658
:10BDE000F6B2B9F1000FDAD00B23780689F80760B4
:10BDF00089F8063009D595F8212042214846FFF7F9
:10BE00001BF9CCE757F03EFAACE7FB0695F821208A
:10BE1000F4D41221F2E7AA465046BDE8F88FA246B4
:10BE2000BFE794F871000DF05FFB226E938923F059
:10BE300008031B0401211B0C938184F87C1000284B
:10BE4000AAD02021FEF78CFFA6E700BF0400001057
:10BE50006083060855B90008BFF34F8F0549064BAC
:10BE6000CA6802F4E0621343CB60BFF34F8F00BF98
:10BE7000FDE700BF00ED00E00400FA0508B572B66A
:10BE8000FFF7EAFF00B583B00D4900220092009150
:10BE9000009B0C330093009B1B68012B02D003B066
:10BEA0005DF804FB01920191019B06490C3301935B
:10BEB000019B1A600B6883F308884B689847FEE77C
:10BEC000502800400000FF1F38B5FFF79BFDFFF72B
:10BED000D9FF012052F048FB714A936823F0030315
:10BEE0009360936813F00C0FFBD113686C49002822
:10BEF00042D143F00103136041F288330A68950789
:10BF00005DD4013BFAD1674C674D654B674AEA60E7
:10BF1000596F674AC4F8341EAA60596B654821F00E
:10BF200080015963596F41F080715967196B41F471
:10BF3000CE0119635A6B5A639A6B9A631A6C024367
:10BF40001A64596C5C4A0A435A640EF079FBD4F8BF
:10BF5000B0375A4AA2FB03239B09013BB3F1807F10
:10BF600009D24FF0E022F02053610021072385F829
:10BF700023009161136138BD43F4803313600A6874
:10BF8000940341F2883304D4013BBCD00A68940383
:10BF9000FAD5444C4A4A4B4BB0FBF3F3B0FBF2F0FA
:10BFA000B3EB400F18BF18464FF48002B3FBF0F319
:10BFB000C4F8302EC4F81C0EC4F8203E09E0394CF9
:10BFC000002108220223C4F8301EC4F81C2EC4F835
:10BFD000203E022052F0C8FA03280FD83A4BD4F87A
:10BFE000201E03EBC0008588C2884388C4F8285E01
:10BFF000B3FBF1F3C4F82C2EC4F8243E284B33498C
:10C000001A6C42F080521A640A6842F440420A6094
:10C010009A689A609A6842F400429A609A6842F478
:10C02000A0529A60D4F8300ED4F81C2ED4F8241EF6
:10C03000024342EA8112D4F8281ED4F82C0E490893
:10C0400042EA0062013942EA01425A601A6842F04B
:10C0500080721A601A689201FCD51D4A40F205717F
:10C060001160996821F003019960996841F002011B
:10C07000A2F580629960936803F00C03082BFAD153
:10C08000D4F8200E1349D823B3FBF0F39B0143F0FF
:10C0900000530120C2F884308866FCF7B1FC33E716
:10C0A00000380240801A002000ED00E00005FA058B
:10C0B00000000020FFC9FE36335F0700D34D621039
:10C0C00080841E0040420F009083060800700040EC
:10C0D000003C02400000474210B584B000230446F3
:10C0E000ADF80C300068ADF806308DF80E3003F175
:10C0F0008043013903F5823389B29842029114D00A
:10C10000A3F58063984210D003F5804398420CD089
:10C1100003F58063984208D003F58063984204D009
:10C12000204BD3F8B0375B0802E01E4BD3F8B03792
:10C13000B3FBF2F301A9013BADF8043052F024FA4D
:10C140002168194A0B8819489BB243F001030B8000
:10C15000002301E050F83320914208D001330E2B28
:10C16000F8D1002004B0BDE81040FCF78DBB104AA8
:10C1700002EBC30393F809482046FCF785FB1B2C10
:10C1800005D1192004B0BDE81040FCF77DBB2E2C72
:10C1900008BF2C2004D104B0BDE81040FCF774BBEC
:10C1A00004B010BD801A002000000140B0830608D2
:10C1B000AC7B060870B50468A30AA3F58013522B64
:10C1C00051D83C4D2B4493F8F4530D2D4BD8407966
:10C1D0008608002954D005EB850305EB4303B4F82A
:10C1E0000CE04FEA900C33440220334E00FA0CF07E
:10C1F00040EA0E0006EB830C80B2CCF84815CCF870
:10C200005825A081EFF3118C502383F312882C233F
:10C2100005FB03F3F118D1F8442562B3274BC1F8AD
:10C220006825043226482C2105FB01F1084414310D
:10C230000B4453F8041B19B1116053F8042C043259
:10C240009842F6D100235FFA8CFC13608CF31188BE
:10C250002C2303FB0565D5F868352BB1A3899BB268
:10C2600043F00103A38170BDA38923F001031B04E4
:10C270001B0CA38170BD03F12402104B1A44D1E7BB
:10C28000B4F80CC005EB8503304605EB43034FF0D3
:10C29000020E33441FFA8CFC074E0EFA00F02CEA13
:10C2A0000000A08106EB8300C0F84815C0F85825AF
:10C2B000A8E700BFAC7B0608801A0020C41F00203E
:10C2C000E81F002001490248FDF7F4B9C41F00200F
:10C2D0000000014010B5064C064804F24451FDF739
:10C2E000E9F904F5DA610448BDE81040FDF7E2B968
:10C2F000801A0020000001400044014002494FF034
:10C300008040FDF7D7B900BFF01F00200149024867
:10C31000FDF7D0B91C20002000040040014902486C
:10C32000FDF7C8B948200020000800400149024834
:10C33000FDF7C0B974200020000C004001490248FC
:10C34000FDF7B8B9F82000200004014010B5064CF4
:10C35000064804F5CF61FDF7ADF904F254710448C5
:10C36000BDE81040FDF7A6B9801A00200004014086
:10C37000001C004001490248FDF79CB9242100201F
:10C380000040014001490248FDF794B97C2100209A
:10C390000048014001490248FDF78CB9A82100205E
:10C3A0000018004001490248FDF784B9002200202E
:10C3B00000200040F8B5164D1648174F00214FF4E5
:10C3C0001A725BF08EFB05F688064FF08041A5F1EE
:10C3D0008C043A46002301E054F8332091420BD0FC
:10C3E00001330E2BF8D100201C3556F04BFFB5421F
:10C3F0000CD055F81C1CECE7084A02EBC3031C35B3
:10C4000093F8080856F03EFFB542F2D1F8BD00BFE0
:10C410003C840608C41F002000000140AC7B0608D5
:10C4200010B50C2937D8DFE801F097363636663676
:10C430003636373636360700038C5488B2F80CE0AF
:10C4400023F480531B041B0C0384038CB0F804C03A
:10C45000818B21F4E6414EEA040E0904148823F48A
:10C460000053090C41EA04211B04754C1B0C43EAE0
:10C470000E33A0421FFA8CFC9BB289B200F0AE8052
:10C4800004F58064A04200F0A9809268A0F804C07E
:10C4900081830264038410BD038CB2F80CC05488FD
:10C4A00023F480731B041B0C0384038CB0F804E09A
:10C4B000818B23F400731B044CEA040C21F07301FC
:10C4C0001B0C43EA0C230904B2F800C0090C41EA32
:10C4D0000C0C5B4988421FFA8EFE9BB268D001F5B6
:10C4E0008061884264D09268A0F804E0A0F81CC083
:10C4F000C263038410BD038CB2F80CC0548823F0CF
:10C5000010031B041B0C0384038CB0F804E0018BA4
:10C5100023F020031B044CEA040C21F4E6411B0C1D
:10C5200043EA0C130904B2F800C0090C41EA0C21DB
:10C530001FFA81FC424988421FFA8EFE9BB269D0E5
:10C5400001F58061884265D09268A0F804E0A0F807
:10C5500018C08263038410BD038C5488B2F80CE0C9
:10C5600023F001031B041B0C0384038CB0F804C0EC
:10C57000018B21F073014EEA040E0904148823F0A4
:10C580000203090C1B0421432D4C1B0C43EA0E0330
:10C59000A0421FFA8CFC9BB228D004F58064A04214
:10C5A00024D09268A0F804C001834263038410BDC4
:10C5B000D189548A23F4006343EA0121138A2EF4BB
:10C5C000405E23434EEA031E94884FF6FF330B4030
:10C5D00043EA04231FFA8EFE9BB284E7148A2CF4EC
:10C5E000804C4CEA841C1FFA8CFC4EE7D489B2F8CC
:10C5F00010E023F008032343548A2CF4407C4EEAD5
:10C60000040E948823F004034CEA0E0C1FFA8CFCF1
:10C610002343C6E7D189548A23F0800343EA0111FA
:10C62000138A2EF4406E23434EEA830E94884FF60D
:10C63000BF730B4043EA04131FFA8EFE9BB283E7DD
:10C64000000001402DE9F04FA24BDFF8A49293F8CF
:10C650004A3EA14EA14F8FB0CDE90139013BDBB27B
:10C6600000930025DFF88CB2DFF88CA25B46D3463E
:10C670009A464FEA9A23A3F58013522B4CD83344A1
:10C6800093F8F4330D2B47D8FC56019B012B40F057
:10C690000181012C35D14FF000084146204612F0AF
:10C6A00085FF13F011F8037813B1542B40F0F98093
:10C6B00008F104081FFA88F8B8F1100FEDD14FF017
:10C6C000000E8DB3494600200CE0334493F8F43358
:10C6D0000D2B0ED8FB56A3420ED00130A84201F517
:10C6E00080711EDA8A6813689B0AA3F58013522BA7
:10C6F000EBD90023A342F0D153799BF805209A424D
:10C70000EBD1774B5B454BD05BF81CAF4FEA9A23DC
:10C71000A3F58013522BB2D9009B012BF1D9002431
:10C72000B9E7BEF1000FECD15846FBF72BFEC3B2C0
:10C73000022B9BF805C000F23483431C5BB203EB71
:10C7400043034FEA830E644B664903F5727004E0BD
:10C75000984200F0268353F82C1F5145F8D11A79DE
:10C760006245F5D153F80E40002CF1D05E4800230D
:10C770004268A24203F1010300F08980102B00F10E
:10C780002400F5D14FF0FF33584A03EBC30302EB0B
:10C79000830393F8F830002BB3D1029BC3F808B0A1
:10C7A000029B013503F58073042D02937FF45AAF89
:10C7B000DFF848B10BF59E730027ABF5816A984608
:10C7C000DAF8243ABB425FDDDBF80C50002D5BD079
:10C7D0009BF81030A88802932B68DAF80460019364
:10C7E00003F13F41B0FA80F301F57E010393002E7F
:10C7F000C3F11F034FEA9121009340F3848000238B
:10C8000002E00133B3427BD01C0259F804208A4273
:10C81000F7D14C440099029B8BF810300326013766
:10C82000CBF80410CBF80C50CBF81840AE71EF7178
:10C83000636CE26C0D4649008E401E43012303FAEF
:10C8400001F111439AF800206664E1647AB303FAB7
:10C8500005F11A46236D0B432365019B89B21883AA
:10C86000D4F8A000FBF7CAFD2046FBF71DFF01230B
:10C87000082F8BF81C308BF81D3088F811300BF125
:10C88000200B08F118089BD10FB0BDE8F08FDBB288
:10C89000013B79E7022B7FF4FEAE082C3FF4FBAEA0
:10C8A0002FE74FF0010E002D7FF40CAF29E703991D
:10C8B000C1F12F05009903FA05F58B4099B2236D5C
:10C8C0002B432365019B5883D4F8A000FBF796FD0A
:10C8D000CAE700BF801A0020AC7B0608180D0708C5
:10C8E000888D0608000001406402002088010020B5
:10C8F0000C00001000040140A88C06080C04001075
:10C90000032B00F31F820AEB0623320218690492FC
:10C91000002800F03F8299600131CAB283F80521F6
:10C920000692542283F80421013602680592447964
:10C93000CAF80460FBF726FD934AC3B2022B92F8B3
:10C9400061EE844600F22D82461C76B206EB460666
:10C950008E498F48059AB600002305E00133172B56
:10C9600000F01F8251F82C0F8242F7D10879A042C3
:10C97000F4D188590028F1D02C2101FB03F30CEBF2
:10C980004C0C03EB8C0C814B63441969049B53449E
:10C99000C3E906017F4B00211E461C46636898428E
:10C9A00016D00131102904F12404F7D17A4B93F801
:10C9B000D420002A00F0E7817849794A794BCAF8F7
:10C9C000681ACAF8602ACAF8703A0FB0BDE8F08F4A
:10C9D00001F1010C5FFA8CFC6F4B07960CF1FF3CE8
:10C9E0000CEBCC0C03EB8C0C9CF8F8300593002B73
:10C9F000E2D1049E069B8CF8F930F31103EB26205C
:10CA000000EB001368488C2400EB83003112674B65
:10CA100004FB01F103EB41010AEB0603C3E93C14FB
:10CA20005421019E8CF8F8103321C3F8AC10DE605D
:10CA3000C3F8A8005E4B04999A4209EB010400F088
:10CA40007681534B9A4200F0728103F580439A42FB
:10CA500000F06D8103F580639A4200F0688103F570
:10CA600080639A4200F06381474BD3F8B007BEF170
:10CA7000060F4FEA500000F061814E4B4E49BEF167
:10CA8000070F18BF9C464D4B08BF8C464C4918BF3A
:10CA90001946B0FBF1F1B0FBFCFC1046049A0139D9
:10CAA0000AEB020389B20CF1FF3CA3F8B0C0A3F873
:10CAB00068104FF000060193A165002302F15401B4
:10CAC0004944A4F85C60636551F05EFD019B3D4AFA
:10CAD0001B690193186803889BB243F080030380AD
:10CAE000038809920A210B914FF48072022123F0EE
:10CAF0000103CDE90C121B04ADF828601B0C019E4C
:10CB00000380717909AAFFF78BFC3079002840F087
:10CB10002281049B079E0AEB030200231069D2F8CE
:10CB200018C001680A8892B242F001020A80726855
:10CB3000944503F1010300F00A81102B06F124064D
:10CB4000F5D14FF0FF33144A1F4E03EBC30302EB42
:10CB500083031E4AD3F8DC30B3420CBF4FF40013FA
:10CB60004FF48003166B33431363427918480C2A41
:10CB70009BBF184B03EB42030026B3F80061049BF4
:10CB800053449E8200232EE0801A0020AC7B0608CE
:10CB90000000014064020020880100204566010871
:10CBA000416601084D660108E4280020142C00208D
:10CBB000000401404495080010552200D0DD060015
:10CBC00040771B0060000100006002400038024016
:10CBD00014060010A48C0608914200F0E080013396
:10CBE000042B00F0E18050F83320002AF4D1DAF869
:10CBF0000C260132CAF80C260AEBC302DB00C2F88D
:10CC0000101603446A499A88059816439E80049B2F
:10CC10000AEB030690222346FDF7A6FFB0690268DF
:10CC2000002342F010020260C4E92533A367C4F870
:10CC30008830C4F89C30F26962664FF48062E26723
:10CC400004214FF40032C4E9232140222267D6F8A0
:10CC5000AC206267F268049B1832A2664FF48052DF
:10CC6000C4F88020D6F8A820E26603F164014FF4EE
:10CC700080424944C4F8842051F0E4FBB069049B2D
:10CC8000D0F800E0C4F81CE0D0F814E0C4F820E0CC
:10CC9000D0F804E0C4F824E003F1AC01D0F808E0D7
:10CCA000C4F828E00023D0F80CE0C4F82CE0C4E974
:10CCB0003733C4F8B830C4F8C030C4F8D030C4F842
:10CCC000E430F369C4F8AC304FF48063C4F8C43086
:10CCD0004FF4403C0423C4E935C3D6F8F430C4F81B
:10CCE000BC30F3681033C4F8B0304FF40063C4F8BC
:10CCF000C830D6F8F030C4F8B4304FF48042C4F8ED
:10CD0000CC20494451F09EFBB369A8881A6822637D
:10CD10005A6962635A68A2639A68E263DA682264B5
:10CD20001A6842F010021A602B68019372E5214BD9
:10CD3000BEF1060FD3F8B0077FF49FAEDFF87CC0DA
:10CD40001D49A6E61B4A032382F8603E34E6DBB2A7
:10CD50000593013BF7E60CF0C7FB069038B1019B49
:10CD60000221DA79FEF768F9069B5422DA80019BEA
:10CD70001A68B2F844306FEA43436FEA53439BB2F8
:10CD8000A2F84430C5E6542283F8D420069A83F8EA
:10CD9000D52011E6074A022382F8603E0CE6DB004C
:10CDA0002FE700235B68FFDE00239B88FFDE00BFC8
:10CDB00045840008801A0020A0BB0D00882A1100BD
:10CDC0000C2911D8DFE801F02310101019101010F1
:10CDD000111010100700838B23F400631B041B0C3D
:10CDE00043EA022292B282837047838B23F00803C6
:10CDF0001B041B0C1A4382837047038B23F40063CC
:10CE00001B041B0C43EA022292B202837047038B7D
:10CE100023F008031B041B0C1A430283704700BF56
:10CE20002DE9F04FDFF870B29BF8004087B024B9CD
:10CE30000124204607B0BDE8F08F934ED6F808587D
:10CE40000DF072FC9BF8B43A0390002B00F058826E
:10CE50008E4AA2FB05328E4B5209A3FB0213DB085C
:10CE600003EB8303A2EB4303DAB204920BF23C62BE
:10CE700002EB830300930BF61C1306F1DC04019311
:10CE80004FF00009924635E03B680293009B5C330B
:10CE90000093019B30461433019351F03DFA7A4BD5
:10CEA00002988C2202FB0933002583F8D05079794F
:10CEB0002A46FFF785FF22467979FFF7B1FA79799B
:10CEC0000822FFF77DFF402344F83C3CA4F14801D1
:10CED000304651F0B7FA336843F0100333609BF8E3
:10CEE000B43A09F1010999450AF15C0A04F18C048C
:10CEF00080F2D480DBF83836039AD31A04D454F87D
:10CF0000082C9342C0F2AB815F4B54F8587C266AE0
:10CF10008C2202FB093393F8D030002BB4D039684F
:10CF2000736834F8542C02911FFA83FE8B89CEF17A
:10CF3000160E9BB223EA0203BEF1070F8B81A5D91F
:10CF4000DBF824390133CBF82439A36A05939C46D6
:10CF500000225CF8045B012190461BE0DCF8000035
:10CF6000B8F1140FA0EB05031DDC13F1080548BF51
:10CF700003F117052B1108EB25180546581E013142
:10CF800002FA03F3012282408E4542EA03020CF1C9
:10CF9000040C08D38E45E1D8C8F11503DCF8005025
:10CFA0004FF01508EAE7B8F1150F60D13948C2F320
:10CFB0008423C2F3441100EB830300EB8101D3F817
:10CFC0001C31D1F81C111B0243EA011302F01F01AE
:10CFD00000EB8101C2F3C43200EB8202D1F81C11D4
:10CFE000D2F81C210B4343EA023383EA132282EA7C
:10CFF000121202F00F020F2A39D1C3F30F134FF6AA
:10D00000FF72934233D0B3F5606F00F03681019A1E
:10D0100093819AF85820049DAA4211D00098DAF81A
:10D0200000208168521ACAF80020016BDAF8042047
:10D03000521ACAF804200022826002638AF858500B
:10D04000DAF8002000990132CAF800208A6801321B
:10D050008A604FF6FF7293427FF418AFDAF804301B
:10D060000133CAF804300B6B01330B630EE7DBF8B6
:10D0700020390133CBF82039B9F1000F00F0E580F9
:10D080004FF6FF73C5E700BF801A00201F85EB51E4
:10D09000CDCCCCCCA48C06080400001001228BF867
:10D0A000202ACBF83856002B3FF4C2AE974890F8B0
:10D0B0008C10890700F1BE80D0F884100868497987
:10D0C0008A40018C92B289B221EA02010184018C6A
:10D0D00089B20A43012B02843FF4AAAE8B4991F82E
:10D0E0001821970700F1C080D1F8102110685479F9
:10D0F000018C012289B2A24092B221EA020101848C
:10D10000018C89B20A43022B02843FF491AE7F491D
:10D1100091F8A421960700F1C180D1F89C211068F4
:10D120005479018C012289B2A24092B221EA020113
:10D130000184018C89B20A43032B02843FF478AE48
:10D14000724991F83022950700F1B180D1F8282278
:10D1500010685479018C012289B2A24092B221EA6E
:10D1600002010184018C89B20A43042B02843FF43A
:10D170005FAE664991F8BC22940700F1A180D1F816
:10D18000B42210685479018C012289B2A24092B273
:10D1900021EA02010184018C89B20A43052B028431
:10D1A0003FF446AE594991F84823900700F1918029
:10D1B000D1F8402310685479018C012289B2A24031
:10D1C00092B221EA02010184018C89B20A43062B42
:10D1D00002843FF42DAE4D4991F8D423920700F11B
:10D1E0008180D1F8CC2310685479018C012289B256
:10D1F000A24092B221EA02010184018C89B20A4361
:10D20000082B02847FF414AE404A92F860349B07E6
:10D2100071D5D2F858240423116850790A8C8340C0
:10D220009BB292B222EA03020A840A8C92B213439E
:10D230000B84FDE5354AD2F8842010685479018CBE
:10D240000422A24089B292B23EE7059930485822A2
:10D250005AF0E4FB3B6802934FF6FF73D9E60024D3
:10D26000204607B0BDE8F08F284AD2F81021106898
:10D270005479018C042289B23DE7244991F8DD24D8
:10D2800002EB420201EBC2024A4492F8ED240D2A5D
:10D290007FF4BDAE019980228A77BAE61B4AD2F8A4
:10D2A0009C2110685479018C042289B23CE7174A0A
:10D2B000D2F8282210685479018C042289B24CE7F4
:10D2C000124AD2F8B42210685479018C042289B22F
:10D2D0005CE70E4AD2F8402310685479018C04228E
:10D2E00089B26CE7094AD2F8CC2310685479018CD2
:10D2F000042289B27CE7054BD3F8582401238BE73D
:10D3000001228BF8202ACBF8383692E5801A0020CB
:10D31000CC0900102DE9F04F002299B02F210746CB
:10D3200012F028FA00B3BE4ED0F80080C6F8188E6E
:10D330000446FDF71DFB0246B0B1D0F804C0C6F8A4
:10D3400014CEBCF1000F0FD0B64D0023294648681B
:10D35000844501F1240103F101030FD0102BF6D114
:10D36000B14B93F8D40018B1002019B0BDE8F08F8C
:10D370002F2283F8D42083F8D500F6E7DBB2DFF85C
:10D38000A892013B03EBC30309EB830393F8F8A0D6
:10D39000BAF1000FE8D138469768DFF8C0B22F2203
:10D3A000A3F8F8200CF0A0F82F220346CBF80005D4
:10D3B00020B1DA80E2792A21FDF73EFE9B4A9C49A2
:10D3C000002301E051F83320904500F02281013321
:10D3D0000E2BF7D1002055F055FFD6F8180E954AC0
:10D3E000038823F001031B041B0C9042038000F010
:10D3F00070818E4B984216D003F58043984212D02C
:10D4000003F5806398420ED003F580639842D6F806
:10D41000B0270AD08849B1EB520F4FEA520340F2CD
:10D42000528100210AE0D6F8B027834B9A4280F05F
:10D4300017814FF0010C0021B2FBFCF37F4AADF8DD
:10D4400004101B0A7E49A2FB03231A09A1FB021246
:10D4500052084FF000081B09ABF8FE2401A9520046
:10D460000293ABF8FC24ADF80C80ADF806808DF883
:10D470000E8051F089F8CDE90688CDF82080A37997
:10D48000ADF81480602204929A0740F1AF80DB006F
:10D4900003F00803ADF81E300423ADF81430D6F8BD
:10D4A000180E617904AAFEF7BBFF61790822FFF725
:10D4B00087FCB0F84430D6F8148E6FEA43436FEA25
:10D4C00053439BB2A0F8443003889BB243F08003DF
:10D4D0000380A3796179028C9B074CBF042301234D
:10D4E0008B409BB292B222EA03020284028C92B277
:10D4F0001343038403889BB243F0010303802A464D
:10D5000000235168884502F1240203F101037DD014
:10D51000102BF6D14FF0FF3303EBC30309EB830964
:10D52000484AD9F8DC3048498B420CBF4FF400130D
:10D530004FF48003116B0B43136300236A6890451B
:10D5400005F1240503F101035DD0102BF6D13F490D
:10D55000602200235046FDF707FB404650F0DCFEFA
:10D56000D6F8140E036823F001030025036050F081
:10D57000D3FECDE91455CDE91655D6F8183E0E95D3
:10D5800012956279D6F8140E099734331344304A51
:10D590000B9240220A930C924FF480434FF4805236
:10D5A000CDE9102340F22A414FF440330D911393FB
:10D5B00009A94FF480630F9350F044FF6379D6F8C4
:10D5C000181E0C2B04D8234A02EB4303B3F8005176
:10D5D0008B89D6F8142E9BB21D438D8113680120D0
:10D5E00043F01003136019B0BDE8F08F5B0003F047
:10D5F0000203ADF81C300123ADF812304FF48073F4
:10D60000ADF820304BE75FFA83FAA0E7DBB2013BCD
:10D6100082E7114A02EBC30393F80808DBE600BF78
:10D62000801A0020640200208801002000000140D0
:10D63000B083060800040140006CDC02598B4F01E6
:10D64000ABAAAAAA0038024000600240FD8600088A
:10D6500080670020A48C0608AC7B0608782B00208D
:10D66000254B98420BD003F58043984207D003F531
:10D670008063984203D003F58063984222D102F17F
:10D68000B7731E4903F55853A1FB03139B0D013BD0
:10D6900099B2194B984201F1010C3FF4CDAE03F55C
:10D6A000804398423FF4C8AE03F5806398423FF44C
:10D6B000C3AE03F5806398423FF4BEAE5308B3FB9C
:10D6C000FCF3BBE6530803F1B7730C4903F5585359
:10D6D000DAE7D6F8B0270A4B9A42FFF4AAAE074918
:10D6E00002F1B77303F55853A1FB03139B0D013BE4
:10D6F00099B201F1010C9FE600000140819F5E1686
:10D70000006CDC02F0B50C4689B03C49BDF83860CD
:10D710009DF83C70013B054620689BB2049388420B
:10D720004FF00003ADF81430ADF80E308DF8163020
:10D7300013D0334B984210D003F5804398420CD05D
:10D7400003F58063984208D003F58063984204D0C3
:10D750002C4BD3F8B0375B0802E02A4BD3F8B03734
:10D76000B3FBF2F203A9013AADF80C2050F00CFF24
:10D7700020686179A3790FB183F001030022CDE91C
:10D780000622ADF81020602203929A0729D5DB000B
:10D7900003F00803ADF81A300423ADF8103003AAE3
:10D7A00001910596FEF73CFE01990822FFF708FB60
:10D7B0002268B2F844306FEA43436FEA53439BB2A6
:10D7C000A2F84430138811469BB243F0010321F8BC
:10D7D000343B63796A60C81800222860CA5009B0D7
:10D7E000F0BD5B0003F00203ADF818300123ADF883
:10D7F0000E304FF48073ADF81C30D0E700040140C8
:10D8000000000140801A002010B4104A92F8AC3792
:10D8100003F0FF01002BF9D10D4B0E4CD3F804059A
:10D8200054F8984CB3F818354FF0010C82F8ACC797
:10D830004360616223889BB243EA0C032380036840
:10D840005DF8044B43EA0C0303607047801A002024
:10D85000782B0020703C00200B4B13F8802C53F8E1
:10D86000903C3AB113B11A689B885383074B00224E
:10D870001A827047002BF9D01A689B881383034BD8
:10D8800000221A82704700BF703C00200010004048
:10D890000B4B13F8802C53F8903C3AB113B11A6833
:10D8A0009B881383074B00221A827047002BF9D004
:10D8B0001A689B885383034B00221A82704700BF6B
:10D8C000703C00200014004070B5384C14F8745CB3
:10D8D00084B00DB904B070BD14F8733C04F8803CFA
:10D8E00028460BF001FE44F8900C08B13823C380A1
:10D8F00014F87C6C6EB3012EECD13146FDF75EFA64
:10D9000014F8803C002B49D154F8903C13B11A68AC
:10D910009B881383264D4FF4E072D5F89C3144F870
:10D92000842C03A8012204F8942C039350F0DEFC0D
:10D93000D5F8A031029302A850F0D8FC1D491E4C26
:10D940000B6C1E48002243F030030B6422850285D5
